:100000000C946D000C9495000C9495000C94950044
:100010000C9495000C9495000C9495000C9495000C
:100020000C9495000C9495000C9495000C949500FC
:100030000C9495000C9495000C9495000C949500EC
:100040000C94E4040C9495000C9406020C94E001CA
:100050000C9495000C9495000C9495000C949500CC
:100060000C9435050C949500740A7D0A7D0A880A63
:10007000930A9E0AB10AC80ACD0AE20A00000000EB
:10008000250028002B0000000000240027002A0083
:1000900000000000230026002900040404040404D6
:1000A0000404020202020202030303030303010227
:1000B00004081020408001020408102001020408F6
:1000C00010200000000800020100000304070000E7
:1000D0000000000000009F0B990B11241FBECFEF02
:1000E000D8E0DEBFCDBF23E0ACE9B1E001C01D9296
:1000F000A132B207E1F711E0A0E0B1E0ECEEF1E2ED
:1001000002C005900D92AC39B107D9F710E0CCE6EA
:10011000D0E004C02197FE010E94CE0ECB36D1075D
:10012000C9F70E94A9080C94E9100C9400000895E6
:10013000CF92DF92EF92FF920F931F93CF93DF93B3
:100140006C017A018B01C0E0D0E0CE15DF0589F0AB
:10015000D8016D918D01D601ED91FC910190F08156
:10016000E02DC6010995892B11F47E0102C021966C
:10017000ECCFC701DF91CF911F910F91FF90EF90CE
:10018000DF90CF900895FC01538D448D252F30E0F2
:10019000842F90E0821B930B541710F0CF96089594
:1001A00001970895FC01918D828D981761F0828DE1
:1001B000DF01A80FB11D5D968C91928D9F5F9F739B
:1001C000928F90E008958FEF9FEF0895FC01918D3D
:1001D000828D981731F0828DE80FF11D858D90E0AA
:1001E00008958FEF9FEF0895FC01918D228D892F47
:1001F00090E0805C9F4F821B91098F73992708952F
:1002000089E692E00E94F40021E0892B09F420E0C5
:10021000822F0895FC01848DDF01A80FB11DA35A20
:10022000BF4F2C91848D90E001968F739927848F16
:10023000A689B7892C93A089B1898C9180648C930D
:10024000938D848D981306C00288F389E02D8081F8
:100250008F7D80830895EF92FF920F931F93CF932A
:10026000DF93EC0181E0888F9B8D8C8D981305C006
:10027000E889F989808185FD24C0F62E0B8D10E078
:100280000F5F1F4F0F731127E02E8C8DE8120CC0EB
:100290000FB607FCFACFE889F989808185FFF5CF91
:1002A000CE010E940A01F1CF8B8DFE01E80FF11DF6
:1002B000E35AFF4FF0820B8FEA89FB8980818062CD
:1002C00007C0EE89FF896083E889F98980818064AD
:1002D000808381E090E0DF91CF911F910F91FF909B
:1002E000EF900895CF93DF93EC01888D8823C9F0B8
:1002F000EA89FB89808185FD05C0A889B9898C912F
:1003000086FD0FC00FB607FCF5CF808185FFF2CFC9
:10031000A889B9898C9185FFEDCFCE010E940A0191
:10032000E7CFDF91CF91089580E090E0892B29F00D
:100330000E94000181110C94000008950E94CB10CE
:10034000EF92FF920F931F93CF93DF93EC017B010A
:100350008A0188819981009729F02A813B8124179D
:100360003507F8F4B8016F5F7F4F0E9401100097C6
:1003700059F0998388831B830A832C813D81232B29
:1003800081F4FC0110820DC088819981009711F0E1
:100390000E94690F198218821D821C821B821A8298
:1003A00007C01D830C83B701888199810E94E210E8
:1003B000CE01DF91CF911F910F91FF90EF900895A3
:1003C0001F920F920FB60F9211242F933F934F93CA
:1003D0005F936F937F938F939F93AF93BF93EF93AD
:1003E000FF9389E692E00E940A01FF91EF91BF918D
:1003F000AF919F918F917F916F915F914F913F91BD
:100400002F910F900FBE0F901F9018951F920F9273
:100410000FB60F9211242F938F939F93EF93FF9317
:10042000E0917902F0917A028081E0917F02F0916F
:10043000800282FD12C09081809182028F5F8F7353
:1004400020918302821751F0E0918202F0E0E75997
:10045000FD4F958F8093820201C08081FF91EF91C3
:100460009F918F912F910F900FBE0F901F90189515
:100470003FB7F8948091180290911902A0911A0246
:10048000B0911B0226B5A89B05C02F3F19F001961D
:10049000A11DB11D3FBFBA2FA92F982F8827820F0A
:1004A000911DA11DB11DBC01CD0142E0660F771F5A
:1004B000881F991F4A95D1F7089585ED8093BC0058
:1004C0008091BC0084FDFCCF1092420208954091BF
:1004D000F001262F30E0240F311D21323105DCF4EC
:1004E000209142022430C9F4FC0180E090E086179C
:1004F00058F43091F0012191DC01A053BE4FA30FBD
:10050000B11D2C930196F3CF8091F001680F609399
:10051000F00180E0089581E0089582E00895E0917F
:10052000CE01F091CF01309729F01092660210921F
:10053000650209940895AC01E091A001F091A10138
:100540003097E1F090914402809143029817B0F007
:1005500090E0292F30E02617370754F4DA01A20F74
:10056000B31F8C91D901AB5BBD4F8C939F5FF1CFD3
:100570001092440260934302CB01099408950895B8
:10058000E091440280914302E81730F4F0E0EB5B25
:10059000FD4F808190E008958FEF9FEF0895909137
:1005A000440280914302981750F4E92FF0E0EB5B8E
:1005B000FD4F208130E09F5F9093440202C02FEFF7
:1005C0003FEFC90108958091430290E020914402D9
:1005D000821B91090895CF92DF92EF92FF920F93C1
:1005E0001F93CF93DF937C01262F972F8A01809151
:1005F0006802882391F0C62FD72F6E01C40ED51E36
:10060000CC15DD0571F06991D701ED91FC91019058
:10061000F081E02DC7010995F3CF642F822F0E944E
:100620006702C801DF91CF911F910F91FF90EF906A
:10063000DF90CF900895CF93DF931F92CDB7DEB7B1
:100640006983209168022223D1F020916502203233
:1006500040F021E030E0FC013383228380E090E031
:1006600015C080916602E82FF0E0E255FE4F9981B7
:1006700090838F5F809366028093650205C061E07E
:10068000CE0101960E94670281E090E00F90DF9119
:10069000CF910895089580E090E00895CF93DF937F
:1006A000CDB7DEB728970FB6F894DEBF0FBECDBF2B
:1006B0009091430280914402981749F086E093E0BC
:1006C0000E94CF029093AD018093AC01F1CF809155
:1006D000AC011A8219821C821B821E821D828F83AA
:1006E0001886BE01695F7F4FFB0101900020E9F78A
:1006F0003197AF01461B570BCE0101960E94A00116
:1007000080911403909115030097C9F069817A8153
:100710006115710591F040911603509117032D81D9
:100720003E814217530748F00E94E2108D819E815E
:10073000909319038093180318C00E94690F898150
:100740009A8190931503809314038B819C819093DD
:100750001703809316038D819E81909319038093D4
:1007600018031A8219821C821B821E821D828981B3
:100770009A810E94690F409118035091190360916A
:1007800014037091150389E692E00E94980084E8B2
:1007900091E00E943208882321F01092A301109268
:1007A000A20187E891E00E943208882331F081E0BD
:1007B00090E09093A3018093A20183E791E00E94CF
:1007C0003208882331F082E090E09093A301809377
:1007D000A20185E791E00E943208882331F083E08E
:1007E00090E09093A3018093A20187E791E00E949B
:1007F0003208882331F084E090E09093A301809345
:10080000A20189E791E00E943208882331F085E057
:1008100090E09093A3018093A2018BE791E00E9466
:100820003208882331F086E090E09093A301809312
:10083000A2018DE791E00E943208882331F087E021
:1008400090E09093A3018093A2018FE791E00E9432
:100850003208882331F088E090E09093A3018093E0
:10086000A20181E891E00E943208882331F089E0FA
:1008700090E09093A3018093A20183E891E00E940D
:100880003208882331F08AE090E09093A3018093AE
:10089000A20186E891E00E943208882331F08BE0C3
:1008A00090E09093A3018093A20128960FB6F8944C
:1008B000DEBF0FBECDBFDF91CF91089590E0FC0168
:1008C000EE53FF4F3491FC01E255FF4F2491FC01A0
:1008D000E656FF4FE491EE2309F43BC0332339F190
:1008E000333091F038F43130A9F0323001F584B56D
:1008F0008F7D12C0373091F03830A1F03430B9F428
:10090000809180008F7D03C0809180008F778093DD
:1009100080000DC084B58F7784BD09C08091B00080
:100920008F7703C08091B0008F7D8093B000F0E09E
:10093000EE0FFF1FE458FF4FA591B4918FB7F894C5
:10094000EC91611103C020952E2301C02E2B2C9316
:100950008FBF08958F929F92AF92BF92CF92DF92F6
:10096000EF92FF926B017C010E9438024B015C0107
:10097000C114D104E104F104F1F00E943802DC0159
:10098000CB0188199909AA09BB09883E9340A105A2
:10099000B10570F321E0C21AD108E108F10888EE30
:1009A000880E83E0981EA11CB11CC114D104E1047F
:1009B000F10419F7DDCFFF90EF90DF90CF90BF905B
:1009C000AF909F908F9008951F920F920FB60F9245
:1009D00011242F933F938F939F93AF93BF93809155
:1009E000140290911502A0911602B0911702309155
:1009F000130223E0230F2D3720F40196A11DB11D12
:100A000005C026E8230F0296A11DB11D20931302F5
:100A10008093140290931502A0931602B0931702CC
:100A20008091180290911902A0911A02B0911B02B4
:100A30000196A11DB11D8093180290931902A093F5
:100A40001A02B0931B02BF91AF919F918F913F917A
:100A50002F910F900FBE0F901F901895DC01ED9114
:100A6000FC910190F081E02D09941F920F920FB636
:100A70000F9211242F933F934F935F936F937F9324
:100A80008F939F93AF93BF93EF93FF938091B900A0
:100A9000887F803609F49CC068F5883209F45BC011
:100AA00090F4803109F454C038F4882309F4F6C076
:100AB000883009F44DC0F6C0883109F44CC080324A
:100AC00009F45DC0EFC0803409F468C048F4803395
:100AD00009F455C0883309F0E5C080934002D8C0BE
:100AE000803509F44FC0883509F45DC0883409F0B9
:100AF000D9C0D6C0883909F4C7C0A8F4883709F42A
:100B000067C038F4883609F463C0803709F460C0E0
:100B1000C9C0883809F4B8C0803909F45FC080388A
:100B200009F0C0C05BC0803B09F486C038F4803A4D
:100B300009F466C0883A09F47FC0B4C0803C09F467
:100B4000A7C0883C09F4A4C0883B09F48AC0AAC0A5
:100B500080913D0210C090913F0280913E02981713
:100B600070F5E0913F0281E08E0F80933F02F0E04C
:100B7000E45EFD4F80818093BB0085EC86C080934E
:100B800040028EC0E0913F0281E08E0F80933F02D1
:100B90008091BB00F0E0E45EFD4F808390913F02C6
:100BA00080913E026EC0E0913F0281E08E0F809303
:100BB0003F028091BB00F0E0E45EFD4F80838091B6
:100BC000410281116DC081E080933C0284EA61C0E2
:100BD00083E08093420210921202CFCF80911202E2
:100BE000803208F051C0E091120281E08E0F8093B4
:100BF00012028091BB00F0E0EE50FE4F8083BDCF2B
:100C000085EC8093BC0010924202809112028032E7
:100C100030F4E0911202F0E0EE50FE4F108260914D
:100C2000120270E0E0919C01F0919D0182EF91E051
:100C300009951092120236C084E08093420210920D
:100C4000F1011092F001E0919E01F0919F01099550
:100C50008091F001811105C081E08093F001109234
:100C6000D001E091F10181E08E0F8093F101F0E07D
:100C7000E053FE4F80818093BB009091F101809101
:100C8000F001981708F479CF85E88093BC000AC07A
:100C900085EC8093BC001092420204C01092400286
:100CA0000E945D02FF91EF91BF91AF919F918F9153
:100CB0007F916F915F914F913F912F910F900FBE58
:100CC0000F901F9018951092420281E0809341028C
:100CD00010923C0261E082E10E945E0461E083E1E7
:100CE0000E945E04E9EBF0E080818E7F808380814A
:100CF0008D7F808388E48093B80085E48093BC0076
:100D000008952091650290916702213208F04AC04F
:100D1000809142028111FCCF32E03093420231E0F7
:100D2000309341023FEF3093400210923F022093F4
:100D30003E02AEEAB1E04CE152E0FA013E2F341B34
:100D4000321718F43D913193F9CF10923D02209162
:100D50003D02990F922B90933D0290913C0291306D
:100D600061F410923C0290913D029093BB009091EF
:100D7000BC0093FDF8CF95EC01C095EE9093BC00BC
:100D8000909142029230E1F3909140029F3F79F0BE
:100D900080914002803241F080914002803331F0F6
:100DA00084E005C081E003C082E001C083E01092CE
:100DB000660210926502109268020895FB019C0180
:100DC000220F331FD901A75DBE4F4D915C91BA012F
:100DD0006E0F7F1F6835A2E07A0764F44E1B5F0B2D
:100DE000473951053CF0F901E75FFE4F718360839D
:100DF0000C94170789E891E00C9452080F931F9305
:100E0000CF938C01C0E068E770E080E090E00E9442
:100E1000AA04F801619171918F018C2F0E9417072C
:100E2000CF5FC83081F7CF911F910F9108950F9335
:100E30001F93CF93DF938B01CAE1D3E0988121E028
:100E400020936802909367021092660210926502E6
:100E5000A981BA81ED91FC91119724E0829FC00194
:100E60001124BC016A5F7F4F0190F081E02DCD011C
:100E7000099560E070E089819A810E942E0560E00A
:100E800070E089819A810E942E05B80189819A813A
:100E90000E942E05612F70E089819A810E942E05A3
:100EA00089819A81DF91CF911F910F910C948106D6
:100EB0001F93CF93DF93162FCAE1D3E0988121E0EF
:100EC0002093680290936702109266021092650266
:100ED000A981BA81ED91FC9111970190F081E02DEB
:100EE000682FCD01099589819A81DC01ED91FC91F2
:100EF0000190F081E02D612F099589819A81DF9120
:100F0000CF911F910C948106CF93DF9326E636E6AE
:100F100046E65FE30E944A0C9B01AC0160E27CEB79
:100F20008EEB95E40E94AC0D20E030E040E85FE3FA
:100F30000E943F0D20E030E040E05FE30E94400D62
:100F40000E94540E0E94250ED62F80911A0391E024
:100F50009093680280936702109266021092650275
:100F600080911B0390911C03DC01ED91FC91019099
:100F7000F081E02D60E0099580911B0390911C03A6
:100F80000E94810680911A03909142029111FCCF38
:100F900091E090934202909341022FEF2093400200
:100FA00010923F0210923E0290933D0290913D02BA
:100FB000880F892B80933D0280913C02813061F43F
:100FC00010923C0280913D028093BB008091BC0056
:100FD00083FDF8CF85EC01C085EE8093BC00809145
:100FE00042028130E1F380913F02811103C0809180
:100FF0003F0201C081E0ACE1B2E025E432E0F9015A
:101000009E2F921B981718F49D919193F9CF1092EF
:1010100044028093430280911B0390911C03DC01E6
:10102000ED91FC910284F385E02D0995C82F8F7610
:10103000682F606180E00E9458076D2F8EEF0E943C
:1010400058076C2F80E00E94580765E070E080E050
:1010500090E00E94AA046C2F606A80E0DF91CF913B
:101060000C945807FC018091180390911903892B67
:1010700021F421E0309749F413C08091140390913A
:101080001503309731F421E0FC018081882341F081
:1010900006C0BF010E94D91021E0892B09F020E091
:1010A000822F0895009769F0FC0101900020E9F774
:1010B0003197AF01481B590BBC0189E692E00C94B3
:1010C000980080E090E00895CF92DF92EF92FF9237
:1010D0000F931F93E82FF92F05C001501109210923
:1010E000310961F1908196239417B9F305C001503D
:1010F00011092109310911F1908196239413F7CF39
:10110000C12CD12CE12CF12C0AC08FEFC81AD80ABF
:10111000E80AF80A0C151D052E053F0579F08081B7
:101120008623841791F36C2D7D2D8E2D9F2D1F917D
:101130000F91FF90EF90DF90CF90089560E070E006
:1011400080E090E01F910F91FF90EF90DF90CF90A3
:101150000895CF93DF93CDB7DEB7A1970FB6F8947C
:10116000DEBF0FBECDBF789484B5826084BD84B5E8
:10117000816084BD85B5826085BD85B5816085BD92
:1011800080916E00816080936E001092810080914A
:1011900081008260809381008091810081608093D2
:1011A0008100809180008160809380008091B100F7
:1011B00084608093B1008091B00081608093B00022
:1011C00080917A00846080937A0080917A008260B6
:1011D00080937A0080917A00816080937A00809178
:1011E0007A00806880937A001092C10010924402C5
:1011F0001092430210926602109265020E946306EA
:1012000060E880E00E9458076AE070E080E090E0CB
:101210000E94AA0460E070E08AE794E40E948407D8
:1012200060E070E080E792E40E94840783E08093AE
:101230000001E4EBF0E02491E0EAF0E084918823FF
:1012400099F090E0880F991FFC01EA57FF4FA59194
:10125000B491FC01E458FF4F859194918FB7F894B5
:10126000EC91E22BEC938FBFE3EBF0E02491EFE9FC
:10127000F0E084918823C9F090E0880F991FFC0169
:10128000EA57FF4F45915491FC01E458FF4FA59157
:10129000B4919FB7F894FA018081209582238083CE
:1012A0008C91E22FE823EC939FBFE0917902F091BB
:1012B0007A0282E08083E0917502F09176021082DA
:1012C000E0917702F09178028FEC80831092810296
:1012D000E0917D02F0917E0286E08083E0917B02C6
:1012E000F0917C02808180618083E0917B02F091AB
:1012F0007C02808188608083E0917B02F0917C0297
:10130000808180688083E0917B02F0917C02808103
:101310008F7D808388E08093BA008FE892E090937D
:101320009F0180939E018BE992E090939D018093B1
:101330009C01109244021092430210926602109295
:1013400065020E9463068EE493E09093A10180936E
:10135000A0016AE070E080E090E00E94AA0493E0BF
:10136000C92ED12C2FE9622E20E0722E3AE0232ED6
:10137000312C412C512CEE24EA94FE2C60E086E0C6
:101380000E945E04C6010197F1F761E086E00E94C9
:101390005E0483E290E00197F1F760E086E00E944E
:1013A0005E04E3EBF0E06491F3018491E82FF0E058
:1013B000EE0FFF1FE057FF4F8591949100E412E478
:1013C0002FE030E0462F0E94640861157105810509
:1013D000910549F0DC01CB010196A11DB11DBC01B5
:1013E000CD019F7003C060E070E0CB016093A40169
:1013F0007093A5018093A6019093A7010E940F0C02
:1014000026E933E44BE05DE30E944A0C20E030E043
:1014100040E05FE30E944A0C0E941E0E7093A901F7
:101420006093A80185E691E00E9452082091A801EE
:101430003091A9014901330FAA08BB08B7FE26C0A5
:10144000E0916902F0916A020190F081E02D6DE275
:1014500089E692E0099522273327A901281939093D
:101460004A095B0919A28E010F5D1F4FCA01B9011C
:10147000A20191010E94AC0E605DF80162938F01A0
:10148000211531054105510589F715C0A5019401C4
:1014900019A28E010F5D1F4FCA01B901A20191016E
:1014A0000E94AC0E605DF80162938F012115310539
:1014B0004105510589F7C8010E94520880E791E073
:1014C0000E9452086091A80186E093E00E941B03ED
:1014D000E091A201F091A301EA30F10508F0A2C069
:1014E000EC5CFF4F0C94CE0E1092AB011092AA014F
:1014F00089E291E00E94FE0619C181E090E090939C
:10150000020180930101F0920401E092030133C0D3
:1015100081E090E09093020180930101F092040138
:10152000E092030115C0F0920201E0920101F092F5
:101530000401E092030181E090E01DC0F0920201FD
:10154000E092010181E090E0909304018093030117
:10155000F0920601E0920501909308018093070143
:1015600012C0F0920201E092010181E090E09093BC
:101570000401809303019093060180930501F0928A
:101580000801E09207019093AB018093AA014AC041
:1015900089E191E00E94FE0641C060E070E081E0D8
:1015A00090E00E94DE0660E070E088E090E00E943B
:1015B000DE0660E070E085E090E00E94DE0660E01C
:1015C00070E028C0609112037091130371956195CA
:1015D000710981E090E00E94DE0660911203709133
:1015E000130371956195710988E090E00E94DE0611
:1015F000609112037091130371956195710985E0F3
:1016000090E00E94DE0660911203709113037195C1
:101610006195710987E090E00E94DE061092AB01AF
:101620001092AA018091AA019091AB011816190697
:101630000CF07CC068E572E084E00E94170768E562
:1016400072E086E00E94170768E770E080E090E0B3
:101650000E94AA0466E970E080E00E94170708E58E
:1016600012E08091120390911303B801681B790B6B
:1016700081E00E94170760911203709113036A566C
:101680007F4F82E00E94170768E572E083E00E94C6
:10169000170768E770E080E090E00E94AA0466E91E
:1016A00070E084E00E94170766E970E086E00E941F
:1016B000170766E970E085E00E94170766E970E0A9
:1016C00087E00E94170768E770E080E090E00E94E2
:1016D000AA0460911203709113036A567F4F80E051
:1016E0000E94170768E572E081E00E94170766E92B
:1016F00070E082E00E94170780911203909113031B
:10170000B801681B790B83E00E94170768E770E057
:1017100080E090E00E94AA0468E572E085E00E9403
:10172000170768E572E087E00E9417070E9494019E
:1017300025CE80911403909115030C94690FE9E66E
:10174000F2E01382128288EE93E0A0E0B0E084839E
:101750009583A683B78323E431E03183208325EC8E
:1017600030E03587248724EC30E03787268720EC6B
:1017700030E0318B208B21EC30E0338B228B22EC5C
:1017800030E0358B248B26EC30E0378B268B118EA6
:10179000128E138E148EE6E0F3E01382128284839D
:1017A0009583A683B78385E591E091838083AAE141
:1017B000B3E080E48C931296FC93EE931197E4E1EE
:1017C000F3E011821082138212821582148240E0AB
:1017D00050E062E771E0CF010E94A00180EE90E04E
:1017E0009093130380931203E9E2F1E026E731E0DE
:1017F0003183208388E791E0938382833583248338
:1018000097838683E9E1F1E03183208393838283A8
:1018100035832483978386830895E89409C097FBD2
:101820003EF490958095709561957F4F8F4F9F4FB7
:101830009923A9F0F92F96E9BB279395F6958795FB
:1018400077956795B795F111F8CFFAF4BB0F11F4BE
:1018500060FF1BC06F5F7F4F8F4F9F4F16C0882365
:1018600011F096E911C0772321F09EE8872F762F9B
:1018700005C0662371F096E8862F70E060E02AF0DC
:101880009A95660F771F881FDAF7880F96958795C8
:1018900097F908950E945D0C0C94CE0C0E94C00C28
:1018A00038F00E94C70C20F0952311F00C94B70C6F
:1018B0000C94BD0C11240C94020D0E94DF0C70F3EB
:1018C000959FC1F3950F50E0551F629FF001729FE5
:1018D000BB27F00DB11D639FAA27F00DB11DAA1FF4
:1018E000649F6627B00DA11D661F829F2227B00D41
:1018F000A11D621F739FB00DA11D621F839FA00DCC
:10190000611D221F749F3327A00D611D231F849F1B
:10191000600D211D822F762F6A2F11249F57504072
:101920009AF0F1F088234AF0EE0FFF1FBB1F661FED
:10193000771F881F91505040A9F79E3F510580F0B6
:101940000C94B70C0C94020D5F3FE4F3983ED4F373
:10195000869577956795B795F795E7959F5FC1F75A
:10196000FE2B880F911D9695879597F9089597F905
:101970009F6780E870E060E008959FEF80EC089535
:1019800000240A941616170618060906089500245E
:101990000A9412161306140605060895092E0394D8
:1019A000000C11F4882352F0BB0F40F4BF2B11F44C
:1019B00060FF04C06F5F7F4F8F4F9F4F089557FDAB
:1019C0009058440F551F59F05F3F71F04795880FAD
:1019D00097FB991F61F09F3F79F087950895121644
:1019E00013061406551FF2CF4695F1DF08C01616F0
:1019F00017061806991FF1CF8695710561050894A1
:101A00000895E894BB2766277727CB0197F90895B7
:101A10002F923F924F925F926F927F928F929F92FE
:101A2000AF92BF92CF92DF92EF92FF920F931F93EC
:101A3000CF93DF93CDB7DEB7CA1BDB0B0FB6F8949D
:101A4000DEBF0FBECDBF09942A88398848885F84DD
:101A50006E847D848C849B84AA84B984C884DF804E
:101A6000EE80FD800C811B81AA81B981CE0FD11D32
:101A70000FB6F894DEBF0FBECDBFED0108955058EC
:101A8000BB27AA270E94570D0C94CE0C0E94C00CB5
:101A900038F00E94C70C20F039F49F3F19F426F467
:101AA0000C94BD0C0EF4E095E7FB0C94B70CE92FF9
:101AB0000E94DF0C58F3BA17620773078407950773
:101AC00020F079F4A6F50C94010D0EF4E0950B2EA0
:101AD000BA2FA02D0B01B90190010C01CA01A00180
:101AE0001124FF27591B99F0593F50F4503E68F1DB
:101AF0001A16F040A22F232F342F4427585FF3CF1C
:101B0000469537952795A795F0405395C9F77EF4EC
:101B10001F16BA0B620B730B840BBAF09150A1F035
:101B2000FF0FBB1F661F771F881FC2F70EC0BA0FBB
:101B3000621F731F841F48F4879577956795B79543
:101B4000F7959E3F08F0B0CF9395880F08F099273E
:101B5000EE0F9795879508950E94C00D0C94CE0CBA
:101B60000E94C70C58F00E94C00C40F029F45F3F5F
:101B700029F00C94B70C51110C94020D0C94BD0C6F
:101B80000E94DF0C68F39923B1F3552391F3951B61
:101B9000550BBB27AA2762177307840738F09F5F8E
:101BA0005F4F220F331F441FAA1FA9F335D00E2EFB
:101BB0003AF0E0E832D091505040E695001CCAF768
:101BC0002BD0FE2F29D0660F771F881FBB1F26172B
:101BD00037074807AB07B0E809F0BB0B802DBF0102
:101BE000FF2793585F4F3AF09E3F510578F00C94D1
:101BF000B70C0C94020D5F3FE4F3983ED4F3869546
:101C000077956795B795F7959F5FC9F7880F911DF1
:101C10009695879597F90895E1E0660F771F881FDD
:101C2000BB1F621773078407BA0720F0621B730B90
:101C3000840BBA0BEE1F88F7E09508950E94250EDD
:101C40006894B1110C94020D08950E94E70C88F07D
:101C50009F5798F0B92F9927B751B0F0E1F0660F70
:101C6000771F881F991F1AF0BA95C9F714C0B130B1
:101C700091F00E94010DB1E008950C94010D672FC1
:101C8000782F8827B85F39F0B93FCCF386957795E0
:101C90006795B395D9F73EF49095809570956195C9
:101CA0007F4F8F4F9F4F08950E94940E90F09F3763
:101CB00048F4911116F00C94020D60E070E080E899
:101CC0009FEB089526F41B16611D711D811D0C9458
:101CD0006B0E0C94860E882371F4772321F09850B4
:101CE000872B762F07C0662311F499270DC09051DA
:101CF000862B70E060E02AF09A95660F771F881FA8
:101D0000DAF7880F9695879597F908959F3F31F0F8
:101D1000915020F4879577956795B795880F911D19
:101D20009695879597F908950E94E70CA0F0BEE775
:101D3000B91788F4BB279F3860F41616B11D672FBA
:101D4000782F8827985FF7CF869577956795B11D8F
:101D500093959639C8F30895A1E21A2EAA1BBB1BCE
:101D6000FD010DC0AA1FBB1FEE1FFF1FA217B30767
:101D7000E407F50720F0A21BB30BE40BF50B661F7D
:101D8000771F881F991F1A9469F760957095809541
:101D900090959B01AC01BD01CF010895EE0FFF1F8F
:101DA0000590F491E02D0994CF93DF938230910553
:101DB00010F482E090E0E0911F03F091200320E016
:101DC00030E0C0E0D0E0309711F1408151814817F8
:101DD0005907C0F04817590761F482819381209711
:101DE00019F09B838A832BC09093200380931F0359
:101DF00026C02115310519F04217530718F49A012E
:101E0000BE01DF01EF010280F381E02DDCCF21155F
:101E1000310509F1281B390B2430310590F4129655
:101E20008D919C9113976115710521F0FB019383AE
:101E3000828304C09093200380931F03FD01329698
:101E400044C0FD01E20FF31F8193919322503109A9
:101E50002D933C933AC020911D0330911E03232BF8
:101E600041F420913B0130913C0130931E032093BB
:101E70001D032091390130913A012115310541F4BA
:101E80002DB73EB740913D0150913E01241B350BCB
:101E9000E0911D03F0911E03E217F307A0F42E1B3F
:101EA0003F0B2817390778F0AC014E5F5F4F2417BE
:101EB000350748F04E0F5F1F50931E0340931D03DC
:101EC0008193919302C0E0E0F0E0CF01DF91CF91E8
:101ED00008950F931F93CF93DF93009709F48CC05D
:101EE000FC0132971382128200911F03109120038C
:101EF0000115110581F420813181820F931F2091FA
:101F00001D0330911E032817390779F5F0931E033E
:101F1000E0931D0371C0D80140E050E0AE17BF0749
:101F200050F412962D913C911397AD012115310576
:101F300009F1D901F3CF9D01DA0133832283608156
:101F40007181860F971F8217930769F4EC0128812E
:101F50003981260F371F2E5F3F4F318320838A81BF
:101F60009B8193838283452B29F4F0932003E09394
:101F70001F0342C01396FC93EE931297ED01499113
:101F800059919E01240F351FE217F30771F48081E8
:101F90009181840F951F029611969C938E93828156
:101FA000938113969C938E931297E0E0F0E0D80112
:101FB00012968D919C911397009719F0F8018C015E
:101FC000F6CF8D919C9198012E5F3F4F820F931F0A
:101FD00020911D0330911E032817390769F43097AB
:101FE00029F41092200310921F0302C01382128260
:101FF00010931E0300931D03DF91CF911F910F914A
:102000000895A0E0B0E0E7E0F0E10C940C0DEC01E5
:10201000009721F4CB010E94D40EB8C0FC01E60F5A
:10202000F71F9C0122503109E217F30708F4ACC0F6
:10203000D9010D911C91119706171707B0F00530C3
:10204000110508F49FC0C80104978617970708F484
:1020500099C002501109061B170B019311936D9340
:102060007C93CF010E94690F8DC05B01A01AB10A59
:102070004C01800E911EA0911F03B091200340E0FF
:1020800050E0E12CF12C109709F44AC0A815B905CD
:10209000D1F56D907C901197630182E0C80ED11C40
:1020A000CA14DB0480F1A3014A195B096A0182E0CA
:1020B000C80ED11C1296BC9012971396AC91B5E045
:1020C000CB16D10440F0B282A38351834083D9015F
:1020D0006D937C930AC00E5F1F4FC301800F911F49
:1020E000F90191838083EB2DFA2FE114F10431F093
:1020F000D7011396FC93EE93129744C0F0932003FC
:10210000E0931F033FC08D919C9111974817590789
:1021100008F4AC017D0112960D90BC91A02DB3CFB7
:1021200080911D0390911E0388159905E1F44617CF
:102130005707C8F48091390190913A01009741F412
:102140008DB79EB740913D0150913E01841B950B88
:10215000E817F907C8F4F0931E03E0931D03F90193
:10216000718360830FC0CB010E94D40E7C01009765
:1021700059F0A801BE010E94D010CE010E94690F43
:10218000C70104C0CE0102C080E090E0CDB7DEB749
:10219000EEE00C94280D81E090E0F8940C94E910A6
:1021A000FB01DC0102C001900D9241505040D8F774
:1021B0000895FB01DC018D91019080190110D9F384
:1021C000990B0895FB01DC0101900D920020E1F7CD
:1021D000089510E0CCE6D0E004C0FE010E94CE0ECF
:0C21E0002196CD36D107C9F7F894FFCF47
:1021EC00010100FFFF0100FFFF9600580296005806
:1021FC0002960058029600580200000000000000F1
:10220C0000580296005802960000000000000000E2
:10221C00009600580296005802000021038000002E
:10222C000000002B019800C3007201F400D200E6FC
:10223C0000000000001B03EB024B03BF02E302CFC4
:10224C0002C002700044697374616E63653A2000C9
:10225C000D0A0032003300340035003600370038E8
:10226C0000390031300031310062696767657220D6
:0C227C006F7220736D616C6C6572210044
:00000001FF
