:100000000C9471000C9499000C9499000C94990034
:100010000C9499000C9499000C9499000C949900FC
:100020000C9499000C9499000C9499000C949900EC
:100030000C9499000C9499000C9499000C949900DC
:100040000C9492040C9499000C94DA030C94B4036D
:100050000C9499000C9499000C9499000C949900BC
:100060000C94E3040C949900990BA20B0C0C870CD4
:10007000F10C510D580D5F0D640D790DA60DAB0DF2
:10008000B40DB70D000000080002010000030407D2
:100090000000000000000000000000002500280013
:1000A0002B0000000000240027002A0000000000B0
:1000B00023002600290004040404040404040202AA
:1000C00002020202030303030303010204081020D7
:1000D0004080010204081020010204081020BF0D16
:1000E000C50911241FBECFEFD8E0DEBFCDBF23E08E
:1000F000AAE9B1E001C01D92AF31B207E1F711E00A
:10010000A0E0B1E0ECE2F6E202C005900D92AA395F
:10011000B107D9F710E0C0E7D0E004C02197FE0195
:100120000E94EE10CF36D107C9F70E94CB090C947C
:1001300009130C940000FC01538D448D252F30E0F1
:10014000842F90E0821B930B541710F0CF960895E4
:1001500001970895FC01918D828D981761F0828D31
:10016000DF01A80FB11D5D968C91928D9F5F9F73EB
:10017000928F90E008958FEF9FEF0895FC01918D8D
:10018000828D981731F0828DE80FF11D858D90E0FA
:1001900008958FEF9FEF0895FC01918D228D892F97
:1001A00090E0805C9F4F821B91098F73992708957F
:1001B00087E692E00E94CC0021E0892B09F420E040
:1001C000822F0895FC01848DDF01A80FB11DA35A71
:1001D000BF4F2C91848D90E001968F739927848F67
:1001E000A689B7892C93A089B1898C9180648C935E
:1001F000938D848D981306C00288F389E02D808149
:100200008F7D80830895EF92FF920F931F93CF937A
:10021000DF93EC0181E0888F9B8D8C8D981305C056
:10022000E889F989808185FD24C0F62E0B8D10E0C8
:100230000F5F1F4F0F731127E02E8C8DE8120CC03B
:100240000FB607FCFACFE889F989808185FFF5CFE1
:10025000CE010E94E200F1CF8B8DFE01E80FF11D6F
:10026000E35AFF4FF0820B8FEA89FB89808180621D
:1002700007C0EE89FF896083E889F98980818064FD
:10028000808381E090E0DF91CF911F910F91FF90EB
:10029000EF900895CF93DF93EC01888D8823C9F008
:1002A000EA89FB89808185FD05C0A889B9898C917F
:1002B00086FD0FC00FB607FCF5CF808185FFF2CF1A
:1002C000A889B9898C9185FFEDCFCE010E94E2000B
:1002D000E7CFDF91CF91089580E090E0892B29F05E
:1002E0000E94D80081110C94000008953FB7F89443
:1002F0008091060290910702A0910802B091090234
:1003000026B5A89B05C02F3F19F00196A11DB11D70
:100310003FBFBA2FA92F982F8827820F911DA11DAB
:10032000B11DBC01CD0143E0660F771F881F991FE7
:100330004A95D1F7089585ED8093BC008091BC006B
:1003400084FDFCCF1092400208954091DE01262FDB
:1003500030E0240F311D21323105DCF420914002C0
:100360002430C9F4FC0180E090E0861758F4309105
:10037000DE012191DC01A254BE4FA30FB11D2C93CD
:100380000196F3CF8091DE01680F6093DE0180E07B
:10039000089581E0089582E00895E091BC01F09114
:1003A000BD01309729F01092640210926302099403
:1003B0000895AC01E0910E02F0910F023097E1F048
:1003C00090914202809141029817B0F090E0292F5D
:1003D00030E02617370754F4DA01A20FB31F8C91CF
:1003E000D901AD5BBD4F8C939F5FF1CF109242025C
:1003F00060934102CB01099408950895E09142026F
:1004000080914102E81730F4F0E0ED5BFD4F808110
:1004100090E008958FEF9FEF0895909142028091B0
:100420004102981750F4E92FF0E0ED5BFD4F208179
:1004300030E09F5F9093420202C02FEF3FEFC9016F
:1004400008958091410290E020914202821B91091F
:100450000895CF92DF92EF92FF920F931F93CF9365
:10046000DF937C01262F972F8A01809166028823D3
:1004700091F0C62FD72F6E01C40ED51ECC15DD0509
:1004800071F06991D701ED91FC910190F081E02D1F
:10049000C7010995F3CF642F822F0E94A501C801DF
:1004A000DF91CF911F910F91FF90EF90DF90CF9050
:1004B0000895CF93DF931F92CDB7DEB76983209164
:1004C00066022223D1F020916302203240F021E025
:1004D00030E0FC013383228380E090E015C08091FE
:1004E0006402E82FF0E0E456FE4F998190838F5F1D
:1004F000809364028093630205C061E0CE0101969F
:100500000E94A50181E090E00F90DF91CF910895C6
:10051000089580E090E00895CF93DF93CDB7DEB7E4
:1005200028970FB6F894DEBF0FBECDBF9091410261
:1005300080914202981749F084E093E00E940D02F6
:1005400090939B0180939A01F1CF80919A011A8236
:1005500019821C821B821E821D828F831886BE0117
:10056000695F7F4FFB0101900020E9F73197AF01F0
:10057000461B570BCE0101960E94F3078091120390
:10058000909113030097C9F069817A816115710513
:1005900091F040911403509115032D813E81421733
:1005A000530748F00E9402138D819E819093170398
:1005B0008093160318C00E94891189819A819093B3
:1005C0001303809312038B819C8190931503809376
:1005D00014038D819E8190931703809316031A82D2
:1005E00019821C821B821E821D8289819A810E942F
:1005F0008911409116035091170360911203709175
:10060000130387E692E00E94C6078DE591E00E9401
:100610004E09882321F010921102109210028FE5EA
:1006200091E00E944E09882331F081E090E09093A0
:1006300011028093100281E691E00E944E09882306
:1006400031F082E090E0909311028093100283E6F3
:1006500091E00E944E09882331F083E090E090936E
:1006600011028093100285E691E00E944E098823D2
:1006700031F084E090E0909311028093100287E6BD
:1006800091E00E944E09882331F085E090E090933C
:1006900011028093100289E691E00E944E0988239E
:1006A00031F086E090E090931102809310028BE687
:1006B00091E00E944E09882331F087E090E090930A
:1006C0001102809310028DE691E00E944E0988236A
:1006D00031F088E090E090931102809310028FE651
:1006E00091E00E944E09882331F089E090E09093D8
:1006F00011028093100281E791E00E944E09882345
:1007000031F08AE090E0909311028093100283E729
:1007100091E00E944E09882331F08BE090E09093A5
:1007200011028093100285E791E00E944E09882310
:1007300031F08CE090E0909311028093100287E7F3
:1007400091E00E944E09882331F08DE090E0909373
:1007500011028093100228960FB6F894DEBF0FBEE8
:10076000CDBFDF91CF9108951F920F920FB60F92D8
:1007700011242F933F934F935F936F937F938F93A6
:100780009F93AF93BF93EF93FF9387E692E00E940E
:10079000E200FF91EF91BF91AF919F918F917F9177
:1007A0006F915F914F913F912F910F900FBE0F90DE
:1007B0001F9018951F920F920FB60F9211242F932E
:1007C0008F939F93EF93FF93E0917702F0917802DC
:1007D0008081E0917D02F0917E0282FD12C09081C5
:1007E000809180028F5F8F7320918102821751F078
:1007F000E0918002F0E0E959FD4F958F80938002EF
:1008000001C08081FF91EF919F918F912F910F9067
:100810000FBE0F901F90189590E0FC01EC57FF4F12
:100820003491FC01E653FF4F2491FC01EA54FF4F41
:10083000E491EE2309F43BC0332339F1333091F0D6
:1008400038F43130A9F0323001F584B58F7D12C013
:10085000373091F03830A1F03430B9F48091800015
:100860008F7D03C0809180008F77809380000DC0C2
:1008700084B58F7784BD09C08091B0008F7703C0A5
:100880008091B0008F7D8093B000F0E0EE0FFF1FED
:10089000E856FF4FA591B4918FB7F894EC91611190
:1008A00003C020952E2301C02E2B2C938FBF0895BB
:1008B0008F929F92AF92BF92CF92DF92EF92FF9270
:1008C0006B017C010E9476014B015C01C114D104D3
:1008D000E104F104F1F00E947601DC01CB018819FA
:1008E0009909AA09BB09883E9340A105B10570F397
:1008F00021E0C21AD108E108F10888EE880E83E0F1
:10090000981EA11CB11CC114D104E104F10419F713
:10091000DDCFFF90EF90DF90CF90BF90AF909F9092
:100920008F9008951F920F920FB60F9211242F935C
:100930003F938F939F93AF93BF93809102029091C7
:100940000302A0910402B09105023091010226E059
:10095000230F2D3720F40296A11DB11D05C029E8F3
:10096000230F0396A11DB11D209301028093020263
:1009700090930302A0930402B093050280910602B3
:1009800090910702A0910802B09109020196A11D61
:10099000B11D8093060290930702A0930802B093C2
:1009A0000902BF91AF919F918F913F912F910F902D
:1009B0000FBE0F901F901895DC01ED91FC910190F6
:1009C000F081E02D09941F920F920FB60F9211241F
:1009D0002F933F934F935F936F937F938F939F9347
:1009E000AF93BF93EF93FF938091B900887F8036D8
:1009F00009F49CC068F5883209F45BC090F480313A
:100A000009F454C038F4882309F4F6C0883009F496
:100A10004DC0F6C0883109F44CC0803209F45DC085
:100A2000EFC0803409F468C048F4803309F455C03D
:100A3000883309F0E5C080933E02D8C0803509F4C0
:100A40004FC0883509F45DC0883409F0D9C0D6C0DC
:100A5000883909F4C7C0A8F4883709F467C038F4A6
:100A6000883609F463C0803709F460C0C9C088388B
:100A700009F4B8C0803909F45FC0803809F0C0C0FB
:100A80005BC0803B09F486C038F4803A09F466C044
:100A9000883A09F47FC0B4C0803C09F4A7C0883C00
:100AA00009F4A4C0883B09F48AC0AAC080913B0223
:100AB00010C090913D0280913C02981770F5E09132
:100AC0003D0281E08E0F80933D02F0E0E65EFD4F37
:100AD00080818093BB0085EC86C080933E028EC0EF
:100AE000E0913D0281E08E0F80933D028091BB003A
:100AF000F0E0E65EFD4F808390913D0280913C02E4
:100B00006EC0E0913D0281E08E0F80933D028091A6
:100B1000BB00F0E0E65EFD4F808380913F028111D3
:100B20006DC081E080933A0284EA61C083E08093E3
:100B3000400210920002CFCF80910002803208F074
:100B400051C0E091000281E08E0F809300028091FD
:100B5000BB00F0E0E052FE4F8083BDCF85EC809378
:100B6000BC001092400280910002803230F4E0918B
:100B70000002F0E0E052FE4F10826091000270E04F
:100B8000E0910A02F0910B0280EE91E0099510923B
:100B9000000236C084E0809340021092DF01109280
:100BA000DE01E0910C02F0910D0209958091DE01C9
:100BB000811105C081E08093DE011092BE01E091B9
:100BC000DF0181E08E0F8093DF01F0E0E254FE4F01
:100BD00080818093BB009091DF018091DE019817A6
:100BE00008F479CF85E88093BC000AC085EC809337
:100BF000BC001092400204C010923E020E949B0171
:100C0000FF91EF91BF91AF919F918F917F916F91E4
:100C10005F914F913F912F910F900FBE0F901F90BA
:100C200018951092400281E080933F0210923A02A0
:100C300061E082E10E940C0461E083E10E940C0407
:100C4000E9EBF0E080818E7F808380818D7F8083DF
:100C500080E28093B80085E48093BC0008952091E1
:100C6000630290916502213208F04AC080914002EF
:100C70008111FCCF32E03093400231E030933F02EB
:100C80003FEF30933E0210923D0220933C02ACE9CC
:100C9000B1E04AE152E0FA013E2F341B321718F45A
:100CA0003D913193F9CF10923B0220913B02990F75
:100CB000922B90933B0290913A02913061F4109202
:100CC0003A0290913B029093BB009091BC0093FD3F
:100CD000F8CF95EC01C095EE9093BC009091400246
:100CE0009230E1F390913E029F3F79F080913E0275
:100CF000803241F080913E02803331F084E005C0C3
:100D000081E003C082E001C083E01092640210928F
:100D10006302109266020895FB019C01220F331FAB
:100D2000D901AF5DBE4F4D915C91BA016E0F7F1F2F
:100D30006835A2E07A0764F44E1B5F0B4739510512
:100D40003CF0F901E050FF4F718360830C9433084D
:100D500089E791E00C946E090F931F93CF938C0158
:100D6000C0E068E770E080E090E00E945804F8017D
:100D7000619171918F018C2F0E943308CF5FC83031
:100D800081F7CF911F910F910895CF93DF9368E57D
:100D900072E084E00E94330868E572E086E00E9419
:100DA000330868E770E080E090E00E9458046091AA
:100DB0001003709111036A567F4F80E00E94330840
:100DC00068E572E081E00E94330860911003709141
:100DD00011036A567F4F82E00E94330868E572E093
:100DE00083E00E94330868E770E080E090E00E94B2
:100DF000580466E970E084E00E94330866E970E018
:100E000086E00E94330866E970E085E00E943308BE
:100E100066E970E087E00E94330868E770E080E0F0
:100E200090E00E94580468E572E080E00E94330878
:100E3000C8E5D2E08091100390911103BE01681BB8
:100E4000790B81E00E94330868E572E082E00E943D
:100E500033088091100390911103BE01681B790B38
:100E600083E00E94330868E770E080E090E00E9431
:100E7000580468E572E085E00E94330868E572E096
:100E800087E0DF91CF910C943308CF93DF9368E52F
:100E900072E084E00E94330868E572E086E00E9418
:100EA000330868E770E080E090E00E94580468E54D
:100EB00072E080E00E943308C8E5D2E08091100320
:100EC00090911103BE01681B790B81E00E943308E9
:100ED00068E572E082E00E943308809110039091EF
:100EE0001103BE01681B790B83E00E94330868E799
:100EF00070E080E090E00E94580466E970E084E0D1
:100F00000E94330866E970E086E00E94330866E9D3
:100F100070E085E00E94330866E970E087E00E9497
:100F2000330868E770E080E090E00E945804609128
:100F30001003709111036A567F4F80E00E943308BE
:100F400068E572E081E00E943308609110037091BF
:100F500011036A567F4F82E00E94330868E572E011
:100F600083E00E94330868E770E080E090E00E9430
:100F7000580468E572E085E00E94330868E572E095
:100F800087E0DF91CF910C9433080895CF92DF92E0
:100F9000EF92FF920F931F93CF93DF936C017A012F
:100FA0008B01C0E0D0E0CE15DF0589F0D8016D914E
:100FB0008D01D601ED91FC910190F081E02DC601EB
:100FC0000995892B11F47E0102C02196ECCFC7014F
:100FD000DF91CF911F910F91FF90EF90DF90CF9015
:100FE00008950E94EB12EF92FF920F931F93CF93FD
:100FF000DF93EC017B018A0188819981009729F0B8
:101000002A813B8124173507F8F4B8016F5F7F4FC1
:101010000E942112009759F0998388831B830A83C9
:101020002C813D81232B81F4FC0110820DC088812D
:101030009981009711F00E948911198218821D82EE
:101040001C821B821A8207C01D830C83B701888112
:1010500099810E940213CE01DF91CF911F910F91D0
:10106000FF90EF9008950F931F93CF93DF938B0121
:10107000C8E1D3E0988121E0209366029093650255
:101080001092640210926302A981BA81ED91FC91E1
:10109000119724E0829FC0011124BC016A5F7F4F39
:1010A0000190F081E02DCD01099560E070E089812B
:1010B0009A810E94DC0460E070E089819A810E943C
:1010C000DC04B80189819A810E94DC04612F70E000
:1010D00089819A810E94DC0489819A81DF91CF9174
:1010E0001F910F910C942F061F93CF93DF93162F10
:1010F000C8E1D3E0988121E02093660290936502D5
:101100001092640210926302A981BA81ED91FC9160
:1011100011970190F081E02D682FCD01099589810B
:101120009A81DC01ED91FC910190F081E02D612F1D
:10113000099589819A81DF91CF911F910C942F0697
:10114000CF93DF9326E636E646E65FE30E946A0E1B
:101150009B01AC0160E27CEB8EEB95E40E94CC0F2E
:1011600020E030E040E85FE30E945F0F20E030E0E5
:1011700040E05FE30E94600F0E9474100E944510DF
:10118000D62F8091180391E09093660280936502B8
:1011900010926402109263028091190390911A03D5
:1011A000DC01ED91FC910190F081E02D60E009956A
:1011B0008091190390911A030E942F0680911803C1
:1011C000909140029111FCCF91E090934002909356
:1011D0003F022FEF20933E0210923D0210923C02FC
:1011E00090933B0290913B02880F892B80933B02A6
:1011F00080913A02813061F410923A0280913B0270
:101200008093BB008091BC0083FDF8CF85EC01C0CA
:1012100085EE8093BC00809140028130E1F38091A3
:101220003D02811103C080913D0201C081E0AAE12D
:10123000B2E023E432E0F9019E2F921B981718F4D4
:101240009D919193F9CF1092420280934102809137
:10125000190390911A03DC01ED91FC910284F3854E
:10126000E02D0995C82F8F76682F606180E00E947D
:1012700074086D2F8EEF0E9474086C2F80E00E941E
:10128000740865E070E080E090E00E9458046C2FE4
:10129000606A80E0DF91CF910C947408FC0180912A
:1012A000160390911703892B21F421E0309749F41C
:1012B00013C08091120390911303309731F421E011
:1012C000FC018081882341F006C0BF010E94F91211
:1012D00021E0892B09F020E0822F0895009769F022
:1012E000FC0101900020E9F73197AF01481B590B31
:1012F000BC0187E692E00C94C60780E090E0089578
:10130000CF92DF92EF92FF920F931F93E82FF92F66
:1013100005C0015011092109310961F1908196231D
:101320009417B9F305C0015011092109310911F1D0
:10133000908196239413F7CFC12CD12CE12CF12C62
:101340000AC08FEFC81AD80AE80AF80A0C151D055A
:101350002E053F0579F080818623841791F36C2D4B
:101360007D2D8E2D9F2D1F910F91FF90EF90DF907F
:10137000CF90089560E070E080E090E01F910F91C1
:10138000FF90EF90DF90CF9008958091120390919D
:1013900013030C948911CF93DF93CDB7DEB7A197D8
:1013A0000FB6F894DEBF0FBECDBF789484B58260CF
:1013B00084BD84B5816084BD85B5826085BD85B5F9
:1013C000816085BD80916E00816080936E00109277
:1013D00081008091810082608093810080918100F2
:1013E0008160809381008091800081608093800083
:1013F0008091B10084608093B1008091B0008160E1
:101400008093B00080917A00846080937A0080910C
:101410007A00826080937A0080917A008E7F809338
:101420007A0080917A00806880937A001092C100DF
:1014300010924202109241021092640210926302D2
:101440000E94110660E880E00E9474086AE070E083
:1014500080E090E00E94580460E070E08AE794E445
:101460000E94A00860E070E080E792E40E94A0087B
:1014700083E080931001E3EDF0E02491EFEBF0E0E6
:101480008491882399F090E0880F991FFC01EE5514
:10149000FF4FA591B491FC01E856FF4F85919491BF
:1014A0008FB7F894EC91E22BEC938FBFE2EDF0E074
:1014B0002491EEEBF0E084918823C9F090E0880F4E
:1014C000991FFC01EE55FF4F45915491FC01E856E0
:1014D000FF4FA591B4919FB7F894FA0180812095B0
:1014E000822380838C91E22FE823EC939FBFE091CD
:1014F0007702F091780282E08083E0917302F091AC
:1015000074021082E0917502F091760287E6808382
:1015100010927F02E0917B02F0917C0286E0808352
:10152000E0917902F0917A02808180618083E0917C
:101530007902F0917A02808188608083E09179025B
:10154000F0917A02808180688083E0917902F09145
:101550007A0280818F7D808388E08093BA008DEC51
:1015600091E090930D0280930C0289ED91E09093AD
:101570000B0280930A0210924202109241021092D2
:101580006402109263020E9411068CE892E090932C
:101590000F0280930E026AE070E080E090E00E940B
:1015A000580450E1E52EF12C62EDC62E60E0D62EF7
:1015B0007EEB272E70E0372EEAE08E2E912CA12CA8
:1015C000B12C60E089E00E940C0461E089E00E9497
:1015D0000C04C7010197F1F760E089E00E940C0458
:1015E000F6016491F1018491E82FF0E0EE0FFF1F06
:1015F000E455FF4F8591949100E211EA27E030E035
:10160000462F0E9480096115710581059105B1F091
:10161000DC01CB010196A11DB11D24E0880F991FAB
:10162000AA1FBB1F2A95D1F7BC01CD0133E09695C7
:101630008795779567953A95D1F703C060E070E09C
:10164000CB0160931402709315028093160290935D
:1016500017020E942F0E26E933E44BE05DE30E945F
:101660006A0E20E030E040E05FE30E946A0E0E94D4
:101670003E1070931302609312028CE891E00E9476
:101680006E094090120250901302052C000C66085F
:10169000770877FE26C0E0916702F091680201901A
:1016A000F081E02D6DE287E692E00995222733274D
:1016B000A901241935094609570919A2CE018196B5
:1016C0003C01CA01B901A50194010E94CC10605DE2
:1016D000F30162933F01211531054105510589F759
:1016E00015C0A301920119A2CE0181963C01CA0145
:1016F000B901A50194010E94CC10605DF3016293D1
:101700003F01211531054105510589F7C3010E94AB
:101710006E0987E991E00E946E09E0911002F09154
:101720001102EE30F10508F027C2EC5CFF4F0C947B
:10173000EE10109219021092180281E291E00E94BC
:10174000AC061AC268E572E084E00E94330868E5DE
:1017500072E086E00E94330868E770E080E090E085
:101760000E94580460911003709111036A567F4FD4
:1017700080E00E94330868E572E081E00E9433084F
:1017800066E970E082E00E94330808E512E080918B
:10179000100390911103B801681B790B83E00E943C
:1017A000330868E770E080E090E00E94580466E942
:1017B00070E084E00E94330866E970E086E00E94F1
:1017C000330866E970E085E00E94330866E970E05E
:1017D00087E00E94330868E770E080E090E00E94B4
:1017E000580466E970E080E00E943308809110039D
:1017F00090911103B801681B790B81E00E943308B6
:1018000060911003709111036A567F4F82E00E942D
:10181000330868E572E069C068E572E084E00E9420
:10182000330868E572E086E00E94330868E770E0FC
:1018300080E090E00E94580466E970E080E00E9439
:10184000330808E512E08091100390911103B8016C
:10185000681B790B81E00E9433086091100370913E
:1018600011036A567F4F82E00E94330868E572E0F8
:1018700083E00E94330868E770E080E090E00E9417
:10188000580466E970E084E00E94330866E970E07D
:1018900086E00E94330866E970E085E00E94330824
:1018A00066E970E087E00E94330868E770E080E056
:1018B00090E00E94580460911003709111036A56E1
:1018C0007F4F80E00E94330868E572E081E00E946B
:1018D000330866E970E082E00E94330880911003CB
:1018E00090911103B801681B790B83E00E943308C3
:1018F00068E770E080E090E00E94580468E572E0DC
:1019000085E00E94330868E572E087E033C168E54E
:1019100072E084E00E94330868E572E086E00E948D
:10192000330868E770E080E090E00E94580468E5C2
:1019300072E080E00E94330866E970E081E00E9476
:10194000330860911003709111036A567F4F82E053
:101950000E94330808E512E0809110039091110372
:10196000B801681B790B83E00E94330868E770E0D8
:1019700080E090E00E94580466E970E084E00E94F4
:10198000330866E970E086E00E94330866E970E09B
:1019900085E00E94330866E970E087E00E94330822
:1019A00068E770E080E090E00E94580460911003C6
:1019B000709111036A567F4F80E00E943308809136
:1019C000100390911103B801681B790B81E00E940C
:1019D000330868E572E082E00E94330866E970E04F
:1019E00084CF68E572E084E00E94330868E572E025
:1019F00086E00E94330868E770E080E090E00E9493
:101A0000580460911003709111036A567F4F80E073
:101A10000E94330808E512E08091100390911103B1
:101A2000B801681B790B81E00E94330868E572E019
:101A300082E00E94330866E970E083E00E94330888
:101A400068E770E080E090E00E94580466E970E08A
:101A500084E00E94330866E970E086E00E94330863
:101A600066E970E085E00E94330866E970E087E08F
:101A70000E94330868E770E080E090E00E9458041C
:101A800068E572E080E00E94330866E970E081E07A
:101A90000E94330860911003709111036A567F4FC2
:101AA0001ACF80911003909111030E94450764C0E2
:101AB00080911003909111030E94C5065DC081E1E1
:101AC00091E00E94AC064BC060E070E081E090E0E5
:101AD0000E948C0660E070E088E090E00E948C0636
:101AE00060E070E085E090E00E948C0660E070E0CD
:101AF00028C060911003709111037195619571096F
:101B000081E090E00E948C066091100370911103B7
:101B100071956195710988E090E00E948C06609152
:101B200010037091110371956195710985E090E042
:101B30000E948C066091100370911103719561955C
:101B4000710987E090E00E948C0609C081E090E076
:101B50000E94450704C081E090E00E94C5061092F3
:101B600019021092180208C06CE271E002C060E92C
:101B700071E089E00E9433080E946C0122CDE7E603
:101B8000F2E01382128288EE93E0A0E0B0E084835A
:101B90009583A683B7832BE331E03183208325EC43
:101BA00030E03587248724EC30E03787268720EC27
:101BB00030E0318B208B21EC30E0338B228B22EC18
:101BC00030E0358B248B26EC30E0378B268B118E62
:101BD000128E138E148EE4E0F3E01382128284835B
:101BE0009583A683B7838DE491E091838083A8E1F8
:101BF000B3E080E48C931296FC93EE931197E2E1AC
:101C0000F3E011821082138212821582148240E066
:101C100050E069E971E0CF010E94F30780EE90E0A7
:101C20009093110380931003E1E2F1E026E731E0A5
:101C30003183208388E791E09383828335832483F3
:101C400097838683E1E1F1E031832083938382836C
:101C500035832483978386830895E89409C097FB8E
:101C60003EF490958095709561957F4F8F4F9F4F73
:101C70009923A9F0F92F96E9BB279395F6958795B7
:101C800077956795B795F111F8CFFAF4BB0F11F47A
:101C900060FF1BC06F5F7F4F8F4F9F4F16C0882321
:101CA00011F096E911C0772321F09EE8872F762F57
:101CB00005C0662371F096E8862F70E060E02AF098
:101CC0009A95660F771F881FDAF7880F9695879584
:101CD00097F908950E947D0E0C94EE0E0E94E00E7E
:101CE00038F00E94E70E20F0952311F00C94D70EE7
:101CF0000C94DD0E11240C94220F0E94FF0E70F341
:101D0000959FC1F3950F50E0551F629FF001729FA0
:101D1000BB27F00DB11D639FAA27F00DB11DAA1FAF
:101D2000649F6627B00DA11D661F829F2227B00DFC
:101D3000A11D621F739FB00DA11D621F839FA00D87
:101D4000611D221F749F3327A00D611D231F849FD7
:101D5000600D211D822F762F6A2F11249F5750402E
:101D60009AF0F1F088234AF0EE0FFF1FBB1F661FA9
:101D7000771F881F91505040A9F79E3F510580F072
:101D80000C94D70E0C94220F5F3FE4F3983ED4F3EB
:101D9000869577956795B795F795E7959F5FC1F716
:101DA000FE2B880F911D9695879597F9089597F9C1
:101DB0009F6780E870E060E008959FEF80EC0895F1
:101DC00000240A941616170618060906089500241A
:101DD0000A9412161306140605060895092E039494
:101DE000000C11F4882352F0BB0F40F4BF2B11F408
:101DF00060FF04C06F5F7F4F8F4F9F4F089557FD67
:101E00009058440F551F59F05F3F71F04795880F68
:101E100097FB991F61F09F3F79F0879508951216FF
:101E200013061406551FF2CF4695F1DF08C01616AB
:101E300017061806991FF1CF86957105610508945C
:101E40000895E894BB2766277727CB0197F9089573
:101E50002F923F924F925F926F927F928F929F92BA
:101E6000AF92BF92CF92DF92EF92FF920F931F93A8
:101E7000CF93DF93CDB7DEB7CA1BDB0B0FB6F89459
:101E8000DEBF0FBECDBF09942A88398848885F8499
:101E90006E847D848C849B84AA84B984C884DF800A
:101EA000EE80FD800C811B81AA81B981CE0FD11DEE
:101EB0000FB6F894DEBF0FBECDBFED0108955058A8
:101EC000BB27AA270E94770F0C94EE0E0E94E00E0B
:101ED00038F00E94E70E20F039F49F3F19F426F401
:101EE0000C94DD0E0EF4E095E7FB0C94D70EE92F71
:101EF0000E94FF0E58F3BA1762077307840795070D
:101F000020F079F4A6F50C94210F0EF4E0950B2E39
:101F1000BA2FA02D0B01B90190010C01CA01A0013B
:101F20001124FF27591B99F0593F50F4503E68F196
:101F30001A16F040A22F232F342F4427585FF3CFD7
:101F4000469537952795A795F0405395C9F77EF4A8
:101F50001F16BA0B620B730B840BBAF09150A1F0F1
:101F6000FF0FBB1F661F771F881FC2F70EC0BA0F77
:101F7000621F731F841F48F4879577956795B795FF
:101F8000F7959E3F08F0B0CF9395880F08F09927FA
:101F9000EE0F9795879508950E94E00F0C94EE0E32
:101FA0000E94E70E58F00E94E00E40F029F45F3FD7
:101FB00029F00C94D70E51110C94220F0C94DD0EC5
:101FC0000E94FF0E68F39923B1F3552391F3951BFB
:101FD000550BBB27AA2762177307840738F09F5F4A
:101FE0005F4F220F331F441FAA1FA9F335D00E2EB7
:101FF0003AF0E0E832D091505040E695001CCAF724
:102000002BD0FE2F29D0660F771F881FBB1F2617E6
:1020100037074807AB07B0E809F0BB0B802DBF01BD
:10202000FF2793585F4F3AF09E3F510578F00C948C
:10203000D70E0C94220F5F3FE4F3983ED4F38695BD
:1020400077956795B795F7959F5FC9F7880F911DAD
:102050009695879597F90895E1E0660F771F881F99
:10206000BB1F621773078407BA0720F0621B730B4C
:10207000840BBA0BEE1F88F7E09508950E94451077
:102080006894B1110C94220F08950E94070F88F0F4
:102090009F5798F0B92F9927B751B0F0E1F0660F2C
:1020A000771F881F991F1AF0BA95C9F714C0B1306D
:1020B00091F00E94210FB1E008950C94210F672F39
:1020C000782F8827B85F39F0B93FCCF3869577959C
:1020D0006795B395D9F73EF4909580957095619585
:1020E0007F4F8F4F9F4F08950E94B41090F09F37FD
:1020F00048F4911116F00C94220F60E070E080E833
:102100009FEB089526F41B16611D711D811D0C9413
:102110008B100C94A610882371F4772321F098502B
:10212000872B762F07C0662311F499270DC0905195
:10213000862B70E060E02AF09A95660F771F881F63
:10214000DAF7880F9695879597F908959F3F31F0B4
:10215000915020F4879577956795B795880F911DD5
:102160009695879597F908950E94070FA0F0BEE70E
:10217000B91788F4BB279F3860F41616B11D672F76
:10218000782F8827985FF7CF869577956795B11D4B
:1021900093959639C8F30895A1E21A2EAA1BBB1B8A
:1021A000FD010DC0AA1FBB1FEE1FFF1FA217B30723
:1021B000E407F50720F0A21BB30BE40BF50B661F39
:1021C000771F881F991F1A9469F7609570958095FD
:1021D00090959B01AC01BD01CF010895EE0FFF1F4B
:1021E0000590F491E02D0994CF93DF93823091050F
:1021F00010F482E090E0E0911D03F0911E0320E0D6
:1022000030E0C0E0D0E0309711F1408151814817B3
:102210005907C0F04817590761F4828193812097CC
:1022200019F09B838A832BC090931E0380931D0318
:1022300026C02115310519F04217530718F49A01E9
:10224000BE01DF01EF010280F381E02DDCCF21151B
:10225000310509F1281B390B2430310590F4129611
:102260008D919C9113976115710521F0FB0193836A
:10227000828304C090931E0380931D03FD01329658
:1022800044C0FD01E20FF31F819391932250310965
:102290002D933C933AC020911B0330911C03232BB8
:1022A00041F4209133013091340130931C03209389
:1022B0001B0320913101309132012115310541F488
:1022C0002DB73EB74091350150913601241B350B97
:1022D000E0911B03F0911C03E217F307A0F42E1BFF
:1022E0003F0B2817390778F0AC014E5F5F4F24177A
:1022F000350748F04E0F5F1F50931C0340931B039C
:102300008193919302C0E0E0F0E0CF01DF91CF91A3
:1023100008950F931F93CF93DF93009709F48CC018
:10232000FC0132971382128200911D0310911E034B
:102330000115110581F420813181820F931F2091B5
:102340001B0330911C032817390779F5F0931C0300
:10235000E0931B0371C0D80140E050E0AE17BF0707
:1023600050F412962D913C911397AD012115310532
:1023700009F1D901F3CF9D01DA0133832283608112
:102380007181860F971F8217930769F4EC012881EA
:102390003981260F371F2E5F3F4F318320838A817B
:1023A0009B8193838283452B29F4F0931E03E09352
:1023B0001D0342C01396FC93EE931297ED014991D1
:1023C00059919E01240F351FE217F30771F48081A4
:1023D0009181840F951F029611969C938E93828112
:1023E000938113969C938E931297E0E0F0E0D801CE
:1023F00012968D919C911397009719F0F8018C011A
:10240000F6CF8D919C9198012E5F3F4F820F931FC5
:1024100020911B0330911C032817390769F430976A
:1024200029F410921E0310921D0302C0138212821F
:1024300010931C0300931B03DF91CF911F910F9109
:102440000895A0E0B0E0E7E2F2E10C942C0FEC017B
:10245000009721F4CB010E94F410B8C0FC01E60FF4
:10246000F71F9C0122503109E217F30708F4ACC0B2
:10247000D9010D911C91119706171707B0F005307F
:10248000110508F49FC0C80104978617970708F440
:1024900099C002501109061B170B019311936D93FC
:1024A0007C93CF010E9489118DC05B01A01AB10AF3
:1024B0004C01800E911EA0911D03B0911E0340E0BF
:1024C00050E0E12CF12C109709F44AC0A815B90589
:1024D000D1F56D907C901197630182E0C80ED11CFC
:1024E000CA14DB0480F1A3014A195B096A0182E086
:1024F000C80ED11C1296BC9012971396AC91B5E001
:10250000CB16D10440F0B282A38351834083D9011A
:102510006D937C930AC00E5F1F4FC301800F911F04
:10252000F90191838083EB2DFA2FE114F10431F04E
:10253000D7011396FC93EE93129744C0F0931E03B9
:10254000E0931D033FC08D919C9111974817590747
:1025500008F4AC017D0112960D90BC91A02DB3CF73
:1025600080911B0390911C0388159905E1F446178F
:102570005707C8F48091310190913201009741F4DE
:102580008DB79EB74091350150913601841B950B54
:10259000E817F907C8F4F0931C03E0931B03F90153
:1025A000718360830FC0CB010E94F4107C010097FF
:1025B00059F0A801BE010E94F012CE010E948911BB
:1025C000C70104C0CE0102C080E090E0CDB7DEB705
:1025D000EEE00C94480F81E090E0F8940C9409131D
:1025E000FB01DC0102C001900D9241505040D8F730
:1025F0000895FB01DC018D91019080190110D9F340
:10260000990B0895FB01DC0101900D920020E1F788
:10261000089510E0C0E7D0E004C0FE010E94EE1073
:0C2620002196C137D107C9F7F894FFCF0D
:10262C0096005802960058029600580296005802DE
:10263C0001000000000000000058029600580296AD
:10264C0000000000000000000096005802960058A0
:10265C000200001F038000000000000301C6079B5E
:10266C00004A01CC00AA00BE00000000005902295B
:10267C00028902FD0121020D02FE017000300031C1
:10268C000032003300340035003600370038003992
:10269C000061006200630064006269676765722014
:1026AC006F7220736D616C6C657221004469737478
:0A26BC00616E63653A20000D0A000C
:00000001FF
