:100000000C9473000C949B000C949B000C949B002C
:100010000C949B000C949B000C949B000C949B00F4
:100020000C949B000C949B000C949B000C949B00E4
:100030000C949B000C949B000C949B000C949B00D4
:100040000C94AC040C949B000C94F4030C94CE031D
:100050000C949B000C949B000C949B000C949B00B4
:100060000C94FD040C949B00870B900B210CA50CA9
:100070000F0D6F0D760D7D0D8B0D8B0D820D870D88
:10008000900D930D960D990D0000000800020100DF
:100090000003040700000000000000000000000052
:1000A000250028002B0000000000240027002A0063
:1000B00000000000230026002900040404040404B6
:1000C0000404020202020202030303030303010207
:1000D00004081020408001020408102001020408D6
:1000E0001020A00DBD0911241FBECFEFD8E0DEBF48
:1000F000CDBF23E0ACE7B1E001C01D92A130B20753
:10010000E1F711E0A0E0B1E0EEEEF5E202C005900B
:100110000D92AC37B107D9F710E0C2E7D0E004C0C8
:100120002197FE010E94CF10C137D107C9F70E9465
:10013000C3090C94EA120C940000FC01538D448D09
:10014000252F30E0842F90E0821B930B541710F082
:10015000CF96089501970895FC01918D828D98178F
:1001600061F0828DDF01A80FB11D5D968C91928D9B
:100170009F5F9F73928F90E008958FEF9FEF089598
:10018000FC01918D828D981731F0828DE80FF11D61
:10019000858D90E008958FEF9FEF0895FC01918D7C
:1001A000228D892F90E0805C9F4F821B91098F7375
:1001B0009927089589E492E00E94CE0021E0892BDE
:1001C00009F420E0822F0895FC01848DDF01A80F3F
:1001D000B11DA35ABF4F2C91848D90E001968F736F
:1001E0009927848FA689B7892C93A089B1898C918E
:1001F00080648C93938D848D981306C00288F38954
:10020000E02D80818F7D80830895EF92FF920F9380
:100210001F93CF93DF93EC0181E0888F9B8D8C8DB2
:10022000981305C0E889F989808185FD24C0F62EE0
:100230000B8D10E00F5F1F4F0F731127E02E8C8D79
:10024000E8120CC00FB607FCFACFE889F989808163
:1002500085FFF5CFCE010E94E400F1CF8B8DFE012A
:10026000E80FF11DE35AFF4FF0820B8FEA89FB89FB
:100270008081806207C0EE89FF896083E889F989FF
:1002800080818064808381E090E0DF91CF911F9135
:100290000F91FF90EF900895CF93DF93EC01888D3D
:1002A0008823C9F0EA89FB89808185FD05C0A8897A
:1002B000B9898C9186FD0FC00FB607FCF5CF808100
:1002C00085FFF2CFA889B9898C9185FFEDCFCE014A
:1002D0000E94E400E7CFDF91CF91089580E090E0A5
:1002E000892B29F00E94DA0081110C9400000895F6
:1002F0003FB7F8948091E8019091E901A091EA015B
:10030000B091EB0126B5A89B05C02F3F19F00196CF
:10031000A11DB11D3FBFBA2FA92F982F8827820F8B
:10032000911DA11DB11DBC01CD0142E0660F771FDB
:10033000881F991F4A95D1F7089585ED8093BC00D9
:100340008091BC0084FDFCCF109222020895409160
:10035000C001262F30E0240F311D21323105DCF49D
:10036000209122022430C9F4FC0180E090E086173D
:1003700058F43091C0012191DC01A056BE4FA30F6B
:10038000B11D2C930196F3CF8091C001680F60934B
:10039000C00180E0089581E0089582E00895E09131
:1003A0009E01F0919F01309729F010924602109221
:1003B000450209940895AC01E091F001F091F1013A
:1003C0003097E1F090912402809123029817B0F0C9
:1003D00090E0292F30E02617370754F4DA01A20FF6
:1003E000B31F8C91D901AB5DBD4F8C939F5FF1CF53
:1003F0001092240260932302CB010994089508957A
:10040000E091240280912302E81730F4F0E0EB5DE4
:10041000FD4F808190E008958FEF9FEF08959091B8
:10042000240280912302981750F4E92FF0E0EB5D4D
:10043000FD4F208130E09F5F9093240202C02FEF98
:100440003FEFC90108958091230290E0209124029A
:10045000821B91090895CF92DF92EF92FF920F9342
:100460001F93CF93DF937C01262F972F8A018091D2
:100470004802882391F0C62FD72F6E01C40ED51ED7
:10048000CC15DD0571F06991D701ED91FC910190DA
:10049000F081E02DC7010995F3CF642F822F0E94D0
:1004A000A701C801DF91CF911F910F91FF90EF90AD
:1004B000DF90CF900895CF93DF931F92CDB7DEB733
:1004C0006983209148022223D1F0209145022032F5
:1004D00040F021E030E0FC013383228380E090E0B3
:1004E00015C080914602E82FF0E0E258FE4F998156
:1004F00090838F5F809346028093450205C061E040
:10050000CE0101960E94A70181E090E00F90DF915B
:10051000CF910895089580E090E00895CF93DF9300
:10052000CDB7DEB728970FB6F894DEBF0FBECDBFAC
:100530009091230280912402981749F086EE92E070
:100540000E940F0290937D0180937C01F1CF8091F6
:100550007C011A8219821C821B821E821D828F835B
:100560001886BE01695F7F4FFB0101900020E9F70B
:100570003197AF01461B570BCE0101960E94EB0746
:100580008091F4029091F5020097C9F069817A8117
:100590006115710591F04091F6025091F7022D819D
:1005A0003E814217530748F00E94E3128D819E81DD
:1005B0009093F9028093F80218C00E946A11898111
:1005C0009A819093F5028093F4028B819C819093A1
:1005D000F7028093F6028D819E819093F9028093B9
:1005E000F8021A8219821C821B821E821D82898156
:1005F0009A810E946A114091F8025091F90260912B
:10060000F4027091F50289E492E00E94BE078DE445
:1006100091E00E944609882321F01092F301109284
:10062000F2018FE491E00E944609882331F081E0D5
:1006300090E09093F3018093F20181E591E00E94B4
:100640004609882331F082E090E09093F301809393
:10065000F20183E591E00E944609882331F083E0AE
:1006600090E09093F3018093F20185E591E00E9480
:100670004609882331F084E090E09093F301809361
:10068000F20187E591E00E944609882331F085E078
:1006900090E09093F3018093F20189E591E00E944C
:1006A0004609882331F086E090E09093F30180932F
:1006B000F2018BE591E00E944609882331F087E042
:1006C00090E09093F3018093F2018DE591E00E9418
:1006D0004609882331F088E090E09093F3018093FD
:1006E000F2018FE591E00E944609882331F089E00C
:1006F00090E09093F3018093F20181E691E00E94F3
:100700004609882331F08AE090E09093F3018093CA
:10071000F20183E691E00E944609882331F08BE0E4
:1007200090E09093F3018093F20185E691E00E94BE
:100730004609882331F08CE090E09093F301809398
:10074000F20187E691E00E944609882331F08DE0AE
:1007500090E09093F3018093F20189E691E00E948A
:100760004609882331F08EE090E09093F301809366
:10077000F2018BE691E00E944609882331F08FE078
:1007800090E09093F3018093F20128960FB6F894CD
:10079000DEBF0FBECDBFDF91CF9108951F920F92A4
:1007A0000FB60F9211242F933F934F935F936F9344
:1007B0007F938F939F93AF93BF93EF93FF9389E4BE
:1007C00092E00E94E400FF91EF91BF91AF919F9161
:1007D0008F917F916F915F914F913F912F910F90EA
:1007E0000FBE0F901F9018951F920F920FB60F9289
:1007F00011242F938F939F93EF93FF93E0915902CE
:10080000F0915A028081E0915F02F091600282FDD6
:1008100012C09081809162028F5F8F73209163027A
:10082000821751F0E0916202F0E0E75BFD4F958F97
:100830008093620201C08081FF91EF919F918F911F
:100840002F910F900FBE0F901F90189590E0FC0114
:10085000E857FF4F3491FC01E253FF4F2491FC0114
:10086000E654FF4FE491EE2309F43BC0332339F102
:10087000333091F038F43130A9F0323001F584B5DD
:100880008F7D12C0373091F03830A1F03430B9F498
:10089000809180008F7D03C0809180008F7780934E
:1008A00080000DC084B58F7784BD09C08091B000F1
:1008B0008F7703C08091B0008F7D8093B000F0E00F
:1008C000EE0FFF1FE456FF4FA591B4918FB7F89438
:1008D000EC91611103C020952E2301C02E2B2C9387
:1008E0008FBF08958F929F92AF92BF92CF92DF9267
:1008F000EF92FF926B017C010E9478014B015C0139
:10090000C114D104E104F104F1F00E947801DC018A
:10091000CB0188199909AA09BB09883E9340A10512
:10092000B10570F321E0C21AD108E108F10888EEA0
:10093000880E83E0981EA11CB11CC114D104E104EF
:10094000F10419F7DDCFFF90EF90DF90CF90BF90CB
:10095000AF909F908F9008951F920F920FB60F92B5
:1009600011242F933F938F939F93AF93BF938091C5
:10097000E4019091E501A091E601B091E701309189
:10098000E30123E0230F2D3720F40196A11DB11DB3
:1009900005C026E8230F0296A11DB11D2093E30197
:1009A0008093E4019093E501A093E601B093E70101
:1009B0008091E8019091E901A091EA01B091EB01E9
:1009C0000196A11DB11D8093E8019093E901A093C8
:1009D000EA01B093EB01BF91AF919F918F913F914D
:1009E0002F910F900FBE0F901F901895DC01ED9185
:1009F000FC910190F081E02D09941F920F920FB6A7
:100A00000F9211242F933F934F935F936F937F9394
:100A10008F939F93AF93BF93EF93FF938091B90010
:100A2000887F803609F49CC068F5883209F45BC081
:100A300090F4803109F454C038F4882309F4F6C0E6
:100A4000883009F44DC0F6C0883109F44CC08032BA
:100A500009F45DC0EFC0803409F468C048F4803305
:100A600009F455C0883309F0E5C080932002D8C04E
:100A7000803509F44FC0883509F45DC0883409F029
:100A8000D9C0D6C0883909F4C7C0A8F4883709F49A
:100A900067C038F4883609F463C0803709F460C051
:100AA000C9C0883809F4B8C0803909F45FC08038FB
:100AB00009F0C0C05BC0803B09F486C038F4803ABE
:100AC00009F466C0883A09F47FC0B4C0803C09F4D8
:100AD000A7C0883C09F4A4C0883B09F48AC0AAC016
:100AE00080911D0210C090911F0280911E029817E4
:100AF00070F5E0911F0281E08E0F80931F02F0E0FD
:100B0000E450FE4F80818093BB0085EC86C08093CB
:100B100020028EC0E0911F0281E08E0F80931F02A1
:100B20008091BB00F0E0E450FE4F808390911F0263
:100B300080911E026EC0E0911F0281E08E0F8093B3
:100B40001F028091BB00F0E0E450FE4F8083809153
:100B5000210281116DC081E080931C0284EA61C092
:100B600083E0809322021092E201CFCF8091E201D4
:100B7000803208F051C0E091E20181E08E0F809355
:100B8000E2018091BB00F0E0EE53FE4F8083BDCFC9
:100B900085EC8093BC00109222028091E2018032A9
:100BA00030F4E091E201F0E0EE53FE4F10826091EC
:100BB000E20170E0E091EC01F091ED0182EC91E056
:100BC00009951092E20136C084E0809322021092CF
:100BD000C1011092C001E091EE01F091EF01099581
:100BE0008091C001811105C081E08093C001109205
:100BF000A001E091C10181E08E0F8093C101F0E07E
:100C0000E056FE4F80818093BB009091C10180919E
:100C1000C001981708F479CF85E88093BC000AC01A
:100C200085EC8093BC001092220204C01092200236
:100C30000E949D01FF91EF91BF91AF919F918F9184
:100C40007F916F915F914F913F912F910F900FBEC8
:100C50000F901F9018951092220281E0809321023C
:100C600010921C0261E082E10E94260461E083E1AF
:100C70000E942604E9EBF0E080818E7F80838081F2
:100C80008D7F808388E48093B80085E48093BC00E6
:100C900008952091450290914702213208F04AC000
:100CA000809122028111FCCF32E03093220231E0A8
:100CB000309321023FEF3093200210921F022093C5
:100CC0001E02AEE7B1E04CEF51E0FA013E2F341BBB
:100CD000321718F43D913193F9CF10921D022091F3
:100CE0001D02990F922B90931D0290911C0291303E
:100CF00061F410921C0290911D029093BB009091A0
:100D0000BC0093FDF8CF95EC01C095EE9093BC002C
:100D1000909122029230E1F3909120029F3F79F06E
:100D200080912002803241F080912002803331F0A6
:100D300084E005C081E003C082E001C083E010923E
:100D4000460210924502109248020895BC0188E0C4
:100D50000C942B080F931F93CF938C01C0E0F801E4
:100D6000619171918F018C2F0E942B08CF5FC83049
:100D7000B1F7CF911F910F910895CF93DF9368E55D
:100D800072E084E00E942B0868E572E086E00E9431
:100D90002B0866E970E080E090E00E9472046091A8
:100DA000F2027091F3026A567F4F80E00E942B0896
:100DB00068E572E081E00E942B086091F202709178
:100DC000F3026A567F4F82E00E942B0868E572E0CA
:100DD00083E00E942B0866E970E080E090E00E94CA
:100DE000720466E970E084E00E942B0866E970E016
:100DF00086E00E942B0866E970E085E00E942B08DF
:100E000066E970E087E00E942B0866E970E080E008
:100E100090E00E94720468E572E080E00E942B0876
:100E2000C8E5D2E08091F2029091F302BE01681B06
:100E3000790B81E00E942B0868E572E082E00E9455
:100E40002B088091F2029091F302BE01681B790B8E
:100E500083E00E942B0866E970E080E090E00E9449
:100E6000720468E572E085E00E942B0868E572E094
:100E700087E0DF91CF910C942B08CF93DF9368E547
:100E800072E084E00E942B0868E572E086E00E9430
:100E90002B0866E970E080E090E00E94720468E54B
:100EA00072E080E00E942B08C8E5D2E08091F20257
:100EB0009091F302BE01681B790B81E00E942B0820
:100EC00068E572E082E00E942B088091F202909126
:100ED000F302BE01681B790B83E00E942B0866E9D0
:100EE00070E080E090E00E94720466E970E084E0C7
:100EF0000E942B0866E970E086E00E942B0866E9F4
:100F000070E085E00E942B0866E970E087E00E94AF
:100F10002B0866E970E080E090E00E947204609126
:100F2000F2027091F3026A567F4F80E00E942B0814
:100F300068E572E081E00E942B086091F2027091F6
:100F4000F3026A567F4F82E00E942B0868E572E048
:100F500083E00E942B0866E970E080E090E00E9448
:100F6000720468E572E085E00E942B0868E572E093
:100F700087E0DF91CF910C942B080895CF92DF92F8
:100F8000EF92FF920F931F93CF93DF936C017A013F
:100F90008B01C0E0D0E0CE15DF0589F0D8016D915E
:100FA0008D01D601ED91FC910190F081E02DC601FB
:100FB0000995892B11F47E0102C02196ECCFC7015F
:100FC000DF91CF911F910F91FF90EF90DF90CF9025
:100FD00008950E94CC12EF92FF920F931F93CF932C
:100FE000DF93EC017B018A0188819981009729F0C8
:100FF0002A813B8124173507F8F4B8016F5F7F4FD2
:101000000E940212009759F0998388831B830A83F8
:101010002C813D81232B81F4FC0110820DC088813D
:101020009981009711F00E946A11198218821D821D
:101030001C821B821A8207C01D830C83B701888122
:1010400099810E94E312CE01DF91CF911F910F9100
:10105000FF90EF9008950F931F93CF93DF938B0131
:10106000CAEFD2E0988121E0209348029093470292
:101070001092460210924502A981BA81ED91FC912D
:10108000119724E0829FC0011124BC016A5F7F4F49
:101090000190F081E02DCD01099560E070E089813B
:1010A0009A810E94F60460E070E089819A810E9432
:1010B000F604B80189819A810E94F604612F70E0DC
:1010C00089819A810E94F60489819A81DF91CF916A
:1010D0001F910F910C9449061F93CF93DF93162F06
:1010E000CAEFD2E0988121E0209348029093470212
:1010F0001092460210924502A981BA81ED91FC91AD
:1011000011970190F081E02D682FCD01099589811B
:101110009A81DC01ED91FC910190F081E02D612F2D
:10112000099589819A81DF91CF911F910C9449068D
:10113000CF93DF9326E636E646E65FE30E944B0E4A
:101140009B01AC0160E27CEB8EEB95E40E94AD0F5D
:1011500020E030E040E85FE30E94400F20E030E014
:1011600040E05FE30E94410F0E9455100E9426104C
:10117000D62F8091FA0291E0909348028093470223
:1011800010924602109245028091FB029091FC025F
:10119000DC01ED91FC910190F081E02D60E009957A
:1011A0008091FB029091FC020E9449068091FA0214
:1011B000909122029111FCCF91E0909322029093A2
:1011C00021022FEF2093200210921F0210921E0284
:1011D00090931D0290911D02880F892B80931D0210
:1011E00080911C02813061F410921C0280911D02DA
:1011F0008093BB008091BC0083FDF8CF85EC01C0DB
:1012000085EE8093BC00809122028130E1F38091D1
:101210001F02811103C080911F0201C081E0ACEF69
:10122000B1E025E232E0F9019E2F921B981718F4E5
:101230009D919193F9CF1092240280932302809183
:10124000FB029091FC02DC01ED91FC910284F3859C
:10125000E02D0995C82F8F76682F606180E00E948D
:101260006C086D2F8EEF0E946C086C2F80E00E943E
:101270006C0865E070E080E090E00E9472046C2FE2
:10128000606A80E0DF91CF910C946C08FC01809142
:10129000F8029091F902892B21F421E0309749F46A
:1012A00013C08091F4029091F502309731F421E05F
:1012B000FC018081882341F006C0BF010E94DA1240
:1012C00021E0892B09F020E0822F0895009769F032
:1012D000FC0101900020E9F73197AF01481B590B41
:1012E000BC0189E492E00C94BE0780E090E0089590
:1012F000CF92DF92EF92FF920F931F93E82FF92F77
:1013000005C0015011092109310961F1908196232D
:101310009417B9F305C0015011092109310911F1E0
:10132000908196239413F7CFC12CD12CE12CF12C72
:101330000AC08FEFC81AD80AE80AF80A0C151D056A
:101340002E053F0579F080818623841791F36C2D5B
:101350007D2D8E2D9F2D1F910F91FF90EF90DF908F
:10136000CF90089560E070E080E090E01F910F91D1
:10137000FF90EF90DF90CF9008958091F4029091CC
:10138000F5020C946A11CF93DF93CDB7DEB7A19726
:101390000FB6F894DEBF0FBECDBF789484B58260DF
:1013A00084BD84B5816084BD85B5826085BD85B509
:1013B000816085BD80916E00816080936E00109287
:1013C0008100809181008260809381008091810002
:1013D0008160809381008091800081608093800093
:1013E0008091B10084608093B1008091B0008160F1
:1013F0008093B00080917A00846080937A0080911D
:101400007A00826080937A0080917A008160809374
:101410007A0080917A00806880937A001092C100EF
:10142000109224021092230210924602109245025A
:101430000E942B0660E880E00E946C086AE070E081
:1014400080E090E00E94720460E070E08AE794E43B
:101450000E94980860E070E080E792E40E9498089B
:1014600083E080930001E7EDF0E02491E3ECF0E00D
:101470008491882399F090E0880F991FFC01EA5528
:10148000FF4FA591B491FC01E456FF4F85919491D3
:101490008FB7F894EC91E22BEC938FBFE6EDF0E080
:1014A0002491E2ECF0E084918823C9F090E0880F69
:1014B000991FFC01EA55FF4F45915491FC01E456F8
:1014C000FF4FA591B4919FB7F894FA0180812095C0
:1014D000822380838C91E22FE823EC939FBFE091DD
:1014E0005902F0915A0282E08083E0915502F09116
:1014F00056021082E0915702F09158028FEC8083DF
:1015000010926102E0915D02F0915E0286E08083BC
:10151000E0915B02F0915C02808180618083E091C8
:101520005B02F0915C02808188608083E0915B02C5
:10153000F0915C02808180688083E0915B02F09191
:101540005C0280818F7D808388E08093BA008FEC7D
:1015500091E09093EF018093EE018BED91E09093F9
:10156000ED018093EC01109224021092230210925C
:101570004602109245020E942B068EE892E090935C
:10158000F1018093F0016AE070E080E090E00E9459
:10159000720493E0E92EF12C23E2C22ED12C36ED19
:1015A000232E30E0332E4AE0442E512C612C712C36
:1015B00060E089E00E942604C7010197F1F761E02D
:1015C00089E00E942604C6010197F1F760E089E0F6
:1015D0000E942604F1016491E2ECF0E08491E82F8E
:1015E000F0E0EE0FFF1FE055FF4F8591949100E46E
:1015F00012E42FE030E0462F0E9478096115710552
:101600008105910549F0DC01CB010196A11DB11DB9
:10161000BC01CD019F7003C060E070E0CB0160931E
:10162000F4017093F5018093F6019093F7010E9405
:10163000100E26E933E44BE05DE30E944B0E20E000
:1016400030E040E05FE30E944B0E0E941F10709359
:10165000F9016093F8018DE691E00E9466092091FE
:10166000F8013091F9014901330FAA08BB08B7FE10
:1016700026C0E0914902F0914A020190F081E02DEC
:101680006DE289E492E0099522273327A901281900
:1016900039094A095B0919A28E010F5D1F4FCA0162
:1016A000B901A30192010E94AD10605DF80162933F
:1016B0008F01211531054105510589F715C0A50197
:1016C000940119A28E010F5D1F4FCA01B901A30138
:1016D00092010E94AD10605DF80162938F012115A7
:1016E00031054105510589F7C8010E94660988E75F
:1016F00091E00E946609E091F201F091F301E0317E
:10170000F10508F01AC2EC5CFF4F0C94CF10109258
:10171000FB011092FA0181E191E00E94AA060DC23C
:101720008091F8019091F9010A970CF006C260913E
:10173000F2027091F3026A567F4F84E00E942B08F8
:101740006091F2027091F3026A567F4F86E00E9428
:101750002B0866E970E080E090E00E9472046091DE
:10176000F2027091F3026A567F4F80E00E942B08CC
:1017700068E572E081E00E942B0866E970E082E093
:101780000E942B0808E512E08091F2029091F3028A
:10179000B801681B790B83E00E942B0866E970E0B2
:1017A00080E090E00E94720466E970E084E00E94AC
:1017B0002B0866E970E086E00E942B0866E970E07D
:1017C00085E00E942B0866E970E087E00E942B0804
:1017D00066E970E080E090E00E94720466E970E0E3
:1017E00080E00E942B088091F2029091F302B801F0
:1017F000681B790B81E00E942B086091F2027091C6
:10180000F3026A567F4F82E00E942B0868E572E07F
:1018100083E00E942B0866E970E080E090E00E947F
:1018200072046091F2027091F3026A567F4F85E074
:101830000E942B086091F2027091F3026A567F4F6A
:1018400080C08091F8019091F9010B970CF475C15B
:1018500068E572E084E00E942B0868E572E086E0AB
:101860000E942B0866E970E080E090E00E9472041C
:1018700066E970E080E00E942B0808E512E08091A4
:10188000F2029091F302B801681B790B81E00E948B
:101890002B086091F2027091F3026A567F4F82E04A
:1018A0000E942B0868E572E083E00E942B0866E93D
:1018B00070E080E090E00E94720466E970E084E0ED
:1018C0000E942B0866E970E086E00E942B0866E91A
:1018D00070E085E00E942B0866E970E087E00E94D6
:1018E0002B0866E970E080E090E00E94720460914D
:1018F000F2027091F3026A567F4F80E00E942B083B
:1019000068E572E081E00E942B0866E970E082E001
:101910000E942B088091F2029091F302B801681B9B
:10192000790B83E00E942B0866E970E080E090E08C
:101930000E94720468E572E085E00E942B0868E569
:1019400072E087E00E942B08F8C068E572E084E04E
:101950000E942B0868E572E086E00E942B0866E989
:1019600070E080E090E00E94720468E572E080E040
:101970000E942B0866E970E081E00E942B086091CC
:10198000F2027091F3026A567F4F82E00E942B08A8
:1019900008E512E08091F2029091F302B801681B11
:1019A000790B83E00E942B0866E970E080E090E00C
:1019B0000E94720466E970E084E00E942B0866E9E8
:1019C00070E086E00E942B0866E970E085E00E94E6
:1019D0002B0866E970E087E00E942B0866E970E05A
:1019E00080E090E00E9472046091F2027091F30234
:1019F0006A567F4F80E00E942B088091F2029091FE
:101A0000F302B801681B790B81E00E942B0868E59E
:101A100072E082E00E942B0866E970E082CF68E500
:101A200072E084E00E942B0868E572E086E00E9484
:101A30002B0866E970E080E090E00E9472046091FB
:101A4000F2027091F3026A567F4F80E00E942B08E9
:101A500008E512E08091F2029091F302B801681B50
:101A6000790B81E00E942B0868E572E082E00E9419
:101A70002B0866E970E083E00E942B0866E970E0BD
:101A800080E090E00E94720466E970E084E00E94C9
:101A90002B0866E970E086E00E942B0866E970E09A
:101AA00085E00E942B0866E970E087E00E942B0821
:101AB00066E970E080E090E00E94720468E572E000
:101AC00080E00E942B0866E970E081E00E942B080C
:101AD0006091F2027091F3026A567F4F18CF8091A5
:101AE000F2029091F3020E943D0727C08091F2021A
:101AF0009091F3020E94BD0620C081E091E00E9417
:101B0000AA0609C081E090E00E943D0704C081E080
:101B100090E00E94BD061092FB011092FA010DC0E8
:101B200088EC90E008C08CE291E005C080E991E08B
:101B300002C084EF91E00E94A6060E946E0138CD9B
:101B4000E9E4F2E01382128288EE93E0A0E0B0E0D4
:101B500084839583A683B7832BE231E0318320838E
:101B600025EC30E03587248724EC30E03787268762
:101B700020EC30E0318B208B21EC30E0338B228B5A
:101B800022EC30E0358B248B26EC30E0378B268B33
:101B9000118E128E138E148EE6EEF2E013821282F4
:101BA00084839583A683B7838DE391E091838083BB
:101BB000AAEFB2E080E48C931296FC93EE93119717
:101BC000E4EFF2E0118210821382128215821482F5
:101BD00040E050E06AE771E0CF010E94EB0780EE41
:101BE00090E09093F3028093F202E1E1F1E026E7C6
:101BF00031E03183208388E791E0938382833583CA
:101C0000248397838683E1E0F1E03183208393830B
:101C1000828335832483978386830895E89409C05B
:101C200097FB3EF490958095709561957F4F8F4F0F
:101C30009F4F9923A9F0F92F96E9BB279395F69525
:101C4000879577956795B795F111F8CFFAF4BB0FA3
:101C500011F460FF1BC06F5F7F4F8F4F9F4F16C007
:101C6000882311F096E911C0772321F09EE8872F91
:101C7000762F05C0662371F096E8862F70E060E04D
:101C80002AF09A95660F771F881FDAF7880F9695C6
:101C9000879597F908950E945E0E0C94CF0E0E94CE
:101CA000C10E38F00E94C80E20F0952311F00C945C
:101CB000B80E0C94BE0E11240C94030F0E94E00E7B
:101CC00070F3959FC1F3950F50E0551F629FF0018F
:101CD000729FBB27F00DB11D639FAA27F00DB11DA8
:101CE000AA1F649F6627B00DA11D661F829F222731
:101CF000B00DA11D621F739FB00DA11D621F839FB8
:101D0000A00D611D221F749F3327A00D611D231F8D
:101D1000849F600D211D822F762F6A2F11249F57DB
:101D200050409AF0F1F088234AF0EE0FFF1FBB1FDE
:101D3000661F771F881F91505040A9F79E3F51059D
:101D400080F00C94B80E0C94030F5F3FE4F3983EC0
:101D5000D4F3869577956795B795F795E7959F5F47
:101D6000C1F7FE2B880F911D9695879597F90895D9
:101D700097F99F6780E870E060E008959FEF80EC3E
:101D8000089500240A9416161706180609060895E1
:101D900000240A9412161306140605060895092E47
:101DA0000394000C11F4882352F0BB0F40F4BF2BB6
:101DB00011F460FF04C06F5F7F4F8F4F9F4F0895F6
:101DC00057FD9058440F551F59F05F3F71F04795EC
:101DD000880F97FB991F61F09F3F79F087950895D1
:101DE000121613061406551FF2CF4695F1DF08C0F0
:101DF000161617061806991FF1CF8695710561050D
:101E000008940895E894BB2766277727CB0197F9B4
:101E100008952F923F924F925F926F927F928F928E
:101E20009F92AF92BF92CF92DF92EF92FF920F9369
:101E30001F93CF93DF93CDB7DEB7CA1BDB0B0FB673
:101E4000F894DEBF0FBECDBF09942A883988488830
:101E50005F846E847D848C849B84AA84B984C884C6
:101E6000DF80EE80FD800C811B81AA81B981CE0FBD
:101E7000D11D0FB6F894DEBF0FBECDBFED010895A2
:101E80005058BB27AA270E94580F0C94CF0E0E94CF
:101E9000C10E38F00E94C80E20F039F49F3F19F4AB
:101EA00026F40C94BE0E0EF4E095E7FB0C94B80EED
:101EB000E92F0E94E00E58F3BA17620773078407F0
:101EC000950720F079F4A6F50C94020F0EF4E09536
:101ED0000B2EBA2FA02D0B01B90190010C01CA01E4
:101EE000A0011124FF27591B99F0593F50F4503E8F
:101EF00068F11A16F040A22F232F342F4427585F81
:101F0000F3CF469537952795A795F0405395C9F798
:101F10007EF41F16BA0B620B730B840BBAF0915050
:101F2000A1F0FF0FBB1F661F771F881FC2F70EC0EF
:101F3000BA0F621F731F841F48F4879577956795C2
:101F4000B795F7959E3F08F0B0CF9395880F08F0AE
:101F50009927EE0F9795879508950E94C10F0C94CD
:101F6000CF0E0E94C80E58F00E94C10E40F029F416
:101F70005F3F29F00C94B80E51110C94030F0C9490
:101F8000BE0E0E94E00E68F39923B1F3552391F33E
:101F9000951B550BBB27AA2762177307840738F0D8
:101FA0009F5F5F4F220F331F441FAA1FA9F335D035
:101FB0000E2E3AF0E0E832D091505040E695001CE9
:101FC000CAF72BD0FE2F29D0660F771F881FBB1FA3
:101FD000261737074807AB07B0E809F0BB0B802D81
:101FE000BF01FF2793585F4F3AF09E3F510578F0AD
:101FF0000C94B80E0C94030F5F3FE4F3983ED4F3B7
:10200000869577956795B795F7959F5FC9F7880F80
:10201000911D9695879597F90895E1E0660F771FD2
:10202000881FBB1F621773078407BA0720F0621B63
:10203000730B840BBA0BEE1F88F7E09508950E948E
:1020400026106894B1110C94030F08950E94E80EB5
:1020500088F09F5798F0B92F9927B751B0F0E1F069
:10206000660F771F881F991F1AF0BA95C9F714C019
:10207000B13091F00E94020FB1E008950C94020F6C
:10208000672F782F8827B85F39F0B93FCCF3869552
:1020900077956795B395D9F73EF4909580957095AF
:1020A00061957F4F8F4F9F4F08950E94951090F03C
:1020B0009F3748F4911116F00C94030F60E070E024
:1020C00080E89FEB089526F41B16611D711D811D8C
:1020D0000C946C100C948710882371F4772321F0F2
:1020E0009850872B762F07C0662311F499270DC0CF
:1020F0009051862B70E060E02AF09A95660F771F6A
:10210000881FDAF7880F9695879597F908959F3F6E
:1021100031F0915020F4879577956795B795880FA2
:10212000911D9695879597F908950E94E80EA0F065
:10213000BEE7B91788F4BB279F3860F41616B11DA7
:10214000672F782F8827985FF7CF869577956795C3
:10215000B11D93959639C8F30895A1E21A2EAA1BD2
:10216000BB1BFD010DC0AA1FBB1FEE1FFF1FA21747
:10217000B307E407F50720F0A21BB30BE40BF50B44
:10218000661F771F881F991F1A9469F760957095CD
:10219000809590959B01AC01BD01CF010895EE0F94
:1021A000FF1F0590F491E02D0994CF93DF938230C7
:1021B000910510F482E090E0E091FF02F0910003BD
:1021C00020E030E0C0E0D0E0309711F14081518153
:1021D00048175907C0F04817590761F48281938165
:1021E000209719F09B838A832BC0909300038093E0
:1021F000FF0226C02115310519F04217530718F4C4
:102200009A01BE01DF01EF010280F381E02DDCCFF6
:102210002115310509F1281B390B2430310590F4C3
:1022200012968D919C9113976115710521F0FB0118
:102230009383828304C0909300038093FF02FD0187
:10224000329644C0FD01E20FF31F81939193225017
:1022500031092D933C933AC02091FD023091FE024A
:10226000232B41F420912301309124013093FE026D
:102270002093FD0220912101309122012115310589
:1022800041F42DB73EB74091250150912601241B02
:10229000350BE091FD02F091FE02E217F307A0F486
:1022A0002E1B3F0B2817390778F0AC014E5F5F4FAC
:1022B0002417350748F04E0F5F1F5093FE024093DE
:1022C000FD028193919302C0E0E0F0E0CF01DF9145
:1022D000CF9108950F931F93CF93DF93009709F445
:1022E0008CC0FC013297138212820091FF02109180
:1022F00000030115110581F420813181820F931FA4
:102300002091FD023091FE022817390779F5F093EC
:10231000FE02E093FD0271C0D80140E050E0AE172C
:10232000BF0750F412962D913C911397AD012115E2
:10233000310509F1D901F3CF9D01DA0133832283FD
:1023400060817181860F971F8217930769F4EC01F2
:1023500028813981260F371F2E5F3F4F318320831D
:102360008A819B8193838283452B29F4F093000318
:10237000E093FF0242C01396FC93EE931297ED0197
:10238000499159919E01240F351FE217F30771F40B
:1023900080819181840F951F029611969C938E9354
:1023A0008281938113969C938E931297E0E0F0E0E4
:1023B000D80112968D919C911397009719F0F8010E
:1023C0008C01F6CF8D919C9198012E5F3F4F820F2B
:1023D000931F2091FD023091FE022817390769F4FE
:1023E000309729F4109200031092FF0202C013826A
:1023F00012821093FE020093FD02DF91CF911F9194
:102400000F910895A0E0B0E0E8E0F2E10C940D0F28
:10241000EC01009721F4CB010E94D510B8C0FC015B
:10242000E60FF71F9C0122503109E217F30708F469
:10243000ACC0D9010D911C91119706171707B0F088
:102440000530110508F49FC0C80104978617970747
:1024500008F499C002501109061B170B0193119340
:102460006D937C93CF010E946A118DC05B01A01A0D
:10247000B10A4C01800E911EA091FF02B0910003A1
:1024800040E050E0E12CF12C109709F44AC0A81567
:10249000B905D1F56D907C901197630182E0C80E6B
:1024A000D11CCA14DB0480F1A3014A195B096A013B
:1024B00082E0C80ED11C1296BC9012971396AC9174
:1024C000B5E0CB16D10440F0B282A38351834083A0
:1024D000D9016D937C930AC00E5F1F4FC301800F1B
:1024E000911FF90191838083EB2DFA2FE114F10400
:1024F00031F0D7011396FC93EE93129744C0F093FA
:102500000003E093FF023FC08D919C911197481703
:10251000590708F4AC017D0112960D90BC91A02DD5
:10252000B3CF8091FD029091FE0288159905E1F4E8
:1025300046175707C8F48091210190912201009716
:1025400041F48DB79EB74091250150912601841B1F
:10255000950BE817F907C8F4F093FE02E093FD022B
:10256000F901718360830FC0CB010E94D5107C01FB
:10257000009759F0A801BE010E94D112CE010E941D
:102580006A11C70104C0CE0102C080E090E0CDB75F
:10259000DEB7EEE00C94290F81E090E0F8940C9403
:1025A000EA12FB01DC0102C001900D924150504043
:1025B000D8F70895FB01DC018D910190801901107D
:1025C000D9F3990B0895FB01DC0101900D920020D5
:1025D000E1F7089510E0C2E7D0E004C0FE010E94D8
:0E25E000CF102196C337D107C9F7F894FFCF6B
:1025EE0001000000000000000058029600580296FC
:1025FE0000000000000000000096005802960058EF
:10260E0002000001038000000000000501BE079DCE
:10261E00004C01CE00AC00C000000000005B022B9D
:10262E00028B02FF0123020F020002700030003104
:10263E0000320033003400350036003700380039E0
:10264E000061006200630064006500660044697307
:0C265E0074616E63653A20000D0A0000F4
:00000001FF
