:100000000C946D000C9495000C9495000C94950044
:100010000C9495000C9495000C9495000C9495000C
:100020000C9495000C9495000C9495000C949500FC
:100030000C9495000C9495000C9495000C949500EC
:100040000C94E3020C9495000C942B020C94050282
:100050000C9495000C9495000C9495000C949500CC
:100060000C9435050C949500DD0A070B160B290B33
:10007000340B3F0B520B9F0B5D0B720B0000000803
:10008000000201000003040700000000000000005F
:1000900000000000250028002B00000000002400C4
:1000A00027002A0000000000230026002900040485
:1000B0000404040404040202020202020303030310
:1000C00003030102040810204080010204081020EC
:1000D0000102040810206A0C640C11241FBECFEF2B
:1000E000D8E0DEBFCDBF23E0AEE8B1E001C01D9295
:1000F000A336B207E1F711E0A0E0B1E0E8EEF3E2E9
:1001000002C005900D92AE38B107D9F710E0CCE6E9
:10011000D0E004C02197FE010E94CC0FCB36D1075E
:10012000C9F70E945A090C94E7110C940000089535
:10013000CF92DF92EF92FF920F931F93CF93DF93B3
:100140006C017A018B01C0E0D0E0CE15DF0589F0AB
:10015000D8016D918D01D601ED91FC910190F08156
:10016000E02DC6010995892B11F47E0102C021966C
:10017000ECCFC701DF91CF911F910F91FF90EF90CE
:10018000DF90CF900895FC01538D448D252F30E0F2
:10019000842F90E0821B930B541710F0CF96089594
:1001A00001970895FC01918D828D981761F0828DE1
:1001B000DF01A80FB11D5D968C91928D9F5F9F739B
:1001C000928F90E008958FEF9FEF0895FC01918D3D
:1001D000828D981731F0828DE80FF11D858D90E0AA
:1001E00008958FEF9FEF0895FC01918D228D892F47
:1001F00090E0805C9F4F821B91098F73992708952F
:1002000089E992E00E94F40021E0892B09F420E0C2
:10021000822F0895FC01848DDF01A80FB11DA35A20
:10022000BF4F2C91848D90E001968F739927848F16
:10023000A689B7892C93A089B1898C9180648C930D
:10024000938D848D981306C00288F389E02D8081F8
:100250008F7D80830895EF92FF920F931F93CF932A
:10026000DF93EC0181E0888F9B8D8C8D981305C006
:10027000E889F989808185FD24C0F62E0B8D10E078
:100280000F5F1F4F0F731127E02E8C8DE8120CC0EB
:100290000FB607FCFACFE889F989808185FFF5CF91
:1002A000CE010E940A01F1CF8B8DFE01E80FF11DF6
:1002B000E35AFF4FF0820B8FEA89FB8980818062CD
:1002C00007C0EE89FF896083E889F98980818064AD
:1002D000808381E090E0DF91CF911F910F91FF909B
:1002E000EF900895CF93DF93EC01888D8823C9F0B8
:1002F000EA89FB89808185FD05C0A889B9898C912F
:1003000086FD0FC00FB607FCF5CF808185FFF2CFC9
:10031000A889B9898C9185FFEDCFCE010E940A0191
:10032000E7CFDF91CF91089580E090E0892B29F00D
:100330000E94000181110C94000008953FB7F894C9
:1003400080919B0190919C01A0919D01B0919E0193
:1003500026B5A89B05C02F3F19F00196A11DB11D20
:100360003FBFBA2FA92F982F8827820F911DA11D5B
:10037000B11DBC01CD0142E0660F771F881F991F98
:100380004A95D1F708950E94C911EF92FF920F93F9
:100390001F93CF93DF93EC017B018A0188819981C0
:1003A000009729F02A813B8124173507F8F4B8011A
:1003B0006F5F7F4F0E94FF10009759F099838883E9
:1003C0001B830A832C813D81232B81F4FC01108245
:1003D0000DC088819981009711F00E9467101982E1
:1003E00018821D821C821B821A8207C01D830C8307
:1003F000B701888199810E94E011CE01DF91CF91F0
:100400001F910F91FF90EF9008951F920F920FB6DA
:100410000F9211242F933F934F935F936F937F938A
:100420008F939F93AF93BF93EF93FF9389E992E0EC
:100430000E940A01FF91EF91BF91AF919F918F911F
:100440007F916F915F914F913F912F910F900FBED0
:100450000F901F9018951F920F920FB60F921124B4
:100460002F938F939F93EF93FF93E091A902F091C5
:10047000AA028081E091AF02F091B00282FD12C029
:1004800090818091B2028F5F8F732091B3028217A7
:1004900051F0E091B202F0E0E756FD4F958F809366
:1004A000B20201C08081FF91EF919F918F912F91B6
:1004B0000F900FBE0F901F90189590E0FC01E4582C
:1004C000FF4F3491FC01EE53FF4F2491FC01E255A4
:1004D000FF4FE491EE2309F43BC0332339F133306D
:1004E00091F038F43130A9F0323001F584B58F7DC8
:1004F00012C0373091F03830A1F03430B9F4809127
:1005000080008F7D03C0809180008F778093800072
:100510000DC084B58F7784BD09C08091B0008F77FE
:1005200003C08091B0008F7D8093B000F0E0EE0FAB
:10053000FF1FE057FF4FA591B4918FB7F894EC914E
:10054000611103C020952E2301C02E2B2C938FBF49
:1005500008958F929F92AF92BF92CF92DF92EF92C7
:10056000FF926B017C010E949E014B015C01C11452
:10057000D104E104F104F1F00E949E01DC01CB0101
:1005800088199909AA09BB09883E9340A105B105BC
:1005900070F321E0C21AD108E108F10888EE880E54
:1005A00083E0981EA11CB11CC114D104E104F10424
:1005B00019F7DDCFFF90EF90DF90CF90BF90AF9015
:1005C0009F908F9008951F920F920FB60F92112453
:1005D0002F933F938F939F93AF93BF9380919701F6
:1005E00090919801A0919901B0919A013091960152
:1005F00023E0230F2D3720F40196A11DB11D05C066
:1006000026E8230F0296A11DB11D20939601809329
:10061000970190939801A0939901B0939A018091CA
:100620009B0190919C01A0919D01B0919E0101962A
:10063000A11DB11D80939B0190939C01A0939D01EE
:10064000B0939E01BF91AF919F918F913F912F9158
:100650000F900FBE0F901F901895DC01ED91FC914B
:100660000190F081E02D099485ED8093BC0080918C
:10067000BC0084FDFCCF10927202089540912902C3
:10068000262F30E0240F311D21323105DCF420917A
:1006900072022430C9F4FC0180E090E0861758F41F
:1006A000309129022191DC01A75FBD4FA30FB11D3D
:1006B0002C930196F3CF80912902680F6093290251
:1006C00080E0089581E0089582E00895E0910702B6
:1006D000F0910802309729F010929602109295023C
:1006E00009940895AC01E0919201F0919301309743
:1006F000E1F090917402809173029817B0F090E04D
:10070000292F30E02617370754F4DA01A20FB31F60
:100710008C91D901AB58BD4F8C939F5FF1CF109254
:10072000740260937302CB01099408950895E091D7
:10073000740280917302E81730F4F0E0EB58FD4F3B
:10074000808190E008958FEF9FEF0895909174025B
:1007500080917302981750F4E92FF0E0EB58FD4FA9
:10076000208130E09F5F9093740202C02FEF3FEF33
:10077000C90108958091730290E020917402821B58
:1007800091090895CF92DF92EF92FF920F931F93FA
:10079000CF93DF937C01262F972F8A0180919802B7
:1007A000882391F0C62FD72F6E01C40ED51ECC150D
:1007B000DD0571F06991D701ED91FC910190F08117
:1007C000E02DC7010995F3CF642F822F0E943E03CD
:1007D000C801DF91CF911F910F91FF90EF90DF90B3
:1007E000CF900895CF93DF931F92CDB7DEB7698383
:1007F000209198022223D1F020919502203240F0DE
:1008000021E030E0FC013383228380E090E015C0DA
:1008100080919602E82FF0E0E951FE4F9981908394
:100820008F5F809396028093950205C061E0CE01B0
:1008300001960E943E0381E090E00F90DF91CF91FE
:100840000895089580E090E00895CF93DF93CDB7A9
:10085000DEB728970FB6F894DEBF0FBECDBF9091DC
:10086000730280917402981749F086E393E00E9426
:10087000A6039093E6018093E501F1CF8091E50115
:100880001A8219821C821B821E821D828F83188607
:10089000BE01695F7F4FFB0101900020E9F73197AE
:1008A000AF01461B570BCE0101960E94C5018091F6
:1008B0005603909157030097C9F069817A816115B9
:1008C000710591F040915803509159032D813E815B
:1008D0004217530748F00E94E0118D819E8190934A
:1008E0005B0380935A0318C00E94671089819A8124
:1008F00090935703809356038B819C819093590367
:10090000809358038D819E8190935B0380935A035B
:100910001A8219821C821B821E821D8289819A8101
:100920000E94671040915A0350915B0360915603F7
:100930007091570389E992E00E9498008BE791E05B
:100940000E944C08882331F081E090E0909395015B
:100950008093940187E691E00E944C08882331F04F
:1009600082E090E0909395018093940188E791E074
:100970000E944C08882321F0109295011092940156
:1009800089E691E00E944C08882331F083E090E0F2
:1009900090939501809394018BE691E00E944C081E
:1009A000882331F084E090E0909395018093940146
:1009B0008DE691E00E944C08882331F085E090E0BC
:1009C00090939501809394018FE691E00E944C08EA
:1009D000882331F086E090E0909395018093940114
:1009E00081E791E00E944C08882331F087E090E095
:1009F000909395018093940183E791E00E944C08C5
:100A0000882331F088E090E09093950180939401E1
:100A100085E791E00E944C08882331F089E090E05E
:100A2000909395018093940187E791E00E944C0890
:100A3000882331F08AE090E09093950180939401AF
:100A40008AE791E00E944C08882331F08BE090E027
:100A5000909395018093940128960FB6F894DEBF89
:100A60000FBECDBFDF91CF9108951F920F920FB6A9
:100A70000F9211242F933F934F935F936F937F9324
:100A80008F939F93AF93BF93EF93FF938091B900A0
:100A9000887F803609F49CC068F5883209F45BC011
:100AA00090F4803109F454C038F4882309F4F6C076
:100AB000883009F44DC0F6C0883109F44CC080324A
:100AC00009F45DC0EFC0803409F468C048F4803395
:100AD00009F455C0883309F0E5C080937002D8C08E
:100AE000803509F44FC0883509F45DC0883409F0B9
:100AF000D9C0D6C0883909F4C7C0A8F4883709F42A
:100B000067C038F4883609F463C0803709F460C0E0
:100B1000C9C0883809F4B8C0803909F45FC080388A
:100B200009F0C0C05BC0803B09F486C038F4803A4D
:100B300009F466C0883A09F47FC0B4C0803C09F467
:100B4000A7C0883C09F4A4C0883B09F48AC0AAC0A5
:100B500080916D0210C090916F0280916E02981783
:100B600070F5E0916F0281E08E0F80936F02F0E0EC
:100B7000E45BFD4F80818093BB0085EC86C0809351
:100B800070028EC0E0916F0281E08E0F80936F0241
:100B90008091BB00F0E0E45BFD4F808390916F0299
:100BA00080916E026EC0E0916F0281E08E0F8093A3
:100BB0006F028091BB00F0E0E45BFD4F8083809189
:100BC000710281116DC081E080936C0284EA61C082
:100BD00083E08093720210924B02CFCF80914B0240
:100BE000803208F051C0E0914B0281E08E0F80937B
:100BF0004B028091BB00F0E0E55DFD4F8083BDCFEF
:100C000085EC8093BC001092720280914B0280327E
:100C100030F4E0914B02F0E0E55DFD4F1082609111
:100C20004B0270E0E0918E01F0918F018BE292E037
:100C3000099510924B0236C084E0809372021092A4
:100C40002A0210922902E0919001F09191010995F8
:100C500080912902811105C081E0809329021092C0
:100C60000902E0912A0281E08E0F80932A02F0E0CF
:100C7000E75FFD4F80818093BB0090912A028091B5
:100C80002902981708F479CF85E88093BC000AC040
:100C900085EC8093BC001092720204C01092700226
:100CA0000E943403FF91EF91BF91AF919F918F917B
:100CB0007F916F915F914F913F912F910F900FBE58
:100CC0000F901F9018951092720281E0809371022C
:100CD00010926C0261E082E10E945D0261E083E1BA
:100CE0000E945D02E9EBF0E080818E7F808380814D
:100CF0008D7F808388E48093B80085E48093BC0076
:100D000008952091950290919702213208F04AC0EF
:100D1000809172028111FCCF32E03093720231E097
:100D2000309371023FEF3093700210926F02209364
:100D30006E02A7EEB1E04CE452E0FA013E2F341B04
:100D4000321718F43D913193F9CF10926D02209132
:100D50006D02990F922B90936D0290916C029130DD
:100D600061F410926C0290916D029093BB0090918F
:100D7000BC0093FDF8CF95EC01C095EE9093BC00BC
:100D8000909172029230E1F3909170029F3F79F05E
:100D900080917002803241F080917002803331F096
:100DA00084E005C081E003C082E001C083E01092CE
:100DB0009602109295021092980208954F925F92B7
:100DC0006F927F92AF92BF92CF92DF92EF92FF929B
:100DD0000F931F93CF93DF938C017B01FC01EE0FE8
:100DE000FF1FDF01A75FBE4FCD91DC911197E55E3C
:100DF000FE4F80819181860F971F6F015D01C8179B
:100E0000D9070CF046C02801110F66087708F601D3
:100E1000808191818E0D9F1DC817D90708F041C0B0
:100E2000883522E09207ACF4F50191838083BE01FE
:100E3000802F0E94D40877FE05C0C301B2010E9432
:100E4000AD0805C04AE0C301B2010E946C082196BA
:100E5000DECF8DE791E002C085E891E0DF91CF9190
:100E60001F910F91FF90EF90DF90CF90BF90AF90C8
:100E70007F906F905F904F900C9460078739910539
:100E80005CF3F50191838083BE01802F0E94D4081A
:100E90002197F601808191818E199F098C179D07FA
:100EA00068F3DF91CF911F910F91FF90EF90DF904A
:100EB000CF90BF90AF907F906F905F904F900895CC
:100EC000009769F0FC0101900020E9F73197AF012C
:100ED000481B590BBC0189E992E00C94980080E012
:100EE00090E008951F93CF93DF93162FCCE5D3E0C6
:100EF000988121E020939802909397021092960295
:100F000010929502A981BA81ED91FC9111970190FF
:100F1000F081E02D682FCD01099589819A81DC014E
:100F2000ED91FC910190F081E02D612F099589816F
:100F30009A81DF91CF911F910C948106CF93DF931B
:100F400026E636E646E65FE30E94480D9B01AC01CB
:100F500060E27CEB8EEB95E40E94AA0E20E030E08C
:100F600040E85FE30E943D0E20E030E040E05FE3B8
:100F70000E943E0E0E94520F0E94230FD62F809196
:100F80005C0391E0909398028093970210929602EE
:100F90001092950280915D0390915E03DC01ED91CA
:100FA000FC910190F081E02D60E0099580915D0356
:100FB00090915E030E94810680915C039091720281
:100FC0009111FCCF91E090937202909371022FEFF8
:100FD0002093700210926F0210926E0290936D0235
:100FE00090916D02880F892B80936D0280916C0225
:100FF000813061F410926C0280916D028093BB008D
:101000008091BC0083FDF8CF85EC01C085EE809314
:10101000BC00809172028130E1F380916F028111F6
:1010200003C080916F0201C081E0ACE4B2E025E72B
:1010300032E0F9019E2F921B981718F49D9191931D
:10104000F9CF109274028093730280915D039091A6
:101050005E03DC01ED91FC910284F385E02D09959E
:10106000C82F8F76682F606180E00E9472076D2F15
:101070008EEF0E9472076C2F80E00E94720765E07D
:1010800070E080E090E00E94A9026C2F606A80E02E
:10109000DF91CF910C947207FC0180915A039091DB
:1010A0005B03892B21F421E0309749F413C0809130
:1010B000560390915703309731F421E0FC01808171
:1010C000882341F006C0BF010E94D71121E0892B7F
:1010D00009F020E0822F08958F929F92AF92BF92E5
:1010E0000F931F93CF93DF93CDB7DEB7A1970FB6C2
:1010F000F894DEBF0FBECDBF19A2423008F44AE01B
:101100008E010F5D1F4F842E912CA12CB12CA501B7
:1011100094010E94AA0FE62FB901CA0101501109DA
:10112000EA3014F4E05D01C0E95CD801EC93232BB4
:10113000242B252B61F7C8010E946007A1960FB6EA
:10114000F894DEBF0FBECDBFDF91CF911F910F91FD
:10115000BF90AF909F908F900895CF92DF92EF92C3
:10116000FF92CF93DF936B017C01E0919902F091A4
:101170009A020190F081E02D6DE289E992E00995F3
:10118000EC0166277727CB016C197D098E099F0931
:101190004AE00E946C088C0F9D1FDF91CF91FF9059
:1011A000EF90DF90CF9008950F931F93CF93DF932D
:1011B0008B01CCE5D3E0988121E0209398029093B5
:1011C00097021092960210929502A981BA81ED9130
:1011D000FC91119724E0829FC0011124BC016A5F39
:1011E0007F4F0190F081E02DCD01099560E070E026
:1011F00089819A810E942D0360E070E089819A8143
:101200000E942D03B80189819A810E942D03612FCC
:1012100070E089819A810E942D0389819A81DF91F2
:10122000CF911F910F910C948106CF92DF92EF9294
:10123000FF920F931F93E82FF92F05C0015011095A
:101240002109310961F1908196239417B9F305C002
:10125000015011092109310911F19081962394134C
:10126000F7CFC12CD12CE12CF12C0AC08FEFC81A7A
:10127000D80AE80AF80A0C151D052E053F0579F075
:1012800080818623841791F36C2D7D2D8E2D9F2DCB
:101290001F910F91FF90EF90DF90CF90089560E045
:1012A00070E080E090E01F910F91FF90EF90DF9051
:1012B000CF900895789484B5826084BD84B58160B0
:1012C00084BD85B5826085BD85B5816085BD809111
:1012D0006E00816080936E00109281008091810089
:1012E0008260809381008091810081608093810081
:1012F000809180008160809380008091B100846043
:101300008093B1008091B00081608093B0008091A3
:101310007A00846080937A0080917A008260809362
:101320007A0080917A00816080937A0080917A00BF
:10133000806880937A001092C1001092740210921B
:10134000730210929602109295020E94630660E862
:1013500080E00E9472076AE070E080E090E00E9406
:10136000A90260E070E08AE794E40E949E0760E0D2
:1013700070E080E792E40E949E0783E08093000182
:10138000EEECF0E02491EAEBF0E08491882399F010
:1013900090E0880F991FFC01E656FF4FA591B4918C
:1013A000FC01E057FF4F859194918FB7F894EC9131
:1013B000E22BEC938FBFEFECF0E02491EBEBF0E04D
:1013C00084918823C1F090E0880F991FFC01E656B4
:1013D000FF4FC591D491FC01E057FF4FA591B49107
:1013E0009FB7F8948881E22FE0958E2388838C91B3
:1013F000E823EC939FBFE091A902F091AA0282E05A
:101400008083E091A502F091A6021082E091A702EC
:10141000F091A8028FEC80831092B102E091AD02AE
:10142000F091AE0286E08083E091AB02F091AC02D5
:10143000808180618083E091AB02F091AC02808179
:1014400088608083E091AB02F091AC02808180687B
:101450008083E091AB02F091AC0280818F7D80832C
:1014600088E08093BA0086E693E0909391018093A0
:10147000900182E793E090938F0180938E01109208
:1014800074021092730210929602109295020E94BA
:10149000630685E294E0909393018093920164E661
:1014A00070E080E090E00E94A90223E0E22EF12C9F
:1014B00033E2C32ED12C4FECA42E40E0B42E5BEBD4
:1014C000852E50E0952E60E7762ECFEFDFEF60E0BF
:1014D0008CE00E945D02C7010197F1F761E08CE0AA
:1014E0000E945D02C6010197F1F760E08CE00E9466
:1014F0005D02F5016491F4018491E82FF0E0EE0FB4
:10150000FF1FEC55FF4F8591949100E412E42FE00A
:1015100030E0462F0E94150961157105810591057E
:1015200049F0DC01CB010196A11DB11DBC01CD012B
:101530009F7003C060E070E0CB016093A1017093E5
:10154000A2018093A3019093A4010E940D0D26E9AE
:1015500033E44BE05DE30E94480D20E030E040E0E2
:101560005FE30E94480D0E941C0F7093A0016093DE
:101570009F0189E591E00E94600760919F01709151
:10158000A001072E000C880B990B97FF03C00E9447
:10159000AD0803C04AE00E946C0884E691E00E9416
:1015A0006007E0919401F0919501EA30F10508F0AF
:1015B000C6C0EC5CFF4F0C94CC0F0BE111E0412C4A
:1015C000512C612C312C60E070E0CB010E94A9020B
:1015D000F801619171918F01862D0E94D40860E01D
:1015E00070E0862D932D0E94DE06FFEF4F1A5F0AF2
:1015F00088E04816510409F464C1F3E04F16510421
:1016000019F0642C352CDFCF88E0682EDBCF81E029
:1016100090E09093020180930101909304018093E4
:101620000301D0930601C09305010EC081E090E054
:101630009093020180930101D0930401C0930301B0
:101640009093060180930501D0930801C093070190
:1016500076C081E090E09093020180930101D093E5
:101660000401C093030115C0D0930201C09301018E
:10167000D0930401C093030181E090E0E1CFD093C7
:101680000201C093010181E090E0909304018093F6
:101690000301D0930601C093050190930801809344
:1016A00007014DC0D0930201C093010181E090E099
:1016B0009093040180930301C3CF60E070E081E068
:1016C00090E00E94DE0660E070E088E090E00E941A
:1016D000DE0660E070E085E090E00E94DE0660E0FB
:1016E00070E028C060915403709155037195619525
:1016F000710981E090E00E94DE06609154037091D0
:10170000550371956195710988E090E00E94DE06AD
:10171000609154037091550371956195710985E04D
:1017200090E00E94DE06609154037091550371951C
:101730006195710987E090E00E94DE06C2C06CE905
:101740007FEF81E090E00E94DE066CE97FEF85E0AC
:1017500090E00E94DE0660E070E0CB010E94A902EA
:101760008091010190910201789EB001799E700DE7
:10177000112480E090E00E94DE06809103019091A8
:101780000401789EB001799E700D112482E090E0F2
:101790000E94DE068091050190910601789EB001BD
:1017A000799E700D112484E090E00E94DE06809105
:1017B000070190910801789EB001799E700D112467
:1017C00086E090E00E94DE0660E070E0CB010E94BF
:1017D000A90260E070E081E090E00E94DE0660E037
:1017E00070E085E090E00E94DE0660E070E0CB01F2
:1017F0000E94A9026CE97FEF88E090E00E94DE067B
:101800006CE97FEF87E090E00E94DE0660E070E028
:10181000CB010E94A9028091010190910201789E62
:10182000B001799E700D112471956195710980E068
:1018300090E00E94DE068091030190910401789E61
:10184000B001799E700D112471956195710982E046
:1018500090E00E94DE068091050190910601789E3D
:10186000B001799E700D112471956195710984E024
:1018700090E00E94DE068091070190910801789E19
:10188000B001799E700D112471956195710986E002
:1018900090E00E94DE0660E070E0CB010E94A902A9
:1018A00060E070E088E090E00E94DE0660E070E0BA
:1018B00087E090E00E94DE0660E070E0CB010E94CD
:1018C000A9020E94940103CE809156039091570380
:1018D0000C946710E9E9F2E01382128288EE93E03B
:1018E000A0E0B0E084839583A683B78327E331E04B
:1018F0003183208325EC30E03587248724EC30E0E9
:101900003787268720EC30E0318B208B21EC30E0CC
:10191000338B228B22EC30E0358B248B26EC30E0AD
:10192000378B268B118E128E138E148EE6E3F3E026
:101930001382128284839583A683B78389E491E01E
:1019400091838083ACE5B3E080E48C931296FC93A2
:10195000EE931197E6E5F3E0118210821382128272
:101960001582148240E050E066E671E0CF010E94EB
:10197000C50180EE90E09093550380935403E2E418
:10198000F3E0ABE1B1E08D919C911197805E9109FC
:101990009183808312968D919C911397805E91091B
:1019A0009383828314968D919C911597805E910903
:1019B0009583848316968D919C911797805E9109EB
:1019C0009783868318968D919C911997805E9109D3
:1019D000918780871A968D919C911B97805E9109C3
:1019E000938782871C968D919C911D97805E9109AB
:1019F000958784871E968D919C911F97805E910993
:101A00009787868750968D919C915197805E91091A
:101A1000918B808B0895E89409C097FB3EF49095D4
:101A20008095709561957F4F8F4F9F4F9923A9F0B7
:101A3000F92F96E9BB279395F69587957795679546
:101A4000B795F111F8CFFAF4BB0F11F460FF1BC08A
:101A50006F5F7F4F8F4F9F4F16C0882311F096E91D
:101A600011C0772321F09EE8872F762F05C06623CB
:101A700071F096E8862F70E060E02AF09A95660F84
:101A8000771F881FDAF7880F9695879597F908953D
:101A90000E945B0D0C94CC0D0E94BE0D38F00E948C
:101AA000C50D20F0952311F00C94B50D0C94BB0DD1
:101AB00011240C94000E0E94DD0D70F3959FC1F36C
:101AC000950F50E0551F629FF001729FBB27F00DEC
:101AD000B11D639FAA27F00DB11DAA1F649F662741
:101AE000B00DA11D661F829F2227B00DA11D621F90
:101AF000739FB00DA11D621F839FA00D611D221F4A
:101B0000749F3327A00D611D231F849F600D211D2D
:101B1000822F762F6A2F11249F5750409AF0F1F0B0
:101B200088234AF0EE0FFF1FBB1F661F771F881F19
:101B300091505040A9F79E3F510580F00C94B50D8F
:101B40000C94000E5F3FE4F3983ED4F386957795AE
:101B50006795B795F795E7959F5FC1F7FE2B880FBF
:101B6000911D9695879597F9089597F99F6780E855
:101B700070E060E008959FEF80EC089500240A94DF
:101B80001616170618060906089500240A94121658
:101B90001306140605060895092E0394000C11F48B
:101BA000882352F0BB0F40F4BF2B11F460FF04C038
:101BB0006F5F7F4F8F4F9F4F089557FD9058440F91
:101BC000551F59F05F3F71F04795880F97FB991F9C
:101BD00061F09F3F79F08795089512161306140659
:101BE000551FF2CF4695F1DF08C0161617061806E6
:101BF000991FF1CF86957105610508940895E894C1
:101C0000BB2766277727CB0197F908952F923F923C
:101C10004F925F926F927F928F929F92AF92BF92FC
:101C2000CF92DF92EF92FF920F931F93CF93DF93A8
:101C3000CDB7DEB7CA1BDB0B0FB6F894DEBF0FBE05
:101C4000CDBF09942A88398848885F846E847D8452
:101C50008C849B84AA84B984C884DF80EE80FD8054
:101C60000C811B81AA81B981CE0FD11D0FB6F894CA
:101C7000DEBF0FBECDBFED0108955058BB27AA2788
:101C80000E94550E0C94CC0D0E94BE0D38F00E949F
:101C9000C50D20F039F49F3F19F426F40C94BB0DC8
:101CA0000EF4E095E7FB0C94B50DE92F0E94DD0DD5
:101CB00058F3BA17620773078407950720F079F481
:101CC000A6F50C94FF0D0EF4E0950B2EBA2FA02D67
:101CD0000B01B90190010C01CA01A0011124FF27D9
:101CE000591B99F0593F50F4503E68F11A16F040D4
:101CF000A22F232F342F4427585FF3CF46953795D3
:101D00002795A795F0405395C9F77EF41F16BA0B97
:101D1000620B730B840BBAF09150A1F0FF0FBB1F45
:101D2000661F771F881FC2F70EC0BA0F621F731F8E
:101D3000841F48F4879577956795B795F7959E3FEB
:101D400008F0B0CF9395880F08F09927EE0F97957C
:101D5000879508950E94BE0E0C94CC0D0E94C50D6F
:101D600058F00E94BE0D40F029F45F3F29F00C941A
:101D7000B50D51110C94000E0C94BB0D0E94DD0D9D
:101D800068F39923B1F3552391F3951B550BBB27AA
:101D9000AA2762177307840738F09F5F5F4F220FEF
:101DA000331F441FAA1FA9F335D00E2E3AF0E0E8E6
:101DB00032D091505040E695001CCAF72BD0FE2F30
:101DC00029D0660F771F881FBB1F261737074807C4
:101DD000AB07B0E809F0BB0B802DBF01FF2793587C
:101DE0005F4F3AF09E3F510578F00C94B50D0C947E
:101DF000000E5F3FE4F3983ED4F3869577956795A0
:101E0000B795F7959F5FC9F7880F911D96958795B0
:101E100097F90895E1E0660F771F881FBB1F6217CF
:101E200073078407BA0720F0621B730B840BBA0B8D
:101E3000EE1F88F7E09508950E94230F6894B11172
:101E40000C94000E08950E94E50D88F09F5798F0BD
:101E5000B92F9927B751B0F0E1F0660F771F881FAF
:101E6000991F1AF0BA95C9F714C0B13091F00E94C9
:101E7000FF0DB1E008950C94FF0D672F782F882790
:101E8000B85F39F0B93FCCF3869577956795B395F0
:101E9000D9F73EF490958095709561957F4F8F4F5F
:101EA0009F4F08950E94920F90F09F3748F4911130
:101EB00016F00C94000E60E070E080E89FEB08954F
:101EC00026F41B16611D711D811D0C94690F0C9465
:101ED000840F882371F4772321F09850872B762F75
:101EE00007C0662311F499270DC09051862B70E02E
:101EF00060E02AF09A95660F771F881FDAF7880F3F
:101F00009695879597F908959F3F31F0915020F469
:101F1000879577956795B795880F911D96958795C5
:101F200097F908950E94E50DA0F0BEE7B91788F46F
:101F3000BB279F3860F41616B11D672F782F8827AE
:101F4000985FF7CF869577956795B11D93959639EC
:101F5000C8F30895A1E21A2EAA1BBB1BFD010DC0F8
:101F6000AA1FBB1FEE1FFF1FA217B307E407F50749
:101F700020F0A21BB30BE40BF50B661F771F881F25
:101F8000991F1A9469F760957095809590959B01BB
:101F9000AC01BD01CF010895EE0FFF1F0590F49134
:101FA000E02D0994CF93DF938230910510F482E005
:101FB00090E0E0916103F091620320E030E0C0E046
:101FC000D0E0309711F14081518148175907C0F096
:101FD0004817590761F482819381209719F09B83F8
:101FE0008A832BC0909362038093610326C02115DE
:101FF000310519F04217530718F49A01BE01DF01A9
:10200000EF010280F381E02DDCCF2115310509F1CC
:10201000281B390B2430310590F412968D919C9138
:1020200013976115710521F0FB019383828304C02E
:102030009093620380936103FD01329644C0FD01D9
:10204000E20FF31F81939193225031092D933C931A
:102050003AC020915F0330916003232B41F420911B
:102060002F01309130013093600320935F03209162
:102070002D0130912E012115310541F42DB73EB7C8
:102080004091310150913201241B350BE0915F03E7
:10209000F0916003E217F307A0F42E1B3F0B281703
:1020A000390778F0AC014E5F5F4F2417350748F0D1
:1020B0004E0F5F1F5093600340935F038193919392
:1020C00002C0E0E0F0E0CF01DF91CF9108950F93DF
:1020D0001F93CF93DF93009709F48CC0FC013297D4
:1020E00013821282009161031091620301151105A0
:1020F00081F420813181820F931F20915F03309101
:1021000060032817390779F5F0936003E0935F03C4
:1021100071C0D80140E050E0AE17BF0750F41296EE
:102120002D913C911397AD012115310509F1D9018C
:10213000F3CF9D01DA013383228360817181860FA1
:10214000971F8217930769F4EC0128813981260FC4
:10215000371F2E5F3F4F318320838A819B8193837A
:102160008283452B29F4F0936203E093610342C01C
:102170001396FC93EE931297ED01499159919E01AC
:10218000240F351FE217F30771F480819181840FCA
:10219000951F029611969C938E938281938113963C
:1021A0009C938E931297E0E0F0E0D80112968D9107
:1021B0009C911397009719F0F8018C01F6CF8D913F
:1021C0009C9198012E5F3F4F820F931F20915F03D8
:1021D000309160032817390769F4309729F4109279
:1021E00062031092610302C0138212821093600393
:1021F00000935F03DF91CF911F910F910895A0E0AD
:10220000B0E0E5E0F1E10C940A0EEC01009721F456
:10221000CB010E94D20FB8C0FC01E60FF71F9C0152
:1022200022503109E217F30708F4ACC0D9010D912F
:102230001C91119706171707B0F00530110508F427
:102240009FC0C80104978617970708F499C00250E9
:102250001109061B170B019311936D937C93CF010A
:102260000E9467108DC05B01A01AB10A4C01800E5C
:10227000911EA0916103B091620340E050E0E12C17
:10228000F12C109709F44AC0A815B905D1F56D9045
:102290007C901197630182E0C80ED11CCA14DB0444
:1022A00080F1A3014A195B096A0182E0C80ED11CC2
:1022B0001296BC9012971396AC91B5E0CB16D10450
:1022C00040F0B282A38351834083D9016D937C9304
:1022D0000AC00E5F1F4FC301800F911FF901918348
:1022E0008083EB2DFA2FE114F10431F0D70113961E
:1022F000FC93EE93129744C0F0936203E093610362
:102300003FC08D919C9111974817590708F4AC0173
:102310007D0112960D90BC91A02DB3CF80915F03EB
:102320009091600388159905E1F446175707C8F4A2
:1023300080912D0190912E01009741F48DB79EB7A9
:102340004091310150913201841B950BE817F90738
:10235000C8F4F0936003E0935F03F9017183608335
:102360000FC0CB010E94D20F7C01009759F0A80149
:10237000BE010E94CE11CE010E946710C70104C0A9
:10238000CE0102C080E090E0CDB7DEB7EEE00C9465
:10239000260E81E090E0F8940C94E711FB01DC013B
:1023A00002C001900D9241505040D8F70895FB01B2
:1023B000DC018D91019080190110D9F3990B0895DA
:1023C000FB01DC0101900D920020E1F7089510E07F
:1023D000CCE6D0E004C0FE010E94CC0F2196CD36A1
:0823E000D107C9F7F894FFCF03
:1023E8000101000100FFFFFFFF3B01EF014F011753
:1023F800021A01AE019A01CC014F013B01EF014FD6
:102408000117025E01AE019A01CC014F0100006381
:10241800038000000000002B019800C3007201F443
:1024280000D200E60000000000F203C20322049676
:1024380003BA03A6039703700044697374616E635B
:10244800653A20000D0A00320033003400350036AA
:1024580000370038003900313000313100626967D7
:0E2468006765722100736D616C6C65722100F6
:00000001FF
