:100000000C946D000C9495000C9495000C94950044
:100010000C9495000C9495000C9495000C9495000C
:100020000C9495000C9495000C9495000C949500FC
:100030000C9495000C9495000C9495000C949500EC
:100040000C94B8080C9495000C9400080C94DA07F2
:100050000C9495000C9495000C9495000C949500CC
:100060000C9498020C949500870CB00CB30CB80C4F
:10007000BB0CC00CC30CF50CC80CDD0C0000000858
:10008000000201000003040700000000000000005F
:1000900000000000250028002B00000000002400C4
:1000A00027002A0000000000230026002900040485
:1000B0000404040404040202020202020303030310
:1000C00003030102040810204080010204081020EC
:1000D000010204081020F80C030B11241FBECFEFFF
:1000E000D8E0DEBFCDBF23E0A6E8B1E001C01D929D
:1000F000AB35B207E1F711E0A0E0B1E0E4E0F5E2F2
:1001000002C005900D92A638B107D9F710E0CCE6F1
:10011000D0E004C02197FE010E945A10CB36D107CF
:10012000C9F70E94090B0C9475120C94000085ED20
:100130008093BC008091BC0084FDFCCF10926A02C9
:10014000089540910A02262F30E0240F311D2132FC
:100150003105DCF420916A022430C9F4FC0180E00E
:1001600090E0861758F430910A022191DC01A651E3
:10017000BE4FA30FB11D2C930196F3CF80910A02BD
:10018000680F60930A0280E0089581E0089582E09C
:100190000895E091E801F091E901309729F010927B
:1001A0008E0210928D0209940895AC01E091310203
:1001B000F09132023097E1F090916C0280916B02E5
:1001C0009817B0F090E0292F30E02617370754F445
:1001D000DA01A20FB31F8C91D901A359BD4F8C93A3
:1001E0009F5FF1CF10926C0260936B02CB01099478
:1001F00008950895E0916C0280916B02E81730F445
:10020000F0E0E359FD4F808190E008958FEF9FEF7C
:10021000089590916C0280916B02981750F4E92F29
:10022000F0E0E359FD4F208130E09F5F90936C0236
:1002300002C02FEF3FEFC901089580916B0290E05B
:1002400020916C02821B91090895CF92DF92EF9268
:10025000FF920F931F93CF93DF937C01262F972F4D
:100260008A0180919002882391F0C62FD72F6E01CA
:10027000C40ED51ECC15DD0571F06991D701ED9145
:10028000FC910190F081E02DC7010995F3CF642F17
:10029000822F0E94A100C801DF91CF911F910F9181
:1002A000FF90EF90DF90CF900895CF93DF931F9250
:1002B000CDB7DEB76983209190022223D1F020913F
:1002C0008D02203240F021E030E0FC0133832283B4
:1002D00080E090E015C080918E02E82FF0E0E853B6
:1002E000FE4F998190838F5F80938E0280938D0261
:1002F00005C061E0CE0101960E94A10081E090E07E
:100300000F90DF91CF910895089580E090E00895D7
:10031000CF93DF93CDB7DEB728970FB6F894DEBF43
:100320000FBECDBF90916B0280916C02981749F07F
:100330008EE293E00E9409019093C7018093C60169
:10034000F1CF8091C6011A8219821C821B821E8203
:100350001D828F831886BE01695F7F4FFB0101906C
:100360000020E9F73197AF01461B570BCE010196EC
:100370000E949A0780914E0390914F030097C9F015
:1003800069817A816115710591F040915003509116
:1003900051032D813E814217530748F00E946E128F
:1003A0008D819E81909353038093520318C00E94C5
:1003B000F51089819A8190934F0380934E038B812E
:1003C0009C8190935103809350038D819E819093E3
:1003D0005303809352031A8219821C821B821E824D
:1003E0001D8289819A810E94F5104091520350919B
:1003F000530360914E0370914F0381E992E00E9494
:100400006D0685E691E00E94F509882331F081E0D0
:1004100090E0909336028093350281E591E00E944E
:10042000F509882331F082E090E0909336028093C2
:10043000350282E691E00E94F509882321F01092AE
:1004400036021092350283E591E00E94F509882377
:1004500031F083E090E0909336028093350285E599
:1004600091E00E94F509882331F084E090E09093B8
:1004700036028093350287E591E00E94F5098823D2
:1004800031F085E090E0909336028093350289E563
:1004900091E00E94F509882331F086E090E0909386
:1004A0003602809335028BE591E00E94F50988239E
:1004B00031F087E090E090933602809335028DE52D
:1004C00091E00E94F509882331F088E090E0909354
:1004D0003602809335028FE591E00E94F50988236A
:1004E00031F089E090E0909336028093350281E606
:1004F00091E00E94F509882331F08AE090E0909322
:1005000036028093350284E691E00E94F509882343
:1005100031F08BE090E0909336028093350228967C
:100520000FB6F894DEBF0FBECDBFDF91CF91089517
:100530001F920F920FB60F9211242F933F934F9358
:100540005F936F937F938F939F93AF93BF93EF933B
:10055000FF938091B900887F803609F49CC068F5CC
:10056000883209F45BC090F4803109F454C038F447
:10057000882309F4F6C0883009F44DC0F6C08831EC
:1005800009F44CC0803209F45DC0EFC0803409F436
:1005900068C048F4803309F455C0883309F0E5C0D9
:1005A00080936802D8C0803509F44FC0883509F4BB
:1005B0005DC0883409F0D9C0D6C0883909F4C7C0F5
:1005C000A8F4883709F467C038F4883609F463C0A2
:1005D000803709F460C0C9C0883809F4B8C08039D0
:1005E00009F45FC0803809F0C0C05BC0803B09F4EB
:1005F00086C038F4803A09F466C0883A09F47FC0AE
:10060000B4C0803C09F4A7C0883C09F4A4C0883B6E
:1006100009F48AC0AAC08091650210C09091670257
:1006200080916602981770F5E091670281E08E0F65
:1006300080936702F0E0EC5BFD4F80818093BB000C
:1006400085EC86C0809368028EC0E091670281E0ED
:100650008E0F809367028091BB00F0E0EC5BFD4F52
:10066000808390916702809166026EC0E09167027C
:1006700081E08E0F809367028091BB00F0E0EC5B1D
:10068000FD4F80838091690281116DC081E080936C
:10069000640284EA61C083E080936A0210922C02B3
:1006A000CFCF80912C02803208F051C0E0912C0213
:1006B00081E08E0F80932C028091BB00F0E0E45F1C
:1006C000FD4F8083BDCF85EC8093BC0010926A0201
:1006D00080912C02803230F4E0912C02F0E0E45F53
:1006E000FD4F108260912C0270E0E0912D02F0919C
:1006F0002E028CE092E0099510922C0236C084E024
:1007000080936A0210920B0210920A02E0912F026B
:10071000F0913002099580910A02811105C081E0B3
:1007200080930A021092EA01E0910B0281E08E0FA1
:1007300080930B02F0E0E651FE4F80818093BB0076
:1007400090910B0280910A02981708F479CF85E8FE
:100750008093BC000AC085EC8093BC0010926A02B2
:1007600004C0109268020E949700FF91EF91BF9120
:10077000AF919F918F917F916F915F914F913F9139
:100780002F910F900FBE0F901F90189510926A0234
:1007900081E0809369021092640261E082E10E942C
:1007A000320861E083E10E943208E9EBF0E08081E9
:1007B0008E7F808380818D7F808388E48093B800E2
:1007C00085E48093BC00089520918D0290918F0262
:1007D000213208F04AC080916A028111FCCF32E0D8
:1007E00030936A0231E0309369023FEF3093680240
:1007F0001092670220936602A8ECB1E044E452E054
:10080000FA013E2F341B321718F43D913193F9CF82
:100810001092650220916502990F922B90936502C8
:1008200090916402913061F410926402909165029B
:100830009093BB009091BC0093FDF8CF95EC01C064
:1008400095EE9093BC0090916A029230E1F3909102
:1008500068029F3F79F080916802803241F0809178
:100860006802803331F084E005C081E003C082E09B
:1008700001C083E010928E0210928D0210929002BD
:1008800008954F925F926F927F92AF92BF92CF92F4
:10089000DF92EF92FF920F931F93CF93DF938C0120
:1008A0007B01FC01EE0FFF1FDF01A050BF4FCD9178
:1008B000DC911197ED5EFE4F80819181860F971F2D
:1008C0006F015D01C817D9070CF046C02801110F50
:1008D00066087708F601808191818E0D9F1DC817EB
:1008E000D90708F041C0883522E09207ACF4F50141
:1008F00091838083BE01802F0E947D0A77FE05C010
:10090000C301B2010E94560A05C04AE0C301B20108
:100910000E94150A2196DECF87E691E002C08FE69D
:1009200091E0DF91CF911F910F91FF90EF90DF90B9
:10093000CF90BF90AF907F906F905F904F900C944E
:100940000909873991055CF3F50191838083BE0124
:10095000802F0E947D0A2197F601808191818E1956
:100960009F098C179D0768F3DF91CF911F910F911D
:10097000FF90EF90DF90CF90BF90AF907F906F90FF
:100980005F904F9008950F931F93CF93DF938C0147
:100990006CE97FEF81E090E00E9441046CE97FEF19
:1009A00085E090E00E94410460E070E0CB010E948D
:1009B0007E0880E7809FE001819FD00D1124BE0159
:1009C00080E090E00E944104002711270C1B1D0BC2
:1009D000B80182E090E00E944104BE0184E090E012
:1009E0000E944104B80186E090E00E94410460E06A
:1009F00070E0CB010E947E0860E070E081E090E052
:100A00000E94410460E070E085E090E00E944104B3
:100A100060E070E0CB010E947E086CE97FEF88E027
:100A200090E00E9441046CE97FEF87E090E00E9433
:100A3000410460E070E0CB010E947E08B80180E0D4
:100A400090E00E944104BE0182E090E00E944104D7
:100A5000B80184E090E00E944104BE0186E090E08D
:100A60000E94410460E070E0CB010E947E0860E0DB
:100A700070E088E090E00E94410460E070E087E070
:100A800090E00E94410460E070E0CB01DF91CF91E3
:100A90001F910F910C947E080F931F93CF93DF93B8
:100AA0008C016CE97FEF81E090E00E9441046CE9E9
:100AB0007FEF85E090E00E94410460E070E0CB01B0
:100AC0000E947E0880E7809FE001819FD00D112465
:100AD000BE0180E090E00E944104BE0182E090E00F
:100AE0000E944104002711270C1B1D0BB80184E054
:100AF00090E00E944104B80186E090E00E94410429
:100B000060E070E0CB010E947E0860E070E081E070
:100B100090E00E94410460E070E085E090E00E9477
:100B2000410460E070E0CB010E947E086CE97FEF39
:100B300088E090E00E9441046CE97FEF87E090E05C
:100B40000E94410460E070E0CB010E947E08B80181
:100B500080E090E00E944104B80182E090E00E94B1
:100B60004104BE0184E090E00E944104BE0186E0A1
:100B700090E00E94410460E070E0CB010E947E089A
:100B800060E070E088E090E00E94410460E070E086
:100B900087E090E00E94410460E070E0CB01DF91CB
:100BA000CF911F910F910C947E080F931F93CF93B9
:100BB000DF9320913302309134022431310514F453
:100BC00097FD85C08C016CE97FEF81E090E00E9489
:100BD00041046CE97FEF85E090E00E94410460E011
:100BE00070E0CB010E947E0880E7809FE001819F3A
:100BF000D00D1124BE0180E090E00E944104002746
:100C000011270C1B1D0BB80182E090E00E944104EB
:100C1000B80184E090E00E944104BE0186E090E0CB
:100C20000E94410460E070E0CB010E947E0860E019
:100C300070E081E090E00E94410460E070E085E0B7
:100C400090E00E94410460E070E0CB010E947E08C9
:100C50006CE97FEF88E090E00E9441046CE97FEF4F
:100C600087E090E00E94410460E070E0CB010E94C8
:100C70007E08B80180E090E00E944104BE0182E05D
:100C800090E00E944104BE0184E090E00E94410493
:100C9000B80186E090E00E94410460E070E0CB0182
:100CA0000E947E0860E070E088E090E00E944104CD
:100CB00060E070E087E090E00E94410460E070E056
:100CC000CB01DF91CF911F910F910C947E08DF91A2
:100CD000CF911F910F9108950895CF92DF92EF92D7
:100CE000FF920F931F93CF93DF936C017A018B01D7
:100CF000C0E0D0E0CE15DF0589F0D8016D918D01FF
:100D0000D601ED91FC910190F081E02DC60109958D
:100D1000892B11F47E0102C02196ECCFC701DF912F
:100D2000CF911F910F91FF90EF90DF90CF9008959A
:100D3000FC01538D448D252F30E0842F90E0821BE1
:100D4000930B541710F0CF96089501970895FC0166
:100D5000918D828D981761F0828DDF01A80FB11DF2
:100D60005D968C91928D9F5F9F73928F90E0089516
:100D70008FEF9FEF0895FC01918D828D981731F0D0
:100D8000828DE80FF11D858D90E008958FEF9FEF24
:100D90000895FC01918D228D892F90E0805C9F4FFA
:100DA000821B91098F739927089581E992E00E942F
:100DB000C90621E0892B09F420E0822F0895FC0167
:100DC000848DDF01A80FB11DA35ABF4F2C91848DD4
:100DD00090E001968F739927848FA689B7892C9309
:100DE000A089B1898C9180648C93938D848D9813A4
:100DF00006C00288F389E02D80818F7D808308956D
:100E0000EF92FF920F931F93CF93DF93EC0181E05A
:100E1000888F9B8D8C8D981305C0E889F989808116
:100E200085FD24C0F62E0B8D10E00F5F1F4F0F7352
:100E30001127E02E8C8DE8120CC00FB607FCFACFFC
:100E4000E889F989808185FFF5CFCE010E94DF0610
:100E5000F1CF8B8DFE01E80FF11DE35AFF4FF082B9
:100E60000B8FEA89FB898081806207C0EE89FF8948
:100E70006083E889F98980818064808381E090E0E3
:100E8000DF91CF911F910F91FF90EF900895CF9335
:100E9000DF93EC01888D8823C9F0EA89FB89808182
:100EA00085FD05C0A889B9898C9186FD0FC00FB654
:100EB00007FCF5CF808185FFF2CFA889B9898C9195
:100EC00085FFEDCFCE010E94DF06E7CFDF91CF9106
:100ED000089580E090E0892B29F00E94D5068111C9
:100EE0000C94000008953FB7F89480913C029091D3
:100EF0003D02A0913E02B0913F0226B5A89B05C0DD
:100F00002F3F19F00196A11DB11D3FBFBA2FA92F88
:100F1000982F8827820F911DA11DB11DBC01CD0105
:100F200042E0660F771F881F991F4A95D1F70895F1
:100F30000E945712EF92FF920F931F93CF93DF936C
:100F4000EC017B018A0188819981009729F02A812F
:100F50003B8124173507F8F4B8016F5F7F4F0E947B
:100F60008D11009759F0998388831B830A832C8104
:100F70003D81232B81F4FC0110820DC08881998171
:100F8000009711F00E94F510198218821D821C82B0
:100F90001B821A8207C01D830C83B7018881998147
:100FA0000E946E12CE01DF91CF911F910F91FF90A1
:100FB000EF9008951F920F920FB60F9211242F9366
:100FC0003F934F935F936F937F938F939F93AF93D1
:100FD000BF93EF93FF9381E992E00E94DF06FF91B8
:100FE000EF91BF91AF919F918F917F916F915F91A1
:100FF0004F913F912F910F900FBE0F901F9018951A
:101000001F920F920FB60F9211242F938F939F93DD
:10101000EF93FF93E091A102F091A2028081E09111
:10102000A702F091A80282FD12C090818091AA02CD
:101030008F5F8F732091AB02821751F0E091AA026B
:10104000F0E0EF56FD4F958F8093AA0201C080819A
:10105000FF91EF919F918F912F910F900FBE0F9065
:101060001F90189590E0FC01E458FF4F3491FC016B
:10107000EE53FF4F2491FC01E255FF4FE491EE2324
:1010800009F43BC0332339F1333091F038F4313077
:10109000A9F0323001F584B58F7D12C0373091F060
:1010A0003830A1F03430B9F4809180008F7D03C0D6
:1010B000809180008F77809380000DC084B58F77FA
:1010C00084BD09C08091B0008F7703C08091B000CB
:1010D0008F7D8093B000F0E0EE0FFF1FE057FF4FD1
:1010E000A591B4918FB7F894EC91611103C020954C
:1010F0002E2301C02E2B2C938FBF08958F929F9289
:10110000AF92BF92CF92DF92EF92FF926B017C0180
:101110000E9473074B015C01C114D104E104F10486
:10112000F1F00E947307DC01CB0188199909AA0923
:10113000BB09883E9340A105B10570F321E0C21AB6
:10114000D108E108F10888EE880E83E0981EA11C02
:10115000B11CC114D104E104F10419F7DDCFFF90F3
:10116000EF90DF90CF90BF90AF909F908F900895B9
:101170001F920F920FB60F9211242F933F938F93CC
:101180009F93AF93BF938091380290913902A091C1
:101190003A02B0913B023091370223E0230F2D3702
:1011A00020F40196A11DB11D05C026E8230F02966B
:1011B000A11DB11D2093370280933802909339020C
:1011C000A0933A02B0933B0280913C0290913D0281
:1011D000A0913E02B0913F020196A11DB11D8093E6
:1011E0003C0290933D02A0933E02B0933F02BF9118
:1011F000AF919F918F913F912F910F900FBE0F90C4
:101200001F901895DC01ED91FC910190F081E02D8B
:101210000994009769F0FC0101900020E9F73197EB
:10122000AF01481B590BBC0181E992E00C946D069B
:1012300080E090E008951F93CF93DF93162FC4E5CD
:10124000D3E0988121E02093900290938F02109236
:101250008E0210928D02A981BA81ED91FC911197B5
:101260000190F081E02D682FCD01099589819A8147
:10127000DC01ED91FC910190F081E02D612F099549
:1012800089819A81DF91CF911F910C94E403CF93D0
:10129000DF9326E636E646E65FE30E94D60D9B0125
:1012A000AC0160E27CEB8EEB95E40E94380F20E00D
:1012B00030E040E85FE30E94CB0E20E030E040E009
:1012C0005FE30E94CC0E0E94E00F0E94B10FD62F68
:1012D0008091540391E09093900280938F0210923A
:1012E0008E0210928D028091550390915603DC017D
:1012F000ED91FC910190F081E02D60E009958091E5
:101300005503909156030E94E403809154039091F9
:101310006A029111FCCF91E090936A029093690266
:101320002FEF20936802109267021092660290934A
:10133000650290916502880F892B809365028091E8
:101340006402813061F4109264028091650280939E
:10135000BB008091BC0083FDF8CF85EC01C085EE19
:101360008093BC0080916A028130E1F38091670232
:10137000811103C08091670201C081E0A4E4B2E062
:101380002DE632E0F9019E2F921B981718F49D91DB
:101390009193F9CF10926C0280936B028091550368
:1013A00090915603DC01ED91FC910284F385E02DD0
:1013B0000995C82F8F76682F606180E00E941B0915
:1013C0006D2F8EEF0E941B096C2F80E00E941B097D
:1013D00065E070E080E090E00E947E086C2F606A1B
:1013E00080E0DF91CF910C941B09FC0180915203A6
:1013F00090915303892B21F421E0309749F413C0D5
:1014000080914E0390914F03309731F421E0FC011D
:101410008081882341F006C0BF010E94651221E04F
:10142000892B09F020E0822F08958F929F92AF922E
:10143000BF920F931F93CF93DF93CDB7DEB7A197E2
:101440000FB6F894DEBF0FBECDBF19A2423008F42C
:101450004AE08E010F5D1F4F842E912CA12CB12CE0
:10146000A50194010E943810E62FB901CA0101506C
:101470001109EA3014F4E05D01C0E95CD801EC9395
:10148000232B242B252B61F7C8010E940909A19663
:101490000FB6F894DEBF0FBECDBFDF91CF911F9185
:1014A0000F91BF90AF909F908F900895CF92DF9251
:1014B000EF92FF92CF93DF936B017C01E091910259
:1014C000F09192020190F081E02D6DE281E992E0CD
:1014D0000995EC0166277727CB016C197D098E09E8
:1014E0009F094AE00E94150A8C0F9D1FDF91CF9142
:1014F000FF90EF90DF90CF9008950F931F93CF93BD
:10150000DF938B01C4E5D3E0988121E02093900222
:1015100090938F0210928E0210928D02A981BA814F
:10152000ED91FC91119724E0829FC0011124BC0130
:101530006A5F7F4F0190F081E02DCD01099560E059
:1015400070E089819A810E94020960E070E08981DF
:101550009A810E940209B80189819A810E94020938
:10156000612F70E089819A810E94020989819A81A4
:10157000DF91CF911F910F910C94E403CF92DF92F2
:10158000EF92FF920F931F93E82FF92F05C00150A0
:1015900011092109310961F1908196239417B9F35A
:1015A00005C0015011092109310911F190819623DB
:1015B0009413F7CFC12CD12CE12CF12C0AC08FEF62
:1015C000C81AD80AE80AF80A0C151D052E053F05A9
:1015D00079F080818623841791F36C2D7D2D8E2DDB
:1015E0009F2D1F910F91FF90EF90DF90CF90089566
:1015F00060E070E080E090E01F910F91FF90EF902D
:10160000DF90CF90089580914E0390914F030C94FA
:10161000F510789484B5826084BD84B5816084BD02
:1016200085B5826085BD85B5816085BD80916E0080
:10163000816080936E0010928100809181008260B1
:1016400080938100809181008160809381008091EE
:1016500080008160809380008091B10084608093DD
:10166000B1008091B00081608093B00080917A00D9
:10167000846080937A0080917A00826080937A00FF
:1016800080917A00816080937A0080917A008068EE
:1016900080937A001092C10010926C0210926B023B
:1016A00010928E0210928D020E94C60360E880E0C4
:1016B0000E941B096AE070E080E090E00E947E08D2
:1016C00060E070E08AE794E40E94470960E070E01F
:1016D00080E792E40E94470983E080931201EEECD8
:1016E000F0E02491EAEBF0E08491882399F090E017
:1016F000880F991FFC01E656FF4FA591B491FC019C
:10170000E057FF4F859194918FB7F894EC91E22BBD
:10171000EC938FBFEFECF0E02491EBEBF0E08491E1
:101720008823C1F090E0880F991FFC01E656FF4F17
:10173000C591D491FC01E057FF4FA591B4919FB79B
:10174000F8948881E22FE0958E2388838C91E8239A
:10175000EC939FBFE091A102F091A20282E080830E
:10176000E0919D02F0919E021082E0919F02F09123
:10177000A0028FEC80831092A902E091A502F09163
:10178000A60286E08083E091A302F091A40280810A
:1017900080618083E091A302F091A402808188603F
:1017A0008083E091A302F091A4028081806880830D
:1017B000E091A302F091A40280818F7D808388E074
:1017C0008093BA0089EC90E09093300280932F02CE
:1017D00085ED90E090932E0280932D0210926C0282
:1017E00010926B0210928E0210928D020E94C6031C
:1017F00088E891E0909332028093310264E670E0D1
:1018000080E090E00E947E08C3E0D0E053E2E52E45
:10181000F12C6FECC62E60E0D62E7BEBA72E70E08D
:10182000B72E60E08CE00E943208CE010197F1F7FC
:1018300061E08CE00E943208C7010197F1F760E097
:101840008CE00E943208F6016491F501249130E0A9
:10185000220F331F2C553F4FF9018591949100E4DD
:1018600012E42FE030E0462F0E94BE0A6115710598
:101870008105910549F0DC01CB010196A11DB11D47
:10188000BC01CD019F7003C060E070E0CB016093AC
:1018900040027093410280934202909343020E945F
:1018A0009B0D26E933E44BE05DE30E94D60D20E07A
:1018B00030E040E05FE30E94D60D0E94AA0F7093D3
:1018C00034026093330288E791E00E940909609135
:1018D000330270913402072E000C880B990B97FF8E
:1018E00003C00E94560A03C04AE00E94150A83E81A
:1018F00091E00E940909E0913502F0913602EA3048
:10190000F10508F072C0EC5CFF4F0C945A1093E1A3
:10191000892E91E0992E00E010E0712C612C60E09E
:1019200070E0CB010E947E08F401619171914F013A
:10193000872D0E947D0A60E070E0872D962D0E9421
:1019400041040F5F1F4F0830110509F44EC00330EA
:10195000110519F0702E612EE2CF88E0782EDECFCF
:101960008FEF9FEF02C081E090E00E94D5053DC05F
:1019700081E090E002C08FEF9FEF0E94C30435C06A
:1019800081E090E002C08FEF9FEF0E944C052DC0D8
:1019900060E070E081E090E00E94410460E070E06F
:1019A00088E090E00E94410460E070E085E090E013
:1019B0000E94410460E070E014C060E27FEF81E0CB
:1019C00090E00E94410460E27FEF88E090E00E9496
:1019D000410460E27FEF85E090E00E94410460E214
:1019E0007FEF87E090E00E9441040E94690719CFD1
:1019F000E1E9F2E01382128288EE93E0A0E0B0E029
:101A000084839583A683B7832FE231E031832083DB
:101A100025EC30E03587248724EC30E037872687B3
:101A200020EC30E0318B208B21EC30E0338B228BAB
:101A300022EC30E0358B248B26EC30E0378B268B84
:101A4000118E128E138E148EEEE2F3E01382128248
:101A500084839583A683B78381E491E09183808317
:101A6000A4E5B3E080E48C931296FC93EE93119777
:101A7000EEE4F3E011821082138212821582148246
:101A800040E050E065E871E0CF010E949A0780EEE7
:101A900090E090934D0380934C03EAE3F3E0A3E1DD
:101AA000B1E08D919C911197805E91099183808323
:101AB00012968D919C911397805E910993838283F6
:101AC00014968D919C911597805E910995838483DE
:101AD00016968D919C911797805E910997838683C6
:101AE00018968D919C911997805E910991878087B6
:101AF0001A968D919C911B97805E9109938782879E
:101B00001C968D919C911D97805E91099587848785
:101B10001E968D919C911F97805E9109978786876D
:101B200050968D919C915197805E9109918B808BFD
:101B30000895E89409C097FB3EF4909580957095C0
:101B400061957F4F8F4F9F4F9923A9F0F92F96E909
:101B5000BB279395F695879577956795B795F1117E
:101B6000F8CFFAF4BB0F11F460FF1BC06F5F7F4F1B
:101B70008F4F9F4F16C0882311F096E911C077232D
:101B800021F09EE8872F762F05C0662371F096E836
:101B9000862F70E060E02AF09A95660F771F881F05
:101BA000DAF7880F9695879597F908950E94E90DC1
:101BB0000C945A0E0E944C0E38F00E94530E20F0E6
:101BC000952311F00C94430E0C94490E11240C949F
:101BD0008E0E0E946B0E70F3959FC1F3950F50E02F
:101BE000551F629FF001729FBB27F00DB11D639FCF
:101BF000AA27F00DB11DAA1F649F6627B00DA11D75
:101C0000661F829F2227B00DA11D621F739FB00D1A
:101C1000A11D621F839FA00D611D221F749F33278A
:101C2000A00D611D231F849F600D211D822F762F23
:101C30006A2F11249F5750409AF0F1F088234AF000
:101C4000EE0FFF1FBB1F661F771F881F915050406C
:101C5000A9F79E3F510580F00C94430E0C948E0E14
:101C60005F3FE4F3983ED4F3869577956795B795F3
:101C7000F795E7959F5FC1F7FE2B880F911D96950D
:101C8000879597F9089597F99F6780E870E060E07D
:101C900008959FEF80EC089500240A941616170605
:101CA00018060906089500240A941216130614064D
:101CB00005060895092E0394000C11F4882352F0B0
:101CC000BB0F40F4BF2B11F460FF04C06F5F7F4F68
:101CD0008F4F9F4F089557FD9058440F551F59F04F
:101CE0005F3F71F04795880F97FB991F61F09F3F09
:101CF00079F087950895121613061406551FF2CF32
:101D00004695F1DF08C0161617061806991FF1CF81
:101D100086957105610508940895E894BB276627A8
:101D20007727CB0197F908952F923F924F925F92B8
:101D30006F927F928F929F92AF92BF92CF92DF92DB
:101D4000EF92FF920F931F93CF93DF93CDB7DEB740
:101D5000CA1BDB0B0FB6F894DEBF0FBECDBF0994D4
:101D60002A88398848885F846E847D848C849B842B
:101D7000AA84B984C884DF80EE80FD800C811B8139
:101D8000AA81B981CE0FD11D0FB6F894DEBF0FBE68
:101D9000CDBFED0108955058BB27AA270E94E30E3E
:101DA0000C945A0E0E944C0E38F00E94530E20F0F4
:101DB00039F49F3F19F426F40C94490E0EF4E09583
:101DC000E7FB0C94430EE92F0E946B0E58F3BA17F1
:101DD000620773078407950720F079F4A6F50C9441
:101DE0008D0E0EF4E0950B2EBA2FA02D0B01B9012C
:101DF00090010C01CA01A0011124FF27591B99F081
:101E0000593F50F4503E68F11A16F040A22F232F8C
:101E1000342F4427585FF3CF469537952795A795DC
:101E2000F0405395C9F77EF41F16BA0B620B730B83
:101E3000840BBAF09150A1F0FF0FBB1F661F771FF4
:101E4000881FC2F70EC0BA0F621F731F841F48F4A9
:101E5000879577956795B795F7959E3F08F0B0CF32
:101E60009395880F08F09927EE0F97958795089519
:101E70000E944C0F0C945A0E0E94530E58F00E9470
:101E80004C0E40F029F45F3F29F00C94430E5111A1
:101E90000C948E0E0C94490E0E946B0E68F39923DD
:101EA000B1F3552391F3951B550BBB27AA27621756
:101EB0007307840738F09F5F5F4F220F331F441F63
:101EC000AA1FA9F335D00E2E3AF0E0E832D0915097
:101ED0005040E695001CCAF72BD0FE2F29D0660F84
:101EE000771F881FBB1F261737074807AB07B0E8C7
:101EF00009F0BB0B802DBF01FF2793585F4F3AF0CD
:101F00009E3F510578F00C94430E0C948E0E5F3F6B
:101F1000E4F3983ED4F3869577956795B795F79552
:101F20009F5FC9F7880F911D9695879597F908953A
:101F3000E1E0660F771F881FBB1F621773078407D6
:101F4000BA0720F0621B730B840BBA0BEE1F88F7E5
:101F5000E09508950E94B10F6894B1110C948E0E13
:101F600008950E94730E88F09F5798F0B92F992713
:101F7000B751B0F0E1F0660F771F881F991F1AF074
:101F8000BA95C9F714C0B13091F00E948D0EB1E03E
:101F900008950C948D0E672F782F8827B85F39F03D
:101FA000B93FCCF3869577956795B395D9F73EF40D
:101FB00090958095709561957F4F8F4F9F4F0895B5
:101FC0000E94201090F09F3748F4911116F00C9465
:101FD0008E0E60E070E080E89FEB089526F41B16FB
:101FE000611D711D811D0C94F70F0C941210882334
:101FF00071F4772321F09850872B762F07C0662342
:1020000011F499270DC09051862B70E060E02AF002
:102010009A95660F771F881FDAF7880F9695879530
:1020200097F908959F3F31F0915020F48795779567
:102030006795B795880F911D9695879597F908959F
:102040000E94730EA0F0BEE7B91788F4BB279F3833
:1020500060F41616B11D672F782F8827985FF7CF89
:10206000869577956795B11D93959639C8F3089530
:10207000A1E21A2EAA1BBB1BFD010DC0AA1FBB1F8C
:10208000EE1FFF1FA217B307E407F50720F0A21BFE
:10209000B30BE40BF50B661F771F881F991F1A946B
:1020A00069F760957095809590959B01AC01BD0195
:1020B000CF010895EE0FFF1F0590F491E02D0994D4
:1020C000CF93DF938230910510F482E090E0E091AD
:1020D0005903F0915A0320E030E0C0E0D0E030979F
:1020E00011F14081518148175907C0F0481759072D
:1020F00061F482819381209719F09B838A832BC09E
:1021000090935A038093590326C02115310519F085
:102110004217530718F49A01BE01DF01EF01028054
:10212000F381E02DDCCF2115310509F1281B390B96
:102130002430310590F412968D919C91139761157E
:10214000710521F0FB019383828304C090935A03AD
:1021500080935903FD01329644C0FD01E20FF31F45
:1021600081939193225031092D933C933AC0209151
:10217000570330915803232B41F4209127013091CC
:102180002801309358032093570320912501309163
:1021900026012115310541F42DB73EB740912901A3
:1021A00050912A01241B350BE0915703F0915803FD
:1021B000E217F307A0F42E1B3F0B2817390778F01E
:1021C000AC014E5F5F4F2417350748F04E0F5F1F7D
:1021D00050935803409357038193919302C0E0E0DA
:1021E000F0E0CF01DF91CF9108950F931F93CF932C
:1021F000DF93009709F48CC0FC013297138212829E
:102200000091590310915A030115110581F42081A1
:102210003181820F931F2091570330915803281763
:10222000390779F5F0935803E093570371C0D8014B
:1022300040E050E0AE17BF0750F412962D913C914C
:102240001397AD012115310509F1D901F3CF9D0196
:10225000DA013383228360817181860F971F821791
:10226000930769F4EC0128813981260F371F2E5F0F
:102270003F4F318320838A819B8193838283452BC7
:1022800029F4F0935A03E093590342C01396FC9348
:10229000EE931297ED01499159919E01240F351F3C
:1022A000E217F30771F480819181840F951F0296E4
:1022B00011969C938E938281938113969C938E9317
:1022C0001297E0E0F0E0D80112968D919C9113975F
:1022D000009719F0F8018C01F6CF8D919C9198012F
:1022E0002E5F3F4F820F931F209157033091580369
:1022F0002817390769F4309729F410925A0310927D
:10230000590302C01382128210935803009357039B
:10231000DF91CF911F910F910895A0E0B0E0E3E924
:10232000F1E10C94980EEC01009721F4CB010E948E
:102330006010B8C0FC01E60FF71F9C012250310964
:10234000E217F30708F4ACC0D9010D911C91119765
:1023500006171707B0F00530110508F49FC0C80133
:1023600004978617970708F499C002501109061BB5
:10237000170B019311936D937C93CF010E94F5107D
:102380008DC05B01A01AB10A4C01800E911EA09174
:102390005903B0915A0340E050E0E12CF12C109722
:1023A00009F44AC0A815B905D1F56D907C90119734
:1023B000630182E0C80ED11CCA14DB0480F1A301C2
:1023C0004A195B096A0182E0C80ED11C1296BC90C2
:1023D00012971396AC91B5E0CB16D10440F0B282BF
:1023E000A38351834083D9016D937C930AC00E5F10
:1023F0001F4FC301800F911FF90191838083EB2D43
:10240000FA2FE114F10431F0D7011396FC93EE9307
:10241000129744C0F0935A03E09359033FC08D9143
:102420009C9111974817590708F4AC017D01129649
:102430000D90BC91A02DB3CF80915703909158037C
:1024400088159905E1F446175707C8F480912501CE
:1024500090912601009741F48DB79EB740912901D4
:1024600050912A01841B950BE817F907C8F4F093E3
:102470005803E0935703F901718360830FC0CB01C8
:102480000E9460107C01009759F0A801BE010E94D3
:102490005C12CE010E94F510C70104C0CE0102C03B
:1024A00080E090E0CDB7DEB7EEE00C94B40E81E0B2
:1024B00090E0F8940C947512FB01DC0102C00190CD
:1024C0000D9241505040D8F70895FB01DC018D91E9
:1024D000019080190110D9F3990B0895FB01DC01DB
:1024E00001900D920020E1F7089510E0CCE6D0E0D5
:1024F00004C0FE010E945A102196CD36D107C9F7BB
:04250000F894FFCF7D
:102504003B01EF014F0117021A01AE019A01CC0100
:102514004F01013B01EF014F019001C800AE019A48
:1025240001CC014F0100005B0380000000000000AB
:10253400076D0698064707C906A706BB06000000F4
:1025440000550125018501F9001D010901FA0070FA
:1025540000320033003400350036003700380039CB
:1025640000313000313100626967676572210073A0
:102574006D616C6C6572210044697374616E63658E
:062584003A20000D0A00E0
:00000001FF
