:100000000C9473000C949B000C949B000C949B002C
:100010000C949B000C949B000C949B000C949B00F4
:100020000C949B000C949B000C949B000C949B00E4
:100030000C949B000C949B000C949B000C949B00D4
:100040000C9403040C949B000C941F080C94F90767
:100050000C949B000C949B000C949B000C949B00B4
:100060000C9454040C949B00B70BC00B2A0CA70CE7
:10007000110D710D780D7F0D840D990DC60DCB0DF1
:10008000D40DD70DDA0DDD0D0000000800020100CF
:100090000003040700000000000000000000000052
:1000A000250028002B0000000000240027002A0063
:1000B00000000000230026002900040404040404B6
:1000C0000404020202020202030303030303010207
:1000D00004081020408001020408102001020408D6
:1000E0001020E40DE30911241FBECFEFD8E0DEBFDE
:1000F000CDBF23E0AEE9B1E001C01D92A332B2074B
:10010000E1F711E0A0E0B1E0E6E7F6E202C0059019
:100110000D92AE39B107D9F710E0C2E7D0E004C0C4
:100120002197FE010E941311C137D107C9F70E9420
:10013000E9090C942E130C940000FC01538D448D9E
:10014000252F30E0842F90E0821B930B541710F082
:10015000CF96089501970895FC01918D828D98178F
:1001600061F0828DDF01A80FB11D5D968C91928D9B
:100170009F5F9F73928F90E008958FEF9FEF089598
:10018000FC01918D828D981731F0828DE80FF11D61
:10019000858D90E008958FEF9FEF0895FC01918D7C
:1001A000228D892F90E0805C9F4F821B91098F7375
:1001B0009927089580E090E0892B29F00E94680734
:1001C00081110C94000008953FB7F89480910A02C1
:1001D00090910B02A0910C02B0910D0226B5A89B44
:1001E00005C02F3F19F00196A11DB11D3FBFBA2FC9
:1001F000A92F982F8827820F911DA11DB11DBC0129
:10020000CD0143E0660F771F881F991F4A95D1F7EC
:10021000089585ED8093BC008091BC0084FDFCCFE7
:100220001092440208954091E201262F30E0240FFD
:10023000311D21323105DCF4209144022430C9F40F
:10024000FC0180E090E0861758F43091E2012191A2
:10025000DC01AE53BE4FA30FB11D2C930196F3CF1B
:100260008091E201680F6093E20180E0089581E0EF
:10027000089582E00895E091C001F091C1013097A6
:1002800029F0109268021092670209940895AC0157
:10029000E0911202F09113023097E1F09091460242
:1002A000809145029817B0F090E0292F30E0261792
:1002B000370754F4DA01A20FB31F8C91D901A95B5F
:1002C000BD4F8C939F5FF1CF109246026093450221
:1002D000CB01099408950895E0914602809145026A
:1002E000E81730F4F0E0E95BFD4F808190E008957D
:1002F0008FEF9FEF089590914602809145029817E5
:1003000050F4E92FF0E0E95BFD4F208130E09F5F82
:100310009093460202C02FEF3FEFC90108958091EC
:10032000450290E020914602821B91090895CF92E8
:10033000DF92EF92FF920F931F93CF93DF937C0195
:10034000262F972F8A0180916A02882391F0C62F69
:10035000D72F6E01C40ED51ECC15DD0571F0699145
:10036000D701ED91FC910190F081E02DC701099535
:10037000F3CF642F822F0E941301C801DF91CF9128
:100380001F910F91FF90EF90DF90CF900895CF9342
:10039000DF931F92CDB7DEB7698320916A022223D3
:1003A000D1F020916702203240F021E030E0FC01E2
:1003B0003383228380E090E015C080916802E82FAB
:1003C000F0E0E056FE4F998190838F5F8093680242
:1003D0008093670205C061E0CE0101960E9413017F
:1003E00081E090E00F90DF91CF910895089580E033
:1003F00090E00895CF93DF93CDB7DEB728970FB67F
:10040000F894DEBF0FBECDBF9091450280914602A9
:10041000981749F088E093E00E947B0190939F0138
:1004200080939E01F1CF80919E011A8219821C82D5
:100430001B821E821D828F831886BE01695F7F4FDB
:10044000FB0101900020E9F73197AF01461B570BE4
:10045000CE0101960E94B90780911603909117036F
:100460000097C9F069817A816115710591F0409119
:100470001803509119032D813E814217530748F00C
:100480000E9427138D819E8190931B0380931A03F2
:1004900018C00E94AE1189819A81909317038093AE
:1004A00016038B819C8190931903809318038D818F
:1004B0009E8190931B0380931A031A8219821C82D7
:1004C0001B821E821D8289819A810E94AE114091F9
:1004D0001A0350911B0360911603709117038BE66A
:1004E00092E00E943B078DE591E00E946C09882311
:1004F00021F010921502109214028FE591E00E94F3
:100500006C09882331F081E090E09093150280938C
:10051000140281E691E00E946C09882331F082E0A8
:1005200090E0909315028093140283E691E00E947C
:100530006C09882331F083E090E09093150280935A
:10054000140285E691E00E946C09882331F084E072
:1005500090E0909315028093140287E691E00E9448
:100560006C09882331F085E090E090931502809328
:10057000140289E691E00E946C09882331F086E03C
:1005800090E090931502809314028BE691E00E9414
:100590006C09882331F087E090E0909315028093F6
:1005A00014028DE691E00E946C09882331F088E006
:1005B00090E090931502809314028FE691E00E94E0
:1005C0006C09882331F089E090E0909315028093C4
:1005D000140281E791E00E946C09882331F08AE0DF
:1005E00090E0909315028093140283E791E00E94BB
:1005F0006C09882331F08BE090E090931502809392
:10060000140285E791E00E946C09882331F08CE0A8
:1006100090E0909315028093140287E791E00E9486
:100620006C09882331F08DE090E09093150280935F
:10063000140289E791E00E946C09882331F08EE072
:1006400090E090931502809314028BE791E00E9452
:100650006C09882331F08FE090E09093150280932D
:10066000140228960FB6F894DEBF0FBECDBFDF91FF
:10067000CF910895FC01848DDF01A80FB11DA35A0D
:10068000BF4F2C91848D90E001968F739927848FB2
:10069000A689B7892C93A089B1898C9180648C93A9
:1006A000938D848D981306C00288F389E02D808194
:1006B0008F7D80830895CF93DF93EC01888D88230D
:1006C000C9F0EA89FB89808185FD05C0A889B989BF
:1006D0008C9186FD0FC00FB607FCF5CF808185FF9A
:1006E000F2CFA889B9898C9185FFEDCFCE010E9408
:1006F0003A03E7CFDF91CF91089590E0FC01E857EE
:10070000FF4F3491FC01E253FF4F2491FC01E6546A
:10071000FF4FE491EE2309F43BC0332339F133302A
:1007200091F038F43130A9F0323001F584B58F7D85
:1007300012C0373091F03830A1F03430B9F48091E4
:1007400080008F7D03C0809180008F778093800030
:100750000DC084B58F7784BD09C08091B0008F77BC
:1007600003C08091B0008F7D8093B000F0E0EE0F69
:10077000FF1FE456FF4FA591B4918FB7F894EC9109
:10078000611103C020952E2301C02E2B2C938FBF07
:1007900008958F929F92AF92BF92CF92DF92EF9285
:1007A000FF926B017C010E94E4004B015C01C114CB
:1007B000D104E104F104F1F00E94E400DC01CB017A
:1007C00088199909AA09BB09883E9340A105B1057A
:1007D00070F321E0C21AD108E108F10888EE880E12
:1007E00083E0981EA11CB11CC114D104E104F104E2
:1007F00019F7DDCFFF90EF90DF90CF90BF90AF90D3
:100800009F908F9008951F920F920FB60F92112410
:100810002F933F938F939F93AF93BF938091060243
:1008200090910702A0910802B0910902309105024F
:1008300026E0230F2D3720F40296A11DB11D05C01F
:1008400029E8230F0396A11DB11D20930502809373
:10085000060290930702A0930802B09309028091C8
:100860000A0290910B02A0910C02B0910D02019628
:10087000A11DB11D80930A0290930B02A0930C025C
:10088000B0930D02BF91AF919F918F913F912F91A6
:100890000F900FBE0F901F901895DC01ED91FC9109
:1008A0000190F081E02D09941F920F920FB60F92E4
:1008B00011242F933F934F935F936F937F938F9365
:1008C0009F93AF93BF93EF93FF938091B900887F7D
:1008D000803609F49CC068F5883209F45BC090F456
:1008E000803109F454C038F4882309F4F6C0883004
:1008F00009F44DC0F6C0883109F44CC0803209F4C7
:100900005DC0EFC0803409F468C048F4803309F456
:1009100055C0883309F0E5C080934202D8C08035C5
:1009200009F44FC0883509F45DC0883409F0D9C096
:10093000D6C0883909F4C7C0A8F4883709F467C05D
:1009400038F4883609F463C0803709F460C0C9C040
:10095000883809F4B8C0803909F45FC0803809F0DC
:10096000C0C05BC0803B09F486C038F4803A09F40B
:1009700066C0883A09F47FC0B4C0803C09F4A7C0BF
:10098000883C09F4A4C0883B09F48AC0AAC08091BD
:100990003F0210C09091410280914002981770F57B
:1009A000E091410281E08E0F80934102F0E0E25E2F
:1009B000FD4F80818093BB0085EC86C0809342020E
:1009C0008EC0E091410281E08E0F809341028091C0
:1009D000BB00F0E0E25EFD4F808390914102809188
:1009E00040026EC0E091410281E08E0F809341028F
:1009F0008091BB00F0E0E25EFD4F80838091430276
:100A000081116DC081E080933E0284EA61C083E081
:100A10008093440210920402CFCF8091040280326E
:100A200008F051C0E091040281E08E0F809304022F
:100A30008091BB00F0E0EC51FE4F8083BDCF85EC90
:100A40008093BC001092440280910402803230F402
:100A5000E0910402F0E0EC51FE4F1082609104023C
:100A600070E0E0910E02F0910F0284EE91E00995A2
:100A70001092040236C084E0809344021092E30195
:100A80001092E201E0911002F0911102099580911B
:100A9000E201811105C081E08093E2011092C20160
:100AA000E091E30181E08E0F8093E301F0E0EE53EB
:100AB000FE4F80818093BB009091E3018091E20121
:100AC000981708F479CF85E88093BC000AC085ECBC
:100AD0008093BC001092440204C0109242020E9413
:100AE0000901FF91EF91BF91AF919F918F917F91FC
:100AF0006F915F914F913F912F910F900FBE0F908B
:100B00001F9018951092440281E080934302109246
:100B10003E0261E082E10E947D0361E083E10E9488
:100B20007D03E9EBF0E080818E7F808380818D7F83
:100B3000808380E28093B80085E48093BC000895B0
:100B40002091670290916902213208F04AC0809199
:100B500044028111FCCF32E03093440231E0309303
:100B600043023FEF30934202109241022093400231
:100B7000A0EAB1E04EE152E0FA013E2F341B3217F9
:100B800018F43D913193F9CF10923F0220913F022A
:100B9000990F922B90933F0290913E02913061F415
:100BA00010923E0290913F029093BB009091BC0046
:100BB00093FDF8CF95EC01C095EE9093BC00909119
:100BC00044029230E1F3909142029F3F79F080918C
:100BD0004202803241F080914202803331F084E061
:100BE00005C081E003C082E001C083E0109268028A
:100BF0001092670210926A020895FB019C01220F75
:100C0000331FD901AF5DBE4F4D915C91BA016E0F9C
:100C10007F1F6835A2E07A0764F44E1B5F0B4739EB
:100C200051053CF0F901E050FF4F718360830C9453
:100C300051088DE791E00C948C09BC0188E00C947C
:100C400051080F931F93CF938C01C0E068E770E0C9
:100C500080E090E00E94C903F801619171918F01D9
:100C60008C2F0E945108CF5FC83081F7CF911F9120
:100C70000F910895CF93DF9368E572E084E00E94BE
:100C8000510868E572E086E00E94510868E770E06C
:100C900080E090E00E94C9036091140370911503F5
:100CA0006A567F4F80E00E94510868E572E081E05B
:100CB0000E94510860911403709115036A567F4F8A
:100CC00082E00E94510868E572E083E00E945108CA
:100CD00068E770E080E090E00E94C90366E970E098
:100CE00084E00E94510866E970E086E00E945108A5
:100CF00066E970E085E00E94510866E970E087E0EF
:100D00000E94510868E770E080E090E00E94C9030B
:100D100068E572E080E00E945108C8E5D2E0809169
:100D2000140390911503BE01681B790B81E00E94AA
:100D3000510868E572E082E00E9451088091140336
:100D400090911503BE01681B790B83E00E94510846
:100D500068E770E080E090E00E94C90368E572E017
:100D600085E00E94510868E572E087E0DF91CF914D
:100D70000C945108CF93DF9368E572E084E00E9401
:100D8000510868E572E086E00E94510868E770E06B
:100D900080E090E00E94C90368E572E080E00E9474
:100DA0005108C8E5D2E08091140390911503BE016B
:100DB000681B790B81E00E94510868E572E082E0CF
:100DC0000E9451088091140390911503BE01681B85
:100DD000790B83E00E94510868E770E080E090E0C2
:100DE0000E94C90366E970E084E00E94510866E948
:100DF00070E086E00E94510866E970E085E00E949C
:100E0000510866E970E087E00E94510868E770E0E9
:100E100080E090E00E94C903609114037091150373
:100E20006A567F4F80E00E94510868E572E081E0D9
:100E30000E94510860911403709115036A567F4F08
:100E400082E00E94510868E572E083E00E94510848
:100E500068E770E080E090E00E94C90368E572E016
:100E600085E00E94510868E572E087E0DF91CF914C
:100E70000C9451080895CF92DF92EF92FF920F9356
:100E80001F93CF93DF936C017A018B01C0E0D0E018
:100E9000CE15DF0589F0D8016D918D01D601ED9158
:100EA000FC910190F081E02DC6010995892B11F488
:100EB0007E0102C02196ECCFC701DF91CF911F9137
:100EC0000F91FF90EF90DF90CF9008950E94101344
:100ED0008BE692E00E94CE0021E0892B09F420E00D
:100EE000822F0895EF92FF920F931F93CF93DF937A
:100EF000EC0181E0888F9B8D8C8D981305C0E8896B
:100F0000F989808185FD24C0F62E0B8D10E00F5FDE
:100F10001F4F0F731127E02E8C8DE8120CC00FB6F7
:100F200007FCFACFE889F989808185FFF5CFCE01EA
:100F30000E943A03F1CF8B8DFE01E80FF11DE35AB9
:100F4000FF4FF0820B8FEA89FB898081806207C0A6
:100F5000EE89FF896083E889F989808180648083D4
:100F600081E090E0DF91CF911F910F91FF90EF9082
:100F70000895EF92FF920F931F93CF93DF93EC01AD
:100F80007B018A0188819981009729F02A813B8120
:100F900024173507F8F4B8016F5F7F4F0E9446129F
:100FA000009759F0998388831B830A832C813D81A4
:100FB000232B81F4FC0110820DC088819981009758
:100FC00011F00E94AE11198218821D821C821B82B0
:100FD0001A8207C01D830C83B701888199810E9402
:100FE0002713CE01DF91CF911F910F91FF90EF90CA
:100FF00008951F920F920FB60F9211242F933F93D3
:101000004F935F936F937F938F939F93AF93BF9310
:10101000EF93FF938BE692E00E943A03FF91EF91EA
:10102000BF91AF919F918F917F916F915F914F9100
:101030003F912F910F900FBE0F901F9018951F9208
:101040000F920FB60F9211242F938F939F93EF93CC
:10105000FF93E0917B02F0917C028081E09181021C
:10106000F091820282FD12C09081809184028F5F94
:101070008F7320918502821751F0E0918402F0E095
:10108000E559FD4F958F8093840201C08081FF91C7
:10109000EF919F918F912F910F900FBE0F901F9006
:1010A00018950F931F93CF93DF938B01CCE1D3E07F
:1010B000988121E020936A0290936902109268025D
:1010C00010926702A981BA81ED91FC91119724E0F9
:1010D000829FC0011124BC016A5F7F4F0190F081A3
:1010E000E02DCD01099560E070E089819A810E9430
:1010F0004D0460E070E089819A810E944D04B8013E
:1011000089819A810E944D04612F70E089819A81C2
:101110000E944D0489819A81DF91CF911F910F9197
:101120000C94A0051F93CF93DF93162FCCE1D3E04F
:10113000988121E020936A029093690210926802DC
:1011400010926702A981BA81ED91FC9111970190EB
:10115000F081E02D682FCD01099589819A81DC010C
:10116000ED91FC910190F081E02D612F099589812D
:101170009A81DF91CF911F910C94A005CF93DF93BB
:1011800026E636E646E65FE30E948F0E9B01AC0141
:1011900060E27CEB8EEB95E40E94F10F20E030E002
:1011A00040E85FE30E94840F20E030E040E05FE32E
:1011B0000E94850F0E9499100E946A10D62F80917C
:1011C0001C0391E090936A02809369021092680276
:1011D0001092670280911D0390911E03DC01ED9136
:1011E000FC910190F081E02D60E0099580911D0354
:1011F00090911E030E94A00580911C0390914402CF
:101200009111FCCF91E090934402909343022FEF11
:1012100020934202109241021092400290933F02AA
:1012200090913F02880F892B80933F0280913E026C
:10123000813061F410923E0280913F028093BB00A6
:101240008091BC0083FDF8CF85EC01C085EE8093D2
:10125000BC00809144028130E1F380914102811110
:1012600003C08091410201C081E0AEE1B2E027E419
:1012700032E0F9019E2F921B981718F49D919193DB
:10128000F9CF109246028093450280911D03909100
:101290001E03DC01ED91FC910284F385E02D09959C
:1012A000C82F8F76682F606180E00E9492086D2FB2
:1012B0008EEF0E9492086C2F80E00E94920865E0F9
:1012C00070E080E090E00E94C9036C2F606A80E0CB
:1012D000DF91CF910C949208FC0180911A039091B8
:1012E0001B03892B21F421E0309749F413C080912E
:1012F000160390911703309731F421E0FC018081AF
:10130000882341F006C0BF010E941E1321E0892BF3
:1013100009F020E0822F0895009769F0FC01019008
:101320000020E9F73197AF01481B590BBC018BE650
:1013300092E00C943B0780E090E00895CF92DF921A
:10134000EF92FF920F931F93E82FF92F05C00150E2
:1013500011092109310961F1908196239417B9F39C
:1013600005C0015011092109310911F1908196231D
:101370009413F7CFC12CD12CE12CF12C0AC08FEFA4
:10138000C81AD80AE80AF80A0C151D052E053F05EB
:1013900079F080818623841791F36C2D7D2D8E2D1D
:1013A0009F2D1F910F91FF90EF90DF90CF900895A8
:1013B00060E070E080E090E01F910F91FF90EF906F
:1013C000DF90CF90089580911603909117030C94AD
:1013D000AE11CF93DF93CDB7DEB7A1970FB6F894D8
:1013E000DEBF0FBECDBF789484B5826084BD84B566
:1013F000816084BD85B5826085BD85B5816085BD10
:1014000080916E00816080936E00109281008091C7
:10141000810082608093810080918100816080934F
:101420008100809180008160809380008091B10074
:1014300084608093B1008091B00081608093B0009F
:1014400080917A00846080937A0080917A00826033
:1014500080937A0080917A008E7F80937A008091C9
:101460007A00806880937A001092C1001092460240
:101470001092450210926802109267020E94820543
:1014800060E880E00E9492086AE070E080E090E00E
:101490000E94C90360E070E08AE794E40E94BE08FD
:1014A00060E070E080E792E40E94BE0883E08093F1
:1014B0001001E7EDF0E02491E3ECF0E08491882363
:1014C00099F090E0880F991FFC01EA55FF4FA59114
:1014D000B491FC01E456FF4F859194918FB7F89435
:1014E000EC91E22BEC938FBFE6EDF0E02491E2EC7F
:1014F000F0E084918823C9F090E0880F991FFC01E7
:10150000EA55FF4F45915491FC01E456FF4FA591D8
:10151000B4919FB7F894FA0180812095822380834B
:101520008C91E22FE823EC939FBFE0917B02F09136
:101530007C0282E08083E0917702F0917802108251
:10154000E0917902F0917A0287E68083109283021B
:10155000E0917F02F091800286E08083E0917D023D
:10156000F0917E02808180618083E0917D02F09124
:101570007E02808188608083E0917D02F0917E020E
:10158000808180688083E0917D02F0917E0280817D
:101590008F7D808388E08093BA008BE391E0909305
:1015A00011028093100287E491E090930F028093E0
:1015B0000E0210924602109245021092680210929A
:1015C00067020E9482058AEF91E090931302809354
:1015D00012026AE070E080E090E00E94C90350E1EE
:1015E000E52EF12C66EDC62E60E0D62E72EC272E8D
:1015F00070E0372EEAE08E2E912CA12CB12C60E009
:1016000089E00E947D0361E089E00E947D03C701BB
:101610000197F1F760E089E00E947D03F601649193
:10162000F1018491E82FF0E0EE0FFF1FE055FF4F2E
:101630008591949100E211EA27E030E0462F0E9464
:101640009E096115710581059105B1F0DC01CB01A1
:101650000196A11DB11D24E0880F991FAA1FBB1F71
:101660002A95D1F7BC01CD0133E096958795779502
:1016700067953A95D1F703C060E070E0CB016093C5
:1016800018027093190280931A0290931B020E9411
:10169000540E26E933E44BE05DE30E948F0E20E018
:1016A00030E040E05FE30E948F0E0E946310709371
:1016B00017026093160280E991E00E948C09409025
:1016C000160250901702052C000C6608770877FE6A
:1016D00026C0E0916B02F0916C020190F081E02D48
:1016E0006DE28BE692E0099522273327A9012419A0
:1016F00035094609570919A2CE0181963C01CA0154
:10170000B901A50194010E94F110605DF30162939B
:101710003F01211531054105510589F715C0A30188
:10172000920119A2CE0181963C01CA01B901A5011D
:1017300094010E94F110605DF30162933F01211555
:1017400031054105510589F7C3010E948C098BE9D8
:1017500091E00E948C09E0911402F0911502E031B1
:10176000F10508F02EC2EC5CFF4F0C94131110929F
:101770001D0210921C0281E291E00E94210621C20A
:1017800068E572E084E00E94510868E572E086E056
:101790000E94510868E770E080E090E00E94C90371
:1017A00060911403709115036A567F4F80E00E9488
:1017B000510868E572E081E00E94510866E970E036
:1017C00082E00E94510808E512E080911403909194
:1017D0001503B801681B790B83E00E94510868E784
:1017E00070E080E090E00E94C90366E970E084E068
:1017F0000E94510866E970E086E00E94510866E99F
:1018000070E085E00E94510866E970E087E00E9480
:10181000510868E770E080E090E00E94C90366E943
:1018200070E080E00E9451088091140390911503AC
:10183000B801681B790B81E00E9451086091140384
:10184000709115036A567F4F82E00E94510868E547
:1018500072E069C068E572E084E00E94510868E5C2
:1018600072E086E00E94510868E770E080E090E056
:101870000E94C90366E970E080E00E94510808E513
:1018800012E08091140390911503B801681B790B45
:1018900081E00E94510860911403709115036A560B
:1018A0007F4F82E00E94510868E572E083E00E9469
:1018B000510868E770E080E090E00E94C90366E9A3
:1018C00070E084E00E94510866E970E086E00E94C2
:1018D000510866E970E085E00E94510866E970E011
:1018E00087E00E94510868E770E080E090E00E9485
:1018F000C90360911403709115036A567F4F80E00D
:101900000E94510868E572E081E00E94510866E992
:1019100070E082E00E9451088091140390911503B9
:10192000B801681B790B83E00E94510868E770E0FA
:1019300080E090E00E94C90368E572E085E00E94C3
:10194000510868E572E087E00E9451083AC168E5F5
:1019500072E084E00E94510868E572E086E00E942F
:10196000510868E770E080E090E00E94C90368E5F4
:1019700072E080E00E94510866E970E081E00E9418
:10198000510860911403709115036A567F4F82E0ED
:101990000E94510808E512E080911403909115030C
:1019A000B801681B790B83E00E94510868E770E07A
:1019B00080E090E00E94C90366E970E084E00E9444
:1019C000510866E970E086E00E94510866E970E01F
:1019D00085E00E94510866E970E087E00E945108A6
:1019E00068E770E080E090E00E94C9036091140312
:1019F000709115036A567F4F80E00E9451088091D4
:101A0000140390911503B801681B790B81E00E94C3
:101A1000510868E572E082E00E94510866E970E0D2
:101A200082CF68E572E084E00E94510868E572E0C8
:101A300086E00E94510868E770E080E090E00E9434
:101A4000C90360911403709115036A567F4F80E0BB
:101A50000E94510808E512E080911403909115034B
:101A6000B801681B790B81E00E94510868E572E0BB
:101A700082E00E94510866E970E083E00E9451080C
:101A800068E770E080E090E00E94C90366E970E0DA
:101A900084E00E94510866E970E086E00E945108E7
:101AA00066E970E085E00E94510866E970E087E031
:101AB0000E94510868E770E080E090E00E94C9034E
:101AC00068E572E080E00E94510866E970E081E01C
:101AD0000E94510860911403709115036A567F4F5C
:101AE00018CF80911403909115030E94BA0669C023
:101AF00080911403909115030E943A0662C081E11F
:101B000091E00E9421064BC060E070E081E090E02F
:101B10000E94FD0560E070E088E090E00E94FD0515
:101B200060E070E085E090E00E94FD0560E070E01C
:101B300028C0609114037091150371956195710926
:101B400081E090E00E94FD056091140370911503FF
:101B500071956195710988E090E00E94FD056091A2
:101B600014037091150371956195710985E090E0FA
:101B70000E94FD05609114037091150371956195A4
:101B8000710987E090E00E94FD0509C081E090E0C6
:101B90000E94BA0604C081E090E00E943A061092CA
:101BA0001D0210921C020DC086E990E008C088E575
:101BB00092E005C087E791E002C080E991E00E94D1
:101BC0001D060E94DA001BCDEBE6F2E013821282C2
:101BD00088EE93E0A0E0B0E084839583A683B7838A
:101BE0002BE331E03183208325EC30E035872487F7
:101BF00024EC30E03787268720EC30E0318B208BD7
:101C000021EC30E0338B228B22EC30E0358B248BBF
:101C100026EC30E0378B268B118E128E138E148EAD
:101C2000E8E0F3E01382128284839583A683B7836E
:101C30008DE491E091838083ACE1B3E080E48C9308
:101C40001296FC93EE931197E6E1F3E01182108275
:101C5000138212821582148240E050E06DE971E037
:101C6000CF010E94B90780EE90E090931503809316
:101C70001403E1E2F1E026E731E03183208388E7D5
:101C800091E0938382833583248397838683E1E184
:101C9000F1E0318320839383828335832483978388
:101CA00086830895E89409C097FB3EF4909580954B
:101CB000709561957F4F8F4F9F4F9923A9F0F92F12
:101CC00096E9BB279395F695879577956795B79590
:101CD000F111F8CFFAF4BB0F11F460FF1BC06F5F76
:101CE0007F4F8F4F9F4F16C0882311F096E911C088
:101CF000772321F09EE8872F762F05C0662371F0A9
:101D000096E8862F70E060E02AF09A95660F771FBC
:101D1000881FDAF7880F9695879597F908950E949E
:101D2000A20E0C94130F0E94050F38F00E940C0FA6
:101D300020F0952311F00C94FC0E0C94020F11244A
:101D40000C94470F0E94240F70F3959FC1F3950FD9
:101D500050E0551F629FF001729FBB27F00DB11D2F
:101D6000639FAA27F00DB11DAA1F649F6627B00DBF
:101D7000A11D661F829F2227B00DA11D621F739FA8
:101D8000B00DA11D621F839FA00D611D221F749FB6
:101D90003327A00D611D231F849F600D211D822FFD
:101DA000762F6A2F11249F5750409AF0F1F0882324
:101DB0004AF0EE0FFF1FBB1F661F771F881F915051
:101DC0005040A9F79E3F510580F00C94FC0E0C94F6
:101DD000470F5F3FE4F3983ED4F386957795679578
:101DE000B795F795E7959F5FC1F7FE2B880F911D7B
:101DF0009695879597F9089597F99F6780E870E021
:101E000060E008959FEF80EC089500240A94161670
:101E1000170618060906089500240A9412161306D8
:101E2000140605060895092E0394000C11F4882366
:101E300052F0BB0F40F4BF2B11F460FF04C06F5F82
:101E40007F4F8F4F9F4F089557FD9058440F551F58
:101E500059F05F3F71F04795880F97FB991F61F02C
:101E60009F3F79F087950895121613061406551FA3
:101E7000F2CF4695F1DF08C0161617061806991F0F
:101E8000F1CF86957105610508940895E894BB2704
:101E900066277727CB0197F908952F923F924F92AB
:101EA0005F926F927F928F929F92AF92BF92CF92EA
:101EB000DF92EF92FF920F931F93CF93DF93CDB7F3
:101EC000DEB7CA1BDB0B0FB6F894DEBF0FBECDBF6B
:101ED00009942A88398848885F846E847D848C843C
:101EE0009B84AA84B984C884DF80EE80FD800C8145
:101EF0001B81AA81B981CE0FD11D0FB6F894DEBF28
:101F00000FBECDBFED0108955058BB27AA270E94F0
:101F10009C0F0C94130F0E94050F38F00E940C0FB9
:101F200020F039F49F3F19F426F40C94020F0EF4BC
:101F3000E095E7FB0C94FC0EE92F0E94240F58F368
:101F4000BA17620773078407950720F079F4A6F59E
:101F50000C94460F0EF4E0950B2EBA2FA02D0B011A
:101F6000B90190010C01CA01A0011124FF27591BDE
:101F700099F0593F50F4503E68F11A16F040A22FE4
:101F8000232F342F4427585FF3CF46953795279555
:101F9000A795F0405395C9F77EF41F16BA0B620B54
:101FA000730B840BBAF09150A1F0FF0FBB1F661F9B
:101FB000771F881FC2F70EC0BA0F621F731F841FDE
:101FC00048F4879577956795B795F7959E3F08F004
:101FD000B0CF9395880F08F09927EE0F97958795C6
:101FE00008950E9405100C94130F0E940C0F58F0D6
:101FF0000E94050F40F029F45F3F29F00C94FC0E7D
:1020000051110C94470F0C94020F0E94240F68F397
:102010009923B1F3552391F3951B550BBB27AA27A1
:1020200062177307840738F09F5F5F4F220F331FDB
:10203000441FAA1FA9F335D00E2E3AF0E0E832D0A3
:1020400091505040E695001CCAF72BD0FE2F29D0A6
:10205000660F771F881FBB1F261737074807AB0778
:10206000B0E809F0BB0B802DBF01FF2793585F4FED
:102070003AF09E3F510578F00C94FC0E0C94470FFB
:102080005F3FE4F3983ED4F3869577956795B795CF
:10209000F7959F5FC9F7880F911D9695879597F9DA
:1020A0000895E1E0660F771F881FBB1F6217730753
:1020B0008407BA0720F0621B730B840BBA0BEE1F68
:1020C00088F7E09508950E946A106894B1110C9405
:1020D000470F08950E942C0F88F09F5798F0B92F52
:1020E0009927B751B0F0E1F0660F771F881F991F4D
:1020F0001AF0BA95C9F714C0B13091F00E94460F9A
:10210000B1E008950C94460F672F782F8827B85FA9
:1021100039F0B93FCCF3869577956795B395D9F7A4
:102120003EF490958095709561957F4F8F4F9F4FAE
:1021300008950E94D91090F09F3748F4911116F03D
:102140000C94470F60E070E080E89FEB089526F460
:102150001B16611D711D811D0C94B0100C94CB10C9
:10216000882371F4772321F09850872B762F07C0AE
:10217000662311F499270DC09051862B70E060E022
:102180002AF09A95660F771F881FDAF7880F9695C1
:10219000879597F908959F3F31F0915020F48795E6
:1021A00077956795B795880F911D9695879597F9BF
:1021B00008950E942C0FA0F0BEE7B91788F4BB2742
:1021C0009F3860F41616B11D672F782F8827985F07
:1021D000F7CF869577956795B11D93959639C8F396
:1021E0000895A1E21A2EAA1BBB1BFD010DC0AA1F58
:1021F000BB1FEE1FFF1FA217B307E407F50720F070
:10220000A21BB30BE40BF50B661F771F881F991FEA
:102210001A9469F760957095809590959B01AC0133
:10222000BD01CF010895EE0FFF1F0590F491E02D41
:102230000994CF93DF938230910510F482E090E00F
:10224000E0912103F091220320E030E0C0E0D0E0F3
:10225000309711F14081518148175907C0F0481754
:10226000590761F482819381209719F09B838A83B7
:102270002BC0909322038093210326C021153105A2
:1022800019F04217530718F49A01BE01DF01EF015C
:102290000280F381E02DDCCF2115310509F1281BE7
:1022A000390B2430310590F412968D919C9113973F
:1022B0006115710521F0FB019383828304C0909323
:1022C000220380932103FD01329644C0FD01E20FF9
:1022D000F31F81939193225031092D933C933AC07F
:1022E00020911F0330912003232B41F420913301CF
:1022F000309134013093200320931F03209131014A
:10230000309132012115310541F42DB73EB740918E
:10231000350150913601241B350BE0911F03F091DC
:102320002003E217F307A0F42E1B3F0B28173907F1
:1023300078F0AC014E5F5F4F2417350748F04E0F21
:102340005F1F5093200340931F038193919302C01A
:10235000E0E0F0E0CF01DF91CF9108950F931F935C
:10236000CF93DF93009709F48CC0FC01329713825E
:10237000128200912103109122030115110581F4AD
:1023800020813181820F931F20911F033091200300
:102390002817390779F5F0932003E0931F0371C0E4
:1023A000D80140E050E0AE17BF0750F412962D91CF
:1023B0003C911397AD012115310509F1D901F3CFF6
:1023C0009D01DA013383228360817181860F971F1B
:1023D0008217930769F4EC0128813981260F371F92
:1023E0002E5F3F4F318320838A819B819383828339
:1023F000452B29F4F0932203E093210342C0139666
:10240000FC93EE931297ED01499159919E01240F8F
:10241000351FE217F30771F480819181840F951FB6
:10242000029611969C938E938281938113969C932E
:102430008E931297E0E0F0E0D80112968D919C9176
:102440001397009719F0F8018C01F6CF8D919C91AC
:1024500098012E5F3F4F820F931F20911F033091F1
:1024600020032817390769F4309729F410922203C2
:102470001092210302C01382128210932003009352
:102480001F03DF91CF911F910F910895A0E0B0E05D
:10249000ECE4F2E10C94510FEC01009721F4CB0134
:1024A0000E941911B8C0FC01E60FF71F9C012250D1
:1024B0003109E217F30708F4ACC0D9010D911C9162
:1024C000119706171707B0F00530110508F49FC0E3
:1024D000C80104978617970708F499C0025011099C
:1024E000061B170B019311936D937C93CF010E94F0
:1024F000AE118DC05B01A01AB10A4C01800E911E75
:10250000A0912103B091220340E050E0E12CF12C96
:10251000109709F44AC0A815B905D1F56D907C90C3
:102520001197630182E0C80ED11CCA14DB0480F14C
:10253000A3014A195B096A0182E0C80ED11C1296F8
:10254000BC9012971396AC91B5E0CB16D10440F035
:10255000B282A38351834083D9016D937C930AC0D7
:102560000E5F1F4FC301800F911FF901918380837C
:10257000EB2DFA2FE114F10431F0D7011396FC93FF
:10258000EE93129744C0F0932203E09321033FC0DF
:102590008D919C9111974817590708F4AC017D0162
:1025A00012960D90BC91A02DB3CF80911F039091F6
:1025B000200388159905E1F446175707C8F4809160
:1025C000310190913201009741F48DB79EB740914F
:1025D000350150913601841B950BE817F907C8F4B3
:1025E000F0932003E0931F03F901718360830FC010
:1025F000CB010E9419117C01009759F0A801BE017E
:102600000E941513CE010E94AE11C70104C0CE0175
:1026100002C080E090E0CDB7DEB7EEE00C946D0F25
:1026200081E090E0F8940C942E13FB01DC0102C0D1
:1026300001900D9241505040D8F70895FB01DC0104
:102640008D91019080190110D9F3990B0895FB0128
:10265000DC0101900D920020E1F7089510E0C2E73F
:10266000D0E004C0FE010E9413112196C337D107A8
:06267000C9F7F894FFCF4A
:102676009600580296005802960058029600580294
:102686000100000000000000005802960058029663
:102696000000000000000000009600580296005856
:1026A600020000230380000000000072073B079D24
:1026B600005B03CE00AC00C00000000000C701971D
:1026C60001F7016B018F017B016C01700030003155
:1026D6000032003300340035003600370038003948
:1026E600006100620063006400650066006269675D
:1026F600676572206F7220736D616C6C6572210064
:0E27060044697374616E63653A20000D0A0029
:00000001FF
