:100000000C946D000C9495000C9495000C94950044
:100010000C9495000C9495000C9495000C9495000C
:100020000C9495000C9495000C9495000C949500FC
:100030000C9495000C9495000C9495000C949500EC
:100040000C94E4040C9495000C942C040C94060479
:100050000C9495000C9495000C9495000C949500CC
:100060000C9435050C9495002D0B360B450B5C0B51
:10007000670B720B850B900B950BAA0B0000000809
:10008000000201000003040700000000000000005F
:1000900000000000250028002B00000000002400C4
:1000A00027002A0000000000230026002900040485
:1000B0000404040404040202020202020303030310
:1000C00003030102040810204080010204081020EC
:1000D000010204081020C708C10811241FBECFEF79
:1000E000D8E0DEBFCDBF23E0A2E9B1E001C01D92A0
:1000F000A932B207E1F711E0A0E0B1E0ECE2F3E2EF
:1001000002C005900D92A239B107D9F710E0CCE6F4
:10011000D0E004C02197FE010E946E0FCB36D107BC
:10012000C9F70E9468090C9489110C940000089585
:10013000CF92DF92EF92FF920F931F93CF93DF93B3
:100140006C017A018B01C0E0D0E0CE15DF0589F0AB
:10015000D8016D918D01D601ED91FC910190F08156
:10016000E02DC6010995892B11F47E0102C021966C
:10017000ECCFC701DF91CF911F910F91FF90EF90CE
:10018000DF90CF900895FC01538D448D252F30E0F2
:10019000842F90E0821B930B541710F0CF96089594
:1001A00001970895FC01918D828D981761F0828DE1
:1001B000DF01A80FB11D5D968C91928D9F5F9F739B
:1001C000928F90E008958FEF9FEF0895FC01918D3D
:1001D000828D981731F0828DE80FF11D858D90E0AA
:1001E00008958FEF9FEF0895FC01918D228D892F47
:1001F00090E0805C9F4F821B91098F73992708952F
:1002000087E592E00E94F40021E0892B09F420E0C8
:10021000822F0895FC01848DDF01A80FB11DA35A20
:10022000BF4F2C91848D90E001968F739927848F16
:10023000A689B7892C93A089B1898C9180648C930D
:10024000938D848D981306C00288F389E02D8081F8
:100250008F7D80830895EF92FF920F931F93CF932A
:10026000DF93EC0181E0888F9B8D8C8D981305C006
:10027000E889F989808185FD24C0F62E0B8D10E078
:100280000F5F1F4F0F731127E02E8C8DE8120CC0EB
:100290000FB607FCFACFE889F989808185FFF5CF91
:1002A000CE010E940A01F1CF8B8DFE01E80FF11DF6
:1002B000E35AFF4FF0820B8FEA89FB8980818062CD
:1002C00007C0EE89FF896083E889F98980818064AD
:1002D000808381E090E0DF91CF911F910F91FF909B
:1002E000EF900895CF93DF93EC01888D8823C9F0B8
:1002F000EA89FB89808185FD05C0A889B9898C912F
:1003000086FD0FC00FB607FCF5CF808185FFF2CFC9
:10031000A889B9898C9185FFEDCFCE010E940A0191
:10032000E7CFDF91CF91089580E090E0892B29F00D
:100330000E94000181110C94000008953FB7F894C9
:100340008091FE019091FF01A0910002B091010205
:1003500026B5A89B05C02F3F19F00196A11DB11D20
:100360003FBFBA2FA92F982F8827820F911DA11D5B
:10037000B11DBC01CD0142E0660F771F881F991F98
:100380004A95D1F7089585ED8093BC008091BC001B
:1003900084FDFCCF1092300208954091D601262FA3
:1003A00030E0240F311D21323105DCF42091300280
:1003B0002430C9F4FC0180E090E0861758F43091B5
:1003C000D6012191DC01AA54BE4FA30FB11D2C937D
:1003D0000196F3CF8091D601680F6093D60180E03B
:1003E000089581E0089582E00895E091B401F091CC
:1003F000B501309729F010925402109253020994DB
:100400000895AC01E0910602F09107023097E1F007
:1004100090913202809131029817B0F090E0292F2C
:1004200030E02617370754F4DA01A20FB31F8C917E
:10043000D901AD5CBD4F8C939F5FF1CF109232021A
:1004400060933102CB01099408950895E09132023E
:1004500080913102E81730F4F0E0ED5CFD4F8081CF
:1004600090E008958FEF9FEF089590913202809170
:100470003102981750F4E92FF0E0ED5CFD4F208138
:1004800030E09F5F9093320202C02FEF3FEFC9012F
:1004900008958091310290E020913202821B9109EF
:1004A0000895CF92DF92EF92FF920F931F93CF9315
:1004B000DF937C01262F972F8A0180915602882393
:1004C00091F0C62FD72F6E01C40ED51ECC15DD05B9
:1004D00071F06991D701ED91FC910190F081E02DCF
:1004E000C7010995F3CF642F822F0E94CD01C80167
:1004F000DF91CF911F910F91FF90EF90DF90CF9000
:100500000895CF93DF931F92CDB7DEB76983209113
:1005100056022223D1F020915302203240F021E0F4
:1005200030E0FC013383228380E090E015C08091AD
:100530005402E82FF0E0EC56FE4F998190838F5FD4
:10054000809354028093530205C061E0CE0101966E
:100550000E94CD0181E090E00F90DF91CF9108954E
:10056000089580E090E008950E946B11EF92FF9251
:100570000F931F93CF93DF93EC017B018A01888156
:100580009981009729F02A813B8124173507F8F4D7
:10059000B8016F5F7F4F0E94A110009759F09983B7
:1005A00088831B830A832C813D81232B81F4FC01EA
:1005B00010820DC088819981009711F00E94091066
:1005C000198218821D821C821B821A8207C01D8319
:1005D0000C83B701888199810E948211CE01DF913D
:1005E000CF911F910F91FF90EF900895CF93DF93DC
:1005F000CDB7DEB728970FB6F894DEBF0FBECDBFDC
:100600009091310280913202981749F084EF92E084
:100610000E9435029093930180939201F1CF8091D3
:1006200092011A8219821C821B821E821D828F8374
:100630001886BE01695F7F4FFB0101900020E9F73A
:100640003197AF01461B570BCE0101960E94B602AF
:1006500080911403909115030097C9F069817A8104
:100660006115710591F040911603509117032D818A
:100670003E814217530748F00E9482118D819E816E
:10068000909319038093180318C00E940910898160
:100690009A8190931503809314038B819C8190938E
:1006A0001703809316038D819E8190931903809385
:1006B00018031A8219821C821B821E821D82898164
:1006C0009A810E940910409118035091190360917A
:1006D00014037091150387E592E00E9498008CE660
:1006E00091E00E941B08882321F0109209021092C9
:1006F00008028FE691E00E941B08882331F081E018
:1007000090E090930902809308028BE591E00E94AB
:100710001B08882331F082E090E0909309028093D7
:1007200008028DE591E00E941B08882331F083E0E8
:1007300090E090930902809308028FE591E00E9477
:100740001B08882331F084E090E0909309028093A5
:10075000080281E691E00E941B08882331F085E0C1
:1007600090E0909309028093080283E691E00E9452
:100770001B08882331F086E090E090930902809373
:10078000080285E691E00E941B08882331F087E08B
:1007900090E0909309028093080287E691E00E941E
:1007A0001B08882331F088E090E090930902809341
:1007B000080289E691E00E941B08882331F089E055
:1007C00090E090930902809308028BE691E00E94EA
:1007D0001B08882331F08AE090E09093090280930F
:1007E00008028EE691E00E941B08882331F08BE01E
:1007F00090E0909309028093080228960FB6F8942F
:10080000DEBF0FBECDBFDF91CF9108951F920F9233
:100810000FB60F9211242F933F934F935F936F93D3
:100820007F938F939F93AF93BF93EF93FF9387E54E
:1008300092E00E940A01FF91EF91BF91AF919F91C9
:100840008F917F916F915F914F913F912F910F9079
:100850000FBE0F901F9018951F920F920FB60F9218
:1008600011242F938F939F93EF93FF93E09167024F
:10087000F09168028081E0916D02F0916E0282FD3C
:1008800012C09081809170028F5F8F7320917102EE
:10089000821751F0E0917002F0E0E95AFD4F958F18
:1008A0008093700201C08081FF91EF919F918F91A1
:1008B0002F910F900FBE0F901F90189590E0FC01A4
:1008C000E458FF4F3491FC01EE53FF4F2491FC019B
:1008D000E255FF4FE491EE2309F43BC0332339F195
:1008E000333091F038F43130A9F0323001F584B56D
:1008F0008F7D12C0373091F03830A1F03430B9F428
:10090000809180008F7D03C0809180008F778093DD
:1009100080000DC084B58F7784BD09C08091B00080
:100920008F7703C08091B0008F7D8093B000F0E09E
:10093000EE0FFF1FE057FF4FA591B4918FB7F894CA
:10094000EC91611103C020952E2301C02E2B2C9316
:100950008FBF08958F929F92AF92BF92CF92DF92F6
:10096000EF92FF926B017C010E949E014B015C01A2
:10097000C114D104E104F104F1F00E949E01DC01F4
:10098000CB0188199909AA09BB09883E9340A105A2
:10099000B10570F321E0C21AD108E108F10888EE30
:1009A000880E83E0981EA11CB11CC114D104E1047F
:1009B000F10419F7DDCFFF90EF90DF90CF90BF905B
:1009C000AF909F908F9008951F920F920FB60F9245
:1009D00011242F933F938F939F93AF93BF93809155
:1009E000FA019091FB01A091FC01B091FD013091C1
:1009F000F90123E0230F2D3720F40196A11DB11D2D
:100A000005C026E8230F0296A11DB11D2093F90110
:100A10008093FA019093FB01A093FC01B093FD0138
:100A20008091FE019091FF01A0910002B09101021E
:100A30000196A11DB11D8093FE019093FF01A0932B
:100A40000002B0930102BF91AF919F918F913F91AE
:100A50002F910F900FBE0F901F901895DC01ED9114
:100A6000FC910190F081E02D09941F920F920FB636
:100A70000F9211242F933F934F935F936F937F9324
:100A80008F939F93AF93BF93EF93FF938091B900A0
:100A9000887F803609F49CC068F5883209F45BC011
:100AA00090F4803109F454C038F4882309F4F6C076
:100AB000883009F44DC0F6C0883109F44CC080324A
:100AC00009F45DC0EFC0803409F468C048F4803395
:100AD00009F455C0883309F0E5C080932E02D8C0D0
:100AE000803509F44FC0883509F45DC0883409F0B9
:100AF000D9C0D6C0883909F4C7C0A8F4883709F42A
:100B000067C038F4883609F463C0803709F460C0E0
:100B1000C9C0883809F4B8C0803909F45FC080388A
:100B200009F0C0C05BC0803B09F486C038F4803A4D
:100B300009F466C0883A09F47FC0B4C0803C09F467
:100B4000A7C0883C09F4A4C0883B09F48AC0AAC0A5
:100B500080912B0210C090912D0280912C02981749
:100B600070F5E0912D0281E08E0F80932D02F0E070
:100B7000E65FFD4F80818093BB0085EC86C080934B
:100B80002E028EC0E0912D0281E08E0F80932D0207
:100B90008091BB00F0E0E65FFD4F808390912D02D5
:100BA00080912C026EC0E0912D0281E08E0F809327
:100BB0002D028091BB00F0E0E65FFD4F80838091C5
:100BC0002F0281116DC081E080932A0284EA61C006
:100BD00083E0809330021092F801CFCF8091F8012A
:100BE000803208F051C0E091F80181E08E0F8093CF
:100BF000F8018091BB00F0E0E852FE4F8083BDCF4A
:100C000085EC8093BC00109230028091F801803214
:100C100030F4E091F801F0E0E852FE4F108260916C
:100C2000F80170E0E0910202F091030288ED91E09A
:100C300009951092F80136C084E08093300210923A
:100C4000D7011092D601E0910402F09105020995B6
:100C50008091D601811105C081E08093D601109268
:100C6000B601E091D70181E08E0F8093D701F0E0CB
:100C7000EA54FE4F80818093BB009091D701809110
:100C8000D601981708F479CF85E88093BC000AC094
:100C900085EC8093BC001092300204C010922E02AA
:100CA0000E94C301FF91EF91BF91AF919F918F91EE
:100CB0007F916F915F914F913F912F910F900FBE58
:100CC0000F901F9018951092300281E080932F02B0
:100CD00010922A0261E082E10E945E0461E083E1F9
:100CE0000E945E04E9EBF0E080818E7F808380814A
:100CF0008D7F808388E48093B80085E48093BC0076
:100D000008952091530290915502213208F04AC073
:100D1000809130028111FCCF32E03093300231E01B
:100D200030932F023FEF30932E0210922D0220932A
:100D30002C02A4E9B1E04AE052E0FA013E2F341B54
:100D4000321718F43D913193F9CF10922B02209174
:100D50002B02990F922B90932B0290912A029130A3
:100D600061F410922A0290912B029093BB00909113
:100D7000BC0093FDF8CF95EC01C095EE9093BC00BC
:100D8000909130029230E1F390912E029F3F79F0E2
:100D900080912E02803241F080912E02803331F01A
:100DA00084E005C081E003C082E001C083E01092CE
:100DB000540210925302109256020895FB019C01B6
:100DC000220F331FD901A55EBE4F4D915C91BA0130
:100DD0006E0F7F1F6835A2E07A0764F44E1B5F0B2D
:100DE000473951053CF0F901E050FF4F71836083B2
:100DF0000C943B0881E791E00C940908EF92FF9274
:100E00000F931F93CF93DF937C01C0E0D0E010E0FD
:100E100000E066E970E080E090E00E94AA04F7013B
:100E2000619171917F01812F0E943B0860E070E029
:100E3000812F902F0E94DE062196C830D10541F007
:100E4000C330D10519F01C2F0D2FE3CF18E0E0CFF0
:100E5000DF91CF911F910F91FF90EF9008951F9315
:100E6000CF93DF93162FCAE1D3E0988121E020933E
:100E70005602909355021092540210925302A98187
:100E8000BA81ED91FC9111970190F081E02D682FCE
:100E9000CD01099589819A81DC01ED91FC91019048
:100EA000F081E02D612F099589819A81DF91CF91A1
:100EB0001F910C948106CF93DF9326E636E646E633
:100EC0005FE30E94EA0C9B01AC0160E27CEB8EEBDD
:100ED00095E40E944C0E20E030E040E85FE30E9481
:100EE000DF0D20E030E040E05FE30E94E00D0E9473
:100EF000F40E0E94C50ED62F80911A0391E09093B4
:100F0000560280935502109254021092530280911F
:100F10001B0390911C03DC01ED91FC910190F08189
:100F2000E02D60E0099580911B0390911C030E94C5
:100F3000810680911A03909130029111FCCF91E0CB
:100F40009093300290932F022FEF20932E02109255
:100F50002D0210922C0290932B0290912B02880F5D
:100F6000892B80932B0280912A02813061F41092A8
:100F70002A0280912B028093BB008091BC0083FDEC
:100F8000F8CF85EC01C085EE8093BC0080913002E3
:100F90008130E1F380912D02811103C080912D02F7
:100FA00001C081E0AAE0B2E023E332E0F9019E2F24
:100FB000921B981718F49D919193F9CF10923202D9
:100FC0008093310280911B0390911C03DC01ED9111
:100FD000FC910284F385E02D0995C82F8F76682F48
:100FE000606180E00E942F076D2F8EEF0E942F0717
:100FF0006C2F80E00E942F0765E070E080E090E0B9
:101000000E94AA046C2F606A80E0DF91CF910C945B
:101010002F07009769F0FC0101900020E9F7319754
:10102000AF01481B590BBC0187E592E00C94980076
:1010300080E090E00895FC018091180390911903DD
:10104000892B21F421E0309749F413C080911403D7
:1010500090911503309731F421E0FC0180818823C1
:1010600041F006C0BF010E94791121E0892B09F0EF
:1010700020E0822F08950F931F93CF93DF938B016E
:10108000CAE1D3E0988121E0209356029093550263
:101090001092540210925302A981BA81ED91FC91F1
:1010A000119724E0829FC0011124BC016A5F7F4F29
:1010B0000190F081E02DCD01099560E070E089811B
:1010C0009A810E942E0560E070E089819A810E94D9
:1010D0002E05B80189819A810E942E05612F70E04A
:1010E00089819A810E942E0589819A81DF91CF9111
:1010F0001F910F910C948106CF92DF92EF92FF9295
:101100000F931F93E82FF92F05C0015011092109F2
:10111000310961F1908196239417B9F305C001500C
:1011200011092109310911F1908196239413F7CF08
:10113000C12CD12CE12CF12C0AC08FEFC81AD80A8F
:10114000E80AF80A0C151D052E053F0579F0808187
:101150008623841791F36C2D7D2D8E2D9F2D1F914D
:101160000F91FF90EF90DF90CF90089560E070E0D6
:1011700080E090E01F910F91FF90EF90DF90CF9073
:10118000089580911403909115030C940910E7E5DC
:10119000F2E01382128288EE93E0A0E0B0E0848354
:1011A0009583A683B78329E331E03183208325EC3F
:1011B00030E03587248724EC30E03787268720EC21
:1011C00030E0318B208B21EC30E0338B228B22EC12
:1011D00030E0358B248B26EC30E0378B268B118E5C
:1011E000128E138E148EE4EFF2E013821282848347
:1011F0009583A683B7838BE491E091838083AAE1F2
:10120000B3E080E48C931296FC93EE931197E4E1A3
:10121000F3E011821082138212821582148240E060
:1012200050E061E971E0CF010E94B60280EE90E0EB
:101230009093130380931203E0E0F3E0ABE1B1E09D
:101240008D919C911197805E910991838083129674
:101250008D919C911397805E91099383828314965C
:101260008D919C911597805E910995838483169644
:101270008D919C911797805E91099783868318962C
:101280008D919C911997805E9109918780871A961C
:101290008D919C911B97805E9109938782871C9604
:1012A0008D919C911D97805E9109958784871E96EC
:1012B0008D919C911F97805E9109978786875096A4
:1012C0008D919C915197805E9109918B808B0895AF
:1012D000CF93DF93CDB7DEB7A1970FB6F894DEBFFB
:1012E0000FBECDBF789484B5826084BD84B5816023
:1012F00084BD85B5826085BD85B5816085BD8091E1
:101300006E00816080936E00109281008091810058
:101310008260809381008091810081608093810050
:10132000809180008160809380008091B100846012
:101330008093B1008091B00081608093B000809173
:101340007A00846080937A0080917A008260809332
:101350007A0080917A00816080937A0080917A008F
:10136000806880937A001092C1001092320210922D
:10137000310210925402109253020E94630660E8F8
:1013800080E00E942F076AE070E080E090E00E9419
:10139000AA0460E070E08AE794E40E945B0760E0E2
:1013A00070E080E792E40E945B0783E08093120183
:1013B000EAECF0E02491E6EBF0E08491882399F0E8
:1013C00090E0880F991FFC01E656FF4FA591B4915C
:1013D000FC01E057FF4F859194918FB7F894EC9101
:1013E000E22BEC938FBFEBECF0E02491E7EBF0E025
:1013F00084918823C9F090E0880F991FFC01E6567C
:10140000FF4F45915491FC01E057FF4FA591B491D6
:101410009FB7F894FA0180812095822380838C9174
:10142000E22FE823EC939FBFE0916702F0916802FE
:1014300082E08083E0916302F09164021082E09187
:101440006502F09166028FEC808310926F02E0914A
:101450006B02F0916C0286E08083E0916902F0916A
:101460006A02808180618083E0916902F0916A0262
:10147000808188608083E0916902F0916A028081B6
:1014800080688083E0916902F0916A0280818F7D9B
:10149000808388E08093BA0085EF91E09093050205
:1014A0008093040281E092E0909303028093020211
:1014B0001092320210923102109254021092530292
:1014C0000E94630686EF92E09093070280930602E3
:1014D0006AE070E080E090E00E94AA0497EB692E39
:1014E00090E0792E2AE0222E312C412C512C30E72D
:1014F000D32EEE24EA94FE2C60E088E00E945E0485
:1015000083E090E00197F1F761E088E00E945E04DB
:1015100083E290E00197F1F760E088E00E945E04CA
:10152000EBECF0E06491F3018491E82FF0E0EE0F32
:10153000FF1FEC55FF4F8591949100E412E42FE0DA
:1015400030E0462F0E947C086115710581059105E8
:1015500049F0DC01CB010196A11DB11DBC01CD01FB
:101560009F7003C060E070E0CB0160931F03709335
:10157000200380932103909322030E94AF0C26E95D
:1015800033E44BE05DE30E94EA0C20E030E040E011
:101590005FE30E94EA0C0E94BE0E70931E036093EC
:1015A0001D0384E891E00E94090820911D033091F9
:1015B0001E034901330FAA08BB08B7FE26C0E091FD
:1015C0005702F09158020190F081E02D6DE287E51D
:1015D00092E0099522273327A901281939094A09D8
:1015E0005B0919A28E010F5D1F4FCA01B901A2014B
:1015F00091010E944C0F605DF80162938F012115EB
:1016000031054105510589F715C0A501940119A2BD
:101610008E010F5D1F4FCA01B901A20191010E9405
:101620004C0F605DF80162938F0121153105410572
:10163000510589F7C8010E9409088FE891E00E94CE
:101640000908E0910802F0910902EA30F10508F07A
:10165000B1C0EC5CFF4F0C946E0F109224031092FB
:1016600023038BE191E00E94FE0674C181E090E0CB
:1016700090931401809313019093160180931501A8
:10168000F0921801E09217010EC081E090E0909373
:10169000140180931301F0921601E09215019093CA
:1016A000180180931701F0921A01E09219019093AA
:1016B0002403809323037EC081E090E09093140183
:1016C00080931301F0921601E092150115C0F0927B
:1016D0001401E0921301F0921601E092150181E0ED
:1016E00090E0DDCFF0921401E092130181E090E0F0
:1016F0009093160180931501F0921801E092170162
:1017000090931A0180931901D2CFF0921401E092C4
:10171000130181E090E09093160180931501BFCFF3
:1017200080E093E00E94FE0641C060E070E081E04E
:1017300090E00E94DE0660E070E088E090E00E94A9
:10174000DE0660E070E085E090E00E94DE0660E08A
:1017500070E028C060911203709113037195619538
:10176000710981E090E00E94DE06609112037091A1
:10177000130371956195710988E090E00E94DE067F
:10178000609112037091130371956195710985E061
:1017900090E00E94DE066091120370911303719530
:1017A0006195710987E090E00E94DE0610922403A3
:1017B0001092230380912303909124031816190695
:1017C0000CF0C8C06CE97FEF81E090E00E94DE067B
:1017D0006CE97FEF85E090E00E94DE0666E970E04C
:1017E00080E090E00E94AA0480911301909114017E
:1017F000D89EB001D99E700D112480E090E00E9427
:10180000DE068091150190911601D89EB001D99EF7
:10181000700D112482E090E00E94DE068091170195
:1018200090911801D89EB001D99E700D112484E0CA
:1018300090E00E94DE068091190190911A01D89ED5
:10184000B001D99E700D112486E090E00E94DE0662
:1018500066E970E080E090E00E94AA0460E070E039
:1018600081E090E00E94DE0660E070E085E090E0BC
:101870000E94DE0666E970E080E090E00E94AA0423
:101880006CE97FEF88E090E00E94DE066CE97FEF74
:1018900087E090E00E94DE0666E970E080E090E07C
:1018A0000E94AA048091130190911401D89EB00166
:1018B000D99E700D112471956195710980E090E0B9
:1018C0000E94DE068091150190911601D89EB0010C
:1018D000D99E700D112471956195710982E090E097
:1018E0000E94DE068091170190911801D89EB001E8
:1018F000D99E700D112471956195710984E090E075
:101900000E94DE068091190190911A01D89EB001C3
:10191000D99E700D112471956195710986E090E052
:101920000E94DE0666E970E080E090E00E94AA0472
:1019300060E070E088E090E00E94DE0660E070E029
:1019400087E090E00E94DE0666E970E080E090E0CB
:101950000E94AA040E949401CFCDE89409C097FB8D
:101960003EF490958095709561957F4F8F4F9F4F76
:101970009923A9F0F92F96E9BB279395F6958795BA
:1019800077956795B795F111F8CFFAF4BB0F11F47D
:1019900060FF1BC06F5F7F4F8F4F9F4F16C0882324
:1019A00011F096E911C0772321F09EE8872F762F5A
:1019B00005C0662371F096E8862F70E060E02AF09B
:1019C0009A95660F771F881FDAF7880F9695879587
:1019D00097F908950E94FD0C0C946E0D0E94600D05
:1019E00038F00E94670D20F0952311F00C94570DEC
:1019F0000C945D0D11240C94A20D0E947F0D70F3C8
:101A0000959FC1F3950F50E0551F629FF001729FA3
:101A1000BB27F00DB11D639FAA27F00DB11DAA1FB2
:101A2000649F6627B00DA11D661F829F2227B00DFF
:101A3000A11D621F739FB00DA11D621F839FA00D8A
:101A4000611D221F749F3327A00D611D231F849FDA
:101A5000600D211D822F762F6A2F11249F57504031
:101A60009AF0F1F088234AF0EE0FFF1FBB1F661FAC
:101A7000771F881F91505040A9F79E3F510580F075
:101A80000C94570D0C94A20D5F3FE4F3983ED4F3F1
:101A9000869577956795B795F795E7959F5FC1F719
:101AA000FE2B880F911D9695879597F9089597F9C4
:101AB0009F6780E870E060E008959FEF80EC0895F4
:101AC00000240A941616170618060906089500241D
:101AD0000A9412161306140605060895092E039497
:101AE000000C11F4882352F0BB0F40F4BF2B11F40B
:101AF00060FF04C06F5F7F4F8F4F9F4F089557FD6A
:101B00009058440F551F59F05F3F71F04795880F6B
:101B100097FB991F61F09F3F79F087950895121602
:101B200013061406551FF2CF4695F1DF08C01616AE
:101B300017061806991FF1CF86957105610508945F
:101B40000895E894BB2766277727CB0197F9089576
:101B50002F923F924F925F926F927F928F929F92BD
:101B6000AF92BF92CF92DF92EF92FF920F931F93AB
:101B7000CF93DF93CDB7DEB7CA1BDB0B0FB6F8945C
:101B8000DEBF0FBECDBF09942A88398848885F849C
:101B90006E847D848C849B84AA84B984C884DF800D
:101BA000EE80FD800C811B81AA81B981CE0FD11DF1
:101BB0000FB6F894DEBF0FBECDBFED0108955058AB
:101BC000BB27AA270E94F70D0C946E0D0E94600D92
:101BD00038F00E94670D20F039F49F3F19F426F485
:101BE0000C945D0D0EF4E095E7FB0C94570DE92F76
:101BF0000E947F0D58F3BA17620773078407950791
:101C000020F079F4A6F50C94A10D0EF4E0950B2EBE
:101C1000BA2FA02D0B01B90190010C01CA01A0013E
:101C20001124FF27591B99F0593F50F4503E68F199
:101C30001A16F040A22F232F342F4427585FF3CFDA
:101C4000469537952795A795F0405395C9F77EF4AB
:101C50001F16BA0B620B730B840BBAF09150A1F0F4
:101C6000FF0FBB1F661F771F881FC2F70EC0BA0F7A
:101C7000621F731F841F48F4879577956795B79502
:101C8000F7959E3F08F0B0CF9395880F08F09927FD
:101C9000EE0F9795879508950E94600E0C946E0D37
:101CA0000E94670D58F00E94600D40F029F45F3FDC
:101CB00029F00C94570D51110C94A20D0C945D0D4C
:101CC0000E947F0D68F39923B1F3552391F3951B7F
:101CD000550BBB27AA2762177307840738F09F5F4D
:101CE0005F4F220F331F441FAA1FA9F335D00E2EBA
:101CF0003AF0E0E832D091505040E695001CCAF727
:101D00002BD0FE2F29D0660F771F881FBB1F2617E9
:101D100037074807AB07B0E809F0BB0B802DBF01C0
:101D2000FF2793585F4F3AF09E3F510578F00C948F
:101D3000570D0C94A20D5F3FE4F3983ED4F38695C3
:101D400077956795B795F7959F5FC9F7880F911DB0
:101D50009695879597F90895E1E0660F771F881F9C
:101D6000BB1F621773078407BA0720F0621B730B4F
:101D7000840BBA0BEE1F88F7E09508950E94C50EFC
:101D80006894B1110C94A20D08950E94870D88F0FB
:101D90009F5798F0B92F9927B751B0F0E1F0660F2F
:101DA000771F881F991F1AF0BA95C9F714C0B13070
:101DB00091F00E94A10DB1E008950C94A10D672F40
:101DC000782F8827B85F39F0B93FCCF3869577959F
:101DD0006795B395D9F73EF4909580957095619588
:101DE0007F4F8F4F9F4F08950E94340F90F09F3781
:101DF00048F4911116F00C94A20D60E070E080E8B8
:101E00009FEB089526F41B16611D711D811D0C9416
:101E10000B0F0C94260F882371F4772321F0985030
:101E2000872B762F07C0662311F499270DC0905198
:101E3000862B70E060E02AF09A95660F771F881F66
:101E4000DAF7880F9695879597F908959F3F31F0B7
:101E5000915020F4879577956795B795880F911DD8
:101E60009695879597F908950E94870DA0F0BEE793
:101E7000B91788F4BB279F3860F41616B11D672F79
:101E8000782F8827985FF7CF869577956795B11D4E
:101E900093959639C8F30895A1E21A2EAA1BBB1B8D
:101EA000FD010DC0AA1FBB1FEE1FFF1FA217B30726
:101EB000E407F50720F0A21BB30BE40BF50B661F3C
:101EC000771F881F991F1A9469F760957095809500
:101ED00090959B01AC01BD01CF010895EE0FFF1F4E
:101EE0000590F491E02D0994CF93DF938230910512
:101EF00010F482E090E0E0912703F091280320E0C5
:101F000030E0C0E0D0E0309711F1408151814817B6
:101F10005907C0F04817590761F4828193812097CF
:101F200019F09B838A832BC0909328038093270307
:101F300026C02115310519F04217530718F49A01EC
:101F4000BE01DF01EF010280F381E02DDCCF21151E
:101F5000310509F1281B390B2430310590F4129614
:101F60008D919C9113976115710521F0FB0193836D
:101F7000828304C09093280380932703FD01329647
:101F800044C0FD01E20FF31F819391932250310968
:101F90002D933C933AC02091250330912603232BA7
:101FA00041F420912F01309130013093260320938A
:101FB000250320912D0130912E012115310541F489
:101FC0002DB73EB74091310150913201241B350BA2
:101FD000E0912503F0912603E217F307A0F42E1BEE
:101FE0003F0B2817390778F0AC014E5F5F4F24177D
:101FF000350748F04E0F5F1F50932603409325038B
:102000008193919302C0E0E0F0E0CF01DF91CF91A6
:1020100008950F931F93CF93DF93009709F48CC01B
:10202000FC0132971382128200912703109128033A
:102030000115110581F420813181820F931F2091B8
:102040002503309126032817390779F5F0932603E5
:10205000E093250371C0D80140E050E0AE17BF0700
:1020600050F412962D913C911397AD012115310535
:1020700009F1D901F3CF9D01DA0133832283608115
:102080007181860F971F8217930769F4EC012881ED
:102090003981260F371F2E5F3F4F318320838A817E
:1020A0009B8193838283452B29F4F0932803E0934B
:1020B000270342C01396FC93EE931297ED014991CA
:1020C00059919E01240F351FE217F30771F48081A7
:1020D0009181840F951F029611969C938E93828115
:1020E000938113969C938E931297E0E0F0E0D801D1
:1020F00012968D919C911397009719F0F8018C011D
:10210000F6CF8D919C9198012E5F3F4F820F931FC8
:1021100020912503309126032817390769F4309759
:1021200029F4109228031092270302C0138212820E
:102130001093260300932503DF91CF911F910F91F8
:102140000895A0E0B0E0E7EAF0E10C94AC0DEC01FA
:10215000009721F4CB010E94740FB8C0FC01E60F78
:10216000F71F9C0122503109E217F30708F4ACC0B5
:10217000D9010D911C91119706171707B0F0053082
:10218000110508F49FC0C80104978617970708F443
:1021900099C002501109061B170B019311936D93FF
:1021A0007C93CF010E9409108DC05B01A01AB10A77
:1021B0004C01800E911EA0912703B091280340E0AE
:1021C00050E0E12CF12C109709F44AC0A815B9058C
:1021D000D1F56D907C901197630182E0C80ED11CFF
:1021E000CA14DB0480F1A3014A195B096A0182E089
:1021F000C80ED11C1296BC9012971396AC91B5E004
:10220000CB16D10440F0B282A38351834083D9011D
:102210006D937C930AC00E5F1F4FC301800F911F07
:10222000F90191838083EB2DFA2FE114F10431F051
:10223000D7011396FC93EE93129744C0F0932803B2
:10224000E09327033FC08D919C9111974817590740
:1022500008F4AC017D0112960D90BC91A02DB3CF76
:10226000809125039091260388159905E1F446177E
:102270005707C8F480912D0190912E01009741F4E9
:102280008DB79EB74091310150913201841B950B5F
:10229000E817F907C8F4F0932603E0932503F90142
:1022A000718360830FC0CB010E94740F7C01009783
:1022B00059F0A801BE010E947011CE010E940910C0
:1022C000C70104C0CE0102C080E090E0CDB7DEB708
:1022D000EEE00C94C80D81E090E0F8940C94891124
:1022E000FB01DC0102C001900D9241505040D8F733
:1022F0000895FB01DC018D91019080190110D9F343
:10230000990B0895FB01DC0101900D920020E1F78B
:10231000089510E0CCE6D0E004C0FE010E946E0FEC
:0C2320002196CD36D107C9F7F894FFCF05
:10232C003B01EF014F0117027C01AE019A01CC0178
:10233C0017020101000100FFFFFFFF3B01EF014FFE
:10234C000117027C01AE019A01CC01170200002991
:10235C000380009600000000002B019800C300725F
:10236C0001F400D200E6000000000081025102B12D
:10237C000225024902350226027000320033003475
:10238C00003500360037003800390031300031316B
:10239C0000626967676572206F7220736D616C6C87
:1023AC006572210044697374616E63653A20000D97
:0223BC000A0015
:00000001FF
