:100000000C946D000C9495000C9495000C94950044
:100010000C9495000C9495000C9495000C9495000C
:100020000C9495000C9495000C9495000C949500FC
:100030000C9495000C9495000C9495000C949500EC
:100040000C947A030C9495000C94EE060C94C8065C
:100050000C9495000C9495000C9495000C949500CC
:100060000C94CB030C949500830A8C0A9B0AB20A69
:10007000BD0AC80ADB0AE60AEB0A000B000000080A
:10008000000201000003040700000000000000005F
:1000900000000000250028002B00000000002400C4
:1000A00027002A0000000000230026002900040485
:1000B0000404040404040202020202020303030310
:1000C00003030102040810204080010204081020EC
:1000D000010204081020100CB20811241FBECFEF3B
:1000E000D8E0DEBFCDBF23E0A2EAB1E001C01D929F
:1000F000A732B207E1F711E0A0E0B1E0EEE9F2E2E9
:1001000002C005900D92A23AB107D9F710E0CCE6F3
:10011000D0E004C02197FE010E94270FCB36D10703
:10012000C9F70E94B8080C9442110C940000FC011D
:10013000918D228D892F90E0805C9F4F821B9109C9
:100140008F739927089580E090E0892B29F00E9411
:10015000150681110C94000008953FB7F894809122
:100160000E0290910F02A0911002B091110226B5DB
:10017000A89B05C02F3F19F00196A11DB11D3FBFDF
:10018000BA2FA92F982F8827820F911DA11DB11D6D
:10019000BC01CD0142E0660F771F881F991F4A9569
:1001A000D1F7089585ED8093BC008091BC0084FD5B
:1001B000FCCF1092480208954091E601262F30E0CE
:1001C000240F311D21323105DCF420914802243006
:1001D000C9F4FC0180E090E0861758F43091E60104
:1001E0002191DC01AA53BE4FA30FB11D2C930196A0
:1001F000F3CF8091E601680F6093E60180E00895F7
:1002000081E0089582E00895E091C401F091C50174
:10021000309729F010926C0210926B0209940895A5
:10022000AC01E0911602F09117023097E1F0909145
:100230004A02809149029817B0F090E0292F30E0EF
:100240002617370754F4DA01A20FB31F8C91D90196
:10025000A55BBD4F8C939F5FF1CF10924A026093D4
:100260004902CB01099408950895E0914A028091D2
:100270004902E81730F4F0E0E55BFD4F808190E043
:1002800008958FEF9FEF089590914A02809149025F
:10029000981750F4E92FF0E0E55BFD4F208130E046
:1002A0009F5F90934A0202C02FEF3FEFC90108956C
:1002B0008091490290E020914A02821B91090895A1
:1002C000CF92DF92EF92FF920F931F93CF93DF9322
:1002D0007C01262F972F8A0180916E02882391F04E
:1002E000C62FD72F6E01C40ED51ECC15DD0571F0BB
:1002F0006991D701ED91FC910190F081E02DC7014A
:100300000995F3CF642F822F0E94DC00C801DF9192
:10031000CF911F910F91FF90EF90DF90CF900895B4
:10032000CF93DF931F92CDB7DEB7698320916E0222
:100330002223D1F020916B02203240F021E030E006
:10034000FC013383228380E090E015C080916C0231
:10035000E82FF0E0EC55FE4F998190838F5F8093FA
:100360006C0280936B0205C061E0CE0101960E9491
:10037000DC0081E090E00F90DF91CF910895089527
:1003800080E090E00895CF93DF93CDB7DEB7289754
:100390000FB6F894DEBF0FBECDBF90914902809199
:1003A0004A02981749F08CE093E00E944401909330
:1003B000A3018093A201F1CF8091A2011A82198238
:1003C0001C821B821E821D828F831886BE01695F7C
:1003D0007F4FFB0101900020E9F73197AF01461BE9
:1003E000570BCE0101960E94880680911A039091C6
:1003F0001B030097C9F069817A816115710591F03D
:1004000040911C0350911D032D813E8142175307DB
:1004100048F00E943B118D819E8190931F03809331
:100420001E0318C00E94C20F89819A8190931B03FA
:1004300080931A038B819C8190931D0380931C03EE
:100440008D819E8190931F0380931E031A821982CF
:100450001C821B821E821D8289819A810E94C20F8A
:1004600040911E0350911F0360911A0370911B036A
:100470008FE692E00E94B7058CE791E00E94FA07B0
:10048000882321F010921902109218028FE791E050
:100490000E94FA07882331F081E090E090931902DE
:1004A000809318028BE691E00E94FA07882331F0CE
:1004B00082E090E090931902809318028DE691E01B
:1004C0000E94FA07882331F083E090E090931902AC
:1004D000809318028FE691E00E94FA07882331F09A
:1004E00084E090E0909319028093180281E791E0F4
:1004F0000E94FA07882331F085E090E0909319027A
:100500008093180283E791E00E94FA07882331F074
:1005100086E090E0909319028093180285E791E0BD
:100520000E94FA07882331F087E090E09093190247
:100530008093180287E791E00E94FA07882331F040
:1005400088E090E0909319028093180289E791E087
:100550000E94FA07882331F089E090E09093190215
:10056000809318028BE791E00E94FA07882331F00C
:100570008AE090E090931902809318028EE791E050
:100580000E94FA07882331F08BE090E090931902E3
:100590008093180228960FB6F894DEBF0FBECDBF29
:1005A000DF91CF910895FC01848DDF01A80FB11D6B
:1005B000A35ABF4F2C91848D90E001968F73992799
:1005C000848FA689B7892C93A089B1898C91806486
:1005D0008C93938D848D981306C00288F389E02D47
:1005E00080818F7D8083089590E0FC01E458FF4F67
:1005F0003491FC01EE53FF4F2491FC01E255FF4F73
:10060000E491EE2309F43BC0332339F1333091F008
:1006100038F43130A9F0323001F584B58F7D12C045
:10062000373091F03830A1F03430B9F48091800047
:100630008F7D03C0809180008F77809380000DC0F4
:1006400084B58F7784BD09C08091B0008F7703C0D7
:100650008091B0008F7D8093B000F0E0EE0FFF1F1F
:10066000E057FF4FA591B4918FB7F894EC916111C9
:1006700003C020952E2301C02E2B2C938FBF0895ED
:100680008F929F92AF92BF92CF92DF92EF92FF92A2
:100690006B017C010E94AD004B015C01C114D104CF
:1006A000E104F104F1F00E94AD00DC01CB018819F6
:1006B0009909AA09BB09883E9340A105B10570F3C9
:1006C00021E0C21AD108E108F10888EE880E83E023
:1006D000981EA11CB11CC114D104E104F10419F746
:1006E000DDCFFF90EF90DF90CF90BF90AF909F90C5
:1006F0008F9008951F920F920FB60F9211242F938F
:100700003F938F939F93AF93BF9380910A029091F1
:100710000B02A0910C02B0910D023091090223E06E
:10072000230F2D3720F40196A11DB11D05C026E829
:10073000230F0296A11DB11D2093090280930A0286
:1007400090930B02A0930C02B0930D0280910E02C5
:1007500090910F02A0911002B09111020196A11D7B
:10076000B11D80930E0290930F02A0931002B093DC
:100770001102BF91AF919F918F913F912F910F9057
:100780000FBE0F901F901895DC01ED91FC91019028
:10079000F081E02D09941F920F920FB60F92112451
:1007A0002F933F934F935F936F937F938F939F9379
:1007B000AF93BF93EF93FF938091B900887F80360A
:1007C00009F49CC068F5883209F45BC090F480316C
:1007D00009F454C038F4882309F4F6C0883009F4C9
:1007E0004DC0F6C0883109F44CC0803209F45DC0B8
:1007F000EFC0803409F468C048F4803309F455C070
:10080000883309F0E5C080934602D8C0803509F4EA
:100810004FC0883509F45DC0883409F0D9C0D6C00E
:10082000883909F4C7C0A8F4883709F467C038F4D8
:10083000883609F463C0803709F460C0C9C08838BD
:1008400009F4B8C0803909F45FC0803809F0C0C02D
:100850005BC0803B09F486C038F4803A09F466C076
:10086000883A09F47FC0B4C0803C09F4A7C0883C32
:1008700009F4A4C0883B09F48AC0AAC0809143024D
:1008800010C09091450280914402981770F5E09154
:10089000450281E08E0F80934502F0E0EE5DFD4F52
:1008A00080818093BB0085EC86C0809346028EC019
:1008B000E091450281E08E0F809345028091BB005C
:1008C000F0E0EE5DFD4F80839091450280914402FF
:1008D0006EC0E091450281E08E0F809345028091C9
:1008E000BB00F0E0EE5DFD4F8083809147028111F7
:1008F0006DC081E08093420284EA61C083E080930E
:10090000480210920802CFCF80910802803208F08E
:1009100051C0E091080281E08E0F8093080280911F
:10092000BB00F0E0E851FE4F8083BDCF85EC8093A3
:10093000BC001092480280910802803230F4E091AD
:100940000802F0E0E851FE4F10826091080270E06A
:10095000E0911202F091130288EE91E00995109255
:10096000080236C084E0809348021092E70110929A
:10097000E601E0911402F091150209958091E601DB
:10098000811105C081E08093E6011092C601E091DB
:10099000E70181E08E0F8093E701F0E0EA53FE4F1C
:1009A00080818093BB009091E7018091E6019817C8
:1009B00008F479CF85E88093BC000AC085EC809369
:1009C000BC001092480204C0109246020E94D2005D
:1009D000FF91EF91BF91AF919F918F917F916F9117
:1009E0005F914F913F912F910F900FBE0F901F90ED
:1009F00018951092480281E08093470210924202BB
:100A000061E082E10E94F40261E083E10E94F4026D
:100A1000E9EBF0E080818E7F808380818D7F808311
:100A200088E48093B80085E48093BC000895209109
:100A30006B0290916D02213208F04AC08091480209
:100A40008111FCCF32E03093480231E0309347020D
:100A50003FEF309346021092450220934402A4EAED
:100A6000B1E042E252E0FA013E2F341B321718F493
:100A70003D913193F9CF1092430220914302990F97
:100A8000922B9093430290914202913061F4109224
:100A90004202909143029093BB009091BC0093FD61
:100AA000F8CF95EC01C095EE9093BC009091480270
:100AB0009230E1F3909146029F3F79F08091460297
:100AC000803241F080914602803331F084E005C0ED
:100AD00081E003C082E001C083E010926C021092BA
:100AE0006B0210926E020895FB019C01220F331FCE
:100AF000D901AB5DBE4F4D915C91BA016E0F7F1F66
:100B00006835A2E07A0764F44E1B5F0B4739510544
:100B10003CF0F901E050FF4F718360830C942C0886
:100B200081E891E00C941A080F931F93CF93DF9301
:100B30008C01C0E0D0E064E670E080E090E00E94CC
:100B40004003F801619171918F018C2F0E942C0854
:100B500060E070E0CE010E9474052196C830D10596
:100B600051F7DF91CF911F910F9108950895CF9282
:100B7000DF92EF92FF920F931F93CF93DF936C015D
:100B80007A018B01C0E0D0E0CE15DF0589F0D801F5
:100B90006D918D01D601ED91FC910190F081E02DD8
:100BA000C6010995892B11F47E0102C02196ECCF74
:100BB000C701DF91CF911F910F91FF90EF90DF90D0
:100BC000CF900895FC01538D448D252F30E0842F64
:100BD00090E0821B930B541710F0CF960895019765
:100BE0000895FC01918D828D981761F0828DDF014F
:100BF000A80FB11D5D968C91928D9F5F9F73928F10
:100C000090E008958FEF9FEF0895FC01918D828D04
:100C1000981731F0828DE80FF11D858D90E00895D1
:100C20008FEF9FEF08950E9424118FE692E00E94BB
:100C3000970021E0892B09F420E0822F0895EF929C
:100C4000FF920F931F93CF93DF93EC0181E0888F86
:100C50009B8D8C8D981305C0E889F989808185FD6D
:100C600024C0F62E0B8D10E00F5F1F4F0F7311275E
:100C7000E02E8C8DE8120CC00FB607FCFACFE88985
:100C8000F989808185FFF5CFCE010E94D302F1CF93
:100C90008B8DFE01E80FF11DE35AFF4FF0820B8FA1
:100CA000EA89FB898081806207C0EE89FF896083C1
:100CB000E889F98980818064808381E090E0DF9118
:100CC000CF911F910F91FF90EF900895CF93DF93F5
:100CD000EC01888D8823C9F0EA89FB89808185FD34
:100CE00005C0A889B9898C9186FD0FC00FB607FC95
:100CF000F5CF808185FFF2CFA889B9898C9185FFD6
:100D0000EDCFCE010E94D302E7CFDF91CF910895BE
:100D1000EF92FF920F931F93CF93DF93EC017B0130
:100D20008A0188819981009729F02A813B812417C3
:100D30003507F8F4B8016F5F7F4F0E945A10009793
:100D400059F0998388831B830A832C813D81232B4F
:100D500081F4FC0110820DC088819981009711F007
:100D60000E94C20F198218821D821C821B821A8265
:100D700007C01D830C83B701888199810E943B11B4
:100D8000CE01DF91CF911F910F91FF90EF900895C9
:100D90001F920F920FB60F9211242F933F934F93F0
:100DA0005F936F937F938F939F93AF93BF93EF93D3
:100DB000FF938FE692E00E94D302FF91EF91BF91E3
:100DC000AF919F918F917F916F915F914F913F91E3
:100DD0002F910F900FBE0F901F9018951F920F929A
:100DE0000FB60F9211242F938F939F93EF93FF933E
:100DF000E0917F02F09180028081E0918502F09184
:100E0000860282FD12C09081809188028F5F8F736D
:100E100020918902821751F0E0918802F0E0E159B7
:100E2000FD4F958F8093880201C08081FF91EF91E3
:100E30009F918F912F910F900FBE0F901F9018953B
:100E40001F93CF93DF93162FC0E2D3E0988121E068
:100E500020936E0290936D0210926C0210926B02BE
:100E6000A981BA81ED91FC9111970190F081E02D5B
:100E7000682FCD01099589819A81DC01ED91FC9162
:100E80000190F081E02D612F099589819A81DF9190
:100E9000CF911F910C941705CF93DF9326E636E68A
:100EA00046E65FE30E94A30C9B01AC0160E27CEB91
:100EB0008EEB95E40E94050E20E030E040E85FE311
:100EC0000E94980D20E030E040E05FE30E94990D21
:100ED0000E94AD0E0E947E0ED62F8091200391E0DD
:100EE00090936E0280936D0210926C0210926B02CE
:100EF0008091210390912203DC01ED91FC910190FE
:100F0000F081E02D60E0099580912103909122030A
:100F10000E94170580912003909148029111FCCF07
:100F200091E090934802909347022FEF209346025E
:100F30001092450210924402909343029091430212
:100F4000880F892B8093430280914202813061F4A3
:100F500010924202809143028093BB008091BC00BA
:100F600083FDF8CF85EC01C085EE8093BC008091B5
:100F700048028130E1F380914502811103C08091E4
:100F8000450201C081E0A2E2B2E02BE432E0F901C7
:100F90009E2F921B981718F49D919193F9CF109260
:100FA0004A02809349028091210390912203DC013F
:100FB000ED91FC910284F385E02D0995C82F8F7681
:100FC000682F606180E00E9420076D2F8EEF0E94E5
:100FD00020076C2F80E00E94200765E070E080E031
:100FE00090E00E9440036C2F606A80E0DF91CF9117
:100FF0000C942007FC0180911E0390911F03892B04
:1010000021F421E0309749F413C080911A039091A4
:101010001B03309731F421E0FC018081882341F0EB
:1010200006C0BF010E94321121E0892B09F020E0A7
:10103000822F0895009769F0FC0101900020E9F7E4
:101040003197AF01481B590BBC018FE692E00C941D
:10105000B70580E090E008950F931F93CF93DF933F
:101060008B01C0E2D3E0988121E020936E0290933F
:101070006D0210926C0210926B02A981BA81ED91FF
:10108000FC91119724E0829FC0011124BC016A5F8A
:101090007F4F0190F081E02DCD01099560E070E077
:1010A00089819A810E94C40360E070E089819A81FD
:1010B0000E94C403B80189819A810E94C403612FF0
:1010C00070E089819A810E94C40389819A81DF91AD
:1010D000CF911F910F910C941705CF92DF92EF9251
:1010E000FF920F931F93E82FF92F05C001501109AC
:1010F0002109310961F1908196239417B9F305C054
:10110000015011092109310911F19081962394139D
:10111000F7CFC12CD12CE12CF12C0AC08FEFC81ACB
:10112000D80AE80AF80A0C151D052E053F0579F0C6
:1011300080818623841791F36C2D7D2D8E2D9F2D1C
:101140001F910F91FF90EF90DF90CF90089560E096
:1011500070E080E090E01F910F91FF90EF90DF90A2
:10116000CF90089580911A0390911B030C94C20FA5
:10117000CF93DF93CDB7DEB7A1970FB6F894DEBF5C
:101180000FBECDBF789484B5826084BD84B5816084
:1011900084BD85B5826085BD85B5816085BD809142
:1011A0006E00816080936E001092810080918100BA
:1011B00082608093810080918100816080938100B2
:1011C000809180008160809380008091B100846074
:1011D0008093B1008091B00081608093B0008091D5
:1011E0007A00846080937A0080917A008260809394
:1011F0007A0080917A00816080937A0080917A00F1
:10120000806880937A001092C10010924A02109276
:10121000490210926C0210926B020E94F90460E87D
:1012200080E00E9420076AE070E080E090E00E9489
:10123000400360E070E08AE794E40E944C0760E0BD
:1012400070E080E792E40E944C0783E080931201F3
:10125000E8ECF0E02491E4EBF0E08491882399F04D
:1012600090E0880F991FFC01E656FF4FA591B491BD
:10127000FC01E057FF4F859194918FB7F894EC9162
:10128000E22BEC938FBFE7ECF0E02491E3EBF0E08E
:1012900084918823C9F090E0880F991FFC01E656DD
:1012A000FF4F45915491FC01E057FF4FA591B49138
:1012B0009FB7F894FA0180812095822380838C91D6
:1012C000E22FE823EC939FBFE0917F02F091800230
:1012D00082E08083E0917B02F0917C021082E091B9
:1012E0007D02F0917E028FEC808310928702E09164
:1012F0008302F091840286E08083E0918102F09184
:101300008202808180618083E0918102F09182027B
:10131000808188608083E0918102F09182028081E7
:1013200080688083E0918102F091820280818F7DCC
:10133000808388E08093BA0084E091E09093150266
:101340008093140280E191E0909313028093120243
:1013500010924A021092490210926C0210926B0293
:101360000E94F90483EC91E0909317028093160297
:101370006AE070E080E090E00E94400393EB692E09
:1013800090E0792E2AE0222E312C412C512C30E78E
:10139000D32EEE24EA94FE2C60E086E00E94F40254
:1013A00083E090E00197F1F761E086E00E94F402AB
:1013B00083E290E00197F1F760E086E00E94F4029A
:1013C000E7ECF0E06491F3018491E82FF0E0EE0F98
:1013D000FF1FEC55FF4F8591949100E412E42FE03C
:1013E00030E0462F0E946D08611571058105910559
:1013F00049F0DC01CB010196A11DB11DBC01CD015D
:101400009F7003C060E070E0CB0160931A0270939C
:101410001B0280931C0290931D020E94680C26E917
:1014200033E44BE05DE30E94A30C20E030E040E0B9
:101430005FE30E94A30C0E94770E70931F026093DB
:101440001E0284E991E00E941A0820911E02309148
:101450001F024901330FAA08BB08B7FE26C0E0915E
:101460006F02F09170020190F081E02D6DE28FE645
:1014700092E0099522273327A901281939094A0939
:101480005B0919A28E010F5D1F4FCA01B901A201AC
:1014900091010E94050F605DF80162938F01211593
:1014A00031054105510589F715C0A501940119A21F
:1014B0008E010F5D1F4FCA01B901A20191010E9467
:1014C000050F605DF80162938F012115310541051B
:1014D000510589F7C8010E941A088FE991E00E941E
:1014E0001A0860911E028CE093E00E949001E09146
:1014F0001802F0911902EA30F10508F0B1C0EC5C75
:10150000FF4F0C94270F109221021092200285E2C7
:1015100091E00E94940581C181E090E090933801B0
:101520008093370190933A0180933901F0923C0106
:10153000E0923B010EC081E090E0909338018093EF
:101540003701F0923A01E092390190933C01809387
:101550003B01F0923E01E0923D0190932102809385
:1015600020027EC081E090E09093380180933701A3
:10157000F0923A01E092390115C0F0923801E09200
:101580003701F0923A01E092390181E090E0DDCF3D
:10159000F0923801E092370181E090E090933A01B7
:1015A00080933901F0923C01E0923B0190933E011F
:1015B00080933D01D2CFF0923801E092370181E073
:1015C00090E090933A0180933901BFCF83E191E09D
:1015D0000E94940541C060E070E081E090E00E94CC
:1015E000740560E070E088E090E00E94740560E0BF
:1015F00070E085E090E00E94740560E070E028C033
:10160000609118037091190371956195710981E0DA
:1016100090E00E9474056091180370911903719510
:101620006195710988E090E00E947405609118034B
:101630007091190371956195710985E090E00E94A0
:101640007405609118037091190371956195710982
:1016500087E090E00E94740510922102109220020F
:101660008091200290912102181619060CF0D5C025
:101670008091180290911902019739F480911E020D
:1016800090911F0288970CF4C8C06CE97FEF81E04D
:1016900090E00E9474056CE97FEF85E090E00E9485
:1016A000740564E670E080E090E00E944003809161
:1016B000370190913801D89EB001D99E700D112448
:1016C00080E090E00E9474058091390190913A0188
:1016D000D89EB001D99E700D112482E090E00E9446
:1016E000740580913B0190913C01D89EB001D99E38
:1016F000700D112484E090E00E94740580913D01FA
:1017000090913E01D89EB001D99E700D112486E0C3
:1017100090E00E94740564E670E080E090E00E9432
:10172000400360E070E081E090E00E94740560E0BA
:1017300070E085E090E00E94740564E670E080E06F
:1017400090E00E9440036CE97FEF88E090E00E9407
:1017500074056CE97FEF87E090E00E94740564E611
:1017600070E080E090E00E9440038091370190910A
:101770003801D89EB001D99E700D112471956195E4
:10178000710980E090E00E94740580913901909188
:101790003A01D89EB001D99E700D112471956195C2
:1017A000710982E090E00E94740580913B01909164
:1017B0003C01D89EB001D99E700D112471956195A0
:1017C000710984E090E00E94740580913D01909140
:1017D0003E01D89EB001D99E700D1124719561957E
:1017E000710986E090E00E94740564E670E080E094
:1017F00090E00E94400360E070E088E090E00E948A
:10180000740560E070E087E090E00E94740564E693
:1018100070E080E090E00E9440030E94A300BCCDF5
:10182000EFE6F2E01382128288EE93E0A0E0B0E0EF
:1018300084839583A683B78329E431E031832083B1
:1018400025EC30E03587248724EC30E03787268785
:1018500020EC30E0318B208B21EC30E0338B228B7D
:1018600022EC30E0358B248B26EC30E0378B268B56
:10187000118E128E138E148EECE0F3E0138212821E
:1018800084839583A683B7838BE591E091838083DE
:10189000A0E2B3E080E48C931296FC93EE93119750
:1018A000EAE1F3E01182108213821282158214821F
:1018B00040E050E061EA71E0CF010E94880680EECE
:1018C00090E090931903809318030895E89409C059
:1018D00097FB3EF490958095709561957F4F8F4F63
:1018E0009F4F9923A9F0F92F96E9BB279395F69579
:1018F000879577956795B795F111F8CFFAF4BB0FF7
:1019000011F460FF1BC06F5F7F4F8F4F9F4F16C05A
:10191000882311F096E911C0772321F09EE8872FE4
:10192000762F05C0662371F096E8862F70E060E0A0
:101930002AF09A95660F771F881FDAF7880F969519
:10194000879597F908950E94B60C0C94270D0E9474
:10195000190D38F00E94200D20F0952311F00C9401
:10196000100D0C94160D11240C945B0D0E94380D73
:1019700070F3959FC1F3950F50E0551F629FF001E2
:10198000729FBB27F00DB11D639FAA27F00DB11DFB
:10199000AA1F649F6627B00DA11D661F829F222784
:1019A000B00DA11D621F739FB00DA11D621F839F0B
:1019B000A00D611D221F749F3327A00D611D231FE1
:1019C000849F600D211D822F762F6A2F11249F572F
:1019D00050409AF0F1F088234AF0EE0FFF1FBB1F32
:1019E000661F771F881F91505040A9F79E3F5105F1
:1019F00080F00C94100D0C945B0D5F3FE4F3983E67
:101A0000D4F3869577956795B795F795E7959F5F9A
:101A1000C1F7FE2B880F911D9695879597F908952C
:101A200097F99F6780E870E060E008959FEF80EC91
:101A3000089500240A941616170618060906089534
:101A400000240A9412161306140605060895092E9A
:101A50000394000C11F4882352F0BB0F40F4BF2B09
:101A600011F460FF04C06F5F7F4F8F4F9F4F089549
:101A700057FD9058440F551F59F05F3F71F047953F
:101A8000880F97FB991F61F09F3F79F08795089524
:101A9000121613061406551FF2CF4695F1DF08C043
:101AA000161617061806991FF1CF86957105610560
:101AB00008940895E894BB2766277727CB0197F908
:101AC00008952F923F924F925F926F927F928F92E2
:101AD0009F92AF92BF92CF92DF92EF92FF920F93BD
:101AE0001F93CF93DF93CDB7DEB7CA1BDB0B0FB6C7
:101AF000F894DEBF0FBECDBF09942A883988488884
:101B00005F846E847D848C849B84AA84B984C88419
:101B1000DF80EE80FD800C811B81AA81B981CE0F10
:101B2000D11D0FB6F894DEBF0FBECDBFED010895F5
:101B30005058BB27AA270E94B00D0C94270D0E9475
:101B4000190D38F00E94200D20F039F49F3F19F450
:101B500026F40C94160D0EF4E095E7FB0C94100D92
:101B6000E92F0E94380D58F3BA17620773078407EC
:101B7000950720F079F4A6F50C945A0D0EF4E09533
:101B80000B2EBA2FA02D0B01B90190010C01CA0137
:101B9000A0011124FF27591B99F0593F50F4503EE2
:101BA00068F11A16F040A22F232F342F4427585FD4
:101BB000F3CF469537952795A795F0405395C9F7EC
:101BC0007EF41F16BA0B620B730B840BBAF09150A4
:101BD000A1F0FF0FBB1F661F771F881FC2F70EC043
:101BE000BA0F621F731F841F48F487957795679516
:101BF000B795F7959E3F08F0B0CF9395880F08F002
:101C00009927EE0F9795879508950E94190E0C94C9
:101C1000270D0E94200D58F00E94190D40F029F464
:101C20005F3F29F00C94100D51110C945B0D0C9436
:101C3000160D0E94380D68F39923B1F3552391F3E3
:101C4000951B550BBB27AA2762177307840738F02B
:101C50009F5F5F4F220F331F441FAA1FA9F335D088
:101C60000E2E3AF0E0E832D091505040E695001C3C
:101C7000CAF72BD0FE2F29D0660F771F881FBB1FF6
:101C8000261737074807AB07B0E809F0BB0B802DD4
:101C9000BF01FF2793585F4F3AF09E3F510578F000
:101CA0000C94100D0C945B0D5F3FE4F3983ED4F35D
:101CB000869577956795B795F7959F5FC9F7880FD4
:101CC000911D9695879597F90895E1E0660F771F26
:101CD000881FBB1F621773078407BA0720F0621BB7
:101CE000730B840BBA0BEE1F88F7E09508950E94E2
:101CF0007E0E6894B1110C945B0D08950E94400D06
:101D000088F09F5798F0B92F9927B751B0F0E1F0BC
:101D1000660F771F881F991F1AF0BA95C9F714C06C
:101D2000B13091F00E945A0DB1E008950C945A0D13
:101D3000672F782F8827B85F39F0B93FCCF38695A5
:101D400077956795B395D9F73EF490958095709502
:101D500061957F4F8F4F9F4F08950E94ED0E90F039
:101D60009F3748F4911116F00C945B0D60E070E021
:101D700080E89FEB089526F41B16611D711D811DDF
:101D80000C94C40E0C94DF0E882371F4772321F099
:101D90009850872B762F07C0662311F499270DC022
:101DA0009051862B70E060E02AF09A95660F771FBD
:101DB000881FDAF7880F9695879597F908959F3FC2
:101DC00031F0915020F4879577956795B795880FF6
:101DD000911D9695879597F908950E94400DA0F062
:101DE000BEE7B91788F4BB279F3860F41616B11DFB
:101DF000672F782F8827985FF7CF86957795679517
:101E0000B11D93959639C8F30895A1E21A2EAA1B25
:101E1000BB1BFD010DC0AA1FBB1FEE1FFF1FA2179A
:101E2000B307E407F50720F0A21BB30BE40BF50B97
:101E3000661F771F881F991F1A9469F76095709520
:101E4000809590959B01AC01BD01CF010895EE0FE7
:101E5000FF1F0590F491E02D0994CF93DF9382301A
:101E6000910510F482E090E0E0912503F0912603C3
:101E700020E030E0C0E0D0E0309711F140815181A6
:101E800048175907C0F04817590761F482819381B8
:101E9000209719F09B838A832BC09093260380930D
:101EA000250326C02115310519F04217530718F4F0
:101EB0009A01BE01DF01EF010280F381E02DDCCF4A
:101EC0002115310509F1281B390B2430310590F417
:101ED00012968D919C9113976115710521F0FB016C
:101EE0009383828304C09093260380932503FD018E
:101EF000329644C0FD01E20FF31F8193919322506B
:101F000031092D933C933AC020912303309124034F
:101F1000232B41F42091410130914201309324035D
:101F20002093230320913F01309140012115310579
:101F300041F42DB73EB74091430150914401241B19
:101F4000350BE0912303F0912403E217F307A0F48B
:101F50002E1B3F0B2817390778F0AC014E5F5F4FFF
:101F60002417350748F04E0F5F1F5093240340930A
:101F700023038193919302C0E0E0F0E0CF01DF9171
:101F8000CF9108950F931F93CF93DF93009709F498
:101F90008CC0FC01329713821282009125031091AC
:101FA00026030115110581F420813181820F931FD1
:101FB00020912303309124032817390779F5F093F2
:101FC0002403E093230371C0D80140E050E0AE1732
:101FD000BF0750F412962D913C911397AD01211536
:101FE000310509F1D901F3CF9D01DA013383228351
:101FF00060817181860F971F8217930769F4EC0146
:1020000028813981260F371F2E5F3F4F3183208370
:102010008A819B8193838283452B29F4F093260345
:10202000E093250342C01396FC93EE931297ED01C3
:10203000499159919E01240F351FE217F30771F45E
:1020400080819181840F951F029611969C938E93A7
:102050008281938113969C938E931297E0E0F0E037
:10206000D80112968D919C911397009719F0F80161
:102070008C01F6CF8D919C9198012E5F3F4F820F7E
:10208000931F20912303309124032817390769F403
:10209000309729F4109226031092250302C0138270
:1020A00012821093240300932303DF91CF911F9199
:1020B0000F910895A0E0B0E0E0E6F0E10C94650D2A
:1020C000EC01009721F4CB010E942D0FB8C0FC0158
:1020D000E60FF71F9C0122503109E217F30708F4BD
:1020E000ACC0D9010D911C91119706171707B0F0DC
:1020F0000530110508F49FC0C8010497861797079B
:1021000008F499C002501109061B170B0193119393
:102110006D937C93CF010E94C20F8DC05B01A01A0A
:10212000B10A4C01800E911EA0912503B0912603A7
:1021300040E050E0E12CF12C109709F44AC0A815BA
:10214000B905D1F56D907C901197630182E0C80EBE
:10215000D11CCA14DB0480F1A3014A195B096A018E
:1021600082E0C80ED11C1296BC9012971396AC91C7
:10217000B5E0CB16D10440F0B282A38351834083F3
:10218000D9016D937C930AC00E5F1F4FC301800F6E
:10219000911FF90191838083EB2DFA2FE114F10453
:1021A00031F0D7011396FC93EE93129744C0F0934D
:1021B0002603E09325033FC08D919C91119748170A
:1021C000590708F4AC017D0112960D90BC91A02D29
:1021D000B3CF809123039091240388159905E1F4EE
:1021E00046175707C8F480913F019091400100972E
:1021F00041F48DB79EB74091430150914401841B37
:10220000950BE817F907C8F4F0932403E093230330
:10221000F901718360830FC0CB010E942D0F7C01F7
:10222000009759F0A801BE010E942911CE010E9419
:10223000C20FC70104C0CE0102C080E090E0CDB75C
:10224000DEB7EEE00C94810D81E090E0F8940C9400
:102250004211FB01DC0102C001900D92415050403F
:10226000D8F70895FB01DC018D91019080190110D0
:10227000D9F3990B0895FB01DC0101900D92002028
:10228000E1F7089510E0CCE6D0E004C0FE010E9422
:0E229000270F2196CD36D107C9F7F894FFCF5E
:10229E009600960096009600960096009600960080
:1022AE009600015802580258025802580258025815
:1022BE0002580258029600960096009600960096D6
:1022CE000096009600960001000100FFFFFFFF0040
:1022DE000027038000000000001F06B705E2056618
:1022EE00069700F10505060000000090016001C090
:1022FE0001340158014401350170003200330034BD
:10230E0000350036003700380039003130003131E9
:10231E0000626967676572206F7220736D616C6C05
:10232E006572210044697374616E63653A20000D15
:02233E000A0093
:00000001FF
