:100000000C9469000C9491000C9491000C94910054
:100010000C9491000C9491000C9491000C9491001C
:100020000C9491000C9491000C9491000C9491000C
:100030000C9491000C9491000C9491000C949100FC
:100040000C94C4040C9491000C9458040C94320445
:100050000C9491000C9491000C9491000C949100DC
:100060000C9415050C949100910A9A0A040B810BCB
:10007000EB0B4B0C520C590C670C670C5E0C630CB1
:100080006C0C6F0C720C750C000000002500280031
:100090002B00040404040404040402020202020209
:1000A000030303030303010204081020408001023C
:1000B00004081020010204081020000000080002BB
:1000C00001000003040700000000000000005A09BE
:1000D000540911241FBECFEFD8E0DEBFCDBF22E010
:1000E000AEE6B1E001C01D92AD3EB207E1F711E00E
:1000F000A0E0B1E0EEEFF1E202C005900D92AE3665
:10010000B107D9F710E0C8E6D0E004C02197FE019E
:100110000E94D70EC736D107C9F70E94C8090C94B0
:10012000F2100C9400000895CF92DF92EF92FF92AC
:100130000F931F93CF93DF936C017A018B01C0E083
:10014000D0E0CE15DF0589F0D8016D918D01D60183
:10015000ED91FC910190F081E02DC6010995892B6C
:1001600011F47E0102C02196ECCFC701DF91CF913F
:100170001F910F91FF90EF90DF90CF900895FC01B9
:10018000538D448D252F30E0842F90E0821B930BFC
:10019000541710F0CF96089501970895FC01918DA2
:1001A000828D981761F0828DDF01A80FB11D5D96D9
:1001B0008C91928D9F5F9F73928F90E008958FEF47
:1001C0009FEF0895FC01918D828D981731F0828DFB
:1001D000E80FF11D858D90E008958FEF9FEF089552
:1001E000FC01918D228D892F90E0805C9F4F821BB6
:1001F00091098F739927089583E392E00E94F0009C
:1002000021E0892B09F420E0822F0895FC01848DE0
:10021000DF01A80FB11DA35ABF4F2C91848D90E030
:1002200001968F739927848FA689B7892C93A0890B
:10023000B1898C9180648C93938D848D981306C0C2
:100240000288F389E02D80818F7D80830895EF926D
:10025000FF920F931F93CF93DF93EC0181E0888F80
:100260009B8D8C8D981305C0E889F989808185FD67
:1002700024C0F62E0B8D10E00F5F1F4F0F73112758
:10028000E02E8C8DE8120CC00FB607FCFACFE8897F
:10029000F989808185FFF5CFCE010E940601F1CF5B
:1002A0008B8DFE01E80FF11DE35AFF4FF0820B8F9B
:1002B000EA89FB898081806207C0EE89FF896083BB
:1002C000E889F98980818064808381E090E0DF9112
:1002D000CF911F910F91FF90EF900895CF93DF93EF
:1002E000EC01888D8823C9F0EA89FB89808185FD2E
:1002F00005C0A889B9898C9186FD0FC00FB607FC8F
:10030000F5CF808185FFF2CFA889B9898C9185FFCF
:10031000EDCFCE010E940601E7CFDF91CF91089586
:1003200080E090E0892B29F00E94FC0081110C9460
:10033000000008953FB7F8948091DA019091DB01B5
:10034000A091DC01B091DD0126B5A89B05C02F3F2F
:1003500019F00196A11DB11D3FBFBA2FA92F982FEB
:100360008827820F911DA11DB11DBC01CD0142E066
:10037000660F771F881F991F4A95D1F7089585ED5D
:100380008093BC008091BC0084FDFCCF10920C02D5
:1003900008954091B201262F30E0240F311D213203
:1003A0003105DCF420910C022430C9F4FC0180E01A
:1003B00090E0861758F43091B2012191DC01AE56DD
:1003C000BE4FA30FB11D2C930196F3CF8091B201C4
:1003D000680F6093B20180E0089581E0089582E0A3
:1003E0000895E0919001F0919101309729F01092D9
:1003F000300210922F0209940895AC01E091E201BD
:10040000F091E3013097E1F090910E0280910D029E
:100410009817B0F090E0292F30E02617370754F4F2
:10042000DA01A20FB31F8C91D901A15FBD4F8C934C
:100430009F5FF1CF10920E0260930D02CB010994E1
:1004400008950895E0910E0280910D02E81730F4AE
:10045000F0E0E15FFD4F808190E008958FEF9FEF26
:10046000089590910E0280910D02981750F4E92F93
:10047000F0E0E15FFD4F208130E09F5F90930E023E
:1004800002C02FEF3FEFC901089580910D0290E067
:1004900020910E02821B91090895CF92DF92EF9274
:1004A000FF920F931F93CF93DF937C01262F972FFB
:1004B0008A0180913202882391F0C62FD72F6E01D6
:1004C000C40ED51ECC15DD0571F06991D701ED91F3
:1004D000FC910190F081E02DC7010995F3CF642FC5
:1004E000822F0E94C901C801DF91CF911F910F9106
:1004F000FF90EF90DF90CF900895CF93DF931F92FE
:10050000CDB7DEB76983209132022223D1F020914A
:100510002F02203240F021E030E0FC0133832283BF
:1005200080E090E015C080913002E82FF0E0E059C3
:10053000FE4F998190838F5F8093300280932F02CA
:1005400005C061E0CE0101960E94C90181E090E002
:100550000F90DF91CF910895089580E090E0089585
:100560000E94D410EF92FF920F931F93CF93DF93CB
:10057000EC017B018A0188819981009729F02A8109
:100580003B8124173507F8F4B8016F5F7F4F0E9455
:100590000A10009759F0998388831B830A832C8162
:1005A0003D81232B81F4FC0110820DC0888199814B
:1005B000009711F00E94720F198218821D821C820E
:1005C0001B821A8207C01D830C83B7018881998121
:1005D0000E94EB10CE01DF91CF911F910F91FF9000
:1005E000EF900895CF93DF93CDB7DEB728970FB67E
:1005F000F894DEBF0FBECDBF90910D0280910E0228
:10060000981749F080ED92E00E94310290936F01BB
:1006100080936E01F1CF80916E011A8219821C8243
:100620001B821E821D828F831886BE01695F7F4FE9
:10063000FB0101900020E9F73197AF01461B570BF2
:10064000CE0101960E94B2028091DE029091DF02FB
:100650000097C9F069817A816115710591F0409127
:10066000E0025091E1022D813E814217530748F08C
:100670000E94EB108D819E819093E3028093E202B1
:1006800018C00E94720F89819A819093DF02809333
:10069000DE028B819C819093E1028093E0028D8148
:1006A0009E819093E3028093E2021A8219821C8257
:1006B0001B821E821D8289819A810E94720F409145
:1006C000E2025091E3026091DE027091DF0283E367
:1006D00092E00E9494008EE491E00E943409882305
:1006E00021F01092E5011092E40180E591E00E9472
:1006F0003409882331F081E090E09093E501809304
:10070000E40182E591E00E943409882331F082E01F
:1007100090E09093E5018093E40184E591E00E94EC
:100720003409882331F083E090E09093E5018093D1
:10073000E40186E591E00E943409882331F084E0E9
:1007400090E09093E5018093E40188E591E00E94B8
:100750003409882331F085E090E09093E50180939F
:10076000E4018AE591E00E943409882331F086E0B3
:1007700090E09093E5018093E4018CE591E00E9484
:100780003409882331F087E090E09093E50180936D
:10079000E4018EE591E00E943409882331F088E07D
:1007A00090E09093E5018093E40180E691E00E945F
:1007B0003409882331F089E090E09093E50180933B
:1007C000E40182E691E00E943409882331F08AE056
:1007D00090E09093E5018093E40184E691E00E942B
:1007E0003409882331F08BE090E09093E501809309
:1007F000E40186E691E00E943409882331F08CE020
:1008000090E09093E5018093E40188E691E00E94F6
:100810003409882331F08DE090E09093E5018093D6
:10082000E4018AE691E00E943409882331F08EE0E9
:1008300090E09093E5018093E4018CE691E00E94C2
:100840003409882331F08FE090E09093E5018093A4
:10085000E40128960FB6F894DEBF0FBECDBFDF913E
:10086000CF9108951F920F920FB60F9211242F93DC
:100870003F934F935F936F937F938F939F93AF9328
:10088000BF93EF93FF9383E392E00E940601FF91F1
:10089000EF91BF91AF919F918F917F916F915F91F8
:1008A0004F913F912F910F900FBE0F901F90189571
:1008B0001F920F920FB60F9211242F938F939F9335
:1008C000EF93FF93E0914302F09144028081E09125
:1008D0004902F0914A0282FD12C0908180914C023F
:1008E0008F5F8F7320914D02821751F0E0914C027F
:1008F000F0E0ED5CFD4F958F80934C0201C080814C
:10090000FF91EF919F918F912F910F900FBE0F90BC
:100910001F9018958F929F92AF92BF92CF92DF92C5
:10092000EF92FF926B017C010E949A014B015C01E6
:10093000C114D104E104F104F1F00E949A01DC0138
:10094000CB0188199909AA09BB09883E9340A105E2
:10095000B10570F321E0C21AD108E108F10888EE70
:10096000880E83E0981EA11CB11CC114D104E104BF
:10097000F10419F7DDCFFF90EF90DF90CF90BF909B
:10098000AF909F908F9008951F920F920FB60F9285
:1009900011242F933F938F939F93AF93BF93809195
:1009A000D6019091D701A091D801B091D901309191
:1009B000D50123E0230F2D3720F40196A11DB11D91
:1009C00005C026E8230F0296A11DB11D2093D50175
:1009D0008093D6019093D701A093D801B093D90109
:1009E0008091DA019091DB01A091DC01B091DD01F1
:1009F0000196A11DB11D8093DA019093DB01A093B4
:100A0000DC01B093DD01BF91AF919F918F913F9138
:100A10002F910F900FBE0F901F901895DC01ED9154
:100A2000FC910190F081E02D09941F920F920FB676
:100A30000F9211242F933F934F935F936F937F9364
:100A40008F939F93AF93BF93EF93FF938091B900E0
:100A5000887F803609F49CC068F5883209F45BC051
:100A600090F4803109F454C038F4882309F4F6C0B6
:100A7000883009F44DC0F6C0883109F44CC080328A
:100A800009F45DC0EFC0803409F468C048F48033D5
:100A900009F455C0883309F0E5C080930A02D8C034
:100AA000803509F44FC0883509F45DC0883409F0F9
:100AB000D9C0D6C0883909F4C7C0A8F4883709F46A
:100AC00067C038F4883609F463C0803709F460C021
:100AD000C9C0883809F4B8C0803909F45FC08038CB
:100AE00009F0C0C05BC0803B09F486C038F4803A8E
:100AF00009F466C0883A09F47FC0B4C0803C09F4A8
:100B0000A7C0883C09F4A4C0883B09F48AC0AAC0E5
:100B10008091070210C090910902809108029817F5
:100B200070F5E091090281E08E0F80930902F0E0F8
:100B3000EA51FE4F80818093BB0085EC86C0809394
:100B40000A028EC0E091090281E08E0F80930902B3
:100B50008091BB00F0E0EA51FE4F80839091090242
:100B6000809108026EC0E091090281E08E0F8093AF
:100B700009028091BB00F0E0EA51FE4F8083809132
:100B80000B0281116DC081E08093060284EA61C08E
:100B900083E080930C021092D401CFCF8091D401D6
:100BA000803208F051C0E091D40181E08E0F809333
:100BB000D4018091BB00F0E0EC54FE4F8083BDCFA8
:100BC00085EC8093BC0010920C028091D40180329D
:100BD00030F4E091D401F0E0EC54FE4F10826091CB
:100BE000D40170E0E091DE01F091DF0184EB91E04F
:100BF00009951092D40136C084E080930C021092C3
:100C0000B3011092B201E091E001F091E101099588
:100C10008091B201811105C081E08093B2011092F0
:100C20009201E091B30181E08E0F8093B301F0E077
:100C3000EE56FE4F80818093BB009091B30180916E
:100C4000B201981708F479CF85E88093BC000AC0F8
:100C500085EC8093BC0010920C0204C010920A0232
:100C60000E94BF01FF91EF91BF91AF919F918F9132
:100C70007F916F915F914F913F912F910F900FBE98
:100C80000F901F90189510920C0281E080930B0238
:100C90001092060282E10E94EE0883E10E94EE08B3
:100CA000E9EBF0E080818E7F808380818D7F80837F
:100CB00088E48093B80085E48093BC000895209177
:100CC0002F0290913102213208F04AC080910C022B
:100CD0008111FCCF32E030930C0231E030930B02F3
:100CE0003FEF30930A021092090220930802A0E716
:100CF000B1E046EE51E0FA013E2F341B321718F4F2
:100D00003D913193F9CF1092070220910702990F7C
:100D1000922B9093070290910602913061F4109209
:100D20000602909107029093BB009091BC0093FD46
:100D3000F8CF95EC01C095EE9093BC0090910C0219
:100D40009230E1F390910A029F3F79F080910A027C
:100D5000803241F080910A02803331F084E005C096
:100D600081E003C082E001C083E010923002109263
:100D70002F02109232020895BC0188E00C94AD0855
:100D80000F931F93CF938C01C0E0F8016191719193
:100D90008F018C2F0E94AD08CF5FC830B1F7CF9183
:100DA0001F910F910895CF93DF9368E572E084E07F
:100DB0000E94AD0868E572E086E00E94AD0866E931
:100DC00070E080E090E00E948A046091DC02709103
:100DD000DD026A567F4F80E00E94AD0868E572E050
:100DE00081E00E94AD086091DC027091DD026A56DC
:100DF0007F4F82E00E94AD0868E572E083E00E94C8
:100E0000AD0866E970E080E090E00E948A0466E93F
:100E100070E084E00E94AD0866E970E086E00E9420
:100E2000AD0866E970E085E00E94AD0866E970E013
:100E300087E00E94AD0866E970E080E090E00E94E3
:100E40008A0468E572E080E00E94AD08C8E5D2E05F
:100E50008091DC029091DD02BE01681B790B81E07C
:100E60000E94AD0868E572E082E00E94AD088091C2
:100E7000DC029091DD02BE01681B790B83E00E94C9
:100E8000AD0866E970E080E090E00E948A0468E5C1
:100E900072E085E00E94AD0868E572E087E0DF91CE
:100EA000CF910C94AD08CF93DF9368E572E084E0B6
:100EB0000E94AD0868E572E086E00E94AD0866E930
:100EC00070E080E090E00E948A0468E572E080E0D3
:100ED0000E94AD08C8E5D2E08091DC029091DD026D
:100EE000BE01681B790B81E00E94AD0868E572E0E5
:100EF00082E00E94AD088091DC029091DD02BE018B
:100F0000681B790B83E00E94AD0866E970E080E021
:100F100090E00E948A0466E970E084E00E94AD08D7
:100F200066E970E086E00E94AD0866E970E085E061
:100F30000E94AD0866E970E087E00E94AD0866E9AE
:100F400070E080E090E00E948A046091DC02709181
:100F5000DD026A567F4F80E00E94AD0868E572E0CE
:100F600081E00E94AD086091DC027091DD026A565A
:100F70007F4F82E00E94AD0868E572E083E00E9446
:100F8000AD0866E970E080E090E00E948A0468E5C0
:100F900072E085E00E94AD0868E572E087E0DF91CD
:100FA000CF910C94AD081F93CF93DF93162FC4EE0F
:100FB000D2E0988121E02093320290933102109286
:100FC000300210922F02A981BA81ED91FC91119704
:100FD0000190F081E02D682FCD01099589819A81DA
:100FE000DC01ED91FC910190F081E02D612F0995DC
:100FF00089819A81DF91CF911F910C945F06CF93E5
:10100000DF9326E636E646E65FE30E947C0C9B0112
:10101000AC0160E27CEB8EEB95E40E94DE0D20E0FB
:1010200030E040E85FE30E94710D20E030E040E0F6
:101030005FE30E94720D0E947F0E0E94500ED62F19
:101040008091E40291E090933202809331021092F9
:10105000300210922F028091E5029091E602DC01AD
:10106000ED91FC910190F081E02D60E00995809177
:10107000E5029091E6020E945F068091E402909161
:101080000C029111FCCF91E090930C0290930B0213
:101090002FEF20930A0210920902109208029093F7
:1010A000070290910702880F892B80930702809195
:1010B0000602813061F4109206028091070280934B
:1010C000BB008091BC0083FDF8CF85EC01C085EEAC
:1010D0008093BC0080910C028130E1F38091090281
:1010E000811103C08091090201C081E0A6EEB1E048
:1010F0002FE032E0F9019E2F921B981718F49D9172
:101100009193F9CF10920E0280930D028091E50227
:101110009091E602DC01ED91FC910284F385E02DD3
:101120000995C82F8F76682F606180E00E94D307F1
:101130006D2F8EEF0E94D3076C2F80E00E94D307A3
:1011400065E070E080E090E00E948A046C2F606AA5
:1011500080E0DF91CF910C94D3070F931F93CF932F
:10116000DF938B01C4EED2E0988121E0209332021C
:10117000909331021092300210922F02A981BA810D
:10118000ED91FC91119724E0829FC0011124BC01D4
:101190006A5F7F4F0190F081E02DCD01099560E0FD
:1011A00070E089819A810E940E0560E070E089817B
:1011B0009A810E940E05B80189819A810E940E05CC
:1011C000612F70E089819A810E940E0589819A8140
:1011D000DF91CF911F910F910C945F0690E0FC017D
:1011E000E654FF4F2491FC01EA55FF4F3491FC0176
:1011F000EE56FF4FE491EE23B1F1222339F1233073
:1012000091F038F42130A9F0223001F584B58F7DBA
:1012100012C0273091F02830A1F02430B9F4809129
:1012200080008F7D03C0809180008F778093800045
:101230000DC084B58F7784BD09C08091B0008F77D1
:1012400003C08091B0008F7D8093B000F0E0EE0F7E
:10125000FF1FE857FF4FA591B4918FB7F894EC9119
:101260003E2B3C938FBF0895FC018091E202909148
:10127000E302892B21F421E0309749F413C08091D7
:10128000DE029091DF02309731F421E0FC01808191
:10129000882341F006C0BF010E94E21021E0892BA3
:1012A00009F020E0822F08958091DE029091DF0204
:1012B0000C94720FE3E3F2E01382128288EE93E063
:1012C000A0E0B0E084839583A683B7832CE231E06D
:1012D0003183208325EC30E03587248724EC30E00F
:1012E0003787268720EC30E0318B208B21EC30E0F3
:1012F000338B228B22EC30E0358B248B26EC30E0D4
:10130000378B268B118E128E138E148EE0EDF2E049
:101310001382128284839583A683B7838EE391E040
:1013200091838083A4EEB2E080E48C931296FC93C8
:10133000EE931197EEEDF2E0118210821382128289
:101340001582148240E050E06FE471E0CF010E940A
:10135000B20280EE90E09093DD028093DC02E0E147
:10136000F1E026E731E03183208388E791E0938341
:1013700082833583248397838683E0E0F1E03183A1
:101380002083938382833583248397838683089580
:10139000789484B5826084BD84B5816084BD85B550
:1013A000826085BD85B5816085BD80916E0081605C
:1013B00080936E0010928100809181008260809302
:1013C0008100809181008160809381008091800004
:1013D0008160809380008091B10084608093B1002F
:1013E0008091B00081608093B00080917A00846029
:1013F00080937A0080917A00826080937A00809155
:101400007A00816080937A0080917A00806880936E
:101410007A001092C10010920E0210920D021092EA
:10142000300210922F020E94430660E880E00E9482
:10143000D3076AE070E080E090E00E948A0460E0F8
:1014400070E08AE794E40E94FF0760E070E080E7C4
:1014500092E40E94FF07E0914302F091440282E08F
:101460008083E0913F02F09140021082E0914102BE
:10147000F09142028FEC808310924B02E091470280
:10148000F091480286E08083E0914502F0914602A7
:10149000808180618083E0914502F09146028081E5
:1014A00088608083E0914502F091460280818068E7
:1014B0008083E0914502F091460280818F7D808398
:1014C00088E08093BA0081EF91E09093E1018093EE
:1014D000E0018DEF91E09093DF018093DE011092A7
:1014E0000E0210920D021092300210922F020E94F2
:1014F000430682EF92E09093E3018093E2016AE079
:1015000070E080E090E00E948A04E091E401F091B4
:10151000E501E031F10508F0ECC1EC5CFF4F0C9403
:10152000D70E1092E8021092E70280E191E00E944B
:10153000C006DFC168E572E084E00E94AD0868E59E
:1015400072E086E00E94AD0866E970E080E090E01D
:101550000E948A046091DC027091DD026A567F4F1E
:1015600080E00E94AD0868E572E081E00E94AD086D
:1015700066E970E082E00E94AD08C8E5D2E08091A3
:10158000DC029091DD02BE01681B790B83E00E94B2
:10159000AD0866E970E080E090E00E948A0466E9A8
:1015A00070E084E00E94AD0866E970E086E00E9489
:1015B000AD0866E970E085E00E94AD0866E970E07C
:1015C00087E00E94AD0866E970E080E090E00E944C
:1015D0008A0466E970E080E00E94AD088091DC0238
:1015E0009091DD02BE01681B790B81E00E94AD087D
:1015F0006091DC027091DD026A567F4F82E00E94AA
:10160000AD0868E572E069C068E572E084E00E94B8
:10161000AD0868E572E086E00E94AD0866E970E01A
:1016200080E090E00E948A0466E970E080E00E9419
:10163000AD08C8E5D2E08091DC029091DD02BE01E8
:10164000681B790B81E00E94AD086091DC0270910B
:10165000DD026A567F4F82E00E94AD0868E572E0C5
:1016600083E00E94AD0866E970E080E090E00E94AF
:101670008A0466E970E084E00E94AD0866E970E0E3
:1016800086E00E94AD0866E970E085E00E94AD0842
:1016900066E970E087E00E94AD0866E970E080E0EE
:1016A00090E00E948A046091DC027091DD026A562B
:1016B0007F4F80E00E94AD0868E572E081E00E9403
:1016C000AD0866E970E082E00E94AD088091DC021E
:1016D0009091DD02BE01681B790B83E00E94AD088A
:1016E00066E970E080E090E00E948A0468E572E0BC
:1016F00085E00E94AD0868E572E087E00E94AD08D1
:10170000F8C068E572E084E00E94AD0868E572E028
:1017100086E00E94AD0866E970E080E090E00E94FB
:101720008A0468E572E080E00E94AD0866E970E036
:1017300081E00E94AD086091DC027091DD026A5682
:101740007F4F82E00E94AD08C8E5D2E08091DC02C4
:101750009091DD02BE01681B790B83E00E94AD0809
:1017600066E970E080E090E00E948A0466E970E03B
:1017700084E00E94AD0866E970E086E00E94AD0852
:1017800066E970E085E00E94AD0866E970E087E0F8
:101790000E94AD0866E970E080E090E00E948A0453
:1017A0006091DC027091DD026A567F4F80E00E94FA
:1017B000AD088091DC029091DD02BE01681B790BBF
:1017C00081E00E94AD0868E572E082E00E94AD0809
:1017D00066E970E082CF68E572E084E00E94AD08BF
:1017E00068E572E086E00E94AD0866E970E080E09E
:1017F00090E00E948A046091DC027091DD026A56DA
:101800007F4F80E00E94AD08C8E5D2E08091DC0205
:101810009091DD02BE01681B790B81E00E94AD084A
:1018200068E572E082E00E94AD0866E970E083E05E
:101830000E94AD0866E970E080E090E00E948A04B2
:1018400066E970E084E00E94AD0866E970E086E039
:101850000E94AD0866E970E085E00E94AD0866E987
:1018600070E087E00E94AD0866E970E080E090E0FB
:101870000E948A0468E572E080E00E94AD0866E993
:1018800070E081E00E94AD086091DC027091DD02A1
:101890006A567F4F18CF8091DC029091DD020E9442
:1018A000530727C08091DC029091DD020E94D3068D
:1018B00020C080E091E00E94C00609C081E090E075
:1018C0000E94530704C081E090E00E94D30610926A
:1018D000E8021092E7020DC088EC90E008C08CE2AC
:1018E00091E005C080E991E002C084EF91E00E94A0
:1018F000BC060E94900109CE0E948F0C0C94000D32
:101900000E94F20C38F00E94F90C20F0952311F09F
:101910000C94E90C0C94EF0C11240C94340D0E94DF
:10192000110D70F3959FC1F3950F50E0551F629F05
:10193000F001729FBB27F00DB11D639FAA27F00D28
:10194000B11DAA1F649F6627B00DA11D661F829F4F
:101950002227B00DA11D621F739FB00DA11D621F34
:10196000839FA00D611D221F749F3327A00D611D51
:10197000231F849F600D211D822F762F6A2F112433
:101980009F5750409AF0F1F088234AF0EE0FFF1F66
:10199000BB1F661F771F881F91505040A9F79E3FBD
:1019A000510580F00C94E90C0C94340D5F3FE4F386
:1019B000983ED4F3869577956795B795F795E79513
:1019C0009F5FC1F7FE2B880F911D9695879597F91C
:1019D000089597F99F6780E870E060E008959FEFB1
:1019E00080EC089500240A941616170618060906B6
:1019F000089500240A941216130614060506089585
:101A0000092E0394000C11F4882352F0BB0F40F40C
:101A1000BF2B11F460FF04C06F5F7F4F8F4F9F4F4C
:101A2000089557FD9058440F551F59F05F3F71F0CE
:101A30004795880F97FB991F61F09F3F79F0879535
:101A40000895121613061406551FF2CF4695F1DFBE
:101A500008C0161617061806991FF1CF869571054E
:101A6000610508940895E894BB2766277727CB0182
:101A700097F908952F923F924F925F926F927F92C3
:101A80008F929F92AF92BF92CF92DF92EF92FF928E
:101A90000F931F93CF93DF93CDB7DEB7CA1BDB0B3A
:101AA0000FB6F894DEBF0FBECDBF09942A883988DF
:101AB00048885F846E847D848C849B84AA84B984E6
:101AC000C884DF80EE80FD800C811B81AA81B981F2
:101AD000CE0FD11D0FB6F894DEBF0FBECDBFED0106
:101AE00008955058BB27AA270E94890D0C94000D19
:101AF0000E94F20C38F00E94F90C20F039F49F3F5C
:101B000019F426F40C94EF0C0EF4E095E7FB0C941A
:101B1000E90CE92F0E94110D58F3BA1762077307F9
:101B20008407950720F079F4A6F50C94330D0EF494
:101B3000E0950B2EBA2FA02D0B01B90190010C01DD
:101B4000CA01A0011124FF27591B99F0593F50F4F5
:101B5000503E68F11A16F040A22F232F342F44274D
:101B6000585FF3CF469537952795A795F040539545
:101B7000C9F77EF41F16BA0B620B730B840BBAF015
:101B80009150A1F0FF0FBB1F661F771F881FC2F780
:101B90000EC0BA0F621F731F841F48F48795779594
:101BA0006795B795F7959E3F08F0B0CF9395880F4E
:101BB00008F09927EE0F9795879508950E94F20DEA
:101BC0000C94000D0E94F90C58F00E94F20C40F0A9
:101BD00029F45F3F29F00C94E90C51110C94340D59
:101BE0000C94EF0C0E94110D68F39923B1F3552367
:101BF00091F3951B550BBB27AA2762177307840720
:101C000038F09F5F5F4F220F331F441FAA1FA9F3B5
:101C100035D00E2E3AF0E0E832D091505040E695A3
:101C2000001CCAF72BD0FE2F29D0660F771F881F04
:101C3000BB1F261737074807AB07B0E809F0BB0BF7
:101C4000802DBF01FF2793585F4F3AF09E3F51050B
:101C500078F00C94E90C0C94340D5F3FE4F3983E5B
:101C6000D4F3869577956795B795F7959F5FC9F7F4
:101C7000880F911D9695879597F90895E1E0660F75
:101C8000771F881FBB1F621773078407BA0720F0EE
:101C9000621B730B840BBA0BEE1F88F7E095089557
:101CA0000E94190D88F09F5798F0B92F9927B751C6
:101CB000B0F0E1F0660F771F881F991F1AF0BA95F0
:101CC000C9F714C0B13091F00E94330DB1E008950E
:101CD0000C94330D672F782F8827B85F39F0B93F00
:101CE000CCF3869577956795B395D9F73EF49095A3
:101CF0008095709561957F4F8F4F9F4F08950E94FB
:101D0000BF0E90F09F3748F4911116F00C94340DEB
:101D100060E070E080E89FEB089526F41B16611DDB
:101D2000711D811D0C94960E0C94B10E882371F4D4
:101D3000772321F09850872B762F07C0662311F464
:101D400099270DC09051862B70E060E02AF09A959B
:101D5000660F771F881FDAF7880F9695879597F992
:101D600008959F3F31F0915020F4879577956795BE
:101D7000B795880F911D9695879597F908950E94BC
:101D8000190DA0F0BEE7B91788F4BB279F3860F49F
:101D90001616B11D672F782F8827985FF7CF869585
:101DA00077956795B11D93959639C8F30895EE0F11
:101DB000FF1F0590F491E02D0994CF93DF938230BB
:101DC000910510F482E090E0E091EB02F091EC02DA
:101DD00020E030E0C0E0D0E0309711F14081518147
:101DE00048175907C0F04817590761F48281938159
:101DF000209719F09B838A832BC09093EC028093E9
:101E0000EB0226C02115310519F04217530718F4CB
:101E10009A01BE01DF01EF010280F381E02DDCCFEA
:101E20002115310509F1281B390B2430310590F4B7
:101E300012968D919C9113976115710521F0FB010C
:101E40009383828304C09093EC028093EB02FD01A4
:101E5000329644C0FD01E20FF31F8193919322500B
:101E600031092D933C933AC02091E9023091EA0266
:101E7000232B41F420912201309123013093EA0277
:101E80002093E90220912001309121012115310593
:101E900041F42DB73EB74091240150912501241BF8
:101EA000350BE091E902F091EA02E217F307A0F4A2
:101EB0002E1B3F0B2817390778F0AC014E5F5F4FA0
:101EC0002417350748F04E0F5F1F5093EA024093E6
:101ED000E9028193919302C0E0E0F0E0CF01DF914D
:101EE000CF9108950F931F93CF93DF93009709F439
:101EF0008CC0FC013297138212820091EB02109188
:101F0000EC020115110581F420813181820F931FAC
:101F10002091E9023091EA022817390779F5F09308
:101F2000EA02E093E90271C0D80140E050E0AE1748
:101F3000BF0750F412962D913C911397AD012115D6
:101F4000310509F1D901F3CF9D01DA0133832283F1
:101F500060817181860F971F8217930769F4EC01E6
:101F600028813981260F371F2E5F3F4F3183208311
:101F70008A819B8193838283452B29F4F093EC0221
:101F8000E093EB0242C01396FC93EE931297ED019F
:101F9000499159919E01240F351FE217F30771F4FF
:101FA00080819181840F951F029611969C938E9348
:101FB0008281938113969C938E931297E0E0F0E0D8
:101FC000D80112968D919C911397009719F0F80102
:101FD0008C01F6CF8D919C9198012E5F3F4F820F1F
:101FE000931F2091E9023091EA022817390769F41A
:101FF000309729F41092EC021092EB0202C0138287
:1020000012821093EA020093E902DF91CF911F91AF
:102010000F910895A0E0B0E0E0E1F0E10C943E0DF6
:10202000EC01009721F4CB010E94DD0EB8C0FC0149
:10203000E60FF71F9C0122503109E217F30708F45D
:10204000ACC0D9010D911C91119706171707B0F07C
:102050000530110508F49FC0C8010497861797073B
:1020600008F499C002501109061B170B0193119334
:102070006D937C93CF010E94720F8DC05B01A01AFB
:10208000B10A4C01800E911EA091EB02B091EC02BE
:1020900040E050E0E12CF12C109709F44AC0A8155B
:1020A000B905D1F56D907C901197630182E0C80E5F
:1020B000D11CCA14DB0480F1A3014A195B096A012F
:1020C00082E0C80ED11C1296BC9012971396AC9168
:1020D000B5E0CB16D10440F0B282A3835183408394
:1020E000D9016D937C930AC00E5F1F4FC301800F0F
:1020F000911FF90191838083EB2DFA2FE114F104F4
:1021000031F0D7011396FC93EE93129744C0F093ED
:10211000EC02E093EB023FC08D919C911197481720
:10212000590708F4AC017D0112960D90BC91A02DC9
:10213000B3CF8091E9029091EA0288159905E1F404
:1021400046175707C8F4809120019091210100970C
:1021500041F48DB79EB74091240150912501841B15
:10216000950BE817F907C8F4F093EA02E093E90247
:10217000F901718360830FC0CB010E94DD0E7C01E9
:10218000009759F0A801BE010E94D910CE010E940B
:10219000720FC70104C0CE0102C080E090E0CDB74D
:1021A000DEB7EEE00C945A0D81E090E0F8940C94C8
:1021B000F210FB01DC0102C001900D924150504031
:1021C000D8F70895FB01DC018D9101908019011071
:1021D000D9F3990B0895FB01DC0101900D920020C9
:1021E000E1F7089510E0C8E6D0E004C0FE010E94C7
:0E21F000D70E2196C936D107C9F7F894FFCF54
:1021FE0000000000000000005802960058029600F1
:10220E0000000000000000009600580296005802E0
:10221E000000ED02800096000000000027019400EF
:10222E00BF006E01F000CE00E200000000007D0253
:10223E004D02AD0221024502310222027000300031
:10224E0031003200330034003500360037003800DC
:0E225E003900610062006300640065006600E4
:00000001FF
