:100000000C9468000C9490000C9490000C94900058
:100010000C9490000C9490000C9490000C94900020
:100020000C9490000C9490000C9490000C94900010
:100030000C9490000C9490000C9490000C94900000
:100040000C9414060C9490000C941E050C948B02D6
:100050000C9490000C9490000C9490000C949000E0
:100060000C9465060C949000C009C909330AB00AC3
:10007000BB0AC60AD90AF00AF50A0A0B00000000FA
:10008000240027002A0000000000250028002B0083
:10009000040404040404040402020202020203032E
:1000A0000303030301020408102040800102040836
:1000B00010200102040810200000000800020100C6
:1000C00000030407000000000000000049083D0B89
:1000D00011241FBECFEFD8E0DEBFCDBF23E0A0E9E3
:1000E000B1E001C01D92AF30B207E1F711E0A0E02E
:1000F000B1E0ECE8FFE102C005900D92A039B10734
:10010000D9F710E0C7E6D0E004C02197FE010E94B5
:100110009E0DC636D107C9F70E94B7080C94B90FD7
:100120000C9400000895CF92DF92EF92FF920F930C
:100130001F93CF93DF936C017A018B01C0E0D0E075
:10014000CE15DF0589F0D8016D918D01D601ED91B5
:10015000FC910190F081E02DC6010995892B11F4E5
:100160007E0102C02196ECCFC701DF91CF911F9194
:100170000F91FF90EF90DF90CF90089585EE91E082
:100180000E94E20221E0892B09F420E0822F0895E9
:100190001F93CF93DF93162FC6E9D2E0988121E019
:1001A0002093E4019093E3011092E2011092E101A7
:1001B000A981BA81ED91FC9111970190F081E02D18
:1001C000682FCD01099589819A81DC01ED91FC911F
:1001D0000190F081E02D612F099589819A81DF914D
:1001E000CF911F910C94AF07CF93DF9326E636E6AD
:1001F00046E65FE30E94430B9B01AC0160E27CEBAF
:100200008EEB95E40E94A50C20E030E040E85FE32F
:100210000E94380C20E030E040E05FE30E94390C9F
:100220000E94460D0E94170DD62F8091960291E0F4
:100230009093E4018093E3011092E2011092E101B6
:100240008091970290919802DC01ED91FC910190D0
:10025000F081E02D60E009958091970290919802DD
:100260000E94AF07809196029091BE019111FCCF40
:1002700091E09093BE019093BD012FEF2093BC01BC
:100280001092BB011092BA019093B9019091B901FB
:10029000880F892B8093B9018091B801813061F476
:1002A0001092B8018091B9018093BB008091BC008D
:1002B00083FDF8CF85EC01C085EE8093BC00809172
:1002C000BE018130E1F38091BB01811103C08091B7
:1002D000BB0101C081E0A8E9B1E021EC31E0F90106
:1002E0009E2F921B981718F49D919193F9CF10921D
:1002F000C0018093BF018091970290919802DC0128
:10030000ED91FC910284F385E02D0995C82F8F763D
:10031000682F606180E00E94C8006D2F8EEF0E9400
:10032000C8006C2F80E00E94C80065E070E080E0AB
:1003300090E00E94DA056C2F606A80E0DF91CF9137
:100340000C94C8000E949B0F0F931F93CF93DF93D1
:100350008B01C6E9D2E0988121E02093E4019093DB
:10036000E3011092E2011092E101A981BA81ED91BD
:10037000FC91119724E0829FC0011124BC016A5FA7
:100380007F4F0190F081E02DCD01099560E070E094
:1003900089819A810E945E0660E070E089819A817D
:1003A0000E945E06B80189819A810E945E06612FD3
:1003B00070E089819A810E945E0689819A81DF912D
:1003C000CF911F910F910C94AF0790E0FC01E8547E
:1003D000FF4F2491FC01EC55FF4F3491FC01E05795
:1003E000FF4FE491EE23B1F1222339F1233091F054
:1003F00038F42130A9F0223001F584B58F7D12C088
:10040000273091F02830A1F02430B9F48091800099
:100410008F7D03C0809180008F77809380000DC016
:1004200084B58F7784BD09C08091B0008F7703C0F9
:100430008091B0008F7D8093B000F0E0EE0FFF1F41
:10044000EA57FF4FA591B4918FB7F894EC913E2BEA
:100450003C938FBF0895FC01809194029091950286
:10046000892B21F421E0309749F413C08091900248
:1004700090919102309731F421E0FC018081882332
:1004800041F006C0BF010E94A90F21E0892B09F0AD
:1004900020E0822F0895EF92FF920F931F93CF9346
:1004A000DF93EC017B018A0188819981009729F013
:1004B0002A813B8124173507F8F4B8016F5F7F4F1D
:1004C0000E94D10E009759F0998388831B830A8379
:1004D0002C813D81232B81F4FC0110820DC0888189
:1004E0009981009711F00E94390E198218821D829D
:1004F0001C821B821A8207C01D830C83B70188816E
:1005000099810E94B20FCE01DF91CF911F910F917F
:10051000FF90EF9008951F920F920FB60F92112443
:100520002F933F934F935F936F937F938F939F93FB
:10053000AF93BF93EF93FF9385EE91E00E94500538
:10054000FF91EF91BF91AF919F918F917F916F91AB
:100550005F914F913F912F910F900FBE0F901F9081
:100560001895FC01538D448D252F30E0842F90E0A9
:10057000821B930B541710F0CF960895019708959E
:10058000FC01918D828D981761F0828DDF01A80F9B
:10059000B11D5D968C91928D9F5F9F73928F90E0BD
:1005A00008958FEF9FEF0895FC01918D828D98172C
:1005B00031F0828DE80FF11D858D90E008958FEF69
:1005C0009FEF0895FC01918D228D892F90E0805C32
:1005D0009F4F821B91098F739927089580E090E0C7
:1005E000892B29F00E94BE0081110C94000008950F
:1005F0003FB7F8948091070390910803A0910903F5
:10060000B0910A0326B5A89B05C02F3F19F00196AB
:10061000A11DB11D3FBFBA2FA92F982F8827820F88
:10062000911DA11DB11DBC01CD0142E0660F771FD8
:10063000881F991F4A95D1F7089585ED8093BC00D6
:100640008091BC0084FDFCCF1092BE0108954091C2
:10065000DF02262F30E0240F311D21323105DCF47A
:100660002091BE012430C9F4FC0180E090E086179F
:1006700058F43091DF022191DC01A154BD4FA30F4A
:10068000B11D2C930196F3CF8091DF02680F609328
:10069000DF0280E0089581E0089582E00895E0910E
:1006A000BD02F091BE02309729F01092E201109243
:1006B000E10109940895AC01E0919401F091950154
:1006C0003097E1F09091C0018091BF019817B0F090
:1006D00090E0292F30E02617370754F4DA01A20FF3
:1006E000B31F8C91D901AF53BE4F8C939F5FF1CF55
:1006F0001092C0016093BF01CB0109940895089541
:10070000E091C0018091BF01E81730F4F0E0EF53B1
:10071000FE4F808190E008958FEF9FEF08959091B4
:10072000C0018091BF01981750F4E92FF0E0EF531A
:10073000FE4F208130E09F5F9093C00102C02FEFF9
:100740003FEFC90108958091BF0190E02091C00161
:10075000821B91090895CF92DF92EF92FF920F933F
:100760001F93CF93DF937C01262F972F8A018091CF
:10077000E401882391F0C62FD72F6E01C40ED51E39
:10078000CC15DD0571F06991D701ED91FC910190D7
:10079000F081E02DC7010995F3CF642F822F0E94CD
:1007A0002703C801DF91CF911F910F91FF90EF9028
:1007B000DF90CF900895CF93DF931F92CDB7DEB730
:1007C00069832091E4012223D1F02091E1012032BC
:1007D00040F021E030E0FC013383228380E090E0B0
:1007E00015C08091E201E82FF0E0E356FD4F9981BA
:1007F00090838F5F8093E2018093E10105C061E007
:10080000CE0101960E94270381E090E00F90DF91D6
:10081000CF910895089580E090E00895CF93DF93FD
:10082000CDB7DEB728970FB6F894DEBF0FBECDBFA9
:100830009091BF018091C001981749F082E892E041
:100840000E948F0390939C0280939B02F1CF809132
:100850009B021A8219821C821B821E821D828F8338
:100860001886BE01695F7F4FFB0101900020E9F708
:100870003197AF01461B570BCE0101960E944B02E8
:1008800080919002909191020097C9F069817A81DC
:100890006115710591F040919202509193022D8162
:1008A0003E814217530748F00E94B20F8D819E810E
:1008B000909395028093940218C00E94390E89810A
:1008C0009A8190939102809390028B819C81909366
:1008D0009302809392028D819E81909395028093E2
:1008E00094021A8219821C821B821E821D828981B7
:1008F0009A810E94390E4091940250919502609124
:1009000090027091910285EE91E00E94930088E739
:1009100091E00E942B02882321F0109297011092FF
:1009200096018BE791E00E942B02882331F081E051
:1009300090E0909397018093960187E691E00E9462
:100940002B02882331F082E090E09093970180930E
:10095000960189E691E00E942B02882331F083E022
:1009600090E090939701809396018BE691E00E942E
:100970002B02882331F084E090E0909397018093DC
:1009800096018DE691E00E942B02882331F085E0EC
:1009900090E090939701809396018FE691E00E94FA
:1009A0002B02882331F086E090E0909397018093AA
:1009B000960181E791E00E942B02882331F087E0C5
:1009C00090E0909397018093960183E791E00E94D5
:1009D0002B02882331F088E090E090939701809378
:1009E000960185E791E00E942B02882331F089E08F
:1009F00090E0909397018093960187E791E00E94A1
:100A00002B02882331F08AE090E090939701809345
:100A100096018AE791E00E942B02882331F08BE057
:100A200090E0909397018093960128960FB6F894E2
:100A3000DEBF0FBECDBFDF91CF9108951F920F9201
:100A40000FB60F9211242F938F939F93EF93FF93E1
:100A5000E091F501F091F6018081E091FB01F091C8
:100A6000FC0182FD12C090818091FE018F5F8F7327
:100A70002091FF01821751F0E091FE01F0E0EB516F
:100A8000FE4F958F8093FE0101C08081FF91EF9111
:100A90009F918F912F910F900FBE0F901F901895DF
:100AA000FC01848DDF01A80FB11DA35ABF4F2C910B
:100AB000848D90E001968F739927848FA689B789DA
:100AC0002C93A089B1898C9180648C93938D848DB3
:100AD000981306C00288F389E02D80818F7D808382
:100AE0000895EF92FF920F931F93CF93DF93EC0142
:100AF00081E0888F9B8D8C8D981305C0E889F989DA
:100B0000808185FD24C0F62E0B8D10E00F5F1F4FF6
:100B10000F731127E02E8C8DE8120CC00FB607FC66
:100B2000FACFE889F989808185FFF5CFCE010E944F
:100B30005005F1CF8B8DFE01E80FF11DE35AFF4FF9
:100B4000F0820B8FEA89FB898081806207C0EE8981
:100B5000FF896083E889F98980818064808381E0EE
:100B600090E0DF91CF911F910F91FF90EF9008954A
:100B7000CF93DF93EC01888D8823C9F0EA89FB8944
:100B8000808185FD05C0A889B9898C9186FD0FC03B
:100B90000FB607FCF5CF808185FFF2CFA889B98910
:100BA0008C9185FFEDCFCE010E945005E7CFDF91FC
:100BB000CF9108958F929F92AF92BF92CF92DF9282
:100BC000EF92FF926B017C010E94F8024B015C01E5
:100BD000C114D104E104F104F1F00E94F802DC0137
:100BE000CB0188199909AA09BB09883E9340A10540
:100BF000B10570F321E0C21AD108E108F10888EECE
:100C0000880E83E0981EA11CB11CC114D104E1041C
:100C1000F10419F7DDCFFF90EF90DF90CF90BF90F8
:100C2000AF909F908F9008951F920F920FB60F92E2
:100C300011242F933F938F939F93AF93BF938091F2
:100C4000030390910403A0910503B0910603309132
:100C5000020323E0230F2D3720F40196A11DB11DBF
:100C600005C026E8230F0296A11DB11D20930203A3
:100C70008093030390930403A0930503B0930603AA
:100C80008091070390910803A0910903B0910A0392
:100C90000196A11DB11D8093070390930803A093B3
:100CA0000903B0930A03BF91AF919F918F913F9138
:100CB0002F910F900FBE0F901F901895DC01ED91B2
:100CC000FC910190F081E02D09941F920F920FB6D4
:100CD0000F9211242F933F934F935F936F937F93C2
:100CE0008F939F93AF93BF93EF93FF938091B9003E
:100CF000887F803609F49CC068F5883209F45BC0AF
:100D000090F4803109F454C038F4882309F4F6C013
:100D1000883009F44DC0F6C0883109F44CC08032E7
:100D200009F45DC0EFC0803409F468C048F4803332
:100D300009F455C0883309F0E5C08093BC01D8C0E0
:100D4000803509F44FC0883509F45DC0883409F056
:100D5000D9C0D6C0883909F4C7C0A8F4883709F4C7
:100D600067C038F4883609F463C0803709F460C07E
:100D7000C9C0883809F4B8C0803909F45FC0803828
:100D800009F0C0C05BC0803B09F486C038F4803AEB
:100D900009F466C0883A09F47FC0B4C0803C09F405
:100DA000A7C0883C09F4A4C0883B09F48AC0AAC043
:100DB0008091B90110C09091BB018091BA01981740
:100DC00070F5E091BB0181E08E0F8093BB01F0E0F4
:100DD000E856FE4F80818093BB0085EC86C08093EF
:100DE000BC018EC0E091BB0181E08E0F8093BB01FE
:100DF0008091BB00F0E0E856FE4F80839091BB01EC
:100E00008091BA016EC0E091BB0181E08E0F8093AA
:100E1000BB018091BB00F0E0E856FE4F80838091DB
:100E2000BD0181116DC081E08093B80184EA61C089
:100E300083E08093BE0110920103CFCF8091010324
:100E4000803208F051C0E091010381E08E0F809361
:100E500001038091BB00F0E0EF51FD4F8083BDCFD7
:100E600085EC8093BC001092BE018091010380321A
:100E700030F4E0910103F0E0EF51FD4F10826091FA
:100E8000010370E0E0919001F091910181EE92E018
:100E900009951092010336C084E08093BE01109240
:100EA000E0021092DF02E0919201F0919301099526
:100EB0008091DF02811105C081E08093DF021092F2
:100EC000BF02E091E00281E08E0F8093E002F0E04B
:100ED000E154FD4F80818093BB009091E0028091AE
:100EE000DF02981708F479CF85E88093BC000AC028
:100EF00085EC8093BC001092BE0104C01092BC012E
:100F00000E941D03FF91EF91BF91AF919F918F912F
:100F10007F916F915F914F913F912F910F900FBEF5
:100F20000F901F9018951092BE0181E08093BD0133
:100F30001092B80182E10E94E50183E10E94E5017F
:100F4000E9EBF0E080818E7F808380818D7F8083DC
:100F500088E48093B80085E48093BC0008952091D4
:100F6000E1019091E301213208F04AC08091BE0175
:100F70008111FCCF32E03093BE0131E03093BD01EE
:100F80003FEF3093BC011092BB012093BA01ADE951
:100F9000B2E048E951E0FA013E2F341B321718F451
:100FA0003D913193F9CF1092B9012091B901990F78
:100FB000922B9093B9019091B801913061F4109205
:100FC000B8019091B9019093BB009091BC0093FD42
:100FD000F8CF95EC01C095EE9093BC009091BE01C6
:100FE0009230E1F39091BC019F3F79F08091BC0178
:100FF000803241F08091BC01803331F084E005C043
:1010000081E003C082E001C083E01092E20110920F
:10101000E1011092E4010895FB019C01220F331FAE
:10102000D901A75EBE4F4D915C91BA016E0F7F1F33
:101030006835A2E07A0764F44E1B5F0B473951050F
:101040003CF0F901E75DFE4F718360830C94A401CD
:1010500042E150E06DE771E085EE91E00C94930081
:101060000F931F93CF938C01C0E068E770E080E09E
:1010700090E00E94DA05F801619171918F018C2F47
:101080000E94A401CF5FC83081F7CF911F910F91CB
:101090000895E5EEF1E01382128288EE93E0A0E07D
:1010A000B0E084839583A683B78325E431E0318360
:1010B000208325EC30E03587248724EC30E0378727
:1010C000268720EC30E0318B208B21EC30E0338B15
:1010D000228B22EC30E0358B248B26EC30E0378BF2
:1010E000268B118E128E138E148EE2E8F2E013829C
:1010F000128284839583A683B78387E591E09183E9
:101100008083A6E9B2E080E48C931296FC93EE9380
:101110001197E0E9F2E011821082138212821582A7
:10112000148240E050E06FE871E0CF010E944B0272
:1011300080EE90E090938F0280938E02E9E1F1E0DF
:1011400026E731E03183208388E791E0938382832F
:101150003583248397838683E9E0F1E0318320831C
:101160009383828335832483978386830895789439
:1011700084B5826084BD84B5816084BD85B582609C
:1011800085BD85B5816085BD80916E00816080934D
:101190006E001092810080918100826080938100B6
:1011A00080918100816080938100809180008160C6
:1011B000809380008091B10084608093B100809121
:1011C000B00081608093B00080917A008460809349
:1011D0007A0080917A00826080937A0080917A0010
:1011E000816080937A0080917A00806880937A0091
:1011F0001092C1001092C0011092BF011092E20142
:101200001092E1010E94930760E880E00E94C8000C
:101210006AE070E080E090E00E94DA0560E070E053
:101220008AE794E40E94F40060E070E080E792E4D2
:101230000E94F40083E080930001EAEAF0E0249148
:10124000E6E9F0E08491882399F090E0880F991FF7
:10125000FC01E458FF4FA591B491FC01EA57FF4F00
:10126000859194918FB7F894EC91E22BEC938FBF1A
:10127000E9EAF0E02491E5E9F0E084918823C1F007
:1012800090E0880F991FFC01E458FF4FC591D4915D
:10129000FC01EA57FF4FA591B4919FB7F89488815C
:1012A000E22FE0958E2388838C91E823EC939FBFF7
:1012B000E091F501F091F60182E08083E091F10187
:1012C000F091F2011082E091F301F091F4018FECC2
:1012D00080831092FD01E091F901F091FA0186E01E
:1012E0008083E091F701F091F80180818061808333
:1012F000E091F701F091F801808188608083E091AE
:10130000F701F091F801808180688083E091F70116
:10131000F091F80180818F7D808388E08093BA000E
:101320008FE493E090939301809392018BE593E097
:1013300090939101809390011092C0011092BF018F
:101340001092E2011092E1010E9493078EE094E076
:1013500090939501809394016AE070E080E090E0C2
:101360000E94DA05CFEFDFEFE0919601F09197014F
:10137000EA30F10508F07EC1EC5CFF4F0C949E0D45
:1013800010929A021092990289E191E00E9430082D
:1013900071C168E572E084E00E94A40168E572E032
:1013A00086E00E94A40168E770E080E090E00E947F
:1013B000DA0560918E0270918F026A567F4F80E04D
:1013C0000E94A40168E572E081E00E94A40166E940
:1013D00070E082E00E94A40108E512E080918E0294
:1013E00090918F02B801681B790B83E00E94A401E1
:1013F00068E770E080E090E00E94DA0566E970E05E
:1014000084E00E94A40166E970E086E00E94A401E5
:1014100066E970E085E00E94A40166E970E087E07B
:101420000E94A40168E770E080E090E00E94DA0585
:1014300066E970E080E00E94A40180918E029091A4
:101440008F02B801681B790B81E00E94A4016091B2
:101450008E0270918F026A567F4F82E00E94A40133
:1014600068E572E069C068E572E084E00E94A4016A
:1014700068E572E086E00E94A40168E770E080E021
:1014800090E00E94DA0566E970E080E00E94A40125
:1014900008E512E080918E0290918F02B801681BDE
:1014A000790B81E00E94A40160918E0270918F02FD
:1014B0006A567F4F82E00E94A40168E572E083E0F3
:1014C0000E94A40168E770E080E090E00E94DA05E5
:1014D00066E970E084E00E94A40166E970E086E0BD
:1014E0000E94A40166E970E085E00E94A40166E91B
:1014F00070E087E00E94A40168E770E080E090E07F
:101500000E94DA0560918E0270918F026A567F4FB9
:1015100080E00E94A40168E572E081E00E94A401DD
:1015200066E970E082E00E94A40180918E029091B1
:101530008F02B801681B790B83E00E94A40168E761
:1015400070E080E090E00E94DA0568E572E085E0F6
:101550000E94A40168E572E087E00E94A4018AC0AD
:1015600081E090E09093020180930101D093040107
:10157000C093030115C0D0930201C0930101D09321
:101580000401C093030181E090E01DC0D0930201EB
:10159000C093010181E090E09093040180930301E6
:1015A000D0930601C0930501909308018093070131
:1015B00012C0D0930201C093010181E090E09093AA
:1015C0000401809303019093060180930501D09359
:1015D0000801C093070190939A02809399024AC030
:1015E00089E091E00E94300841C060E070E081E055
:1015F00090E00E940C0860E070E088E090E00E94BB
:101600000C0860E070E085E090E00E940C0860E06B
:1016100070E028C060918E0270918F027195619583
:10162000710981E090E00E940C0860918E02709137
:101630008F0271956195710988E090E00E940C0815
:1016400060918E0270918F0271956195710985E0AC
:1016500090E00E940C0860918E0270918F0271954B
:101660006195710987E090E00E940C0810929A023F
:10167000109299020E94EE0277CE80919002909192
:1016800091020C94390E0E94560B0C94C70B0E94C9
:10169000B90B38F00E94C00B20F0952311F00C9488
:1016A000B00B0C94B60B11240C94FB0B0E94D80BBE
:1016B00070F3959FC1F3950F50E0551F629FF001A5
:1016C000729FBB27F00DB11D639FAA27F00DB11DBE
:1016D000AA1F649F6627B00DA11D661F829F222747
:1016E000B00DA11D621F739FB00DA11D621F839FCE
:1016F000A00D611D221F749F3327A00D611D231FA4
:10170000849F600D211D822F762F6A2F11249F57F1
:1017100050409AF0F1F088234AF0EE0FFF1FBB1FF4
:10172000661F771F881F91505040A9F79E3F5105B3
:1017300080F00C94B00B0C94FB0B5F3FE4F3983EED
:10174000D4F3869577956795B795F795E7959F5F5D
:10175000C1F7FE2B880F911D9695879597F90895EF
:1017600097F99F6780E870E060E008959FEF80EC54
:10177000089500240A9416161706180609060895F7
:1017800000240A9412161306140605060895092E5D
:101790000394000C11F4882352F0BB0F40F4BF2BCC
:1017A00011F460FF04C06F5F7F4F8F4F9F4F08950C
:1017B00057FD9058440F551F59F05F3F71F0479502
:1017C000880F97FB991F61F09F3F79F087950895E7
:1017D000121613061406551FF2CF4695F1DF08C006
:1017E000161617061806991FF1CF86957105610523
:1017F00008940895E894BB2766277727CB0197F9CB
:1018000008952F923F924F925F926F927F928F92A4
:101810009F92AF92BF92CF92DF92EF92FF920F937F
:101820001F93CF93DF93CDB7DEB7CA1BDB0B0FB689
:10183000F894DEBF0FBECDBF09942A883988488846
:101840005F846E847D848C849B84AA84B984C884DC
:10185000DF80EE80FD800C811B81AA81B981CE0FD3
:10186000D11D0FB6F894DEBF0FBECDBFED010895B8
:101870005058BB27AA270E94500C0C94C70B0E94FB
:10188000B90B38F00E94C00B20F039F49F3F19F4D7
:1018900026F40C94B60B0EF4E095E7FB0C94B00B19
:1018A000E92F0E94D80B58F3BA1762077307840711
:1018B000950720F079F4A6F50C94FA0B0EF4E09558
:1018C0000B2EBA2FA02D0B01B90190010C01CA01FA
:1018D000A0011124FF27591B99F0593F50F4503EA5
:1018E00068F11A16F040A22F232F342F4427585F97
:1018F000F3CF469537952795A795F0405395C9F7AF
:101900007EF41F16BA0B620B730B840BBAF0915066
:10191000A1F0FF0FBB1F661F771F881FC2F70EC005
:10192000BA0F621F731F841F48F4879577956795D8
:10193000B795F7959E3F08F0B0CF9395880F08F0C4
:101940009927EE0F9795879508950E94B90C0C94EE
:10195000C70B0E94C00B58F00E94B90B40F029F44D
:101960005F3F29F00C94B00B51110C94FB0B0C94BD
:10197000B60B0E94D80B68F39923B1F3552391F36A
:10198000951B550BBB27AA2762177307840738F0EE
:101990009F5F5F4F220F331F441FAA1FA9F335D04B
:1019A0000E2E3AF0E0E832D091505040E695001CFF
:1019B000CAF72BD0FE2F29D0660F771F881FBB1FB9
:1019C000261737074807AB07B0E809F0BB0B802D97
:1019D000BF01FF2793585F4F3AF09E3F510578F0C3
:1019E0000C94B00B0C94FB0B5F3FE4F3983ED4F3E4
:1019F000869577956795B795F7959F5FC9F7880F97
:101A0000911D9695879597F90895E1E0660F771FE8
:101A1000881FBB1F621773078407BA0720F0621B79
:101A2000730B840BBA0BEE1F88F7E09508950E94A4
:101A3000E00B88F09F5798F0B92F9927B751B0F075
:101A4000E1F0660F771F881F991F1AF0BA95C9F742
:101A500014C0B13091F00E94FA0BB1E008950C94DB
:101A6000FA0B672F782F8827B85F39F0B93FCCF38E
:101A7000869577956795B395D9F73EF490958095BF
:101A8000709561957F4F8F4F9F4F08950E94860DEF
:101A900090F09F3748F4911116F00C94FB0B60E026
:101AA00070E080E89FEB089526F41B16611D711D00
:101AB000811D0C945D0D0C94780D882371F47723AF
:101AC00021F09850872B762F07C0662311F49927B1
:101AD0000DC09051862B70E060E02AF09A95660F59
:101AE000771F881FDAF7880F9695879597F90895DD
:101AF0009F3F31F0915020F4879577956795B79582
:101B0000880F911D9695879597F908950E94E00B8F
:101B1000A0F0BEE7B91788F4BB279F3860F416160B
:101B2000B11D672F782F8827985FF7CF8695779517
:101B30006795B11D93959639C8F30895EE0FFF1F71
:101B40000590F491E02D0994CF93DF9382309105B5
:101B500010F482E090E0E0910D03F0910E0320E09C
:101B600030E0C0E0D0E0309711F14081518148175A
:101B70005907C0F04817590761F482819381209773
:101B800019F09B838A832BC090930E0380930D03DF
:101B900026C02115310519F04217530718F49A0190
:101BA000BE01DF01EF010280F381E02DDCCF2115C2
:101BB000310509F1281B390B2430310590F41296B8
:101BC0008D919C9113976115710521F0FB01938311
:101BD000828304C090930E0380930D03FD0132961F
:101BE00044C0FD01E20FF31F81939193225031090C
:101BF0002D933C933AC020910B0330910C03232B7F
:101C000041F420913B0130913C0130930C0320932F
:101C10000B032091390130913A012115310541F42E
:101C20002DB73EB740913D0150913E01241B350B2D
:101C3000E0910B03F0910C03E217F307A0F42E1BC5
:101C40003F0B2817390778F0AC014E5F5F4F241720
:101C5000350748F04E0F5F1F50930C0340930B0362
:101C60008193919302C0E0E0F0E0CF01DF91CF914A
:101C700008950F931F93CF93DF93009709F48CC0BF
:101C8000FC0132971382128200910D0310910E0312
:101C90000115110581F420813181820F931F20915C
:101CA0000B0330910C032817390779F5F0930C03D7
:101CB000E0930B0371C0D80140E050E0AE17BF07BE
:101CC00050F412962D913C911397AD0121153105D9
:101CD00009F1D901F3CF9D01DA01338322836081B9
:101CE0007181860F971F8217930769F4EC01288191
:101CF0003981260F371F2E5F3F4F318320838A8122
:101D00009B8193838283452B29F4F0930E03E09308
:101D10000D0342C01396FC93EE931297ED01499187
:101D200059919E01240F351FE217F30771F480814A
:101D30009181840F951F029611969C938E938281B8
:101D4000938113969C938E931297E0E0F0E0D80174
:101D500012968D919C911397009719F0F8018C01C0
:101D6000F6CF8D919C9198012E5F3F4F820F931F6C
:101D700020910B0330910C032817390769F4309731
:101D800029F410920E0310920D0302C013821282E6
:101D900010930C0300930B03DF91CF911F910F91D0
:101DA0000895A0E0B0E0E7EDFEE00C94050CEC0136
:101DB000009721F4CB010E94A40DB8C0FC01E60FEE
:101DC000F71F9C0122503109E217F30708F4ACC059
:101DD000D9010D911C91119706171707B0F0053026
:101DE000110508F49FC0C80104978617970708F4E7
:101DF00099C002501109061B170B019311936D93A3
:101E00007C93CF010E94390E8DC05B01A01AB10AEC
:101E10004C01800E911EA0910D03B0910E0340E085
:101E200050E0E12CF12C109709F44AC0A815B9052F
:101E3000D1F56D907C901197630182E0C80ED11CA2
:101E4000CA14DB0480F1A3014A195B096A0182E02C
:101E5000C80ED11C1296BC9012971396AC91B5E0A7
:101E6000CB16D10440F0B282A38351834083D901C1
:101E70006D937C930AC00E5F1F4FC301800F911FAB
:101E8000F90191838083EB2DFA2FE114F10431F0F5
:101E9000D7011396FC93EE93129744C0F0930E0370
:101EA000E0930D033FC08D919C91119748175907FE
:101EB00008F4AC017D0112960D90BC91A02DB3CF1A
:101EC00080910B0390910C0388159905E1F4461756
:101ED0005707C8F48091390190913A01009741F475
:101EE0008DB79EB740913D0150913E01841B950BEB
:101EF000E817F907C8F4F0930C03E0930B03F9011A
:101F0000718360830FC0CB010E94A40D7C010097F8
:101F100059F0A801BE010E94A00FCE010E94390E07
:101F2000C70104C0CE0102C080E090E0CDB7DEB7AB
:101F3000EEE00C94210C81E090E0F8940C94B90F41
:101F4000FB01DC0102C001900D9241505040D8F7D6
:101F50000895FB01DC018D91019080190110D9F3E6
:101F6000990B0895FB01DC0101900D920020E1F72F
:101F7000089510E0C7E6D0E004C0FE010E949E0D67
:0C1F80002196C836D107C9F7F894FFCFAE
:101F8C00010100FFFF0100FFFF0000000000000046
:101F9C000058029600580296000000000000000055
:101FAC000096005802960058029600580296005867
:101FBC0002960058029600580200000F0380007829
:101FCC00000000000071059300B102B805E202C0E8
:101FDC0002D40200000000DB03AB030B047F03A35D
:101FEC00038F038003700032003300340035003659
:101FFC000037003800390031300031310062696738
:10200C00676572206F7220736D616C6C6572210054
:00000001FF
