:100000000C9468000C9490000C9490000C94900058
:100010000C9490000C9490000C9490000C94900020
:100020000C9490000C9490000C9490000C94900010
:100030000C9490000C9490000C9490000C94900000
:100040000C9493040C9490000C9477010C9451013F
:100050000C9490000C9490000C9490000C949000E0
:100060000C94E4040C94900050095909B509150A40
:100070007F0ADF0A490BC60BCB0BE00B0000000028
:10008000240027002A0000000000250028002B0083
:10009000040404040404040402020202020203032E
:1000A0000303030301020408102040800102040836
:1000B00010200102040810200000000800020100C6
:1000C000000304070000000000000000190C130CDE
:1000D00011241FBECFEFD8E0DEBFCDBF23E0A6E8DE
:1000E000B1E001C01D92A530B207E1F711E0A0E038
:1000F000B1E0E4E1F2E202C005900D92A638B1074A
:10010000D9F710E0C7E6D0E004C02197FE010E94B5
:10011000E20EC636D107C9F70E9449080C94FD10BB
:100120000C9400000895CF92DF92EF92FF920F930C
:100130001F93CF93DF936C017A018B01C0E0D0E075
:10014000CE15DF0589F0D8016D918D01D601ED91B5
:10015000FC910190F081E02DC6010995892B11F4E5
:100160007E0102C02196ECCFC701DF91CF911F9194
:100170000F91FF90EF90DF90CF9008950E94DF10D5
:100180008DE492E00E94DA0121E0892B09F420E05D
:10019000822F0895EF92FF920F931F93CF93DF93D7
:1001A000EC0181E0888F9B8D8C8D981305C0E889C8
:1001B000F989808185FD24C0F62E0B8D10E00F5F3C
:1001C0001F4F0F731127E02E8C8DE8120CC00FB655
:1001D00007FCFACFE889F989808185FFF5CFCE0148
:1001E0000E941604F1CF8B8DFE01E80FF11DE35A3A
:1001F000FF4FF0820B8FEA89FB898081806207C004
:10020000EE89FF896083E889F98980818064808331
:1002100081E090E0DF91CF911F910F91FF90EF90DF
:100220000895EF92FF920F931F93CF93DF93EC010A
:100230007B018A0188819981009729F02A813B817D
:1002400024173507F8F4B8016F5F7F4F0E9415102F
:10025000009759F0998388831B830A832C813D8101
:10026000232B81F4FC0110820DC0888199810097B5
:1002700011F00E947D0F198218821D821C821B8240
:100280001A8207C01D830C83B701888199810E945F
:10029000F610CE01DF91CF911F910F91FF90EF905B
:1002A00008951F920F920FB60F9211242F933F9330
:1002B0004F935F936F937F938F939F93AF93BF936E
:1002C000EF93FF938DE492E00E941604FF91EF916B
:1002D000BF91AF919F918F917F916F915F914F915E
:1002E0003F912F910F900FBE0F901F9018951F9266
:1002F0000F920FB60F9211242F938F939F93EF932A
:10030000FF93E0915D02F0915E028081E0916302D3
:10031000F091640282FD12C09081809166028F5F2D
:100320008F7320916702821751F0E0916602F0E02E
:10033000E35BFD4F958F8093660201C08081FF9142
:10034000EF919F918F912F910F900FBE0F901F9063
:100350001895FC01538D448D252F30E0842F90E0BB
:10036000821B930B541710F0CF96089501970895B0
:10037000FC01918D828D981761F0828DDF01A80FAD
:10038000B11D5D968C91928D9F5F9F73928F90E0CF
:1003900008958FEF9FEF0895FC01918D828D98173E
:1003A00031F0828DE80FF11D858D90E008958FEF7B
:1003B0009FEF0895FC01918D228D892F90E0805C44
:1003C0009F4F821B91098F739927089580E090E0D9
:1003D000892B29F00E94C00081110C94000008951F
:1003E0003FB7F8948091FC019091FD01A091FE012E
:1003F000B091FF0126B5A89B05C02F3F19F00196CB
:10040000A11DB11D3FBFBA2FA92F982F8827820F9A
:10041000911DA11DB11DBC01CD0142E0660F771FEA
:10042000881F991F4A95D1F7089585ED8093BC00E8
:100430008091BC0084FDFCCF10922602089540916B
:10044000D401262F30E0240F311D21323105DCF498
:10045000209126022430C9F4FC0180E090E0861748
:1004600058F43091D4012191DC01AC54BE4FA30F5C
:10047000B11D2C930196F3CF8091D401680F609346
:10048000D40180E0089581E0089582E00895E0912C
:10049000B201F091B301309729F010924A02109204
:1004A000490209940895AC01E0918A01F0918B0111
:1004B0003097E1F090912802809127029817B0F0D0
:1004C00090E0292F30E02617370754F4DA01A20F05
:1004D000B31F8C91D901A75DBD4F8C939F5FF1CF66
:1004E0001092280260932702CB0109940895089581
:1004F000E091280280912702E81730F4F0E0E75DF0
:10050000FD4F808190E008958FEF9FEF08959091C7
:10051000280280912702981750F4E92FF0E0E75D58
:10052000FD4F208130E09F5F9093280202C02FEFA3
:100530003FEFC90108958091270290E020912802A1
:10054000821B91090895CF92DF92EF92FF920F9351
:100550001F93CF93DF937C01262F972F8A018091E1
:100560004C02882391F0C62FD72F6E01C40ED51EE2
:10057000CC15DD0571F06991D701ED91FC910190E9
:10058000F081E02DC7010995F3CF642F822F0E94DF
:100590001F02C801DF91CF911F910F91FF90EF9043
:1005A000DF90CF900895CF93DF931F92CDB7DEB742
:1005B000698320914C022223D1F0209149022032FC
:1005C00040F021E030E0FC013383228380E090E0C2
:1005D00015C080914A02E82FF0E0EE56FE4F998157
:1005E00090838F5F80934A028093490205C061E047
:1005F000CE0101960E941F0281E090E00F90DF91F2
:10060000CF910895089580E090E00895CF93DF930F
:10061000CDB7DEB728970FB6F894DEBF0FBECDBFBB
:100620009091270280912802981749F08AEE92E073
:100630000E9487029093910180939001F1CF809165
:1006400090011A8219821C821B821E821D828F8356
:100650001886BE01695F7F4FFB0101900020E9F71A
:100660003197AF01461B570BCE0101960E94110135
:100670008091F8029091F9020097C9F069817A811E
:100680006115710591F04091FA025091FB022D81A4
:100690003E814217530748F00E94F6108D819E81DB
:1006A0009093FD028093FC0218C00E947D0F898107
:1006B0009A819093F9028093F8028B819C819093A8
:1006C000FB028093FA028D819E819093FD028093BC
:1006D000FC021A8219821C821B821E821D82898161
:1006E0009A810E947D0F4091FC025091FD02609121
:1006F000F8027091F9028DE492E00E9493008EE678
:1007000091E00E942908882321F010928D01109217
:100710008C0181E791E00E942908882331F081E073
:1007200090E090938D0180938C018DE591E00E9483
:100730002908882331F082E090E090938D01809326
:100740008C018FE591E00E942908882331F083E035
:1007500090E090938D0180938C0181E691E00E945E
:100760002908882331F084E090E090938D018093F4
:100770008C0183E691E00E942908882331F085E00E
:1007800090E090938D0180938C0185E691E00E942A
:100790002908882331F086E090E090938D018093C2
:1007A0008C0187E691E00E942908882331F087E0D8
:1007B00090E090938D0180938C0189E691E00E94F6
:1007C0002908882331F088E090E090938D01809390
:1007D0008C018BE691E00E942908882331F089E0A2
:1007E00090E090938D0180938C018DE691E00E94C2
:1007F0002908882331F08AE090E090938D0180935E
:100800008C0180E791E00E942908882331F08BE079
:1008100090E090938D0180938C0128960FB6F89408
:10082000DEBF0FBECDBFDF91CF910895FC01848D57
:10083000DF01A80FB11DA35ABF4F2C91848D90E00A
:1008400001968F739927848FA689B7892C93A089E5
:10085000B1898C9180648C93938D848D981306C09C
:100860000288F389E02D80818F7D80830895CF9366
:10087000DF93EC01888D8823C9F0EA89FB898081A8
:1008800085FD05C0A889B9898C9186FD0FC00FB67A
:1008900007FCF5CF808185FFF2CFA889B9898C91BB
:1008A00085FFEDCFCE010E941604E7CFDF91CF91F7
:1008B00008958F929F92AF92BF92CF92DF92EF9264
:1008C000FF926B017C010E94F0014B015C01C1149D
:1008D000D104E104F104F1F00E94F001DC01CB014C
:1008E00088199909AA09BB09883E9340A105B10559
:1008F00070F321E0C21AD108E108F10888EE880EF1
:1009000083E0981EA11CB11CC114D104E104F104C0
:1009100019F7DDCFFF90EF90DF90CF90BF90AF90B1
:100920009F908F9008951F920F920FB60F921124EF
:100930002F933F938F939F93AF93BF938091F80131
:100940009091F901A091FA01B091FB013091F7016A
:1009500023E0230F2D3720F40196A11DB11D05C002
:1009600026E8230F0296A11DB11D2093F701809365
:10097000F8019093F901A093FA01B093FB018091E3
:10098000FC019091FD01A091FE01B091FF01019643
:10099000A11DB11D8093FC019093FD01A093FE0168
:1009A000B093FF01BF91AF919F918F913F912F9194
:1009B0000F900FBE0F901F901895DC01ED91FC91E8
:1009C0000190F081E02D09941F920F920FB60F92C3
:1009D00011242F933F934F935F936F937F938F9344
:1009E0009F93AF93BF93EF93FF938091B900887F5C
:1009F000803609F49CC068F5883209F45BC090F435
:100A0000803109F454C038F4882309F4F6C08830E2
:100A100009F44DC0F6C0883109F44CC0803209F4A5
:100A20005DC0EFC0803409F468C048F4803309F435
:100A300055C0883309F0E5C080932402D8C08035C2
:100A400009F44FC0883509F45DC0883409F0D9C075
:100A5000D6C0883909F4C7C0A8F4883709F467C03C
:100A600038F4883609F463C0803709F460C0C9C01F
:100A7000883809F4B8C0803909F45FC0803809F0BB
:100A8000C0C05BC0803B09F486C038F4803A09F4EA
:100A900066C0883A09F47FC0B4C0803C09F4A7C09E
:100AA000883C09F4A4C0883B09F48AC0AAC080919C
:100AB000210210C09091230280912202981770F5B4
:100AC000E091230281E08E0F80932302F0E0E0505A
:100AD000FE4F80818093BB0085EC86C0809324020A
:100AE0008EC0E091230281E08E0F809323028091DB
:100AF000BB00F0E0E050FE4F808390912302809194
:100B000022026EC0E091230281E08E0F80932302C7
:100B10008091BB00F0E0E050FE4F80838091250281
:100B200081116DC081E08093200284EA61C083E07E
:100B3000809326021092F601CFCF8091F601803289
:100B400008F051C0E091F60181E08E0F8093F6012C
:100B50008091BB00F0E0EA52FE4F8083BDCF85EC70
:100B60008093BC00109226028091F601803230F40E
:100B7000E091F601F0E0EA52FE4F10826091F6013A
:100B800070E0E0918601F091870186ED91E0099592
:100B90001092F60136C084E0809326021092D501AF
:100BA0001092D401E0918801F0918901099580911A
:100BB000D401811105C081E08093D4011092B40169
:100BC000E091D50181E08E0F8093D501F0E0EC54E7
:100BD000FE4F80818093BB009091D5018091D4011C
:100BE000981708F479CF85E88093BC000AC085EC9B
:100BF0008093BC001092260204C0109224020E942E
:100C00001502FF91EF91BF91AF919F918F917F91CD
:100C10006F915F914F913F912F910F900FBE0F9069
:100C20001F9018951092260281E080932502109261
:100C3000200282E10E94090783E10E940907E9EB93
:100C4000F0E080818E7F808380818D7F808388E447
:100C50008093B80085E48093BC00089520914902F8
:100C600090914B02213208F04AC0809126028111F6
:100C7000FCCF32E03093260231E0309325023FEF83
:100C8000309324021092230220932202A2E9B1E0C1
:100C900040E052E0FA013E2F341B321718F43D9128
:100CA0003193F9CF1092210220912102990F922BBA
:100CB0009093210290912002913061F410922002D1
:100CC000909121029093BB009091BC0093FDF8CFCE
:100CD00095EC01C095EE9093BC0090912602923065
:100CE000E1F3909124029F3F79F0809124028032B9
:100CF00041F080912402803331F084E005C081E02E
:100D000003C082E001C083E010924A0210924902BF
:100D100010924C020895FB019C01220F331FD90150
:100D2000AF5DBE4F4D915C91BA016E0F7F1F68356C
:100D3000A2E07A0764F44E1B5F0B473951053CF083
:100D4000F901EF5FFE4F718360830C94C80642E1A6
:100D500050E063E771E08DE492E00C9493000F9310
:100D60001F93CF938C01C0E068E770E080E090E0D3
:100D70000E945904F801619171918F018C2F0E949A
:100D8000C806CF5FC83081F7CF911F910F910895AA
:100D90000F931F93CF93DF938B01CEEFD2E0988117
:100DA00021E020934C0290934B0210924A02109241
:100DB0004902A981BA81ED91FC91119724E0829FAB
:100DC000C0011124BC016A5F7F4F0190F081E02DCA
:100DD000CD01099560E070E089819A810E94DD046F
:100DE00060E070E089819A810E94DD04B801898108
:100DF0009A810E94DD04612F70E089819A810E94AE
:100E0000DD0489819A81DF91CF911F910F910C941C
:100E10002E0690E0FC01E854FF4F2491FC01EC55B4
:100E2000FF4F3491FC01E057FF4FE491EE23B1F105
:100E3000222339F1233091F038F42130A9F0223007
:100E400001F584B58F7D12C0273091F02830A1F0D4
:100E50002430B9F4809180008F7D03C080918000A0
:100E60008F77809380000DC084B58F7784BD09C0D3
:100E70008091B0008F7703C08091B0008F7D809308
:100E8000B000F0E0EE0FFF1FEA57FF4FA591B491BD
:100E90008FB7F894EC913E2B3C938FBF08951F932E
:100EA000CF93DF93162FCEEFD2E0988121E02093ED
:100EB0004C0290934B0210924A0210924902A9816F
:100EC000BA81ED91FC9111970190F081E02D682F8E
:100ED000CD01099589819A81DC01ED91FC91019008
:100EE000F081E02D612F099589819A81DF91CF9161
:100EF0001F910C942E06CF93DF9326E636E646E646
:100F00005FE30E94870C9B01AC0160E27CEB8EEBFF
:100F100095E40E94E90D20E030E040E85FE30E94A4
:100F20007C0D20E030E040E05FE30E947D0D0E94F8
:100F30008A0E0E945B0ED62F8091FE0291E0909364
:100F40004C0280934B0210924A0210924902809107
:100F5000FF0290910003DC01ED91FC910190F08182
:100F6000E02D60E009958091FF02909100030E94BE
:100F70002E068091FE02909126029111FCCF91E005
:100F800090932602909325022FEF20932402109233
:100F90002302109222029093210290912102880F45
:100FA000892B8093210280912002813061F410927C
:100FB0002002809121028093BB008091BC0083FDC0
:100FC000F8CF85EC01C085EE8093BC0080912602AD
:100FD0008130E1F380912302811103C080912302CB
:100FE00001C081E0A0E0B2E029E232E0F9019E2FE9
:100FF000921B981718F49D919193F9CF10922802A3
:10100000809327028091FF0290910003DC01ED9113
:10101000FC910284F385E02D0995C82F8F76682F07
:10102000606180E00E944F076D2F8EEF0E944F0796
:101030006C2F80E00E944F0765E070E080E090E058
:101040000E9459046C2F606A80E0DF91CF910C946C
:101050004F07FC018091FC029091FD02892B21F445
:1010600021E0309749F413C08091F8029091F90281
:10107000309731F421E0FC018081882341F006C0E3
:10108000BF010E94ED1021E0892B09F020E0822FA2
:101090000895789484B5826084BD84B5816084BDF0
:1010A00085B5826085BD85B5816085BD80916E0006
:1010B000816080936E001092810080918100826037
:1010C0008093810080918100816080938100809174
:1010D00080008160809380008091B1008460809363
:1010E000B1008091B00081608093B00080917A005F
:1010F000846080937A0080917A00826080937A0085
:1011000080917A00816080937A0080917A00806873
:1011100080937A001092C100109228021092270248
:1011200010924A02109249020E94120660E880E082
:101130000E944F076AE070E080E090E00E9459044E
:1011400060E070E08AE794E40E947B0760E070E072
:1011500080E792E40E947B0783E080930001EAEA43
:10116000F0E02491E6E9F0E08491882399F090E0A2
:10117000880F991FFC01E458FF4FA591B491FC0121
:10118000EA57FF4F859194918FB7F894EC91E22B39
:10119000EC938FBFE9EAF0E02491E5E9F0E0849177
:1011A0008823C1F090E0880F991FFC01E458FF4F9D
:1011B000C591D491FC01EA57FF4FA591B4919FB717
:1011C000F8948881E22FE0958E2388838C91E82320
:1011D000EC939FBFE0915D02F0915E0282E080831C
:1011E000E0915902F0915A021082E0915B02F09175
:1011F0005C028FEC808310926502E0916102F091B5
:10120000620286E08083E0915F02F091600280815B
:1012100080618083E0915F02F0916002808188604C
:101220008083E0915F02F09160028081806880831A
:10123000E0915F02F091600280818F7D808388E081
:101240008093BA0087E492E09093890180938801AB
:1012500083E592E0909387018093860110922802A3
:101260001092270210924A02109249020E9412061E
:1012700086E093E090938B0180938A016AE070E0AE
:1012800080E090E00E945904E0918C01F0918D0182
:10129000EA30F10508F0C4C2EC5CFF4F0C94E20E9A
:1012A00010928F0110928E0181E291E00E94AF06B0
:1012B000B7C268E572E084E00E94C80668E572E0A3
:1012C00086E00E94C80668E770E080E090E00E9437
:1012D00059046091F6027091F7026A567F4F80E0E0
:1012E0000E94C80668E572E081E00E94C80666E9CF
:1012F00070E082E00E94C806C8E5D2E08091F60264
:101300009091F702BE01681B790B83E00E94C8062A
:1013100068E770E080E090E00E94590466E970E0C0
:1013200084E00E94C80666E970E086E00E94C80674
:1013300066E970E085E00E94C80666E970E087E033
:101340000E94C80668E770E080E090E00E945904BF
:1013500066E970E080E00E94C8068091F6029091F4
:10136000F702BE01681B790B85C168E572E084E075
:101370000E94C80668E572E086E00E94C80668E739
:1013800070E080E090E00E94590466E970E080E03F
:101390000E94C806C8E5D2E08091F6029091F7025B
:1013A000BE01681B790B81E00E94C8066091F602BD
:1013B0007091F7026A567F4F82E00E94C80668E586
:1013C00072E083E00E94C80668E770E080E090E089
:1013D0000E94590466E970E084E00E94C80666E94C
:1013E00070E086E00E94C80666E970E085E00E9431
:1013F000C80666E970E087E00E94C80668E770E00A
:1014000080E090E00E9459046091F6027091F7022A
:101410006A567F4F80E00E94C80668E572E081E06E
:101420000E94C80666E970E093C168E572E084E056
:101430000E94C80668E572E086E00E94C80668E778
:1014400070E080E090E00E94590468E572E080E07E
:101450000E94C80666E970E081E00E94C8066091BB
:10146000F6027091F7026A567F4F82E00E94C8062A
:10147000C8E5D2E08091F6029091F702BE01681BA8
:10148000790B83E00E94C80668E770E080E090E096
:101490000E94590466E970E084E00E94C80666E98B
:1014A00070E086E00E94C80666E970E085E00E9470
:1014B000C80666E970E087E00E94C80668E770E049
:1014C00080E090E00E9459046091F6027091F7026A
:1014D0006A567F4F80E00E94C8068091F602909184
:1014E000F702BE01681B790B81E00E94C80668E51F
:1014F00072E082E00E94C80666E970E033C168E5E8
:1015000072E084E00E94C80668E572E086E00E940E
:10151000C80668E770E080E090E00E94590460919E
:10152000F6027091F7026A567F4F80E00E94C8066B
:10153000C8E5D2E08091F6029091F702BE01681BE7
:10154000790B81E00E94C80668E572E082E00E94A3
:10155000C80666E970E083E00E94C80668E770E0AC
:1015600080E090E00E94590466E970E084E00E9407
:10157000C80666E970E086E00E94C80666E970E089
:1015800085E00E94C80666E970E087E00E94C80610
:1015900068E770E080E090E00E94590468E572E03E
:1015A00080E00E94C80666E970E081E00E94C806FB
:1015B0006091F6027091F7026A567F4FC9C068E5E4
:1015C00072E084E00E94C80668E572E086E00E944E
:1015D000C80668E770E080E090E00E94590468E582
:1015E00072E080E00E94C806C8E5D2E08091F60271
:1015F0009091F702BE01681B790B81E00E94C8063A
:1016000068E572E082E00E94C8068091F60290913F
:10161000F702BE01681B790B83E00E94C80668E7E9
:1016200070E080E090E00E94590466E970E084E098
:101630000E94C80666E970E086E00E94C80666E976
:1016400070E085E00E94C80666E970E087E00E94CD
:10165000C80668E770E080E090E00E94590460915D
:10166000F6027091F7026A567F4F80E00E94C8062A
:1016700068E572E081E00E94C8066091F602709110
:10168000F7026A567F4F82E00E94C80668E572E062
:1016900069C068E572E084E00E94C80668E572E00F
:1016A00086E00E94C80668E770E080E090E00E9453
:1016B00059046091F6027091F7026A567F4F80E0FC
:1016C0000E94C80668E572E081E00E94C806609149
:1016D000F6027091F7026A567F4F82E00E94C806B8
:1016E00068E572E083E00E94C80668E770E080E089
:1016F00090E00E94590466E970E084E00E94C80608
:1017000066E970E086E00E94C80666E970E085E060
:101710000E94C80666E970E087E00E94C80668E794
:1017200070E080E090E00E94590468E572E080E09B
:101730000E94C806C8E5D2E08091F6029091F702B7
:10174000BE01681B790B81E00E94C80668E572E063
:1017500082E00E94C8068091F6029091F702BE01D5
:10176000681B790B83E00E94C80668E770E080E0A0
:1017700090E00E94590468E572E085E00E94C80686
:1017800068E572E087E00E94C8064AC081E191E006
:101790000E94AF0641C060E070E081E090E00E94EE
:1017A0008B0660E070E088E090E00E948B0660E0CD
:1017B00070E085E090E00E948B0660E070E028C059
:1017C0006091F6027091F70271956195710981E05F
:1017D00090E00E948B066091F6027091F70271957D
:1017E0006195710988E090E00E948B066091F60295
:1017F0007091F70271956195710985E090E00E9402
:101800008B066091F6027091F702719561957109EE
:1018100087E090E00E948B0610928F0110928E015B
:101820000E94E60131CD8091F8029091F9020C946A
:101830007D0FEDE4F2E01382128288EE93E0A0E0E7
:10184000B0E084839583A683B7832BE331E03183B3
:10185000208325EC30E03587248724EC30E037877F
:10186000268720EC30E0318B208B21EC30E0338B6D
:10187000228B22EC30E0358B248B26EC30E0378B4A
:10188000268B118E128E138E148EEAEEF2E01382E6
:10189000128284839583A683B7838DE491E091833C
:1018A0008083AEEFB2E080E48C931296FC93EE93CB
:1018B0001197E8EFF2E011821082138212821582F2
:1018C000148240E050E065E871E0CF010E94110110
:1018D00080EE90E09093F7028093F602E1E2F1E06F
:1018E00026E731E03183208388E791E09383828388
:1018F0003583248397838683E1E1F1E0318320837C
:1019000093838283358324839783868308950E94FB
:101910009A0C0C940B0D0E94FD0C38F00E94040DE3
:1019200020F0952311F00C94F40C0C94FA0C112473
:101930000C943F0D0E941C0D70F3959FC1F3950F01
:1019400050E0551F629FF001729FBB27F00DB11D43
:10195000639FAA27F00DB11DAA1F649F6627B00DD3
:10196000A11D661F829F2227B00DA11D621F739FBC
:10197000B00DA11D621F839FA00D611D221F749FCA
:101980003327A00D611D231F849F600D211D822F11
:10199000762F6A2F11249F5750409AF0F1F0882338
:1019A0004AF0EE0FFF1FBB1F661F771F881F915065
:1019B0005040A9F79E3F510580F00C94F40C0C9414
:1019C0003F0D5F3FE4F3983ED4F386957795679596
:1019D000B795F795E7959F5FC1F7FE2B880F911D8F
:1019E0009695879597F9089597F99F6780E870E035
:1019F00060E008959FEF80EC089500240A94161685
:101A0000170618060906089500240A9412161306EC
:101A1000140605060895092E0394000C11F488237A
:101A200052F0BB0F40F4BF2B11F460FF04C06F5F96
:101A30007F4F8F4F9F4F089557FD9058440F551F6C
:101A400059F05F3F71F04795880F97FB991F61F040
:101A50009F3F79F087950895121613061406551FB7
:101A6000F2CF4695F1DF08C0161617061806991F23
:101A7000F1CF86957105610508940895E894BB2718
:101A800066277727CB0197F908952F923F924F92BF
:101A90005F926F927F928F929F92AF92BF92CF92FE
:101AA000DF92EF92FF920F931F93CF93DF93CDB707
:101AB000DEB7CA1BDB0B0FB6F894DEBF0FBECDBF7F
:101AC00009942A88398848885F846E847D848C8450
:101AD0009B84AA84B984C884DF80EE80FD800C8159
:101AE0001B81AA81B981CE0FD11D0FB6F894DEBF3C
:101AF0000FBECDBFED0108955058BB27AA270E9405
:101B0000940D0C940B0D0E94FD0C38F00E94040DF6
:101B100020F039F49F3F19F426F40C94FA0C0EF4DB
:101B2000E095E7FB0C94F40CE92F0E941C0D58F390
:101B3000BA17620773078407950720F079F4A6F5B2
:101B40000C943E0D0EF4E0950B2EBA2FA02D0B0138
:101B5000B90190010C01CA01A0011124FF27591BF2
:101B600099F0593F50F4503E68F11A16F040A22FF8
:101B7000232F342F4427585FF3CF46953795279569
:101B8000A795F0405395C9F77EF41F16BA0B620B68
:101B9000730B840BBAF09150A1F0FF0FBB1F661FAF
:101BA000771F881FC2F70EC0BA0F621F731F841FF2
:101BB00048F4879577956795B795F7959E3F08F018
:101BC000B0CF9395880F08F09927EE0F97958795DA
:101BD00008950E94FD0D0C940B0D0E94040D58F009
:101BE0000E94FD0C40F029F45F3F29F00C94F40CA6
:101BF00051110C943F0D0C94FA0C0E941C0D68F3CB
:101C00009923B1F3552391F3951B550BBB27AA27B5
:101C100062177307840738F09F5F5F4F220F331FEF
:101C2000441FAA1FA9F335D00E2E3AF0E0E832D0B7
:101C300091505040E695001CCAF72BD0FE2F29D0BA
:101C4000660F771F881FBB1F261737074807AB078C
:101C5000B0E809F0BB0B802DBF01FF2793585F4F01
:101C60003AF09E3F510578F00C94F40C0C943F0D23
:101C70005F3FE4F3983ED4F3869577956795B795E3
:101C8000F7959F5FC9F7880F911D9695879597F9EE
:101C90000895E1E0660F771F881FBB1F6217730767
:101CA0008407BA0720F0621B730B840BBA0BEE1F7C
:101CB00088F7E09508950E94240D88F09F5798F0CA
:101CC000B92F9927B751B0F0E1F0660F771F881F41
:101CD000991F1AF0BA95C9F714C0B13091F00E945B
:101CE0003E0DB1E008950C943E0D672F782F8827A4
:101CF000B85F39F0B93FCCF3869577956795B39582
:101D0000D9F73EF490958095709561957F4F8F4FF0
:101D10009F4F08950E94CA0E90F09F3748F491118A
:101D200016F00C943F0D60E070E080E89FEB0895A2
:101D300026F41B16611D711D811D0C94A10E0C94BF
:101D4000BC0E882371F4772321F09850872B762FCF
:101D500007C0662311F499270DC09051862B70E0BF
:101D600060E02AF09A95660F771F881FDAF7880FD0
:101D70009695879597F908959F3F31F0915020F4FB
:101D8000879577956795B795880F911D9695879557
:101D900097F908950E94240DA0F0BEE7B91788F4C2
:101DA000BB279F3860F41616B11D672F782F882740
:101DB000985FF7CF869577956795B11D939596397E
:101DC000C8F30895EE0FFF1F0590F491E02D0994DC
:101DD000CF93DF938230910510F482E090E0E091A0
:101DE0000303F091040320E030E0C0E0D0E030973E
:101DF00011F14081518148175907C0F04817590720
:101E000061F482819381209719F09B838A832BC090
:101E1000909304038093030326C02115310519F024
:101E20004217530718F49A01BE01DF01EF01028047
:101E3000F381E02DDCCF2115310509F1281B390B89
:101E40002430310590F412968D919C911397611571
:101E5000710521F0FB019383828304C090930403F6
:101E600080930303FD01329644C0FD01E20FF31F8E
:101E700081939193225031092D933C933AC0209144
:101E8000010330910203232B41F42091330130915F
:101E900034013093020320930103209131013091EA
:101EA00032012115310541F42DB73EB7409135017E
:101EB00050913601241B350BE0910103F091020390
:101EC000E217F307A0F42E1B3F0B2817390778F011
:101ED000AC014E5F5F4F2417350748F04E0F5F1F70
:101EE00050930203409301038193919302C0E0E079
:101EF000F0E0CF01DF91CF9108950F931F93CF931F
:101F0000DF93009709F48CC0FC0132971382128290
:101F100000910303109104030115110581F4208140
:101F20003181820F931F2091010330910203281702
:101F3000390779F5F0930203E093010371C0D801EA
:101F400040E050E0AE17BF0750F412962D913C913F
:101F50001397AD012115310509F1D901F3CF9D0189
:101F6000DA013383228360817181860F971F821784
:101F7000930769F4EC0128813981260F371F2E5F02
:101F80003F4F318320838A819B8193838283452BBA
:101F900029F4F0930403E093030342C01396FC93E7
:101FA000EE931297ED01499159919E01240F351F2F
:101FB000E217F30771F480819181840F951F0296D7
:101FC00011969C938E938281938113969C938E930A
:101FD0001297E0E0F0E0D80112968D919C91139752
:101FE000009719F0F8018C01F6CF8D919C91980122
:101FF0002E5F3F4F820F931F209101033091020308
:102000002817390769F4309729F4109204031092C5
:10201000030302C013821282109302030093010390
:10202000DF91CF911F910F910895A0E0B0E0EBE117
:10203000F0E10C94490DEC01009721F4CB010E94D2
:10204000E80EB8C0FC01E60FF71F9C0122503109D1
:10205000E217F30708F4ACC0D9010D911C91119758
:1020600006171707B0F00530110508F49FC0C80126
:1020700004978617970708F499C002501109061BA8
:10208000170B019311936D937C93CF010E947D0FE9
:102090008DC05B01A01AB10A4C01800E911EA09167
:1020A0000303B091040340E050E0E12CF12C1097C1
:1020B00009F44AC0A815B905D1F56D907C90119727
:1020C000630182E0C80ED11CCA14DB0480F1A301B5
:1020D0004A195B096A0182E0C80ED11C1296BC90B5
:1020E00012971396AC91B5E0CB16D10440F0B282B2
:1020F000A38351834083D9016D937C930AC00E5F03
:102100001F4FC301800F911FF90191838083EB2D35
:10211000FA2FE114F10431F0D7011396FC93EE93FA
:10212000129744C0F0930403E09303033FC08D91E2
:102130009C9111974817590708F4AC017D0112963C
:102140000D90BC91A02DB3CF80910103909102031B
:1021500088159905E1F446175707C8F480913101B5
:1021600090913201009741F48DB79EB740913501AF
:1021700050913601841B950BE817F907C8F4F093CA
:102180000203E0930103F901718360830FC0CB0167
:102190000E94E80E7C01009759F0A801BE010E9440
:1021A000E410CE010E947D0FC70104C0CE0102C021
:1021B00080E090E0CDB7DEB7EEE00C94650D81E0F5
:1021C00090E0F8940C94FD10FB01DC0102C001903A
:1021D0000D9241505040D8F70895FB01DC018D91DC
:1021E000019080190110D9F3990B0895FB01DC01CE
:1021F00001900D920020E1F7089510E0C7E6D0E0CD
:1022000004C0FE010E94E20E2196C836D107C9F72C
:04221000F894FFCF70
:1022140001960058029600580296005802960058FB
:1022240002000000000000000058029600580296C8
:1022340000000000000000000096005802960058BC
:102244000200000503800000000000CA009300A9FA
:10225400013704DA01B801CC0100000000D302A365
:1022640002030377029B0287027802700032003374
:1022740000340035003600370038003900313000B2
:10228400313100626967676572206F7220736D6116
:062294006C6C6572210074
:00000001FF
