:100000000C946D000C9495000C9495000C94950044
:100010000C9495000C9495000C9495000C9495000C
:100020000C9495000C9495000C9495000C949500FC
:100030000C9495000C9495000C9495000C949500EC
:100040000C94E4040C9495000C942B020C9405027F
:100050000C9495000C9495000C9495000C949500CC
:100060000C9435050C949500540A850A940AAB0A41
:10007000B60AC10AD40A240BDF0AF40A00000008F9
:10008000000201000003040700000000000000005F
:1000900000000000250028002B00000000002400C4
:1000A00027002A0000000000230026002900040485
:1000B0000404040404040202020202020303030310
:1000C00003030102040810204080010204081020EC
:1000D000010204081020FD0BF70B11241FBECFEF07
:1000E000D8E0DEBFCDBF23E0A0E9B1E001C01D92A2
:1000F000A732B207E1F711E0A0E0B1E0EEE0F3E2F1
:1001000002C005900D92A039B107D9F710E0CCE6F6
:10011000D0E004C02197FE010E945F0FCB36D107CB
:10012000C9F70E9490080C947A110C94000008956D
:10013000CF92DF92EF92FF920F931F93CF93DF93B3
:100140006C017A018B01C0E0D0E0CE15DF0589F0AB
:10015000D8016D918D01D601ED91FC910190F08156
:10016000E02DC6010995892B11F47E0102C021966C
:10017000ECCFC701DF91CF911F910F91FF90EF90CE
:10018000DF90CF900895FC01538D448D252F30E0F2
:10019000842F90E0821B930B541710F0CF96089594
:1001A00001970895FC01918D828D981761F0828DE1
:1001B000DF01A80FB11D5D968C91928D9F5F9F739B
:1001C000928F90E008958FEF9FEF0895FC01918D3D
:1001D000828D981731F0828DE80FF11D858D90E0AA
:1001E00008958FEF9FEF0895FC01918D228D892F47
:1001F00090E0805C9F4F821B91098F73992708952F
:100200008DE592E00E94F40021E0892B09F420E0C2
:10021000822F0895FC01848DDF01A80FB11DA35A20
:10022000BF4F2C91848D90E001968F739927848F16
:10023000A689B7892C93A089B1898C9180648C930D
:10024000938D848D981306C00288F389E02D8081F8
:100250008F7D80830895EF92FF920F931F93CF932A
:10026000DF93EC0181E0888F9B8D8C8D981305C006
:10027000E889F989808185FD24C0F62E0B8D10E078
:100280000F5F1F4F0F731127E02E8C8DE8120CC0EB
:100290000FB607FCFACFE889F989808185FFF5CF91
:1002A000CE010E940A01F1CF8B8DFE01E80FF11DF6
:1002B000E35AFF4FF0820B8FEA89FB8980818062CD
:1002C00007C0EE89FF896083E889F98980818064AD
:1002D000808381E090E0DF91CF911F910F91FF909B
:1002E000EF900895CF93DF93EC01888D8823C9F0B8
:1002F000EA89FB89808185FD05C0A889B9898C912F
:1003000086FD0FC00FB607FCF5CF808185FFF2CFC9
:10031000A889B9898C9185FFEDCFCE010E940A0191
:10032000E7CFDF91CF91089580E090E0892B29F00D
:100330000E94000181110C94000008953FB7F894C9
:100340008091900190919101A0919201B0919301BF
:1003500026B5A89B05C02F3F19F00196A11DB11D20
:100360003FBFBA2FA92F982F8827820F911DA11D5B
:10037000B11DBC01CD0142E0660F771F881F991F98
:100380004A95D1F708950E945C11EF92FF920F9366
:100390001F93CF93DF93EC017B018A0188819981C0
:1003A000009729F02A813B8124173507F8F4B8011A
:1003B0006F5F7F4F0E949210009759F09983888356
:1003C0001B830A832C813D81232B81F4FC01108245
:1003D0000DC088819981009711F00E94FA0F19824F
:1003E00018821D821C821B821A8207C01D830C8307
:1003F000B701888199810E947311CE01DF91CF915D
:100400001F910F91FF90EF9008951F920F920FB6DA
:100410000F9211242F933F934F935F936F937F938A
:100420008F939F93AF93BF93EF93FF938DE592E0EC
:100430000E940A01FF91EF91BF91AF919F918F911F
:100440007F916F915F914F913F912F910F900FBED0
:100450000F901F9018951F920F920FB60F921124B4
:100460002F938F939F93EF93FF93E0916D02F09101
:100470006E028081E0917302F091740282FD12C0DD
:100480009081809176028F5F8F732091770282171F
:1004900051F0E0917602F0E0E35AFD4F958F8093A2
:1004A000760201C08081FF91EF919F918F912F91F2
:1004B0000F900FBE0F901F90189590E0FC01E4582C
:1004C000FF4F3491FC01EE53FF4F2491FC01E255A4
:1004D000FF4FE491EE2309F43BC0332339F133306D
:1004E00091F038F43130A9F0323001F584B58F7DC8
:1004F00012C0373091F03830A1F03430B9F4809127
:1005000080008F7D03C0809180008F778093800072
:100510000DC084B58F7784BD09C08091B0008F77FE
:1005200003C08091B0008F7D8093B000F0E0EE0FAB
:10053000FF1FE057FF4FA591B4918FB7F894EC914E
:10054000611103C020952E2301C02E2B2C938FBF49
:1005500008958F929F92AF92BF92CF92DF92EF92C7
:10056000FF926B017C010E949E014B015C01C11452
:10057000D104E104F104F1F00E949E01DC01CB0101
:1005800088199909AA09BB09883E9340A105B105BC
:1005900070F321E0C21AD108E108F10888EE880E54
:1005A00083E0981EA11CB11CC114D104E104F10424
:1005B00019F7DDCFFF90EF90DF90CF90BF90AF9015
:1005C0009F908F90089585ED8093BC008091BC0032
:1005D00084FDFCCF1092360208954091E801262F49
:1005E00030E0240F311D21323105DCF42091360238
:1005F0002430C9F4FC0180E090E0861758F4309173
:10060000E8012191DC01A853BE4FA30FB11D2C932B
:100610000196F3CF8091E801680F6093E80180E0D4
:10062000089581E0089582E00895E091C601F09177
:10063000C701309729F010925A021092590209947A
:100640000895AC01E0919801F09199013097E1F0A3
:1006500090913802809137029817B0F090E0292FDE
:1006600030E02617370754F4DA01A20FB31F8C913C
:10067000D901A75CBD4F8C939F5FF1CF10923802D8
:1006800060933702CB01099408950895E0913802F0
:1006900080913702E81730F4F0E0E75CFD4F80818D
:1006A00090E008958FEF9FEF089590913802809128
:1006B0003702981750F4E92FF0E0E75CFD4F2081F6
:1006C00030E09F5F9093380202C02FEF3FEFC901E7
:1006D00008958091370290E020913802821B9109A1
:1006E0000895CF92DF92EF92FF920F931F93CF93D3
:1006F000DF937C01262F972F8A0180915C0288234B
:1007000091F0C62FD72F6E01C40ED51ECC15DD0576
:1007100071F06991D701ED91FC910190F081E02D8C
:10072000C7010995F3CF642F822F0E94ED02C80103
:10073000DF91CF911F910F91FF90EF90DF90CF90BD
:100740000895CF93DF931F92CDB7DEB769832091D1
:100750005C022223D1F020915902203240F021E0A6
:1007600030E0FC013383228380E090E015C080916B
:100770005A02E82FF0E0EA55FE4F998190838F5F8F
:1007800080935A028093590205C061E0CE01019620
:100790000E94ED0281E090E00F90DF91CF910895EB
:1007A000089580E090E00895CF93DF93CDB7DEB752
:1007B00028970FB6F894DEBF0FBECDBF90913702D9
:1007C00080913802981749F08AEF92E00E94550311
:1007D0009093A5018093A401F1CF8091A4011A8286
:1007E00019821C821B821E821D828F831886BE0185
:1007F000695F7F4FFB0101900020E9F73197AF015E
:10080000461B570BCE0101960E94C50180911A0329
:1008100090911B030097C9F069817A816115710578
:1008200091F040911C0350911D032D813E81421790
:10083000530748F00E9473118D819E8190931F038E
:1008400080931E0318C00E94FA0F89819A819093A9
:100850001B0380931A038B819C8190931D038093CB
:100860001C038D819E8190931F0380931E031A8227
:1008700019821C821B821E821D8289819A810E949C
:10088000FA0F40911E0350911F0360911A0370915B
:100890001B038DE592E00E94980088E791E00E949A
:1008A000EA07882321F010929B0110929A018BE7AE
:1008B00091E00E94EA07882331F081E090E0909374
:1008C0009B0180939A0187E691E00E94EA078823C2
:1008D00031F082E090E090939B0180939A0189E649
:1008E00091E00E94EA07882331F083E090E0909342
:1008F0009B0180939A018BE691E00E94EA0788238E
:1009000031F084E090E090939B0180939A018DE612
:1009100091E00E94EA07882331F085E090E090930F
:100920009B0180939A018FE691E00E94EA07882359
:1009300031F086E090E090939B0180939A0181E7EB
:1009400091E00E94EA07882331F087E090E09093DD
:100950009B0180939A0183E791E00E94EA07882334
:1009600031F088E090E090939B0180939A0185E7B5
:1009700091E00E94EA07882331F089E090E09093AB
:100980009B0180939A0187E791E00E94EA07882300
:1009900031F08AE090E090939B0180939A018AE77E
:1009A00091E00E94EA07882331F08BE090E0909379
:1009B0009B0180939A0128960FB6F894DEBF0FBE74
:1009C000CDBFDF91CF9108951F920F920FB60F9276
:1009D00011242F933F938F939F93AF93BF93809155
:1009E0000C0290910D02A0910E02B0910F02309175
:1009F0000B0223E0230F2D3720F40196A11DB11D1A
:100A000005C026E8230F0296A11DB11D20930B02FD
:100A100080930C0290930D02A0930E02B0930F02EC
:100A20008091900190919101A0919201B0919301D8
:100A30000196A11DB11D8093900190939101A09307
:100A40009201B0939301BF91AF919F918F913F918C
:100A50002F910F900FBE0F901F901895DC01ED9114
:100A6000FC910190F081E02D09941F920F920FB636
:100A70000F9211242F933F934F935F936F937F9324
:100A80008F939F93AF93BF93EF93FF938091B900A0
:100A9000887F803609F49CC068F5883209F45BC011
:100AA00090F4803109F454C038F4882309F4F6C076
:100AB000883009F44DC0F6C0883109F44CC080324A
:100AC00009F45DC0EFC0803409F468C048F4803395
:100AD00009F455C0883309F0E5C080933402D8C0CA
:100AE000803509F44FC0883509F45DC0883409F0B9
:100AF000D9C0D6C0883909F4C7C0A8F4883709F42A
:100B000067C038F4883609F463C0803709F460C0E0
:100B1000C9C0883809F4B8C0803909F45FC080388A
:100B200009F0C0C05BC0803B09F486C038F4803A4D
:100B300009F466C0883A09F47FC0B4C0803C09F467
:100B4000A7C0883C09F4A4C0883B09F48AC0AAC0A5
:100B50008091310210C09091330280913202981737
:100B600070F5E091330281E08E0F80933302F0E064
:100B7000E05FFD4F80818093BB0085EC86C0809351
:100B800034028EC0E091330281E08E0F80933302F5
:100B90008091BB00F0E0E05FFD4F808390913302D5
:100BA000809132026EC0E091330281E08E0F80931B
:100BB00033028091BB00F0E0E05FFD4F80838091C5
:100BC000350281116DC081E08093300284EA61C0FA
:100BD00083E08093360210920A02CFCF80910A02FE
:100BE000803208F051C0E0910A0281E08E0F8093BC
:100BF0000A028091BB00F0E0E651FE4F8083BDCF3A
:100C000085EC8093BC001092360280910A028032FB
:100C100030F4E0910A02F0E0E651FE4F108260915C
:100C20000A0270E0E0919401F09195018AEE91E062
:100C3000099510920A0236C084E080933602109221
:100C4000E9011092E801E0919601F0919701099570
:100C50008091E801811105C081E08093E801109244
:100C6000C801E091E90181E08E0F8093E901F0E095
:100C7000E853FE4F80818093BB009091E901809101
:100C8000E801981708F479CF85E88093BC000AC082
:100C900085EC8093BC001092360204C0109234029E
:100CA0000E94E302FF91EF91BF91AF919F918F91CD
:100CB0007F916F915F914F913F912F910F900FBE58
:100CC0000F901F9018951092360281E080933502A4
:100CD0001092300261E082E10E945D0261E083E1F6
:100CE0000E945D02E9EBF0E080818E7F808380814D
:100CF0008D7F808388E48093B80085E48093BC0076
:100D000008952091590290915B02213208F04AC067
:100D1000809136028111FCCF32E03093360231E00F
:100D2000309335023FEF3093340210923302209318
:100D30003202A6EAB1E040E152E0FA013E2F341B54
:100D4000321718F43D913193F9CF1092310220916E
:100D50003102990F922B9093310290913002913091
:100D600061F410923002909131029093BB00909107
:100D7000BC0093FDF8CF95EC01C095EE9093BC00BC
:100D8000909136029230E1F3909134029F3F79F0D6
:100D900080913402803241F080913402803331F00E
:100DA00084E005C081E003C082E001C083E01092CE
:100DB0005A021092590210925C020895FB019C01A4
:100DC000220F331FD901A55EBE4F4D915C91BA0130
:100DD0006E0F7F1F6835A2E07A0764F44E1B5F0B2D
:100DE000473951053CF0F901E75FFE4F718360839D
:100DF0000C940A088DE791E00C94FE06009769F0C8
:100E0000FC0101900020E9F73197AF01481B590B15
:100E1000BC018DE592E00C94980080E090E008958C
:100E20001F93CF93DF93162FC0E2D3E0988121E088
:100E300020935C0290935B0210925A021092590226
:100E4000A981BA81ED91FC9111970190F081E02D7B
:100E5000682FCD01099589819A81DC01ED91FC9182
:100E60000190F081E02D612F099589819A81DF91B0
:100E7000CF911F910C948106CF93DF9326E636E63F
:100E800046E65FE30E94DB0C9B01AC0160E27CEB79
:100E90008EEB95E40E943D0E20E030E040E85FE3F9
:100EA0000E94D00D20E030E040E05FE30E94D10DD1
:100EB0000E94E50E0E94B60ED62F8091200391E08D
:100EC00090935C0280935B0210925A021092590236
:100ED0008091210390912203DC01ED91FC9101901E
:100EE000F081E02D60E0099580912103909122032B
:100EF0000E94810680912003909136029111FCCFCF
:100F000091E090933602909335022FEF20933402B4
:100F1000109233021092320290933102909131027A
:100F2000880F892B8093310280913002813061F4E7
:100F300010923002809131028093BB008091BC00FE
:100F400083FDF8CF85EC01C085EE8093BC008091D5
:100F500036028130E1F380913302811103C0809128
:100F6000330201C081E0A0E1B2E029E332E0F901FF
:100F70009E2F921B981718F49D919193F9CF109280
:100F80003802809337028091210390912203DC0183
:100F9000ED91FC910284F385E02D0995C82F8F76A1
:100FA000682F606180E00E9410076D2F8EEF0E9415
:100FB00010076C2F80E00E94100765E070E080E071
:100FC00090E00E94A9026C2F606A80E0DF91CF91CF
:100FD0000C941007FC0180911E0390911F03892B34
:100FE00021F421E0309749F413C080911A039091C5
:100FF0001B03309731F421E0FC018081882341F00C
:1010000006C0BF010E946A1121E0892B09F020E08F
:10101000822F08950F931F93CF93DF938B01C0E22C
:10102000D3E0988121E020935C0290935B021092C0
:101030005A0210925902A981BA81ED91FC9111973F
:1010400024E0829FC0011124BC016A5F7F4F0190A0
:10105000F081E02DCD01099560E070E089819A81F1
:101060000E942E0560E070E089819A810E942E0521
:10107000B80189819A810E942E05612F70E08981D3
:101080009A810E942E0589819A81DF91CF911F91CB
:101090000F910C948106CF92DF92EF92FF920F9303
:1010A0001F93E82FF92F05C00150110921093109BB
:1010B00061F1908196239417B9F305C0015011098D
:1010C0002109310911F1908196239413F7CFC12C96
:1010D000D12CE12CF12C0AC08FEFC81AD80AE80AEB
:1010E000F80A0C151D052E053F0579F08081862331
:1010F000841791F36C2D7D2D8E2D9F2D1F910F91B7
:10110000FF90EF90DF90CF90089560E070E080E076
:1011100090E01F910F91FF90EF90DF90CF90089596
:10112000CF93DF93CDB7DEB7A2970FB6F894DEBFAB
:101130000FBECDBF789484B5826084BD84B58160D4
:1011400084BD85B5826085BD85B5816085BD809192
:101150006E00816080936E0010928100809181000A
:101160008260809381008091810081608093810002
:10117000809180008160809380008091B1008460C4
:101180008093B1008091B00081608093B000809125
:101190007A00846080937A0080917A0082608093E4
:1011A0007A0080917A00816080937A0080917A0041
:1011B000806880937A001092C100109238021092D9
:1011C000370210925A02109259020E94630660E898
:1011D00080E00E9410076AE070E080E090E00E94EA
:1011E000A90260E070E08AE794E40E943C0760E0B6
:1011F00070E080E792E40E943C0783E08093000166
:10120000EAECF0E02491E6EBF0E08491882399F099
:1012100090E0880F991FFC01E656FF4FA591B4910D
:10122000FC01E057FF4F859194918FB7F894EC91B2
:10123000E22BEC938FBFEBECF0E02491E7EBF0E0D6
:1012400084918823C9F090E0880F991FFC01E6562D
:10125000FF4F45915491FC01E057FF4FA591B49188
:101260009FB7F894FA0180812095822380838C9126
:10127000E22FE823EC939FBFE0916D02F0916E02A4
:1012800082E08083E0916902F0916A021082E0912D
:101290006B02F0916C028FEC808310927502E091EA
:1012A0007102F091720286E08083E0916F02F0910A
:1012B0007002808180618083E0916F02F091700202
:1012C000808188608083E0916F02F091700280815C
:1012D00080688083E0916F02F091700280818F7D41
:1012E000808388E08093BA0085E193E09093970132
:1012F0008093960181E293E090939501809394010D
:10130000109238021092370210925A02109259022B
:101310000E94630684ED93E0909399018093980175
:1013200064E670E080E090E00E94A90223E0A22E33
:10133000B12C3AE0232E312C412C512C40E7D42EF5
:10134000EE24EA94FE2C60E088E00E945D02C50174
:101350000197F1F761E088E00E945D0283E290E08E
:101360000197F1F760E088E00E945D02EBECF0E0AD
:101370006491E7EBF0E08491E82FF0E0EE0FFF1FBF
:10138000EC55FF4F8591949100E412E42FE030E09A
:10139000462F0E944B08611571058105910549F0A2
:1013A000DC01CB010196A11DB11DBC01CD019F70D7
:1013B00003C060E070E0CB0160939E0170939F01D9
:1013C0008093A0019093A1010E94A00C26E933E430
:1013D0004BE05DE30E94DB0C20E030E040E05FE3A7
:1013E0000E94DB0C0E94AF0E70939D0160939C01E4
:1013F00089E591E00E94FE0620919C0130919D01BB
:101400003901330F8808990897FE26C0E0915D02E4
:10141000F0915E020190F081E02D6DE28DE592E0A9
:10142000099522273327A90126193709480959099F
:1014300019A28E010F5D1F4FCA01B901A2019101CE
:101440000E943D0F605DF80162938F012115310507
:101450004105510589F715C0A401930119A28E0118
:101460000F5D1F4FCA01B901A20191010E943D0FFA
:10147000605DF80162938F01211531054105510529
:1014800089F7C8010E94FE0684E691E00E94FE06EC
:10149000E0919A01F0919B01EA30F10508F0D4C087
:1014A000EC5CFF4F0C945F0F1092A3011092A2010D
:1014B0000BE111E0612C712CC12C40E068EC70E074
:1014C00080E090E04AA30E94A902F8016191719125
:1014D0008F018C2D0E940A0860E070E08C2D4AA1DB
:1014E000942F0E94DE06FFEF6F1A7F0A88E06816CD
:1014F000710409F479C1F3E06F16710419F0C62C78
:10150000472DDCCF88E0C82ED8CF81E090E09093C3
:101510000201809301019093040180930301F092F2
:101520000601E09205010EC081E090E09093020177
:1015300080930101F0920401E0920301909306016F
:1015400080930501F0920801E09207019093A301B6
:101550008093A20179C081E090E090930201809392
:101560000101F0920401E092030115C0F092020122
:10157000E0920101F0920401E092030181E090E029
:10158000DDCFF0920201E092010181E090E09093C2
:10159000040180930301F0920601E092050190930B
:1015A000080180930701D2CFF0920201E09201017D
:1015B00081E090E09093040180930301BFCF60E04D
:1015C00070E081E090E00E94DE0660E070E088E07C
:1015D00090E00E94DE0660E070E085E090E00E940E
:1015E000DE0660E070E028C0609118037091190376
:1015F00071956195710981E090E00E94DE0660912D
:1016000018037091190371956195710988E090E054
:101610000E94DE066091180370911903719561951F
:10162000710985E090E00E94DE06609118037091D8
:10163000190371956195710987E090E00E94DE06BB
:101640001092A3011092A2018091A2019091A30196
:10165000181619060CF0C8C06CE97FEF81E090E025
:101660000E94DE066CE97FEF85E090E00E94DE06D6
:1016700068EC70E080E090E00E94A9028091010196
:1016800090910201D89EB001D99E700D112480E086
:1016900090E00E94DE068091030190910401D89EA3
:1016A000B001D99E700D112482E090E00E94DE0608
:1016B0008091050190910601D89EB001D99E700DD0
:1016C000112484E090E00E94DE0680910701909151
:1016D0000801D89EB001D99E700D112486E090E0DB
:1016E0000E94DE0668EC70E080E090E00E94A902B3
:1016F00060E070E081E090E00E94DE0660E070E073
:1017000085E090E00E94DE0668EC70E080E090E00A
:101710000E94A9026CE97FEF88E090E00E94DE065B
:101720006CE97FEF87E090E00E94DE0668EC70E0F5
:1017300080E090E00E94A902809101019091020155
:10174000D89EB001D99E700D1124719561957109D3
:1017500080E090E00E94DE068091030190910401F8
:10176000D89EB001D99E700D1124719561957109B3
:1017700082E090E00E94DE068091050190910601D2
:10178000D89EB001D99E700D112471956195710993
:1017900084E090E00E94DE068091070190910801AC
:1017A000D89EB001D99E700D112471956195710973
:1017B00086E090E00E94DE0668EC70E080E090E059
:1017C0000E94A90260E070E088E090E00E94DE06DE
:1017D00060E070E087E090E00E94DE0668EC70E078
:1017E00080E090E00E94A9020E949401ACCD80911B
:1017F0001A0390911B030C94FA0FEDE5F2E01382AB
:10180000128288EE93E0A0E0B0E084839583A68303
:10181000B78327E331E03183208325EC30E035873F
:10182000248724EC30E03787268720EC30E0318BAA
:10183000208B21EC30E0338B228B22EC30E0358B97
:10184000248B26EC30E0378B268B118E128E138E74
:10185000148EEAEFF2E01382128284839583A683CA
:10186000B78389E491E091838083A0E2B3E080E4D0
:101870008C931296FC93EE931197EAE1F3E01182B8
:101880001082138212821582148240E050E066E6D4
:1018900071E0CF010E94C50180EE90E090931903A2
:1018A00080931803E6E0F3E0ABE1B1E08D919C9109
:1018B0001197805E91099183808312968D919C91FE
:1018C0001397805E91099383828314968D919C91E6
:1018D0001597805E91099583848316968D919C91CE
:1018E0001797805E91099783868318968D919C91B6
:1018F0001997805E9109918780871A968D919C91A6
:101900001B97805E9109938782871C968D919C918D
:101910001D97805E9109958784871E968D919C9175
:101920001F97805E91099787868750968D919C912D
:101930005197805E9109918B808B0895E89409C03E
:1019400097FB3EF490958095709561957F4F8F4FF2
:101950009F4F9923A9F0F92F96E9BB279395F69508
:10196000879577956795B795F111F8CFFAF4BB0F86
:1019700011F460FF1BC06F5F7F4F8F4F9F4F16C0EA
:10198000882311F096E911C0772321F09EE8872F74
:10199000762F05C0662371F096E8862F70E060E030
:1019A0002AF09A95660F771F881FDAF7880F9695A9
:1019B000879597F908950E94EE0C0C945F0D0E9494
:1019C000510D38F00E94580D20F0952311F00C9421
:1019D000480D0C944E0D11240C94930D0E94700D23
:1019E00070F3959FC1F3950F50E0551F629FF00172
:1019F000729FBB27F00DB11D639FAA27F00DB11D8B
:101A0000AA1F649F6627B00DA11D661F829F222713
:101A1000B00DA11D621F739FB00DA11D621F839F9A
:101A2000A00D611D221F749F3327A00D611D231F70
:101A3000849F600D211D822F762F6A2F11249F57BE
:101A400050409AF0F1F088234AF0EE0FFF1FBB1FC1
:101A5000661F771F881F91505040A9F79E3F510580
:101A600080F00C94480D0C94930D5F3FE4F3983E86
:101A7000D4F3869577956795B795F795E7959F5F2A
:101A8000C1F7FE2B880F911D9695879597F90895BC
:101A900097F99F6780E870E060E008959FEF80EC21
:101AA000089500240A9416161706180609060895C4
:101AB00000240A9412161306140605060895092E2A
:101AC0000394000C11F4882352F0BB0F40F4BF2B99
:101AD00011F460FF04C06F5F7F4F8F4F9F4F0895D9
:101AE00057FD9058440F551F59F05F3F71F04795CF
:101AF000880F97FB991F61F09F3F79F087950895B4
:101B0000121613061406551FF2CF4695F1DF08C0D2
:101B1000161617061806991FF1CF869571056105EF
:101B200008940895E894BB2766277727CB0197F997
:101B300008952F923F924F925F926F927F928F9271
:101B40009F92AF92BF92CF92DF92EF92FF920F934C
:101B50001F93CF93DF93CDB7DEB7CA1BDB0B0FB656
:101B6000F894DEBF0FBECDBF09942A883988488813
:101B70005F846E847D848C849B84AA84B984C884A9
:101B8000DF80EE80FD800C811B81AA81B981CE0FA0
:101B9000D11D0FB6F894DEBF0FBECDBFED01089585
:101BA0005058BB27AA270E94E80D0C945F0D0E9495
:101BB000510D38F00E94580D20F039F49F3F19F470
:101BC00026F40C944E0D0EF4E095E7FB0C94480DB2
:101BD000E92F0E94700D58F3BA1762077307840744
:101BE000950720F079F4A6F50C94920D0EF4E0958B
:101BF0000B2EBA2FA02D0B01B90190010C01CA01C7
:101C0000A0011124FF27591B99F0593F50F4503E71
:101C100068F11A16F040A22F232F342F4427585F63
:101C2000F3CF469537952795A795F0405395C9F77B
:101C30007EF41F16BA0B620B730B840BBAF0915033
:101C4000A1F0FF0FBB1F661F771F881FC2F70EC0D2
:101C5000BA0F621F731F841F48F4879577956795A5
:101C6000B795F7959E3F08F0B0CF9395880F08F091
:101C70009927EE0F9795879508950E94510E0C9421
:101C80005F0D0E94580D58F00E94510D40F029F44C
:101C90005F3F29F00C94480D51110C94930D0C9456
:101CA0004E0D0E94700D68F39923B1F3552391F303
:101CB000951B550BBB27AA2762177307840738F0BB
:101CC0009F5F5F4F220F331F441FAA1FA9F335D018
:101CD0000E2E3AF0E0E832D091505040E695001CCC
:101CE000CAF72BD0FE2F29D0660F771F881FBB1F86
:101CF000261737074807AB07B0E809F0BB0B802D64
:101D0000BF01FF2793585F4F3AF09E3F510578F08F
:101D10000C94480D0C94930D5F3FE4F3983ED4F37C
:101D2000869577956795B795F7959F5FC9F7880F63
:101D3000911D9695879597F90895E1E0660F771FB5
:101D4000881FBB1F621773078407BA0720F0621B46
:101D5000730B840BBA0BEE1F88F7E09508950E9471
:101D6000B60E6894B1110C94930D08950E94780DED
:101D700088F09F5798F0B92F9927B751B0F0E1F04C
:101D8000660F771F881F991F1AF0BA95C9F714C0FC
:101D9000B13091F00E94920DB1E008950C94920D33
:101DA000672F782F8827B85F39F0B93FCCF3869535
:101DB00077956795B395D9F73EF490958095709592
:101DC00061957F4F8F4F9F4F08950E94250F90F090
:101DD0009F3748F4911116F00C94930D60E070E079
:101DE00080E89FEB089526F41B16611D711D811D6F
:101DF0000C94FC0E0C94170F882371F4772321F0B8
:101E00009850872B762F07C0662311F499270DC0B1
:101E10009051862B70E060E02AF09A95660F771F4C
:101E2000881FDAF7880F9695879597F908959F3F51
:101E300031F0915020F4879577956795B795880F85
:101E4000911D9695879597F908950E94780DA0F0B9
:101E5000BEE7B91788F4BB279F3860F41616B11D8A
:101E6000672F782F8827985FF7CF869577956795A6
:101E7000B11D93959639C8F30895A1E21A2EAA1BB5
:101E8000BB1BFD010DC0AA1FBB1FEE1FFF1FA2172A
:101E9000B307E407F50720F0A21BB30BE40BF50B27
:101EA000661F771F881F991F1A9469F760957095B0
:101EB000809590959B01AC01BD01CF010895EE0F77
:101EC000FF1F0590F491E02D0994CF93DF938230AA
:101ED000910510F482E090E0E0912503F091260353
:101EE00020E030E0C0E0D0E0309711F14081518136
:101EF00048175907C0F04817590761F48281938148
:101F0000209719F09B838A832BC09093260380939C
:101F1000250326C02115310519F04217530718F47F
:101F20009A01BE01DF01EF010280F381E02DDCCFD9
:101F30002115310509F1281B390B2430310590F4A6
:101F400012968D919C9113976115710521F0FB01FB
:101F50009383828304C09093260380932503FD011D
:101F6000329644C0FD01E20FF31F819391932250FA
:101F700031092D933C933AC02091230330912403DF
:101F8000232B41F420912F01309130013093240311
:101F90002093230320912D0130912E01211531052D
:101FA00041F42DB73EB74091310150913201241BCD
:101FB000350BE0912303F0912403E217F307A0F41B
:101FC0002E1B3F0B2817390778F0AC014E5F5F4F8F
:101FD0002417350748F04E0F5F1F5093240340939A
:101FE00023038193919302C0E0E0F0E0CF01DF9101
:101FF000CF9108950F931F93CF93DF93009709F428
:102000008CC0FC013297138212820091250310913B
:1020100026030115110581F420813181820F931F60
:1020200020912303309124032817390779F5F09381
:102030002403E093230371C0D80140E050E0AE17C1
:10204000BF0750F412962D913C911397AD012115C5
:10205000310509F1D901F3CF9D01DA0133832283E0
:1020600060817181860F971F8217930769F4EC01D5
:1020700028813981260F371F2E5F3F4F3183208300
:102080008A819B8193838283452B29F4F0932603D5
:10209000E093250342C01396FC93EE931297ED0153
:1020A000499159919E01240F351FE217F30771F4EE
:1020B00080819181840F951F029611969C938E9337
:1020C0008281938113969C938E931297E0E0F0E0C7
:1020D000D80112968D919C911397009719F0F801F1
:1020E0008C01F6CF8D919C9198012E5F3F4F820F0E
:1020F000931F20912303309124032817390769F493
:10210000309729F4109226031092250302C01382FF
:1021100012821093240300932303DF91CF911F9128
:102120000F910895A0E0B0E0E8E9F0E10C949D0D76
:10213000EC01009721F4CB010E94650FB8C0FC01AF
:10214000E60FF71F9C0122503109E217F30708F44C
:10215000ACC0D9010D911C91119706171707B0F06B
:102160000530110508F49FC0C8010497861797072A
:1021700008F499C002501109061B170B0193119323
:102180006D937C93CF010E94FA0F8DC05B01A01A62
:10219000B10A4C01800E911EA0912503B091260337
:1021A00040E050E0E12CF12C109709F44AC0A8154A
:1021B000B905D1F56D907C901197630182E0C80E4E
:1021C000D11CCA14DB0480F1A3014A195B096A011E
:1021D00082E0C80ED11C1296BC9012971396AC9157
:1021E000B5E0CB16D10440F0B282A3835183408383
:1021F000D9016D937C930AC00E5F1F4FC301800FFE
:10220000911FF90191838083EB2DFA2FE114F104E2
:1022100031F0D7011396FC93EE93129744C0F093DC
:102220002603E09325033FC08D919C911197481799
:10223000590708F4AC017D0112960D90BC91A02DB8
:10224000B3CF809123039091240388159905E1F47D
:1022500046175707C8F480912D0190912E010097E1
:1022600041F48DB79EB74091310150913201841BEA
:10227000950BE817F907C8F4F0932403E0932303C0
:10228000F901718360830FC0CB010E94650F7C014F
:10229000009759F0A801BE010E946111CE010E9471
:1022A000FA0FC70104C0CE0102C080E090E0CDB7B4
:1022B000DEB7EEE00C94B90D81E090E0F8940C9458
:1022C0007A11FB01DC0102C001900D924150504097
:1022D000D8F70895FB01DC018D9101908019011060
:1022E000D9F3990B0895FB01DC0101900D920020B8
:1022F000E1F7089510E0CCE6D0E004C0FE010E94B2
:0E2300005F0F2196CD36D107C9F7F894FFCFB5
:10230E000101000100FFFFFFFF3B01EF014F01172D
:10231E00027C01AE019A0104014F013B01EF014F16
:10232E000117027C01AE019A0104014F0100002742
:10233E00038000000000002B019800C3007201F41E
:10234E0000D200E60000000000A1037103D1034596
:10235E0003690355034603700044697374616E6329
:10236E00653A20000D0A0032003300340035003685
:10237E0000370038003900313000313100626967B2
:10238E00676572206F7220736D616C6C65722100CF
:00000001FF
