:100000000C9459000C9481000C9481000C94810094
:100010000C9481000C9481000C9481000C9481005C
:100020000C9481000C9481000C9481000C9481004C
:100030000C9481000C9481000C9481000C9481003C
:100040000C9405060C9481000C9469030C944303F2
:100050000C9481000C9481000C9481000C9481001C
:100060000C9456060C948100000000002500280026
:100070002B00040404040404040402020202020229
:10008000030303030303010204081020408001025C
:1000900004081020010204081020000000080002DB
:1000A0000100000304070000000000000000FD073D
:1000B000B90911241FBECFEFD8E0DEBFCDBF22E0CB
:1000C000A2E4B1E001C01D92AD3BB207E1F711E03F
:1000D000A0E0B1E0E4E8FCE102C005900D92A2349A
:1000E000B107D9F710E0C8E5D0E004C02197FE01C0
:1000F0000E941A0CC735D107C9F70E944C080C940E
:10010000350E0C9400000895CF92DF92EF92FF928B
:100110000F931F93CF93DF936C017A018B01C0E0A3
:10012000D0E0CE15DF0589F0D8016D918D01D601A3
:10013000ED91FC910190F081E02DC6010995892B8C
:1001400011F47E0102C02196ECCFC701DF91CF915F
:100150001F910F91FF90EF90DF90CF900895FC01D9
:10016000538D448D252F30E0842F90E0821B930B1C
:10017000541710F0CF96089501970895FC01918DC2
:10018000828D981761F0828DDF01A80FB11D5D96F9
:100190008C91928D9F5F9F73928F90E008958FEF67
:1001A0009FEF0895FC01918D828D981731F0828D1B
:1001B000E80FF11D858D90E008958FEF9FEF089572
:1001C000FC01918D228D892F90E0805C9F4F821BD6
:1001D00091098F739927089587E991E00E94E000C3
:1001E00021E0892B09F420E0822F0895FC01848D01
:1001F000DF01A80FB11DA35ABF4F2C91848D90E051
:1002000001968F739927848FA689B7892C93A0892B
:10021000B1898C9180648C93938D848D981306C0E2
:100220000288F389E02D80818F7D80830895EF928D
:10023000FF920F931F93CF93DF93EC0181E0888FA0
:100240009B8D8C8D981305C0E889F989808185FD87
:1002500024C0F62E0B8D10E00F5F1F4F0F73112778
:10026000E02E8C8DE8120CC00FB607FCFACFE8899F
:10027000F989808185FFF5CFCE010E94F600F1CF8C
:100280008B8DFE01E80FF11DE35AFF4FF0820B8FBB
:10029000EA89FB898081806207C0EE89FF896083DB
:1002A000E889F98980818064808381E090E0DF9132
:1002B000CF911F910F91FF90EF900895CF93DF930F
:1002C000EC01888D8823C9F0EA89FB89808185FD4E
:1002D00005C0A889B9898C9186FD0FC00FB607FCAF
:1002E000F5CF808185FFF2CFA889B9898C9185FFF0
:1002F000EDCFCE010E94F600E7CFDF91CF910895B8
:100300000F931F93CF93DF938B01C6E4D2E09881C4
:1003100021E0209396019093950110929401109200
:100320009301A981BA81ED91FC91119724E0829FFC
:10033000C0011124BC016A5F7F4F0190F081E02D64
:10034000CD01099560E070E089819A810E944F0695
:1003500060E070E089819A810E944F06B80189812E
:100360009A810E944F06612F70E089819A810E94D4
:100370004F0689819A81DF91CF911F910F910C9443
:10038000A0071F93CF93DF93162FC6E4D2E0988186
:1003900021E0209396019093950110929401109280
:1003A0009301A981BA81ED91FC9111970190F0819F
:1003B000E02D682FCD01099589819A81DC01ED91AD
:1003C000FC910190F081E02D612F099589819A813E
:1003D000DF91CF911F910C94A007CF93DF9326E676
:1003E00036E646E65FE30E94BF099B01AC0160E28E
:1003F0007CEB8EEB95E40E94210B20E030E040E89E
:100400005FE30E94B40A20E030E040E05FE30E9436
:10041000B50A0E94C20B0E94930BD62F8091460210
:1004200091E090939601809395011092940110921F
:1004300093018091470290914802DC01ED91FC917B
:100440000190F081E02D60E0099580914702909144
:1004500048020E94A007809146029091700191117C
:10046000FCCF91E09093700190936F012FEF209358
:100470006E0110926D0110926C0190936B0190913E
:100480006B01880F892B80936B0180916A01813009
:1004900061F410926A0180916B018093BB0080919E
:1004A000BC0083FDF8CF85EC01C085EE8093BC00D5
:1004B000809170018130E1F380916D01811103C061
:1004C00080916D0101C081E0AAE4B1E023E731E051
:1004D000F9019E2F921B981718F49D919193F9CFD3
:1004E00010927201809371018091470290914802AD
:1004F000DC01ED91FC910284F385E02D0995C82F74
:100500008F76682F606180E00E94C1016D2F8EEFB1
:100510000E94C1016C2F80E00E94C10165E070E083
:1005200080E090E00E94CB056C2F606A80E0DF9154
:10053000CF910C94C1010E94170E90E0FC01E65689
:10054000FF4F2491FC01EA57FF4F3491FC01EE5814
:10055000FF4FE491EE23B1F1222339F1233091F0E2
:1005600038F42130A9F0223001F584B58F7D12C016
:10057000273091F02830A1F02430B9F48091800028
:100580008F7D03C0809180008F77809380000DC0A5
:1005900084B58F7784BD09C08091B0008F7703C088
:1005A0008091B0008F7D8093B000F0E0EE0FFF1FD0
:1005B000E859FF4FA591B4918FB7F894EC913E2B79
:1005C0003C938FBF0895FC018091440290914502B5
:1005D000892B21F421E0309749F413C08091400227
:1005E00090914102309731F421E0FC018081882311
:1005F00041F006C0BF010E94250E21E0892B09F0C1
:1006000020E0822F0895EF92FF920F931F93CF93D4
:10061000DF93EC017B018A0188819981009729F0A1
:100620002A813B8124173507F8F4B8016F5F7F4FAB
:100630000E944D0D009759F0998388831B830A838C
:100640002C813D81232B81F4FC0110820DC0888117
:100650009981009711F00E94B50C198218821D82B1
:100660001C821B821A8207C01D830C83B7018881FC
:1006700099810E942E0ECE01DF91CF911F910F9193
:10068000FF90EF9008951F920F920FB60F921124D2
:100690002F933F934F935F936F937F938F939F938A
:1006A000AF93BF93EF93FF9387E991E00E94F60029
:1006B000FF91EF91BF91AF919F918F917F916F913A
:1006C0005F914F913F912F910F900FBE0F901F9010
:1006D00018951F920F920FB60F9211242F938F939C
:1006E0009F93EF93FF93E091A701F091A801808180
:1006F000E091AD01F091AE0182FD12C09081809138
:10070000B0018F5F8F732091B101821751F0E0919A
:10071000B001F0E0E956FE4F958F8093B00101C023
:100720008081FF91EF919F918F912F910F900FBE3C
:100730000F901F90189580E090E0892B29F00E947F
:10074000EC0081110C94000008953FB7F89480915B
:10075000B5029091B602A091B702B091B80226B549
:10076000A89B05C02F3F19F00196A11DB11D3FBFE9
:10077000BA2FA92F982F8827820F911DA11DB11D77
:10078000BC01CD0142E0660F771F881F991F4A9573
:10079000D1F7089585ED8093BC008091BC0084FD65
:1007A000FCCF10927001089540918D02262F30E009
:1007B000240F311D21323105DCF4209170012430E9
:1007C000C9F4FC0180E090E0861758F430918D0266
:1007D0002191DC01A359BD4FA30FB11D2C930196AC
:1007E000F3CF80918D02680F60938D0280E00895B1
:1007F00081E0089582E00895E0916B02F0916C022F
:10080000309729F010929401109293010994089561
:10081000AC01E0914601F09147013097E1F09091F1
:100820007201809171019817B0F090E0292F30E0AB
:100830002617370754F4DA01A20FB31F8C91D901A0
:10084000AD58BE4F8C939F5FF1CF109272016093B1
:100850007101CB01099408950895E091720180918E
:100860007101E81730F4F0E0ED58FE4F808190E020
:1008700008958FEF9FEF089590917201809171011B
:10088000981750F4E92FF0E0ED58FE4F208130E04A
:100890009F5F9093720102C02FEF3FEFC90108954F
:1008A0008091710190E020917201821B910908955D
:1008B000CF92DF92EF92FF920F931F93CF93DF932C
:1008C0007C01262F972F8A0180919601882391F031
:1008D000C62FD72F6E01C40ED51ECC15DD0571F0C5
:1008E0006991D701ED91FC910190F081E02DC70154
:1008F0000995F3CF642F822F0E94D403C801DF91A2
:10090000CF911F910F91FF90EF90DF90CF900895BE
:10091000CF93DF931F92CDB7DEB769832091960105
:100920002223D1F020919301203240F021E030E0E9
:10093000FC013383228380E090E015C08091940114
:10094000E82FF0E0E55BFD4F998190838F5F809306
:1009500094018093930105C061E0CE0101960E944D
:10096000D40381E090E00F90DF91CF910895089536
:1009700080E090E00895CF93DF93CDB7DEB728975E
:100980000FB6F894DEBF0FBECDBF9091710180917C
:100990007201981749F084E392E00E943C0490931E
:1009A0004A0280934902F1CF809149021A8219824A
:1009B0001C821B821E821D828F831886BE01695F86
:1009C0007F4FFB0101900020E9F73197AF01461BF3
:1009D000570BCE0101960E94030380914002909133
:1009E00041020097C9F069817A816115710591F022
:1009F00040914202509143022D813E81421753079C
:100A000048F00E942E0E8D819E8190934502809326
:100A1000440218C00E94B50C89819A8190934102CA
:100A2000809340028B819C81909343028093420289
:100A30008D819E8190934502809344021A8219828F
:100A40001C821B821E821D8289819A810E94B50CA4
:100A500040914402509145026091400270914102E0
:100A600087E991E00E9484008CE391E00E94E30218
:100A7000882321F010924901109248018FE391E000
:100A80000E94E302882331F081E090E090934901D5
:100A9000809348018BE291E00E94E302882331F0C9
:100AA00082E090E090934901809348018DE291E0CB
:100AB0000E94E302882331F083E090E090934901A3
:100AC000809348018FE291E00E94E302882331F095
:100AD00084E090E0909349018093480181E391E0A4
:100AE0000E94E302882331F085E090E09093490171
:100AF0008093480183E391E00E94E302882331F070
:100B000086E090E0909349018093480185E391E06D
:100B10000E94E302882331F087E090E0909349013E
:100B20008093480187E391E00E94E302882331F03B
:100B300088E090E0909349018093480189E391E037
:100B40000E94E302882331F089E090E0909349010C
:100B5000809348018BE391E00E94E302882331F007
:100B60008AE090E090934901809348018EE391E000
:100B70000E94E302882331F08BE090E090934901DA
:100B80008093480128960FB6F894DEBF0FBECDBF04
:100B9000DF91CF9108958F929F92AF92BF92CF92A3
:100BA000DF92EF92FF926B017C010E94A5034B0143
:100BB0005C01C114D104E104F104F1F00E94A50329
:100BC000DC01CB0188199909AA09BB09883E934029
:100BD000A105B10570F321E0C21AD108E108F108BE
:100BE00088EE880E83E0981EA11CB11CC114D104AC
:100BF000E104F10419F7DDCFFF90EF90DF90CF9083
:100C0000BF90AF909F908F9008951F920F920FB654
:100C10000F9211242F933F938F939F93AF93BF9382
:100C20008091B1029091B202A091B302B091B4024E
:100C30003091B00223E0230F2D3720F40196A11D3F
:100C4000B11D05C026E8230F0296A11DB11D2093FA
:100C5000B0028093B1029093B202A093B302B0931A
:100C6000B4028091B5029091B602A091B702B09102
:100C7000B8020196A11DB11D8093B5029093B602F2
:100C8000A093B702B093B802BF91AF919F918F919B
:100C90003F912F910F900FBE0F901F901895DC0180
:100CA000ED91FC910190F081E02D09941F920F923B
:100CB0000FB60F9211242F933F934F935F936F932F
:100CC0007F938F939F93AF93BF93EF93FF93809105
:100CD000B900887F803609F49CC068F5883209F431
:100CE0005BC090F4803109F454C038F4882309F4CF
:100CF000F6C0883009F44DC0F6C0883109F44CC004
:100D0000803209F45DC0EFC0803409F468C048F453
:100D1000803309F455C0883309F0E5C080936E0133
:100D2000D8C0803509F44FC0883509F45DC08834D7
:100D300009F0D9C0D6C0883909F4C7C0A8F48837EB
:100D400009F467C038F4883609F463C0803709F4C1
:100D500060C0C9C0883809F4B8C0803909F45FC0E0
:100D6000803809F0C0C05BC0803B09F486C038F40D
:100D7000803A09F466C0883A09F47FC0B4C0803C68
:100D800009F4A7C0883C09F4A4C0883B09F48AC0D0
:100D9000AAC080916B0110C090916D0180916C018F
:100DA000981770F5E0916D0181E08E0F80936D01D1
:100DB000F0E0E65BFE4F80818093BB0085EC86C04F
:100DC00080936E018EC0E0916D0181E08E0F809363
:100DD0006D018091BB00F0E0E65BFE4F8083909157
:100DE0006D0180916C016EC0E0916D0181E08E0F0C
:100DF00080936D018091BB00F0E0E65BFE4F808345
:100E000080916F0181116DC081E080936A0184EA55
:100E100061C083E0809370011092AF02CFCF8091C8
:100E2000AF02803208F051C0E091AF0281E08E0F36
:100E30008093AF028091BB00F0E0E157FD4F8083CB
:100E4000BDCF85EC8093BC00109270018091AF0201
:100E5000803230F4E091AF02F0E0E157FD4F1082B4
:100E60006091AF0270E0E0914201F09143018FE8A0
:100E700092E009951092AF0236C084E08093700131
:100E800010928E0210928D02E0914401F091450182
:100E9000099580918D02811105C081E080938D02BA
:100EA00010926D02E0918E0281E08E0F80938E028F
:100EB000F0E0E359FD4F80818093BB0090918E025A
:100EC00080918D02981708F479CF85E88093BC0053
:100ED0000AC085EC8093BC001092700104C010928F
:100EE0006E010E94CA03FF91EF91BF91AF919F9154
:100EF0008F917F916F915F914F913F912F910F90C3
:100F00000FBE0F901F9018951092700181E0809392
:100F10006F0110926A0182E10E949D0283E10E94AA
:100F20009D02E9EBF0E080818E7F808380818D7F60
:100F3000808388E48093B80085E48093BC000895A2
:100F40002091930190919501213208F04AC080913F
:100F500070018111FCCF32E03093700131E03093A9
:100F60006F013FEF30936E0110926D0120936C0181
:100F7000ABE4B2E04AE451E0FA013E2F341B3217F1
:100F800018F43D913193F9CF10926B0120916B01D0
:100F9000990F922B90936B0190916A01913061F4BB
:100FA00010926A0190916B019093BB009091BC00EC
:100FB00093FDF8CF95EC01C095EE9093BC00909115
:100FC00070019230E1F390916E019F3F79F0809132
:100FD0006E01803241F080916E01803331F084E007
:100FE00005C081E003C082E001C083E0109294015B
:100FF00010929301109296010895E7E9F1E01382AF
:10100000128288EE93E0A0E0B0E084839583A6830B
:10101000B7832BE031E03183208325EC30E0358746
:10102000248724EC30E03787268720EC30E0318BB2
:10103000208B21EC30E0338B228B22EC30E0358B9F
:10104000248B26EC30E0378B268B118E128E138E7C
:10105000148EE4E3F2E01382128284839583A683E4
:10106000B7838DE191E091838083A6E4B2E080E4D0
:101070008C931296FC93EE931197E0E4F2E01182C8
:101080001082138212821582148240E050E06DE3D8
:1010900071E0CF010C940303789484B5826084BD21
:1010A00084B5816084BD85B5826085BD85B581606C
:1010B00085BD80916E00816080936E0010928100EA
:1010C00080918100826080938100809181008160A5
:1010D0008093810080918000816080938000809166
:1010E000B10084608093B1008091B00081608093F2
:1010F000B00080917A00846080937A0080917A00B9
:10110000826080937A0080917A00816080937A0077
:1011100080917A00806880937A001092C1001092CA
:1011200072011092710110929401109293010E9429
:10113000840760E880E00E94C1016AE070E080E01E
:1011400090E00E94CB0560E070E08AE794E40E94A2
:10115000ED0160E070E080E792E40E94ED0166E955
:1011600070E080E00E94800166E970E081E00E940A
:10117000800166E970E082E00E94800166E970E02B
:1011800083E00E94800166E970E084E00E948001B3
:1011900066E970E085E00E94800166E970E086E023
:1011A0000E94800166E970E087E00E94800183E090
:1011B00080930001E091A701F091A80182E0808373
:1011C000E091A301F091A4011082E091A501F091BA
:1011D000A6018FEC80831092AF01E091AB01F091FA
:1011E000AC0186E08083E091A901F091AA018081A1
:1011F00080618083E091A901F091AA0180818860DB
:101200008083E091A901F091AA01808180688083A8
:10121000E091A901F091AA0180818F7D808388E00F
:101220008093BA008CEF93E0909345018093440142
:1012300088E094E090934301809342011092720100
:101240001092710110929401109293010E948407F0
:101250008BEB94E090934701809346016AE070E045
:1012600080E090E00E94CB05809148019091490177
:101270008130910569F18230910509F44FC0892BC5
:1012800009F074C066E970E080E00E94800166E9C0
:1012900070E081E00E94800166E970E082E00E94D7
:1012A000800166E970E083E00E94800166E970E0F9
:1012B00084E00E94800166E970E085E00E94800180
:1012C00066E970E086E00E94800166E970E04BC04C
:1012D00068E572E080E00E94800168E572E081E0EC
:1012E0000E94800168E572E082E00E94800168E56A
:1012F00072E083E00E94800168E572E084E00E9471
:10130000800168E572E085E00E94800168E572E096
:1013100086E00E94800168E572E025C067E771E021
:1013200080E00E94800167E771E081E00E94800117
:1013300067E771E082E00E94800167E771E083E087
:101340000E94800167E771E084E00E94800167E706
:1013500071E085E00E94800167E771E086E00E940D
:10136000800167E771E087E00E9480010E949B0393
:101370007BCF80914002909141020C94B50C0E9469
:10138000D2090C94430A0E94350A38F00E943C0AA4
:1013900020F0952311F00C942C0A0C94320A11249D
:1013A0000C94770A0E94540A70F3959FC1F3950F2D
:1013B00050E0551F629FF001729FBB27F00DB11DD9
:1013C000639FAA27F00DB11DAA1F649F6627B00D69
:1013D000A11D661F829F2227B00DA11D621F739F52
:1013E000B00DA11D621F839FA00D611D221F749F60
:1013F0003327A00D611D231F849F600D211D822FA7
:10140000762F6A2F11249F5750409AF0F1F08823CD
:101410004AF0EE0FFF1FBB1F661F771F881F9150FA
:101420005040A9F79E3F510580F00C942C0A0C9473
:10143000770A5F3FE4F3983ED4F3869577956795F6
:10144000B795F795E7959F5FC1F7FE2B880F911D24
:101450009695879597F9089597F99F6780E870E0CA
:1014600060E008959FEF80EC089500240A9416161A
:10147000170618060906089500240A941216130682
:10148000140605060895092E0394000C11F4882310
:1014900052F0BB0F40F4BF2B11F460FF04C06F5F2C
:1014A0007F4F8F4F9F4F089557FD9058440F551F02
:1014B00059F05F3F71F04795880F97FB991F61F0D6
:1014C0009F3F79F087950895121613061406551F4D
:1014D000F2CF4695F1DF08C0161617061806991FB9
:1014E000F1CF86957105610508940895E894BB27AE
:1014F00066277727CB0197F908952F923F924F9255
:101500005F926F927F928F929F92AF92BF92CF9293
:10151000DF92EF92FF920F931F93CF93DF93CDB79C
:10152000DEB7CA1BDB0B0FB6F894DEBF0FBECDBF14
:1015300009942A88398848885F846E847D848C84E5
:101540009B84AA84B984C884DF80EE80FD800C81EE
:101550001B81AA81B981CE0FD11D0FB6F894DEBFD1
:101560000FBECDBFED0108955058BB27AA270E949A
:10157000CC0A0C94430A0E94350A38F00E943C0AB7
:1015800020F039F49F3F19F426F40C94320A0EF43B
:10159000E095E7FB0C942C0AE92F0E94540A58F3BB
:1015A000BA17620773078407950720F079F4A6F548
:1015B0000C94760A0EF4E0950B2EBA2FA02D0B0199
:1015C000B90190010C01CA01A0011124FF27591B88
:1015D00099F0593F50F4503E68F11A16F040A22F8E
:1015E000232F342F4427585FF3CF469537952795FF
:1015F000A795F0405395C9F77EF41F16BA0B620BFE
:10160000730B840BBAF09150A1F0FF0FBB1F661F44
:10161000771F881FC2F70EC0BA0F621F731F841F87
:1016200048F4879577956795B795F7959E3F08F0AD
:10163000B0CF9395880F08F09927EE0F979587956F
:1016400008950E94350B0C94430A0E943C0A58F0FE
:101650000E94350A40F029F45F3F29F00C942C0ACF
:1016600051110C94770A0C94320A0E94540A68F3C0
:101670009923B1F3552391F3951B550BBB27AA274B
:1016800062177307840738F09F5F5F4F220F331F85
:10169000441FAA1FA9F335D00E2E3AF0E0E832D04D
:1016A00091505040E695001CCAF72BD0FE2F29D050
:1016B000660F771F881FBB1F261737074807AB0722
:1016C000B0E809F0BB0B802DBF01FF2793585F4F97
:1016D0003AF09E3F510578F00C942C0A0C94770A4E
:1016E0005F3FE4F3983ED4F3869577956795B79579
:1016F000F7959F5FC9F7880F911D9695879597F984
:101700000895E1E0660F771F881FBB1F62177307FC
:101710008407BA0720F0621B730B840BBA0BEE1F11
:1017200088F7E09508950E945C0A88F09F5798F02A
:10173000B92F9927B751B0F0E1F0660F771F881FD6
:10174000991F1AF0BA95C9F714C0B13091F00E94F0
:10175000760AB1E008950C94760A672F782F8827CF
:10176000B85F39F0B93FCCF3869577956795B39517
:10177000D9F73EF490958095709561957F4F8F4F86
:101780009F4F08950E94020C90F09F3748F49111EA
:1017900016F00C94770A60E070E080E89FEB089503
:1017A00026F41B16611D711D811D0C94D90B0C9420
:1017B000F40B882371F4772321F09850872B762F30
:1017C00007C0662311F499270DC09051862B70E055
:1017D00060E02AF09A95660F771F881FDAF7880F66
:1017E0009695879597F908959F3F31F0915020F491
:1017F000879577956795B795880F911D96958795ED
:1018000097F908950E945C0AA0F0BEE7B91788F422
:10181000BB279F3860F41616B11D672F782F8827D5
:10182000985FF7CF869577956795B11D9395963913
:10183000C8F30895EE0FFF1F0590F491E02D099471
:10184000CF93DF938230910510F482E090E0E09135
:10185000BB02F091BC0220E030E0C0E0D0E0309765
:1018600011F14081518148175907C0F048175907B5
:1018700061F482819381209719F09B838A832BC026
:101880009093BC028093BB0226C02115310519F04C
:101890004217530718F49A01BE01DF01EF010280DD
:1018A000F381E02DDCCF2115310509F1281B390B1F
:1018B0002430310590F412968D919C911397611507
:1018C000710521F0FB019383828304C09093BC02D5
:1018D0008093BB02FD01329644C0FD01E20FF31F6D
:1018E00081939193225031092D933C933AC02091DA
:1018F000B9023091BA02232B41F4209103013091B7
:1019000004013093BA022093B90220910101309171
:1019100002012115310541F42DB73EB74091050173
:1019200050910601241B350BE091B902F091BA02E7
:10193000E217F307A0F42E1B3F0B2817390778F0A6
:10194000AC014E5F5F4F2417350748F04E0F5F1F05
:101950005093BA024093B9028193919302C0E0E0A0
:10196000F0E0CF01DF91CF9108950F931F93CF93B4
:10197000DF93009709F48CC0FC0132971382128226
:101980000091BB021091BC020115110581F4208168
:101990003181820F931F2091B9023091BA0228172A
:1019A000390779F5F093BA02E093B90271C0D80112
:1019B00040E050E0AE17BF0750F412962D913C91D5
:1019C0001397AD012115310509F1D901F3CF9D011F
:1019D000DA013383228360817181860F971F82171A
:1019E000930769F4EC0128813981260F371F2E5F98
:1019F0003F4F318320838A819B8193838283452B50
:101A000029F4F093BC02E093BB0242C01396FC930E
:101A1000EE931297ED01499159919E01240F351FC4
:101A2000E217F30771F480819181840F951F02966C
:101A300011969C938E938281938113969C938E939F
:101A40001297E0E0F0E0D80112968D919C911397E7
:101A5000009719F0F8018C01F6CF8D919C919801B7
:101A60002E5F3F4F820F931F2091B9023091BA022F
:101A70002817390769F4309729F41092BC021092A4
:101A8000BB0202C0138212821093BA020093B90201
:101A9000DF91CF911F910F910895A0E0B0E0E3E5B1
:101AA000FDE00C94810AEC01009721F4CB010E9427
:101AB000200CB8C0FC01E60FF71F9C012250310931
:101AC000E217F30708F4ACC0D9010D911C911197EE
:101AD00006171707B0F00530110508F49FC0C801BC
:101AE00004978617970708F499C002501109061B3E
:101AF000170B019311936D937C93CF010E94B50C4A
:101B00008DC05B01A01AB10A4C01800E911EA091FC
:101B1000BB02B091BC0240E050E0E12CF12C1097E8
:101B200009F44AC0A815B905D1F56D907C901197BC
:101B3000630182E0C80ED11CCA14DB0480F1A3014A
:101B40004A195B096A0182E0C80ED11C1296BC904A
:101B500012971396AC91B5E0CB16D10440F0B28247
:101B6000A38351834083D9016D937C930AC00E5F98
:101B70001F4FC301800F911FF90191838083EB2DCB
:101B8000FA2FE114F10431F0D7011396FC93EE9390
:101B9000129744C0F093BC02E093BB023FC08D910A
:101BA0009C9111974817590708F4AC017D011296D2
:101BB0000D90BC91A02DB3CF8091B9029091BA0243
:101BC00088159905E1F446175707C8F4809101017B
:101BD00090910201009741F48DB79EB740910501A5
:101BE00050910601841B950BE817F907C8F4F09390
:101BF000BA02E093B902F901718360830FC0CB018F
:101C00000E94200C7C01009759F0A801BE010E949F
:101C10001C0ECE010E94B50CC70104C0CE0102C04B
:101C200080E090E0CDB7DEB7EEE00C949D0A81E055
:101C300090E0F8940C94350EFB01DC0102C0019099
:101C40000D9241505040D8F70895FB01DC018D9171
:101C5000019080190110D9F3990B0895FB01DC0163
:101C600001900D920020E1F7089510E0C8E5D0E062
:101C700004C0FE010E941A0C2196C935D107C9F78C
:041C8000F894FFCF06
:101C8400010000BD0280000000000017018400AFC5
:101C9400005E01E000BE00D200000000008804588D
:101CA40004B8042C0450043C042D043200330034E2
:101CB400003500360037003800390031300031314A
:021CC40000001E
:00000001FF
