:100000000C9459000C9481000C9481000C94810094
:100010000C9481000C9481000C9481000C9481005C
:100020000C9481000C9481000C9481000C9481004C
:100030000C9481000C9481000C9481000C9481003C
:100040000C9485060C9481000C9453060C942D0698
:100050000C9481000C9481000C9481000C9481001C
:100060000C94CF060C9481000000000025002800AD
:100070002B00040404040404040402020202020229
:10008000030303030303010204081020408001025C
:1000900004081020010204081020000000080002DB
:1000A0000100000304070000000000000000FD073D
:1000B000910911241FBECFEFD8E0DEBFCDBF22E0F3
:1000C000A2E4B1E001C01D92AD3BB207E1F711E03F
:1000D000A0E0B1E0E4E3FCE102C005900D92A2349F
:1000E000B107D9F710E0C8E5D0E004C02197FE01C0
:1000F0000E94F20BC735D107C9F70E944C080C9437
:100100000D0E0C94000090E0FC01E656FF4F249188
:10011000FC01EA57FF4F3491FC01EE58FF4FE49188
:10012000EE23B1F1222339F1233091F038F421305C
:10013000A9F0223001F584B58F7D12C0273091F0EF
:100140002830A1F02430B9F4809180008F7D03C065
:10015000809180008F77809380000DC084B58F7769
:1001600084BD09C08091B0008F7703C08091B0003A
:100170008F7D8093B000F0E0EE0FFF1FE859FF4F36
:10018000A591B4918FB7F894EC913E2B3C938FBF1F
:100190000895E0916401F0916501309729F0109283
:1001A00004021092030209940895AC01E091B60193
:1001B000F091B7013097E1F09091E2018091E10177
:1001C0009817B0F090E0292F30E02617370754F445
:1001D000DA01A20FB31F8C91D901AD51BE4F8C93A0
:1001E0009F5FF1CF1092E2016093E101CB0109948E
:1001F00008950895CF92DF92EF92FF920F931F938D
:10020000CF93DF936C017A018B01C0E0D0E0CE1573
:10021000DF0589F0D8016D918D01D601ED91FC913A
:100220000190F081E02DC6010995892B11F47E0122
:1002300002C02196ECCFC701DF91CF911F910F91A2
:10024000FF90EF90DF90CF900895FC01538D448D87
:10025000252F30E0842F90E0821B930B541710F071
:10026000CF96089501970895FC01918D828D98177E
:1002700061F0828DDF01A80FB11D5D968C91928D8A
:100280009F5F9F73928F90E008958FEF9FEF089587
:10029000FC01918D828D981731F0828DE80FF11D50
:1002A000858D90E008958FEF9FEF0895FC01918D6B
:1002B000228D892F90E0805C9F4F821B91098F7364
:1002C0009927089587E092E00E94560121E0892B4A
:1002D00009F420E0822F0895FC01848DDF01A80F2E
:1002E000B11DA35ABF4F2C91848D90E001968F735E
:1002F0009927848FA689B7892C93A089B1898C917D
:1003000080648C93938D848D981306C00288F38942
:10031000E02D80818F7D80830895EF92FF920F936F
:100320001F93CF93DF93EC0181E0888F9B8D8C8DA1
:10033000981305C0E889F989808185FD24C0F62ECF
:100340000B8D10E00F5F1F4F0F731127E02E8C8D68
:10035000E8120CC00FB607FCFACFE889F989808152
:1003600085FFF5CFCE010E946C01F1CF8B8DFE0190
:10037000E80FF11DE35AFF4FF0820B8FEA89FB89EA
:100380008081806207C0EE89FF896083E889F989EE
:1003900080818064808381E090E0DF91CF911F9124
:1003A0000F91FF90EF900895CF93DF93EC01888D2C
:1003B0008823C9F0EA89FB89808185FD05C0A88969
:1003C000B9898C9186FD0FC00FB607FCF5CF8081EF
:1003D00085FFF2CFA889B9898C9185FFEDCFCE0139
:1003E0000E946C01E7CFDF91CF91089580E090E00B
:1003F000892B29F00E94620181110C94000008955C
:100400003FB7F8948091AE019091AF01A091B001F7
:10041000B091B10126B5A89B05C02F3F19F00196F8
:10042000A11DB11D3FBFBA2FA92F982F8827820F7A
:10043000911DA11DB11DBC01CD0142E0660F771FCA
:10044000881F991F4A95D1F708958F929F92AF9276
:10045000BF92CF92DF92EF92FF926B017C010E94DC
:1004600000024B015C01C114D104E104F104F1F07C
:100470000E940002DC01CB0188199909AA09BB0975
:10048000883E9340A105B10570F321E0C21AD1085E
:10049000E108F10888EE880E83E0981EA11CB11CCB
:1004A000C114D104E104F10419F7DDCFFF90EF90FE
:1004B000DF90CF90BF90AF909F908F900895DC0118
:1004C000ED91FC910190F081E02D099485ED8093F0
:1004D000BC008091BC0084FDFCCF1092E001089527
:1004E00040918601262F30E0240F311D2132310545
:1004F000DCF42091E0012430C9F4FC0180E090E0BC
:10050000861758F4309186012191DC01AA59BE4F1B
:10051000A30FB11D2C930196F3CF80918601680F34
:100520006093860180E0089581E0089582E0089557
:100530001092E00181E08093DF011092DA0182E104
:100540000E94830083E10E948300E9EBF0E0808158
:100550008E7F808380818D7F808388E48093B80044
:1005600085E48093BC0008950895E091E2018091B4
:10057000E101E81730F4F0E0ED51FE4F808190E0AA
:1005800008958FEF9FEF08959091E2018091E1012E
:10059000981750F4E92FF0E0ED51FE4F208130E044
:1005A0009F5F9093E20102C02FEF3FEFC9010895D2
:1005B0008091E10190E02091E201821B9109089570
:1005C000CF92DF92EF92FF920F931F93CF93DF931F
:1005D0007C01262F972F8A0180910602882391F0B3
:1005E000C62FD72F6E01C40ED51ECC15DD0571F0B8
:1005F0006991D701ED91FC910190F081E02DC70147
:100600000995F3CF642F822F0E947002C801DF91F9
:10061000CF911F910F91FF90EF90DF90CF900895B1
:10062000CF93DF931F92CDB7DEB769832091060287
:100630002223D1F020910302203240F021E030E06B
:10064000FC013383228380E090E015C08091040296
:10065000E82FF0E0EC5BFE4F998190838F5F8093F1
:1006600004028093030205C061E0CE0101960E945E
:10067000700281E090E00F90DF91CF91089520917A
:10068000030290910502213208F04AC08091E001F6
:100690008111FCCF32E03093E00131E03093DF0193
:1006A0003FEF3093DE011092DD012093DC01A4E4E2
:1006B000B1E04AEB51E0FA013E2F341B321718F437
:1006C0003D913193F9CF1092DB012091DB01990F1D
:1006D000922B9093DB019091DA01913061F41092AA
:1006E000DA019091DB019093BB009091BC0093FDE7
:1006F000F8CF95EC01C095EE9093BC009091E0018D
:100700009230E1F39091DE019F3F79F08091DE011C
:10071000803241F08091DE01803331F084E005C009
:1007200081E003C082E001C083E0109204021092D5
:1007300003021092060208951F93CF93DF93162FA2
:10074000C6EBD2E0988121E0209306029093050247
:100750001092040210920302A981BA81ED91FC91DA
:1007600011970190F081E02D682FCD0109958981C5
:100770009A81DC01ED91FC910190F081E02D612FD7
:10078000099589819A81DF91CF911F910C943F0344
:100790000F931F93CF93DF938B01C6EBD2E0988129
:1007A00021E0209306029093050210920402109219
:1007B0000302A981BA81ED91FC91119724E0829FF7
:1007C000C0011124BC016A5F7F4F0190F081E02DD0
:1007D000CD01099560E070E089819A810E945F02F5
:1007E00060E070E089819A810E945F02B80189818E
:1007F0009A810E945F02612F70E089819A810E9434
:100800005F0289819A81DF91CF911F910F910C94A2
:100810003F03089580E090E00895CF93DF9326E6AC
:1008200036E646E65FE30E9497099B01AC0160E271
:100830007CEB8EEB95E40E94F90A20E030E040E882
:100840005FE30E948C0A20E030E040E05FE30E941A
:100850008D0A0E949A0B0E946B0BD62F8091B602D4
:1008600091E0909306028093050210920402109288
:1008700003028091B7029091B802DC01ED91FC91E6
:100880000190F081E02D60E009958091B702909190
:10089000B8020E943F038091B6029091E00191114D
:1008A000FCCF91E09093E0019093DF012FEF209334
:1008B000DE011092DD011092DC019093DB0190913A
:1008C000DB01880F892B8093DB018091DA01813075
:1008D00061F41092DA018091DB018093BB0080917A
:1008E000BC0083FDF8CF85EC01C085EE8093BC0091
:1008F0008091E0018130E1F38091DD01811103C03D
:100900008091DD0101C081E0AAEBB1E023EE31E08E
:10091000F9019E2F921B981718F49D919193F9CF8E
:100920001092E2018093E1018091B7029091B802A8
:10093000DC01ED91FC910284F385E02D0995C82F2F
:100940008F76682F606180E00E949C036D2F8EEF90
:100950000E949C036C2F80E00E949C0365E070E085
:1009600080E090E00E9425026C2F606A80E0DF91B9
:10097000CF910C949C03FC018091B4029091B5023C
:10098000892B21F421E0309749F413C08091B00203
:100990009091B102309731F421E0FC0180818823ED
:1009A00041F006C0BF010E94FD0D21E0892B09F036
:1009B00020E0822F08950E94EF0DEF92FF920F9397
:1009C0001F93CF93DF93EC017B018A01888199818A
:1009D000009729F02A813B8124173507F8F4B801E4
:1009E0006F5F7F4F0E94250D009759F09983888390
:1009F0001B830A832C813D81232B81F4FC0110820F
:100A00000DC088819981009711F00E948D0C198288
:100A100018821D821C821B821A8207C01D830C83D0
:100A2000B701888199810E94060ECE01DF91CF9196
:100A30001F910F91FF90EF900895CF93DF93CDB763
:100A4000DEB728970FB6F894DEBF0FBECDBF9091EA
:100A5000E1018091E201981749F084EA92E00E9456
:100A6000C4029093430180934201F1CF80914201EF
:100A70001A8219821C821B821E821D828F83188615
:100A8000BE01695F7F4FFB0101900020E9F73197BC
:100A9000AF01461B570BCE0101960E94DD048091E9
:100AA000B0029091B1020097C9F069817A81611515
:100AB000710591F04091B2025091B3022D813E81B7
:100AC0004217530748F00E94060E8D819E81909335
:100AD000B5028093B40218C00E948D0C89819A815E
:100AE0009093B1028093B0028B819C819093B3026A
:100AF0008093B2028D819E819093B5028093B4025F
:100B00001A8219821C821B821E821D8289819A810F
:100B10000E948D0C4091B4025091B5026091B002D8
:100B20007091B10287E092E00E94FA008CE391E0BC
:100B30000E94BB04882321F01092B9011092B801E1
:100B40008FE391E00E94BB04882331F081E090E0C4
:100B50009093B9018093B8018BE291E00E94BB04AD
:100B6000882331F082E090E09093B9018093B8013E
:100B70008DE291E00E94BB04882331F083E090E095
:100B80009093B9018093B8018FE291E00E94BB0479
:100B9000882331F084E090E09093B9018093B8010C
:100BA00081E391E00E94BB04882331F085E090E06E
:100BB0009093B9018093B80183E391E00E94BB0454
:100BC000882331F086E090E09093B9018093B801DA
:100BD00085E391E00E94BB04882331F087E090E038
:100BE0009093B9018093B80187E391E00E94BB0420
:100BF000882331F088E090E09093B9018093B801A8
:100C000089E391E00E94BB04882331F089E090E001
:100C10009093B9018093B8018BE391E00E94BB04EB
:100C2000882331F08AE090E09093B9018093B80175
:100C30008EE391E00E94BB04882331F08BE090E0CA
:100C40009093B9018093B80128960FB6F894DEBF4F
:100C50000FBECDBFDF91CF9108951F920F920FB6B7
:100C60000F9211242F933F934F935F936F937F9332
:100C70008F939F93AF93BF93EF93FF9387E092E09F
:100C80000E946C01FF91EF91BF91AF919F918F9165
:100C90007F916F915F914F913F912F910F900FBE78
:100CA0000F901F9018951F920F920FB60F9211245C
:100CB0002F938F939F93EF93FF93E0911702F091FF
:100CC00018028081E0911D02F0911E0282FD12C087
:100CD0009081809120028F5F8F7320912102821773
:100CE00051F0E0912002F0E0E95FFD4F958F809395
:100CF000200201C08081FF91EF919F918F912F91F0
:100D00000F900FBE0F901F9018951F920F920FB665
:100D10000F9211242F933F938F939F93AF93BF9381
:100D20008091AA019091AB01A091AC01B091AD016D
:100D30003091A90123E0230F2D3720F40196A11D46
:100D4000B11D05C026E8230F0296A11DB11D2093F9
:100D5000A9018093AA019093AB01A093AC01B09339
:100D6000AD018091AE019091AF01A091B001B09121
:100D7000B1010196A11DB11D8093AE019093AF0109
:100D8000A093B001B093B101BF91AF919F918F91AA
:100D90003F912F910F900FBE0F901F9018951F92AB
:100DA0000F920FB60F9211242F933F934F935F939F
:100DB0006F937F938F939F93AF93BF93EF93FF9323
:100DC0008091B900887F803609F49CC068F588322C
:100DD00009F45BC090F4803109F454C038F48823DE
:100DE00009F4F6C0883009F44DC0F6C0883109F422
:100DF0004CC0803209F45DC0EFC0803409F468C093
:100E000048F4803309F455C0883309F0E5C0809375
:100E1000DE01D8C0803509F44FC0883509F45DC0C3
:100E2000883409F0D9C0D6C0883909F4C7C0A8F4FD
:100E3000883709F467C038F4883609F463C080370E
:100E400009F460C0C9C0883809F4B8C0803909F411
:100E50005FC0803809F0C0C05BC0803B09F486C029
:100E600038F4803A09F466C0883A09F47FC0B4C007
:100E7000803C09F4A7C0883C09F4A4C0883B09F46D
:100E80008AC0AAC08091DB0110C09091DD018091E1
:100E9000DC01981770F5E091DD0181E08E0F809301
:100EA000DD01F0E0E654FE4F80818093BB0085ECCD
:100EB00086C08093DE018EC0E091DD0181E08E0F5F
:100EC0008093DD018091BB00F0E0E654FE4F80830B
:100ED0009091DD018091DC016EC0E091DD0181E047
:100EE0008E0F8093DD018091BB00F0E0E654FE4F51
:100EF00080838091DF0181116DC081E08093DA01F0
:100F000084EA61C083E08093E0011092A801CFCF12
:100F10008091A801803208F051C0E091A80181E0E1
:100F20008E0F8093A8018091BB00F0E0E857FE4F40
:100F30008083BDCF85EC8093BC001092E00180914E
:100F4000A801803230F4E091A801F0E0E857FE4FAC
:100F500010826091A80170E0E091B201F091B301BC
:100F600088E891E009951092A80136C084E080934A
:100F7000E0011092870110928601E091B401F09196
:100F8000B501099580918601811105C081E08093AA
:100F9000860110926601E091870181E08E0F8093B7
:100FA0008701F0E0EA59FE4F80818093BB00909169
:100FB000870180918601981708F479CF85E880939E
:100FC000BC000AC085EC8093BC001092E00104C014
:100FD0001092DE010E946602FF91EF91BF91AF91E6
:100FE0009F918F917F916F915F914F913F912F9141
:100FF0000F900FBE0F901F901895E7E0F2E013825C
:10100000128288EE93E0A0E0B0E084839583A6830B
:10101000B7832BE031E03183208325EC30E0358746
:10102000248724EC30E03787268720EC30E0318BB2
:10103000208B21EC30E0338B228B22EC30E0358B9F
:10104000248B26EC30E0378B268B118E128E138E7C
:10105000148EE4EAF2E01382128284839583A683DD
:10106000B7838DE191E091838083A6EBB2E080E4C9
:101070008C931296FC93EE931197E0EBF2E01182C1
:101080001082138212821582148240E050E06DE3D8
:1010900071E0CF010C94DD04789484B5826084BD46
:1010A00084B5816084BD85B5826085BD85B581606C
:1010B00085BD80916E00816080936E0010928100EA
:1010C00080918100826080938100809181008160A5
:1010D0008093810080918000816080938000809166
:1010E000B10084608093B1008091B00081608093F2
:1010F000B00080917A00846080937A0080917A00B9
:10110000826080937A0080917A00816080937A0077
:1011100080917A00806880937A001092C1001092CA
:10112000E2011092E10110920402109203020E9467
:10113000980260E880E00E949C036AE070E080E032
:1011400090E00E94250260E070E08AE794E40E944B
:101150000D0460E070E080E792E40E940D0483E0FB
:1011600080930001E0911702F091180282E08083E1
:10117000E0911302F09114021082E0911502F091B7
:1011800016028FEC808310921F02E0911B02F091F7
:101190001C0286E08083E0911902F0911A0280819E
:1011A00080618083E0911902F0911A028081886049
:1011B0008083E0911902F0911A0280818068808317
:1011C000E0911902F0911A0280818F7D808388E07E
:1011D0008093BA0089EC90E09093B5018093B401BC
:1011E00085ED90E09093B3018093B2011092E201FB
:1011F0001092E10110920402109203020E949802E0
:101200008DE195E09093B7018093B6016AE070E0BC
:1012100080E090E00E9425028091B8019091B90190
:101220008130910569F18230910509F44FC0892B15
:1012300009F074C060E070E080E00E94C80360E0E4
:1012400070E081E00E94C80360E070E082E00E94EC
:10125000C80360E070E083E00E94C80360E070E0D3
:1012600084E00E94C80360E070E085E00E94C8034B
:1012700060E070E086E00E94C80360E070E04BC070
:1012800064EB70E080E00E94C80364EB70E081E0F2
:101290000E94C80364EB70E082E00E94C80364EB24
:1012A00070E083E00E94C80364EB70E084E00E9479
:1012B000C80364EB70E085E00E94C80364EB70E053
:1012C00086E00E94C80364EB70E025C06AE570E028
:1012D00080E00E94C8036AE570E081E00E94C803D4
:1012E0006AE570E082E00E94C8036AE570E083E08E
:1012F0000E94C8036AE570E084E00E94C8036AE5C2
:1013000070E085E00E94C8036AE570E086E00E9414
:10131000C8036AE570E087E00E94C8030E94F601F6
:101320007BCF8091B0029091B1020C948D0C0E9401
:10133000AA090C941B0A0E940D0A38F00E94140A94
:1013400020F0952311F00C94040A0C940A0A11243D
:101350000C944F0A0E942C0A70F3959FC1F3950FCD
:1013600050E0551F629FF001729FBB27F00DB11D29
:10137000639FAA27F00DB11DAA1F649F6627B00DB9
:10138000A11D661F829F2227B00DA11D621F739FA2
:10139000B00DA11D621F839FA00D611D221F749FB0
:1013A0003327A00D611D231F849F600D211D822FF7
:1013B000762F6A2F11249F5750409AF0F1F088231E
:1013C0004AF0EE0FFF1FBB1F661F771F881F91504B
:1013D0005040A9F79E3F510580F00C94040A0C94EC
:1013E0004F0A5F3FE4F3983ED4F38695779567956F
:1013F000B795F795E7959F5FC1F7FE2B880F911D75
:101400009695879597F9089597F99F6780E870E01A
:1014100060E008959FEF80EC089500240A9416166A
:10142000170618060906089500240A9412161306D2
:10143000140605060895092E0394000C11F4882360
:1014400052F0BB0F40F4BF2B11F460FF04C06F5F7C
:101450007F4F8F4F9F4F089557FD9058440F551F52
:1014600059F05F3F71F04795880F97FB991F61F026
:101470009F3F79F087950895121613061406551F9D
:10148000F2CF4695F1DF08C0161617061806991F09
:10149000F1CF86957105610508940895E894BB27FE
:1014A00066277727CB0197F908952F923F924F92A5
:1014B0005F926F927F928F929F92AF92BF92CF92E4
:1014C000DF92EF92FF920F931F93CF93DF93CDB7ED
:1014D000DEB7CA1BDB0B0FB6F894DEBF0FBECDBF65
:1014E00009942A88398848885F846E847D848C8436
:1014F0009B84AA84B984C884DF80EE80FD800C813F
:101500001B81AA81B981CE0FD11D0FB6F894DEBF21
:101510000FBECDBFED0108955058BB27AA270E94EA
:10152000A40A0C941B0A0E940D0A38F00E94140AA7
:1015300020F039F49F3F19F426F40C940A0A0EF4B3
:10154000E095E7FB0C94040AE92F0E942C0A58F35B
:10155000BA17620773078407950720F079F4A6F598
:101560000C944E0A0EF4E0950B2EBA2FA02D0B0111
:10157000B90190010C01CA01A0011124FF27591BD8
:1015800099F0593F50F4503E68F11A16F040A22FDE
:10159000232F342F4427585FF3CF4695379527954F
:1015A000A795F0405395C9F77EF41F16BA0B620B4E
:1015B000730B840BBAF09150A1F0FF0FBB1F661F95
:1015C000771F881FC2F70EC0BA0F621F731F841FD8
:1015D00048F4879577956795B795F7959E3F08F0FE
:1015E000B0CF9395880F08F09927EE0F97958795C0
:1015F00008950E940D0B0C941B0A0E94140A58F0C7
:101600000E940D0A40F029F45F3F29F00C94040A6F
:1016100051110C944F0A0C940A0A0E942C0A68F388
:101620009923B1F3552391F3951B550BBB27AA279B
:1016300062177307840738F09F5F5F4F220F331FD5
:10164000441FAA1FA9F335D00E2E3AF0E0E832D09D
:1016500091505040E695001CCAF72BD0FE2F29D0A0
:10166000660F771F881FBB1F261737074807AB0772
:10167000B0E809F0BB0B802DBF01FF2793585F4FE7
:101680003AF09E3F510578F00C94040A0C944F0AEE
:101690005F3FE4F3983ED4F3869577956795B795C9
:1016A000F7959F5FC9F7880F911D9695879597F9D4
:1016B0000895E1E0660F771F881FBB1F621773074D
:1016C0008407BA0720F0621B730B840BBA0BEE1F62
:1016D00088F7E09508950E94340A88F09F5798F0A3
:1016E000B92F9927B751B0F0E1F0660F771F881F27
:1016F000991F1AF0BA95C9F714C0B13091F00E9441
:101700004E0AB1E008950C944E0A672F782F88276F
:10171000B85F39F0B93FCCF3869577956795B39567
:10172000D9F73EF490958095709561957F4F8F4FD6
:101730009F4F08950E94DA0B90F09F3748F4911163
:1017400016F00C944F0A60E070E080E89FEB08957B
:1017500026F41B16611D711D811D0C94B10B0C9498
:10176000CC0B882371F4772321F09850872B762FA8
:1017700007C0662311F499270DC09051862B70E0A5
:1017800060E02AF09A95660F771F881FDAF7880FB6
:101790009695879597F908959F3F31F0915020F4E1
:1017A000879577956795B795880F911D969587953D
:1017B00097F908950E94340AA0F0BEE7B91788F49B
:1017C000BB279F3860F41616B11D672F782F882726
:1017D000985FF7CF869577956795B11D9395963964
:1017E000C8F30895EE0FFF1F0590F491E02D0994C2
:1017F000CF93DF938230910510F482E090E0E09186
:10180000BB02F091BC0220E030E0C0E0D0E03097B5
:1018100011F14081518148175907C0F04817590705
:1018200061F482819381209719F09B838A832BC076
:101830009093BC028093BB0226C02115310519F09C
:101840004217530718F49A01BE01DF01EF0102802D
:10185000F381E02DDCCF2115310509F1281B390B6F
:101860002430310590F412968D919C911397611557
:10187000710521F0FB019383828304C09093BC0225
:101880008093BB02FD01329644C0FD01E20FF31FBD
:1018900081939193225031092D933C933AC020912A
:1018A000B9023091BA02232B41F420910301309107
:1018B00004013093BA022093B902209101013091C2
:1018C00002012115310541F42DB73EB740910501C4
:1018D00050910601241B350BE091B902F091BA0238
:1018E000E217F307A0F42E1B3F0B2817390778F0F7
:1018F000AC014E5F5F4F2417350748F04E0F5F1F56
:101900005093BA024093B9028193919302C0E0E0F0
:10191000F0E0CF01DF91CF9108950F931F93CF9304
:10192000DF93009709F48CC0FC0132971382128276
:101930000091BB021091BC020115110581F42081B8
:101940003181820F931F2091B9023091BA0228177A
:10195000390779F5F093BA02E093B90271C0D80162
:1019600040E050E0AE17BF0750F412962D913C9125
:101970001397AD012115310509F1D901F3CF9D016F
:10198000DA013383228360817181860F971F82176A
:10199000930769F4EC0128813981260F371F2E5FE8
:1019A0003F4F318320838A819B8193838283452BA0
:1019B00029F4F093BC02E093BB0242C01396FC935F
:1019C000EE931297ED01499159919E01240F351F15
:1019D000E217F30771F480819181840F951F0296BD
:1019E00011969C938E938281938113969C938E93F0
:1019F0001297E0E0F0E0D80112968D919C91139738
:101A0000009719F0F8018C01F6CF8D919C91980107
:101A10002E5F3F4F820F931F2091B9023091BA027F
:101A20002817390769F4309729F41092BC021092F4
:101A3000BB0202C0138212821093BA020093B90251
:101A4000DF91CF911F910F910895A0E0B0E0EBE2FC
:101A5000FDE00C94590AEC01009721F4CB010E949F
:101A6000F80BB8C0FC01E60FF71F9C0122503109AA
:101A7000E217F30708F4ACC0D9010D911C9111973E
:101A800006171707B0F00530110508F49FC0C8010C
:101A900004978617970708F499C002501109061B8E
:101AA000170B019311936D937C93CF010E948D0CC2
:101AB0008DC05B01A01AB10A4C01800E911EA0914D
:101AC000BB02B091BC0240E050E0E12CF12C109739
:101AD00009F44AC0A815B905D1F56D907C9011970D
:101AE000630182E0C80ED11CCA14DB0480F1A3019B
:101AF0004A195B096A0182E0C80ED11C1296BC909B
:101B000012971396AC91B5E0CB16D10440F0B28297
:101B1000A38351834083D9016D937C930AC00E5FE8
:101B20001F4FC301800F911FF90191838083EB2D1B
:101B3000FA2FE114F10431F0D7011396FC93EE93E0
:101B4000129744C0F093BC02E093BB023FC08D915A
:101B50009C9111974817590708F4AC017D01129622
:101B60000D90BC91A02DB3CF8091B9029091BA0293
:101B700088159905E1F446175707C8F480910101CB
:101B800090910201009741F48DB79EB740910501F5
:101B900050910601841B950BE817F907C8F4F093E0
:101BA000BA02E093B902F901718360830FC0CB01DF
:101BB0000E94F80B7C01009759F0A801BE010E9419
:101BC000F40DCE010E948D0CC70104C0CE0102C0ED
:101BD00080E090E0CDB7DEB7EEE00C94750A81E0CE
:101BE00090E0F8940C940D0EFB01DC0102C0019012
:101BF0000D9241505040D8F70895FB01DC018D91C2
:101C0000019080190110D9F3990B0895FB01DC01B3
:101C100001900D920020E1F7089510E0C8E5D0E0B2
:101C200004C0FE010E94F20B2196C935D107C9F705
:041C3000F894FFCF56
:101C3400010000BD028000000000008D01FA0025B3
:101C440001D401560134014801000000001003E0F2
:101C5400020A04B402D802C402B5023200330034CA
:101C6400003500360037003800390031300031319A
:021C740000006E
:00000001FF
