:100000000C946D000C9495000C9495000C94950044
:100010000C9495000C9495000C9495000C9495000C
:100020000C9495000C9495000C9495000C949500FC
:100030000C9495000C9495000C9495000C949500EC
:100040000C94E4040C9495000C942C040C94060479
:100050000C9495000C9495000C9495000C949500CC
:100060000C9435050C949500F10AFA0AFA0A050B6E
:10007000100B1B0B2E0B450B4A0B5F0B00000008EF
:10008000000201000003040700000000000000005F
:1000900000000000250028002B00000000002400C4
:1000A00027002A0000000000230026002900040485
:1000B0000404040404040202020202020303030310
:1000C00003030102040810204080010204081020EC
:1000D000010204081020B808B20811241FBECFEF97
:1000E000D8E0DEBFCDBF23E0AEE9B1E001C01D9294
:1000F000A332B207E1F711E0A0E0B1E0EEE7F2E2EF
:1001000002C005900D92AE39B107D9F710E0CCE6E8
:10011000D0E004C02197FE010E94170FCB36D10713
:10012000C9F70E9426090C9432110C94000008951E
:10013000CF92DF92EF92FF920F931F93CF93DF93B3
:100140006C017A018B01C0E0D0E0CE15DF0589F0AB
:10015000D8016D918D01D601ED91FC910190F08156
:10016000E02DC6010995892B11F47E0102C021966C
:10017000ECCFC701DF91CF911F910F91FF90EF90CE
:10018000DF90CF900895FC01538D448D252F30E0F2
:10019000842F90E0821B930B541710F0CF96089594
:1001A00001970895FC01918D828D981761F0828DE1
:1001B000DF01A80FB11D5D968C91928D9F5F9F739B
:1001C000928F90E008958FEF9FEF0895FC01918D3D
:1001D000828D981731F0828DE80FF11D858D90E0AA
:1001E00008958FEF9FEF0895FC01918D228D892F47
:1001F00090E0805C9F4F821B91098F73992708952F
:1002000083E692E00E94F40021E0892B09F420E0CB
:10021000822F0895FC01848DDF01A80FB11DA35A20
:10022000BF4F2C91848D90E001968F739927848F16
:10023000A689B7892C93A089B1898C9180648C930D
:10024000938D848D981306C00288F389E02D8081F8
:100250008F7D80830895EF92FF920F931F93CF932A
:10026000DF93EC0181E0888F9B8D8C8D981305C006
:10027000E889F989808185FD24C0F62E0B8D10E078
:100280000F5F1F4F0F731127E02E8C8DE8120CC0EB
:100290000FB607FCFACFE889F989808185FFF5CF91
:1002A000CE010E940A01F1CF8B8DFE01E80FF11DF6
:1002B000E35AFF4FF0820B8FEA89FB8980818062CD
:1002C00007C0EE89FF896083E889F98980818064AD
:1002D000808381E090E0DF91CF911F910F91FF909B
:1002E000EF900895CF93DF93EC01888D8823C9F0B8
:1002F000EA89FB89808185FD05C0A889B9898C912F
:1003000086FD0FC00FB607FCF5CF808185FFF2CFC9
:10031000A889B9898C9185FFEDCFCE010E940A0191
:10032000E7CFDF91CF91089580E090E0892B29F00D
:100330000E94000181110C94000008953FB7F894C9
:1003400080910A0290910B02A0910C02B0910D02D3
:1003500026B5A89B05C02F3F19F00196A11DB11D20
:100360003FBFBA2FA92F982F8827820F911DA11D5B
:10037000B11DBC01CD0142E0660F771F881F991F98
:100380004A95D1F7089585ED8093BC008091BC001B
:1003900084FDFCCF10923C0208954091E201262F8B
:1003A00030E0240F311D21323105DCF420913C0274
:1003B0002430C9F4FC0180E090E0861758F43091B5
:1003C000E2012191DC01AE53BE4FA30FB11D2C936E
:1003D0000196F3CF8091E201680F6093E20180E023
:1003E000089581E0089582E00895E091C001F091C0
:1003F000C101309729F01092600210925F020994B7
:100400000895AC01E0911202F09113023097E1F0EF
:1004100090913E0280913D029817B0F090E0292F14
:1004200030E02617370754F4DA01A20FB31F8C917E
:10043000D901A15CBD4F8C939F5FF1CF10923E021A
:1004400060933D02CB01099408950895E0913E0226
:1004500080913D02E81730F4F0E0E15CFD4F8081CF
:1004600090E008958FEF9FEF089590913E02809164
:100470003D02981750F4E92FF0E0E15CFD4F208138
:1004800030E09F5F90933E0202C02FEF3FEFC90123
:10049000089580913D0290E020913E02821B9109D7
:1004A0000895CF92DF92EF92FF920F931F93CF9315
:1004B000DF937C01262F972F8A0180916202882387
:1004C00091F0C62FD72F6E01C40ED51ECC15DD05B9
:1004D00071F06991D701ED91FC910190F081E02DCF
:1004E000C7010995F3CF642F822F0E94CD01C80167
:1004F000DF91CF911F910F91FF90EF90DF90CF9000
:100500000895CF93DF931F92CDB7DEB76983209113
:1005100062022223D1F020915F02203240F021E0DC
:1005200030E0FC013383228380E090E015C08091AD
:100530006002E82FF0E0E056FE4F998190838F5FD4
:100540008093600280935F0205C061E0CE01019656
:100550000E94CD0181E090E00F90DF91CF9108954E
:10056000089580E090E008950E941411EF92FF92A8
:100570000F931F93CF93DF93EC017B018A01888156
:100580009981009729F02A813B8124173507F8F4D7
:10059000B8016F5F7F4F0E944A10009759F099830E
:1005A00088831B830A832C813D81232B81F4FC01EA
:1005B00010820DC088819981009711F00E94B20FBE
:1005C000198218821D821C821B821A8207C01D8319
:1005D0000C83B701888199810E942B11CE01DF9194
:1005E000CF911F910F91FF90EF900895CF93DF93DC
:1005F000CDB7DEB728970FB6F894DEBF0FBECDBFDC
:1006000090913D0280913E02981749F080E093E07E
:100610000E94350290939F0180939E01F1CF8091BB
:100620009E011A8219821C821B821E821D828F8368
:100630001886BE01695F7F4FFB0101900020E9F73A
:100640003197AF01461B570BCE0101960E94B602AF
:1006500080910E0390910F030097C9F069817A8110
:100660006115710591F040911003509111032D8196
:100670003E814217530748F00E942B118D819E81C5
:10068000909313038093120318C00E94B20F8981C4
:100690009A8190930F0380930E038B819C8190939A
:1006A0001103809310038D819E8190931303809397
:1006B00012031A8219821C821B821E821D8289816A
:1006C0009A810E94B20F40911203509113036091DE
:1006D0000E0370910F0383E692E00E94980088E772
:1006E00091E00E94FA07882321F0109215021092DF
:1006F00014028BE791E00E94FA07882331F081E031
:1007000090E0909315028093140287E691E00E9496
:10071000FA07882331F082E090E0909315028093ED
:10072000140289E691E00E94FA07882331F083E001
:1007300090E090931502809314028BE691E00E9462
:10074000FA07882331F084E090E0909315028093BB
:1007500014028DE691E00E94FA07882331F085E0CB
:1007600090E090931502809314028FE691E00E942E
:10077000FA07882331F086E090E090931502809389
:10078000140281E791E00E94FA07882331F087E0A4
:1007900090E0909315028093140283E791E00E9409
:1007A000FA07882331F088E090E090931502809357
:1007B000140285E791E00E94FA07882331F089E06E
:1007C00090E0909315028093140287E791E00E94D5
:1007D000FA07882331F08AE090E090931502809325
:1007E00014028AE791E00E94FA07882331F08BE037
:1007F00090E0909315028093140228960FB6F89417
:10080000DEBF0FBECDBFDF91CF9108951F920F9233
:100810000FB60F9211242F933F934F935F936F93D3
:100820007F938F939F93AF93BF93EF93FF9383E651
:1008300092E00E940A01FF91EF91BF91AF919F91C9
:100840008F917F916F915F914F913F912F910F9079
:100850000FBE0F901F9018951F920F920FB60F9218
:1008600011242F938F939F93EF93FF93E091730243
:10087000F09174028081E0917902F0917A0282FD18
:1008800012C0908180917C028F5F8F7320917D02D6
:10089000821751F0E0917C02F0E0ED59FD4F958F09
:1008A00080937C0201C08081FF91EF919F918F9195
:1008B0002F910F900FBE0F901F90189590E0FC01A4
:1008C000E458FF4F3491FC01EE53FF4F2491FC019B
:1008D000E255FF4FE491EE2309F43BC0332339F195
:1008E000333091F038F43130A9F0323001F584B56D
:1008F0008F7D12C0373091F03830A1F03430B9F428
:10090000809180008F7D03C0809180008F778093DD
:1009100080000DC084B58F7784BD09C08091B00080
:100920008F7703C08091B0008F7D8093B000F0E09E
:10093000EE0FFF1FE057FF4FA591B4918FB7F894CA
:10094000EC91611103C020952E2301C02E2B2C9316
:100950008FBF08958F929F92AF92BF92CF92DF92F6
:10096000EF92FF926B017C010E949E014B015C01A2
:10097000C114D104E104F104F1F00E949E01DC01F4
:10098000CB0188199909AA09BB09883E9340A105A2
:10099000B10570F321E0C21AD108E108F10888EE30
:1009A000880E83E0981EA11CB11CC114D104E1047F
:1009B000F10419F7DDCFFF90EF90DF90CF90BF905B
:1009C000AF909F908F9008951F920F920FB60F9245
:1009D00011242F933F938F939F93AF93BF93809155
:1009E000060290910702A0910802B091090230918D
:1009F000050223E0230F2D3720F40196A11DB11D20
:100A000005C026E8230F0296A11DB11D2093050203
:100A10008093060290930702A0930802B093090204
:100A200080910A0290910B02A0910C02B0910D02EC
:100A30000196A11DB11D80930A0290930B02A09311
:100A40000C02B0930D02BF91AF919F918F913F9196
:100A50002F910F900FBE0F901F901895DC01ED9114
:100A6000FC910190F081E02D09941F920F920FB636
:100A70000F9211242F933F934F935F936F937F9324
:100A80008F939F93AF93BF93EF93FF938091B900A0
:100A9000887F803609F49CC068F5883209F45BC011
:100AA00090F4803109F454C038F4882309F4F6C076
:100AB000883009F44DC0F6C0883109F44CC080324A
:100AC00009F45DC0EFC0803409F468C048F4803395
:100AD00009F455C0883309F0E5C080933A02D8C0C4
:100AE000803509F44FC0883509F45DC0883409F0B9
:100AF000D9C0D6C0883909F4C7C0A8F4883709F42A
:100B000067C038F4883609F463C0803709F460C0E0
:100B1000C9C0883809F4B8C0803909F45FC080388A
:100B200009F0C0C05BC0803B09F486C038F4803A4D
:100B300009F466C0883A09F47FC0B4C0803C09F467
:100B4000A7C0883C09F4A4C0883B09F48AC0AAC0A5
:100B50008091370210C09091390280913802981725
:100B600070F5E091390281E08E0F80933902F0E058
:100B7000EA5EFD4F80818093BB0085EC86C0809348
:100B80003A028EC0E091390281E08E0F80933902E3
:100B90008091BB00F0E0EA5EFD4F808390913902C6
:100BA000809138026EC0E091390281E08E0F80930F
:100BB00039028091BB00F0E0EA5EFD4F80838091B6
:100BC0003B0281116DC081E08093360284EA61C0EE
:100BD00083E080933C0210920402CFCF8091040204
:100BE000803208F051C0E091040281E08E0F8093C2
:100BF00004028091BB00F0E0EC51FE4F8083BDCF3A
:100C000085EC8093BC0010923C02809104028032FB
:100C100030F4E0910402F0E0EC51FE4F108260915C
:100C2000040270E0E0910E02F0910F0284EE91E078
:100C300009951092040236C084E080933C02109221
:100C4000E3011092E201E0911002F0911102099586
:100C50008091E201811105C081E08093E201109250
:100C6000C201E091E30181E08E0F8093E301F0E0A7
:100C7000EE53FE4F80818093BB009091E301809101
:100C8000E201981708F479CF85E88093BC000AC088
:100C900085EC8093BC0010923C0204C010923A0292
:100CA0000E94C301FF91EF91BF91AF919F918F91EE
:100CB0007F916F915F914F913F912F910F900FBE58
:100CC0000F901F90189510923C0281E080933B0298
:100CD0001092360261E082E10E945E0461E083E1ED
:100CE0000E945E04E9EBF0E080818E7F808380814A
:100CF0008D7F808388E48093B80085E48093BC0076
:100D0000089520915F0290916102213208F04AC05B
:100D100080913C028111FCCF32E030933C0231E003
:100D200030933B023FEF30933A0210923902209306
:100D30003802A0EAB1E046E152E0FA013E2F341B4E
:100D4000321718F43D913193F9CF10923702209168
:100D50003702990F922B909337029091360291307F
:100D600061F410923602909137029093BB009091FB
:100D7000BC0093FDF8CF95EC01C095EE9093BC00BC
:100D800090913C029230E1F390913A029F3F79F0CA
:100D900080913A02803241F080913A02803331F002
:100DA00084E005C081E003C082E001C083E01092CE
:100DB000600210925F02109262020895FB019C0192
:100DC000220F331FD901A75DBE4F4D915C91BA012F
:100DD0006E0F7F1F6835A2E07A0764F44E1B5F0B2D
:100DE000473951053CF0F901E050FF4F71836083B2
:100DF0000C942C088DE791E00C941A080F931F9324
:100E0000CF93DF938C01C0E0D0E062E370E080E03C
:100E100090E00E94AA04F801619171918F018C2FDA
:100E20000E942C0860E070E0CE010E94DE06219650
:100E3000C830D10551F7DF91CF911F910F910895DF
:100E40001F93CF93DF93162FC4E1D3E0988121E065
:100E500020936202909361021092600210925F02EE
:100E6000A981BA81ED91FC9111970190F081E02D5B
:100E7000682FCD01099589819A81DC01ED91FC9162
:100E80000190F081E02D612F099589819A81DF9190
:100E9000CF911F910C948106CF93DF9326E636E61F
:100EA00046E65FE30E94930C9B01AC0160E27CEBA1
:100EB0008EEB95E40E94F50D20E030E040E85FE322
:100EC0000E94880D20E030E040E05FE30E94890D41
:100ED0000E949D0E0E946E0ED62F8091140391E009
:100EE00090936202809361021092600210925F02FE
:100EF0008091150390911603DC01ED91FC91019016
:100F0000F081E02D60E00995809115039091160322
:100F10000E9481068091140390913C029111FCCFB4
:100F200091E090933C0290933B022FEF20933A0282
:100F30001092390210923802909337029091370242
:100F4000880F892B8093370280913602813061F4BB
:100F500010923602809137028093BB008091BC00D2
:100F600083FDF8CF85EC01C085EE8093BC008091B5
:100F70003C028130E1F380913902811103C08091FC
:100F8000390201C081E0A6E1B2E02FE332E0F901CD
:100F90009E2F921B981718F49D919193F9CF109260
:100FA0003E0280933D028091150390911603DC016F
:100FB000ED91FC910284F385E02D0995C82F8F7681
:100FC000682F606180E00E9420076D2F8EEF0E94E5
:100FD00020076C2F80E00E94200765E070E080E031
:100FE00090E00E94AA046C2F606A80E0DF91CF91AC
:100FF0000C942007FC018091120390911303892B1C
:1010000021F421E0309749F413C080910E039091B0
:101010000F03309731F421E0FC018081882341F0F7
:1010200006C0BF010E94221121E0892B09F020E0B7
:10103000822F0895009769F0FC0101900020E9F7E4
:101040003197AF01481B590BBC0183E692E00C9429
:10105000980080E090E008950F931F93CF93DF9363
:101060008B01C4E1D3E0988121E020936202909348
:1010700061021092600210925F02A981BA81ED9123
:10108000FC91119724E0829FC0011124BC016A5F8A
:101090007F4F0190F081E02DCD01099560E070E077
:1010A00089819A810E942E0560E070E089819A8191
:1010B0000E942E05B80189819A810E942E05612F18
:1010C00070E089819A810E942E0589819A81DF9141
:1010D000CF911F910F910C948106CF92DF92EF92E6
:1010E000FF920F931F93E82FF92F05C001501109AC
:1010F0002109310961F1908196239417B9F305C054
:10110000015011092109310911F19081962394139D
:10111000F7CFC12CD12CE12CF12C0AC08FEFC81ACB
:10112000D80AE80AF80A0C151D052E053F0579F0C6
:1011300080818623841791F36C2D7D2D8E2D9F2D1C
:101140001F910F91FF90EF90DF90CF90089560E096
:1011500070E080E090E01F910F91FF90EF90DF90A2
:10116000CF90089580910E0390910F030C94B20FCD
:10117000E3E6F2E01382128288EE93E0A0E0B0E0B2
:1011800084839583A683B78325E431E0318320836C
:1011900025EC30E03587248724EC30E0378726873C
:1011A00020EC30E0318B208B21EC30E0338B228B34
:1011B00022EC30E0358B248B26EC30E0378B268B0D
:1011C000118E128E138E148EE0E0F3E013821282E1
:1011D00084839583A683B78387E591E09183808399
:1011E000A4E1B3E080E48C931296FC93EE93119704
:1011F000EEE0F3E0118210821382128215821482D3
:1012000040E050E06DE971E0CF010E94B60280EE4F
:1012100090E090930D0380930C03E9E2F1E026E760
:1012200031E03183208388E791E0938382833583A3
:10123000248397838683E9E1F1E0318320839383DC
:10124000828335832483978386830895CF93DF93A6
:10125000CDB7DEB7A1970FB6F894DEBF0FBECDBFF6
:10126000789484B5826084BD84B5816084BD85B581
:10127000826085BD85B5816085BD80916E0081608D
:1012800080936E0010928100809181008260809333
:101290008100809181008160809381008091800035
:1012A0008160809380008091B10084608093B10060
:1012B0008091B00081608093B00080917A0084605A
:1012C00080937A0080917A00826080937A00809186
:1012D0007A00816080937A0080917A0080688093A0
:1012E0007A001092C10010923E0210923D021092BC
:1012F000600210925F020E94630660E880E00E9434
:1013000020076AE070E080E090E00E94AA0460E0BC
:1013100070E08AE794E40E944C0760E070E080E7A8
:1013200092E40E944C0783E080931001E8ECF0E027
:101330002491E4EBF0E08491882399F090E0880F09
:10134000991FFC01E656FF4FA591B491FC01E057AF
:10135000FF4F859194918FB7F894EC91E22BEC9329
:101360008FBFE7ECF0E02491E3EBF0E08491882379
:10137000C9F090E0880F991FFC01E656FF4F459198
:101380005491FC01E057FF4FA591B4919FB7F89499
:10139000FA0180812095822380838C91E22FE823BB
:1013A000EC939FBFE0917302F091740282E080831E
:1013B000E0916F02F09170021082E0917102F09161
:1013C00072028FEC808310927B02E0917702F091A1
:1013D000780286E08083E0917502F0917602808148
:1013E00080618083E0917502F0917602808188604F
:1013F0008083E0917502F09176028081806880831D
:10140000E0917502F091760280818F7D808388E083
:101410008093BA0085EF91E09093110280931002BF
:1014200081E092E090930F0280930E0210923E02B0
:1014300010923D021092600210925F020E946306B9
:1014400086EF92E090931302809312026AE070E0BC
:1014500080E090E00E94AA0493EB692E90E0792E40
:101460002AE0222E312C412C512C30E7D32EEE24B1
:10147000EA94FE2C60E086E00E945E0483E090E047
:101480000197F1F761E086E00E945E0483E290E05C
:101490000197F1F760E086E00E945E04E7ECF0E07F
:1014A0006491F3018491E82FF0E0EE0FFF1FEC55FB
:1014B000FF4F8591949100E412E42FE030E0462F35
:1014C0000E946D08611571058105910549F0DC01E7
:1014D000CB010196A11DB11DBC01CD019F7003C0C0
:1014E00060E070E0CB016093170370931803809362
:1014F000190390931A030E94580C26E933E44BE039
:101500005DE30E94930C20E030E040E05FE30E9446
:10151000930C0E94670E70931C0360931B0380E979
:1015200091E00E941A0820911B0330911C0349018D
:10153000330FAA08BB08B7FE26C0E0916302F09102
:1015400064020190F081E02D6DE283E692E009955E
:1015500022273327A901281939094A095B0919A249
:101560008E010F5D1F4FCA01B901A20191010E94B6
:10157000F50E605DF80162938F012115310541057B
:10158000510589F715C0A501940119A28E010F5DBF
:101590001F4FCA01B901A20191010E94F50E605DC1
:1015A000F80162938F01211531054105510589F735
:1015B000C8010E941A088BE991E00E941A08609104
:1015C0001B0380E093E00E948102E0911402F091FD
:1015D0001502EA30F10508F0A2C0EC5CFF4F0C9454
:1015E000170F10921E0310921D0389E291E00E94D2
:1015F000FE0659C181E090E09093120180931101A1
:10160000F0921401E092130133C081E090E09093D6
:10161000120180931101F0921401E092130115C0A0
:10162000F0921201E0921101F0921401E092130184
:1016300081E090E01DC0F0921201E092110181E082
:1016400090E09093140180931301F0921601E092C0
:101650001501909318018093170112C0F0921201A6
:10166000E092110181E090E09093140180931301C6
:101670009093160180931501F0921801E0921701E2
:1016800090931E0380931D034AC089E191E00E945C
:10169000FE0641C060E070E081E090E00E94DE065E
:1016A00060E070E088E090E00E94DE0660E070E0BC
:1016B00085E090E00E94DE0660E070E028C0609166
:1016C0000C0370910D0371956195710981E090E0B3
:1016D0000E94DE0660910C0370910D037195619577
:1016E000710988E090E00E94DE0660910C03709121
:1016F0000D0371956195710985E090E00E94DE0609
:1017000060910C0370910D0371956195710987E0EB
:1017100090E00E94DE0610921E0310921D0380913D
:101720001D0390911E03181619060CF0BCC06CE93D
:101730007FEF84E090E00E94DE0664E670E085E0E2
:1017400090E00E94DE0662E370E080E090E00E949C
:10175000AA048091110190911201D89EB001D99EE6
:10176000700D112480E090E00E94DE06809113014C
:1017700090911401D89EB001D99E700D112481E082
:1017800090E00E94DE068091150190911601D89E8E
:10179000B001D99E700D112482E090E00E94DE0617
:1017A0008091170190911801D89EB001D99E700DBB
:1017B000112483E090E00E94DE0662E370E080E0A6
:1017C00090E00E94AA0460E070E084E090E00E9453
:1017D000DE0660E070E085E090E00E94DE066AE0F0
:1017E00070E080E090E00E94AA046CE97FEF86E060
:1017F00090E00E94DE0664E670E087E090E00E94E0
:10180000DE066AE070E080E090E00E94AA04809129
:10181000110190911201D89EB001D99E700D112432
:1018200080E090E00E94DE06809113019091140107
:10183000D89EB001D99E700D112481E090E00E94E5
:10184000DE068091150190911601D89EB001D99EB7
:10185000700D112482E090E00E94DE068091170155
:1018600090911801D89EB001D99E700D112483E08B
:1018700090E00E94DE0662E370E080E090E00E946B
:10188000AA0460E070E086E090E00E94DE0660E07E
:1018900070E087E090E00E94DE066AE070E080E0A1
:1018A00090E00E94AA040E949401E4CDE89409C04B
:1018B00097FB3EF490958095709561957F4F8F4F83
:1018C0009F4F9923A9F0F92F96E9BB279395F69599
:1018D000879577956795B795F111F8CFFAF4BB0F17
:1018E00011F460FF1BC06F5F7F4F8F4F9F4F16C07B
:1018F000882311F096E911C0772321F09EE8872F05
:10190000762F05C0662371F096E8862F70E060E0C0
:101910002AF09A95660F771F881FDAF7880F969539
:10192000879597F908950E94A60C0C94170D0E94B4
:10193000090D38F00E94100D20F0952311F00C9441
:10194000000D0C94060D11240C944B0D0E94280DD3
:1019500070F3959FC1F3950F50E0551F629FF00102
:10196000729FBB27F00DB11D639FAA27F00DB11D1B
:10197000AA1F649F6627B00DA11D661F829F2227A4
:10198000B00DA11D621F739FB00DA11D621F839F2B
:10199000A00D611D221F749F3327A00D611D231F01
:1019A000849F600D211D822F762F6A2F11249F574F
:1019B00050409AF0F1F088234AF0EE0FFF1FBB1F52
:1019C000661F771F881F91505040A9F79E3F510511
:1019D00080F00C94000D0C944B0D5F3FE4F3983EA7
:1019E000D4F3869577956795B795F795E7959F5FBB
:1019F000C1F7FE2B880F911D9695879597F908954D
:101A000097F99F6780E870E060E008959FEF80ECB1
:101A1000089500240A941616170618060906089554
:101A200000240A9412161306140605060895092EBA
:101A30000394000C11F4882352F0BB0F40F4BF2B29
:101A400011F460FF04C06F5F7F4F8F4F9F4F089569
:101A500057FD9058440F551F59F05F3F71F047955F
:101A6000880F97FB991F61F09F3F79F08795089544
:101A7000121613061406551FF2CF4695F1DF08C063
:101A8000161617061806991FF1CF86957105610580
:101A900008940895E894BB2766277727CB0197F928
:101AA00008952F923F924F925F926F927F928F9202
:101AB0009F92AF92BF92CF92DF92EF92FF920F93DD
:101AC0001F93CF93DF93CDB7DEB7CA1BDB0B0FB6E7
:101AD000F894DEBF0FBECDBF09942A8839884888A4
:101AE0005F846E847D848C849B84AA84B984C8843A
:101AF000DF80EE80FD800C811B81AA81B981CE0F31
:101B0000D11D0FB6F894DEBF0FBECDBFED01089515
:101B10005058BB27AA270E94A00D0C94170D0E94B5
:101B2000090D38F00E94100D20F039F49F3F19F490
:101B300026F40C94060D0EF4E095E7FB0C94000DD2
:101B4000E92F0E94280D58F3BA176207730784071C
:101B5000950720F079F4A6F50C944A0D0EF4E09563
:101B60000B2EBA2FA02D0B01B90190010C01CA0157
:101B7000A0011124FF27591B99F0593F50F4503E02
:101B800068F11A16F040A22F232F342F4427585FF4
:101B9000F3CF469537952795A795F0405395C9F70C
:101BA0007EF41F16BA0B620B730B840BBAF09150C4
:101BB000A1F0FF0FBB1F661F771F881FC2F70EC063
:101BC000BA0F621F731F841F48F487957795679536
:101BD000B795F7959E3F08F0B0CF9395880F08F022
:101BE0009927EE0F9795879508950E94090E0C94FA
:101BF000170D0E94100D58F00E94090D40F029F4B5
:101C00005F3F29F00C94000D51110C944B0D0C9476
:101C1000060D0E94280D68F39923B1F3552391F323
:101C2000951B550BBB27AA2762177307840738F04B
:101C30009F5F5F4F220F331F441FAA1FA9F335D0A8
:101C40000E2E3AF0E0E832D091505040E695001C5C
:101C5000CAF72BD0FE2F29D0660F771F881FBB1F16
:101C6000261737074807AB07B0E809F0BB0B802DF4
:101C7000BF01FF2793585F4F3AF09E3F510578F020
:101C80000C94000D0C944B0D5F3FE4F3983ED4F39D
:101C9000869577956795B795F7959F5FC9F7880FF4
:101CA000911D9695879597F90895E1E0660F771F46
:101CB000881FBB1F621773078407BA0720F0621BD7
:101CC000730B840BBA0BEE1F88F7E09508950E9402
:101CD0006E0E6894B1110C944B0D08950E94300D56
:101CE00088F09F5798F0B92F9927B751B0F0E1F0DD
:101CF000660F771F881F991F1AF0BA95C9F714C08D
:101D0000B13091F00E944A0DB1E008950C944A0D53
:101D1000672F782F8827B85F39F0B93FCCF38695C5
:101D200077956795B395D9F73EF490958095709522
:101D300061957F4F8F4F9F4F08950E94DD0E90F069
:101D40009F3748F4911116F00C944B0D60E070E051
:101D500080E89FEB089526F41B16611D711D811DFF
:101D60000C94B40E0C94CF0E882371F4772321F0D9
:101D70009850872B762F07C0662311F499270DC042
:101D80009051862B70E060E02AF09A95660F771FDD
:101D9000881FDAF7880F9695879597F908959F3FE2
:101DA00031F0915020F4879577956795B795880F16
:101DB000911D9695879597F908950E94300DA0F092
:101DC000BEE7B91788F4BB279F3860F41616B11D1B
:101DD000672F782F8827985FF7CF86957795679537
:101DE000B11D93959639C8F30895A1E21A2EAA1B46
:101DF000BB1BFD010DC0AA1FBB1FEE1FFF1FA217BB
:101E0000B307E407F50720F0A21BB30BE40BF50BB7
:101E1000661F771F881F991F1A9469F76095709540
:101E2000809590959B01AC01BD01CF010895EE0F07
:101E3000FF1F0590F491E02D0994CF93DF9382303A
:101E4000910510F482E090E0E0912103F0912203EB
:101E500020E030E0C0E0D0E0309711F140815181C6
:101E600048175907C0F04817590761F482819381D8
:101E7000209719F09B838A832BC090932203809331
:101E8000210326C02115310519F04217530718F414
:101E90009A01BE01DF01EF010280F381E02DDCCF6A
:101EA0002115310509F1281B390B2430310590F437
:101EB00012968D919C9113976115710521F0FB018C
:101EC0009383828304C09093220380932103FD01B6
:101ED000329644C0FD01E20FF31F8193919322508B
:101EE00031092D933C933AC020911F033091200378
:101EF000232B41F420913B0130913C01309320038E
:101F000020931F032091390130913A0121153105A9
:101F100041F42DB73EB740913D0150913E01241B45
:101F2000350BE0911F03F0912003E217F307A0F4B3
:101F30002E1B3F0B2817390778F0AC014E5F5F4F1F
:101F40002417350748F04E0F5F1F5093200340932E
:101F50001F038193919302C0E0E0F0E0CF01DF9195
:101F6000CF9108950F931F93CF93DF93009709F4B8
:101F70008CC0FC01329713821282009121031091D0
:101F800022030115110581F420813181820F931FF5
:101F900020911F03309120032817390779F5F0931A
:101FA0002003E0931F0371C0D80140E050E0AE175A
:101FB000BF0750F412962D913C911397AD01211556
:101FC000310509F1D901F3CF9D01DA013383228371
:101FD00060817181860F971F8217930769F4EC0166
:101FE00028813981260F371F2E5F3F4F3183208391
:101FF0008A819B8193838283452B29F4F09322036A
:10200000E093210342C01396FC93EE931297ED01E7
:10201000499159919E01240F351FE217F30771F47E
:1020200080819181840F951F029611969C938E93C7
:102030008281938113969C938E931297E0E0F0E057
:10204000D80112968D919C911397009719F0F80181
:102050008C01F6CF8D919C9198012E5F3F4F820F9E
:10206000931F20911F03309120032817390769F42B
:10207000309729F4109222031092210302C0138298
:1020800012821093200300931F03DF91CF911F91C1
:102090000F910895A0E0B0E0E0E5F0E10C94550D5B
:1020A000EC01009721F4CB010E941D0FB8C0FC0188
:1020B000E60FF71F9C0122503109E217F30708F4DD
:1020C000ACC0D9010D911C91119706171707B0F0FC
:1020D0000530110508F49FC0C801049786179707BB
:1020E00008F499C002501109061B170B01931193B4
:1020F0006D937C93CF010E94B20F8DC05B01A01A3B
:10210000B10A4C01800E911EA0912103B0912203CF
:1021100040E050E0E12CF12C109709F44AC0A815DA
:10212000B905D1F56D907C901197630182E0C80EDE
:10213000D11CCA14DB0480F1A3014A195B096A01AE
:1021400082E0C80ED11C1296BC9012971396AC91E7
:10215000B5E0CB16D10440F0B282A3835183408313
:10216000D9016D937C930AC00E5F1F4FC301800F8E
:10217000911FF90191838083EB2DFA2FE114F10473
:1021800031F0D7011396FC93EE93129744C0F0936D
:102190002203E09321033FC08D919C911197481732
:1021A000590708F4AC017D0112960D90BC91A02D49
:1021B000B3CF80911F039091200388159905E1F416
:1021C00046175707C8F48091390190913A0100975A
:1021D00041F48DB79EB740913D0150913E01841B63
:1021E000950BE817F907C8F4F0932003E0931F0359
:1021F000F901718360830FC0CB010E941D0F7C0128
:10220000009759F0A801BE010E941911CE010E9449
:10221000B20FC70104C0CE0102C080E090E0CDB78C
:10222000DEB7EEE00C94710D81E090E0F8940C9430
:102230003211FB01DC0102C001900D92415050406F
:10224000D8F70895FB01DC018D91019080190110F0
:10225000D9F3990B0895FB01DC0101900D92002048
:10226000E1F7089510E0CCE6D0E004C0FE010E9442
:0E227000170F2196CD36D107C9F7F894FFCF8E
:10227E009600580296005802580296005802960090
:10228E000101000100FFFFFFFF0000000000000041
:10229E000096005802960058020000000000000050
:1022AE000058029600580296000000230380003268
:1022BE0000000000002B019800C3007201F400D250
:1022CE0000E6000000000081025102B10225024921
:1022DE00023502260270003200330034003500361B
:1022EE000037003800390031300031310062696743
:1022FE00676572206F7220736D616C6C6572210060
:0E230E0044697374616E63653A20000D0A0025
:00000001FF
